:020000022000DC
:1060000000000120756302005D6302005F6302000F
:106010006163020063630200656302000000000028
:1060200000000000000000000000000067630200A4
:1060300069630200000000006B6302006D630200F0
:106040006F6302006F6302006F6302006F63020000
:106050006F6302006F6302006F6302006F630200F0
:106060006F6302006F6302006F6302006F630200E0
:106070006F6302006F6302006F6302006F630200D0
:106080006F6302006F6302006F6302006F630200C0
:106090006F6302006F630200F96702006F63020022
:1060A0006F6302006F6302006F6302006F630200A0
:1060B0006F6302006F630200000000000000000038
:1060C0006F6302006F6302006F6302006F63020080
:1060D0006F6302006F6302006F6302000000000044
:1060E00000000000000000000000000000000000B0
:1060F00000000000000000000000000000000000A0
:10610000000000000000000000000000000000008F
:10611000000000000000000000000000000000007F
:10612000000000000000000000000000000000006F
:10613000000000000000000000000000000000005F
:10614000000000000000000000000000000000004F
:10615000000000000000000000000000000000003F
:10616000000000000000000000000000000000002F
:10617000000000000000000000000000000000001F
:10618000000000000000000000000000000000000F
:1061900000000000000000000000000000000000FF
:1061A00000000000000000000000000000000000EF
:1061B00000000000000000000000000000000000DF
:1061C00000000000000000000000000000000000CF
:1061D00000000000000000000000000000000000BF
:1061E00000000000000000000000000000000000AF
:1061F000000000000000000000000000000000009F
:10620000354936480A1A02D0072291438D4634494F
:1062100034480A1A06D00722914381F309880222E2
:1062200082F3148830483149314A00F044F831484B
:106230003149324A00F03FF831483249324A00F0E1
:106240003AF832483249334A00F035F83248334997
:10625000334A00F030F833483349344A00F02BF821
:1062600033483449344A00F026F83448344900228F
:1062700000F02CF833483449002200F027F8334866
:106280003349091A082902DB002202604160314AC1
:1062900090471F481F49884205D00268043003B464
:1062A000904703BCF7E700208646EC46002000211B
:1062B000294A9047FEE7884207D0521A05D0037852
:1062C00001300B700131013AF9D17047884202D098
:1062D00002700130FAE770470000012000E0002062
:1062E000000001200000012070680200B857002063
:1062F000BC570020D4630200D4630200406802004F
:1063000070680200B8570020B857002048680200A3
:1063100048680200486802004868020048680200B5
:10632000486802004868020048680200706802007D
:1063300074680200BC570020BC570020BC570020E6
:10634000BC570020BC570020BC570020BC57002081
:10635000BC7700209D630200E5640200FEE7FEE7D3
:10636000FEE7FEE7FEE7FEE7FEE7FEE7FEE7FEE705
:10637000704700BF1048804710484FF0070188431E
:1063800085460F4880470F48016841F4700101605D
:10639000BFF34F8FBFF36F8FFFF732BF0A480B4930
:1063A0000B4A884207D0521A05D0037801300B708F
:1063B0000131013AF9D170477163020000000120F8
:1063C0007565020088ED00E048680200B8570020BB
:0463D000B85700209A
:1063D400044B1A5C012393404FF0A042C2F80835E5
:1063E400704700BF4868020008B50020FFF7F0FFBF
:1063F4000120FFF7EDFF0220FFF7EAFFBDE80840A8
:106404000320FFF7E5BF0000074A4FF0A041105CEE
:10641400D1F804350122824022EA03001340C1F876
:106424000805C1F80C35704748680200C20708B572
:1064340001460CD54FF0A0430322C3F84427C3F808
:106444004827C3F84C27C3F85027FFF7CDFF8B0725
:106454000AD54FF0A0430C22C3F83427C3F83827D9
:10646400C3F83C27C3F8402708BD1FB5002103909B
:1064740001AA44F20100CDE9011100F003F805B0CE
:106484005DF804FB72B6094BD3F8F020D20700D5AF
:1064940000BEBFF34F8FD968054A01F4E0610A4397
:1064A400DA60BFF34F8F00BFFDE700BF00ED00E0EF
:1064B4000400FA050B684A684360934208BF00234E
:1064C400016008BF43607047436843B10268916844
:1064D40052680B449342436004BF002343607047F7
:1064E40070B50120094DFFF7A1FF45F00105002417
:1064F4002046FFF789FF4FF4FA764FF47A40A84715
:10650400013EFAD10134042CF2D1F0E750680200C4
:106514004FF0704393F8E02F062A10D1D3F8E42FFC
:1065240012070CD1D3F8E80F00F0F003302B08D099
:1065340000F0E000A0F140035842584170470020A9
:106544007047012070474FF0704393F8E02F062AFC
:106554000CD1D3F8E42F120708D1D3F8E80F00F0D8
:10656400F000A0F1300358425841704700207047B2
:1065740008B5FFF7CDFF40B14FF08053884AD3F8F8
:106584002433C3F30423C2F84035FFF7DCFF10B112
:10659400844B854A5A67FFF7BBFF48B14FF08053DD
:1065A4004FF08042D3F84432C3F34233C2F83C354F
:1065B400FFF7C9FF30B17D4AD2F8FC3023F0807375
:1065C400C2F8FC30FFF7A4FF40B14FF08043002233
:1065D400C3F80C21C3F81021C3F83825FFF7B3FF23
:1065E40020B14FF080430322C3F8A025FFF7ABFF8F
:1065F40060B16F4B0522C3F810260122C3F8882628
:106604000022C3F818263F22C3F814264FF0704323
:1066140093F8E02F062A50D1D3F8E42F11074CD178
:10662400D3F8E83F03F0F003502B46D14FF08052EB
:10663400604BD2F80414C3F82015D2F80814C3F838
:106644002415D2F80C14C3F82815D2F81014C3F882
:106654002C15D2F81414C3F83015D2F81814C3F852
:106664003415D2F81C14C3F84015D2F82014C3F81A
:106674004415D2F82414C3F84815D2F82814C3F8E2
:106684004C15D2F82C14C3F85015D2F83014C3F8B2
:106694005415D2F83414C3F86015D2F83814C3F87A
:1066A4006415D2F83C14C3F86815D2F84014C3F842
:1066B4006C15D2F84424C3F87025FFF729FF48B1BC
:1066C4004FF080534FF08042D3F8583203F04F0319
:1066D400C2F8E43EFFF71CFF48B14FF08043D3F803
:1066E4000024D20744BF6FF00102C3F800244FF026
:1066F4008053D3F83021062A0AD1D3F83431062B3B
:1067040001BF2D4AD2F83C3743F48063C2F83C37CA
:10671400264AD2F8883043F47003C2F88830BFF3B5
:106724004F8FBFF36F8F4FF01023D3F80022002A4E
:1067340003DBD3F80432002B2EDA204B0122C3F8FA
:106744000425D3F80024002AFBD04FF01022152191
:10675400C2F80012D3F80024002AFBD04FF0102313
:106764001522C3F80422154BD3F80024002AFBD0C9
:106774000022C3F80425D3F80024002AFBD0BFF379
:106784004F8F0A490E4BCA6802F4E0621343CB6090
:10679400BFF34F8F00BFFDE70A4B0B4A1A6008BDD9
:1067A4000030014000C007400DF0ADBA00ED00E03C
:1067B4000050004000C000400010004000E00140D4
:1067C4000400FA05B85700200090D00307B5084923
:1067D4006846FFF76FFE019B13B903B05DF804FB35
:1067E400D3E9002090476846FFF76EFEF3E700BF49
:1067F40058680200FFF7EABF4BDF70471FB50E4C25
:1068040001A8FFF7F9FF70B9214602A8FFF752FE6D
:10681400039B002BF4D00198D3E90021904702A8F0
:10682400FFF752FEF4E7052804D004B0BDE8104099
:0C683400FFF71BBE04B010BD646802003A
:086840000168020000000000E5
:1068480011121314000000000338FDD8704700002F
:106858004068020048680200080000004068020022
:08686800406802000800000076
:046870000090D003C1
:040000032000637501
:00000001FF
