:020000022000DC
:1060000000000120756302005D6302005F6302000F
:106010006163020063630200656302000000000028
:1060200000000000000000000000000067630200A4
:1060300069630200000000006B6302006D630200F0
:10604000798602006F630200C18A02006F6302005A
:106050006F6302006F630200498902006F630200F0
:106060006F6302006F6302006F6302006F630200E0
:106070006F6302006F6302006F6302006F630200D0
:106080006F6302001D7102006F6302006F63020004
:10609000B97102006F630200F5B002006F63020085
:1060A0006F6302006F6302006F6302006F630200A0
:1060B0006F6302006F630200000000000000000038
:1060C0006F6302006F6302006F6302006F63020080
:1060D0006F6302006F6302006F6302000000000044
:1060E00000000000000000000000000000000000B0
:1060F00000000000000000000000000000000000A0
:10610000000000000000000000000000000000008F
:10611000000000000000000000000000000000007F
:10612000000000000000000000000000000000006F
:10613000000000000000000000000000000000005F
:10614000000000000000000000000000000000004F
:10615000000000000000000000000000000000003F
:10616000000000000000000000000000000000002F
:10617000000000000000000000000000000000001F
:10618000000000000000000000000000000000000F
:1061900000000000000000000000000000000000FF
:1061A00000000000000000000000000000000000EF
:1061B00000000000000000000000000000000000DF
:1061C00000000000000000000000000000000000CF
:1061D00000000000000000000000000000000000BF
:1061E00000000000000000000000000000000000AF
:1061F000000000000000000000000000000000009F
:10620000354936480A1A02D0072291438D4634494F
:1062100034480A1A06D00722914381F309880222E2
:1062200082F3148830483149314A00F044F831484B
:106230003149324A00F03FF831483249324A00F0E1
:106240003AF832483249334A00F035F83248334997
:10625000334A00F030F833483349344A00F02BF821
:1062600033483449344A00F026F83448344900228F
:1062700000F02CF833483449002200F027F8334866
:106280003349091A082902DB002202604160314AC1
:1062900090471F481F49884205D00268043003B464
:1062A000904703BCF7E700208646EC46002000211B
:1062B000294A9047FEE7884207D0521A05D0037852
:1062C00001300B700131013AF9D17047884202D098
:1062D00002700130FAE770470000012000E0002062
:1062E0000000012000000120DCC80200E02900209D
:1062F000E42C0020D4630200D463020054B70200EF
:10630000DCC80200E0290020E029002044B8020097
:1063100044B8020044B8020044B8020044B8020085
:1063200044B8020044B8020044B80200DAC80200CF
:10633000E0CB0200E42C0020E42C0020E42C002020
:10634000E83E0020E83E0020E83E0020E83E002035
:10635000E85E00209D630200C19D0200FEE7FEE7AB
:10636000FEE7FEE7FEE7FEE7FEE7FEE7FEE7FEE705
:10637000704700BF1048804710484FF0070188431E
:1063800085460F4880470F48016841F4700101605D
:10639000BFF34F8FBFF36F8FFFF732BF0A480B4930
:1063A0000B4A884207D0521A05D0037801300B708F
:1063B0000131013AF9D170477163020000000120F8
:1063C0009580020088ED00E044B80200E02900203A
:0463D000E0290020A0
:1063D4007047000007B5044B0093044A402300F0C3
:1063E40032F803B05DF804FBF5630200E52C0020ED
:1063F4002DE9F84388461446B2B10F4B0F4E0325DE
:10640400002743F00109224608EB0701002003F0AE
:106414000DFE0744241A48B933782BB14FF47A405F
:10642400C847013D02D13570BDE8F88301233370BC
:10643400002CE8D1F8E700BF50B80200E42C00209B
:10644400704703F023BEF0B595B01D4616460846C6
:106454000C4601F0DFFC1A9B0D93CDE9086500257D
:106464002B46082205A920460A958DF82C500C9538
:1064740001F0ECFC079B0293069B03939DF81430F8
:106484008DF8115003F00302012A1DD1BDF8142028
:10649400059DC3F3C203C2F383168DF81030B20016
:1064A40008230EA9204601F0D1FCC5F3952508ABBD
:1064B4000093324602AB0EA9284600F06DFB20463D
:1064C40001F0ACFC15B0F0BD022AF8D1BDF81650AD
:1064D400C3F3C203C5F389158DF810300827082DBE
:1064E4002E4628BF08263B4632460EA9204601F018
:1064F400ADFCAD1B08AB02AA31460EA8374400F030
:10650400AFFB002DEBD1DAE708B5FFF79AFF04489B
:10651400042100F0ABFA034B01225A7108BD00BFFD
:1065240034B80200E0290020037813F0040216D0E6
:1065340003F00303012B03D0022B09D00120704781
:106544000A6800880232C0F3831002440A60F5E747
:106554000B684288023303EB92130B60EEE710469C
:10656400704700002DE9F04FDFF830A187B00F46E7
:1065740000230446861C0DF1070015468DF80730EC
:1065840001F01AF9DAF800103960DAE9013213443B
:1065940001335B1A0AF21C470AF583690AF21448AC
:1065A400B3421CD30020002D73D004F00F039B01D1
:1065B40043F0050363F30F00DAF80020DAF808303B
:1065C4001340033332444AF823009DF80700CAF805
:1065D400002001F015F9012007B0BDE8F08F01217A
:1065E400384601F046F9484601F05BF9404601F0AF
:1065F40058F9DAF80400DAF808B0029000EA0B005F
:1066040003300AEB800002A9FFF78EFF029B50BB08
:106614000BEA03020AEB820203F1020CD268039232
:10662400013303EA0B0B0AEB8B0B02F00302012A82
:10663400DBF80C10CDF808C023D0022A16D083460C
:10664400404601F031F910B1029BCAF804305946B2
:10665400384601F00EF9DAE901231344DAF8002090
:1066640001339B1A9CE70BEA0300C9E7BDF80E301F
:10667400C3F3891303334FEA114B0CEB93030293D7
:10668400DEE7BDF80C30C3F383134FEA114B6344C8
:10669400F5E7A40544F006008EE700BFF82D0020BE
:1066A4000B4B0C48FF2210B59A600022C3F8182443
:1066B400C3E90022C3F8142483F8202401F063FB07
:1066C400044610B9044801F063FC204610BD00BF25
:1066D400F82D0020D8B702008CB8020030B50A4C5F
:1066E40071B10A4A0A49121BD20800239A4201D105
:1066F400002030BD31F82350854202D00133F5E744
:10670400034654F83300F4E760B70200D8B7020038
:10671400E0290020094B013903EBC000032909D803
:10672400DFE801F00A02040604207047007970478C
:1067340040797047002070470220704760B702001C
:10674400034BD3E90030C31A58425841704700BF85
:10675400F82D00202DE9F04387B0FFF7F1FF06463E
:10676400002840F0FE80804CC4F81804BFF34F8F1B
:106774006368A56802932B40033304EB830002A9EA
:10678400FFF7D2FE029B18B1D4F81824002A62D075
:1067940005EA0302991C013304EB82022B4004EB4B
:1067A4008303D268DB68049302F00303022B039291
:1067B400029163D1BDF80E306C48C3F38917502F92
:1067C400B84628BF4FF0500808F1080168F38F134A
:1067D400C1F30901ADF80E3001F0EDFA06460028C8
:1067E40000F0AA8001F016FB0023082203A930461A
:1067F40001F022FB029925EA01020132B8EB820F73
:106804004FEA820333D95FFA88F863B32940DDB2D3
:10681400A8EB050803315FFA88F9A846544D04EB48
:10682400810108234246304601F006FB3DB108F1E0
:106834000803DBB24A462946304601F0FDFA029BC2
:10684400033703EB97070297D4F81834002B4BD186
:10685400D4F810545BE022689A428CD862603046C7
:1068640007B0BDE8F08342491D469946D9E729405F
:1068740003310823424604EB8101DDE7012B5BD1A0
:10688400BDF80C303948C3F38311062928BF06210B
:1068940061F38913023101F00F018900ADF80C3066
:1068A40001F089FA0646002846D001F0B3FA002325
:1068B400082203A9304601F0BFFA0027BDF80C20D6
:1068C400C2F38312BB00974203F10803BCD20299BE
:1068D4004A1C29400331029204EB81010422304610
:1068E40001F0AAFA0137E9E7304601F097FAFFF719
:1068F40027FF80F00100C6B2B1E7EB685B7923B1F2
:106904002B6831461B6828469847EB681D68002DA4
:10691400F3D1304601F082FA0DF107008DF80750EB
:1069240000F04AFFD4F818340BB9029B63609DF859
:10693400070000F065FFDAE7D4F8104454B90D4BB2
:106944000D480E49C01AC008000440F0020000F0CF
:1069540063F8CCE7236820469B689847E3681C6883
:10696400ECE700267BE700BFF82D0020D8B7020033
:10697400042E002060B7020088B7020074B8020039
:106984002DE9F74F224E04460F46924601A90122F3
:106994001846D6F808909B46FFF7E4FD20B3019D06
:1069A4004FF00008AA1CD84508EB020126D119486B
:1069B400002100F03BFF80F31000000440EA144083
:1069C400E4006B1C04F0380403EA090305EA090532
:1069D40044F0010406EB8303033544EA881444EAD3
:1069E4008724D86046F8254096F820341BB1FFF779
:1069F400B1FE0028FBD103B0BDE8F08F09EA010124
:106A040006EB81015AF82830CB6008F10108CAE787
:106A1400F82D00201432002000231A46FFF7B0BFDF
:106A240007B50123019201AAFFF7AAFF03B05DF89D
:106A340004FB07B5CDE9002302236A46FFF7A0FF54
:106A440003B05DF804FB7FB5CDE90023089B0293F6
:106A5400099B03930A9B04930B9B05936A460623A5
:106A6400FFF78EFF07B05DF804FB000030B50F4C54
:106A7400D4F8102403460020114631B9D9680871AE
:106A84004AB9C4F810340A6030BDC9680D7985422A
:106A940006D00968F1E7D26814680C601360F3E764
:106AA40001300A28E8D14FF0FF30EDE7F82D00203F
:106AB40038B5084B0125D3F8104483F8205404B9A1
:106AC40038BDE3685D71236820465B689847E368D6
:106AD4001C68F4E7F82D002030B5C38885B004465F
:106AE4000D4633B1144A00921449154A284600F061
:106AF4003EFF217A05291DD0637A4BB1A088FFF7A8
:106B040009FE104B104953F82020284600F02FFFAF
:106B1400227A0E4BA08853F8222003920021FFF71B
:106B2400DDFD039A0A490346284605B0BDE8304016
:106B340000F01DBF05B030BDB8B80200A0B8020017
:106B440098B8020024B90200BDB8020048B9020096
:106B5400C0B8020007B503460846197A052911D0C2
:106B64005B7A2BB1094A0A49019000F000FF0198B1
:106B74000849019000F0FBFE019803B05DF804EBB6
:106B840000F0EABE002AF8D0F2E700BFB8B802006D
:106B9400BDB80200B5B802002DE9F04385B01F4628
:106BA4000C9D002395F80C902B7306460C469046DA
:106BB40029463846FFF790FFB8F1060F09D8DFE8F9
:106BC40008F00412181F283340003146284600F00C
:106BD400CEFE002229463846FFF7BCFF85F80C900C
:106BE40005B0BDE8F08322683146284600F0BFFEB8
:106BF400EFE7D4E900233146284600F0B8FEE8E781
:106C0400A36800933146D4E90023284600F0AFFE80
:106C1400DFE7E3680193A36800933146D4E90023D6
:106C2400284600F0A4FED4E723690293E3680193A5
:106C3400A36800933146D4E90023284600F097FE68
:106C4400C7E76369039323690293E3680193A36825
:106C540000933146D4E90023284600F088FEB8E7C3
:106C640008292DE9F74F80460E4617461C463DD8A5
:106C740000251B7B2573214610460193FFF72CFF4B
:106C8400DFF88CA0DFF88CB0AE4232D918F80520BA
:106C94005946204600F06BFE0135082DF4D11B49FE
:106CA400DFF874A0DFF874B0204600F060FE4FF007
:106CB40000094E4524D918F809507E2D1ED82846BF
:106CC40004F03EFC002814BF2A462E2259462046D2
:106CD40000F04DFE09F10109B9F1080FE9D10122D3
:106CE40021463846FFF736FF019B237303B0BDE806
:106CF400F08F5146204600F03AFECDE72E22E5E71C
:106D04005146204600F033FEE4E700BFD4B8020049
:106D1400D0B80200CAB80200D2B80200D6B8020045
:106D24002DE9F84F2F4F304E4FF000082F4B1B78B2
:106D34005FFA88F5AB4201D8BDE8F88FD7F8009028
:106D440019F835000124A0F12002C0F1200304FA4F
:106D540002F224FA03F31343D6E9001204FA00FC06
:106D640001EA0C0B02EA030E5BEA0E0E09EBC50AFC
:106D740035D021EA0C0122EA0303C6E9001301F02D
:106D8400D7FD024619F83500194DA0F12003C0F1D2
:106D9400200124FA01F104FA03F30B43D5E900C1FD
:106DA400C0F120050B40A0F1200122FA05F5844032
:106DB40002FA01F1294304EA0C0402FA00F58B42B9
:106DC40008BFAC420BD1DAF8043043B19AF8011091
:106DD4004C1E614261418D1A69426941984708F12C
:106DE4000108A3E7F0320020E8320020B43200208A
:106DF400E0320020F8B507461E4800F0C1FBB8BBDE
:106E040001251D4EA7F12004C7F1200325FA03F341
:106E140005FA04F41C43D6E90023BD4002EA050048
:106E240003EA040101431DD1384601F081FD134BEF
:106E3400D3E9001288B129432243C3E90012D6E9F9
:106E440000232A432343C6E900230D4B094819684C
:106E54000022BDE8F84000F04BBB21EA050122EA1C
:106E64000402EAE722EA050223EA0403C6E900234E
:106E7400F8BD00BFBC320020E8320020E032002020
:106E8400B8320020042A2DE9F34105460C46164683
:106E94003BD901F085FCE8B11D4B1E491D601E4B1A
:106EA400DFF888801C701D4B00221E600023C1E99E
:106EB40000231B49C1E90023013CE4B20026032757
:106EC400FF2C0ED1174A1848002102B0BDE8F0414A
:106ED40000F0FCBA01F034FC0028DDD002B0BDE8BB
:106EE400F08105EBC40315F834009B788DF8066037
:106EF400424601A98DF804708DF8053001F05AFC62
:106F0400013CE4B20028DBD0E8E70720E6E700BF55
:106F1400F0320020E0320020B4320020B8320020E9
:106F2400E8320020256D02005CB90200F96D020010
:106F340070B5084D084E00242B789C4201D30020E4
:106F440070BD3368012113F8340001F0ABFC013447
:106F5400F2E700BFB4320020F03200201FB5002158
:106F6400039001AA44F20100CDE9011100F004F8F4
:106F740005B05DF804FB000038B572B6FFF798FD64
:106F8400FFF7E8FB0028FBD1104B114C114D1249BF
:106F9400E41AE408240444F00100FFF73DFDD5F8A9
:106FA400F030DB0700D500BE0C4944F00200FFF7C7
:106FB40033FDBFF34F8FEA68094B02F4E0621343D9
:106FC400EB60BFF34F8F00BFFDE700BF60B7020067
:106FD40088B7020000ED00E060B902006CB902005D
:106FE4000400FA0549B152B1531E1A4007D1826018
:106FF40001608380C260104670470E2070470920EC
:10700400704710B58468C2688388121B934208D302
:10701400C26813400268D154C3680133C3600020BE
:1070240010BD0420FCE78268C3689A420AD08268D3
:10703400838813400268D35C0B70836801338360D8
:107044000020704705207047094B5A78997801321F
:10705400D2B2914208BF0022197891421FBF027038
:107064005878182202FB003014BF04300020704707
:10707400F432002073B5054600240DF107000E46D6
:107084008DF8074000F098FB0DF10600FFF7DCFFD8
:1070940090B10670094B9DF8062045605A709DF822
:1070A400070000F0ADFB24B9054B4FF48012C3F880
:1070B4000021204602B070BD0424F0E7F432002021
:1070C40000E100E0024B4FF43C6043F00103184739
:1070D40080B9020038B50C4B0C4C4FF40032C3F8A5
:1070E400802001254FF48033C4F84833C4F80833B2
:1070F4006560FFF7E7FF064BA56000241C60FFF7FF
:10710400E1FF044B1C7038BD00E100E000100140B9
:107114001034002001340020F8B51F4B1F491B68B0
:107124000025C1F84051C1F84451C1F84851C1F893
:107134004C51C1F80051C1F804514BB3D1F8044586
:1071440017490968641A24F07F442F461A68A2423A
:1071540009D8A41A15441A7CDE691AB1D3E90520AA
:107164001F749047AEB90F4A0F4B11781B788B42AE
:1071740005D10133DBB2022B08BF00231370127850
:107184000A4B43F822500A4B4FF48012C3F80021F3
:10719400F8BD3346DAE700BF143400200010014084
:1071A400103400200D3400200C340020043400205E
:1071B40000E100E02DE9F04FA14AA24913780978D3
:1071C400A14D994285B03CD00133DBB2022B08BFFC
:1071D400002313709D4912789D4B0F6853F82200C9
:1071E4003B1823F07F4300220B602B68164614469D
:1071F400944613B942B12B6006E0196881420ED956
:1072040002B12B60091A196001272B68DFF848A224
:1072140001934FF00008BEB9DFF844B260E0401AB1
:107224000C44D968D3F81CE0C3F800C031B13A1952
:1072340022F07F42C3E90121DE611E46734601222A
:10724400D7E700263746E0E73446F6697F4B6068A7
:107254001B68DFF810C2A168C21A22F07F4262459F
:1072640000F2A6800A442260012222742A680023C4
:10727400C4E90133E361002A40F0A3802C60CAE72B
:107284009BF802105A1CD2B291428BF8002004BF22
:1072940000228BF80020182202FB03B32A68197914
:1072A4009C68022975D003297FD0012918D1207C3C
:1072B400B0B9D3E90312A2605A69E2609A69654BD6
:1072C400A2611A78002A18BF01466160BEE78C42A9
:1072D40000F094808946C9690029F8D100232374F9
:1072E4009BF800309BF801209A42C9D12B68B8F171
:1072F400000F04D1019A9A4201D1002F43D0002BF0
:1073040079D0D3F800A0544D504BD5F804751C68BF
:10731400DFF854813E1B98F8003026F07F46033690
:107324009BB94FF48033C5F84433C5F804334B4B51
:107334004FF400324FF00109C3F880211A60C5F8F8
:107344000090FFF7BFFE88F80090B2452CBF54446C
:10735400A41924F07F44C5F84045D5F80435DB1B57
:1073640023F07F43E41B033324F07F44A3420AD970
:10737400D5F80435C5F84035FFF7A4FE374B4FF474
:107384000032C3F80021334B00221A7005B0BDE867
:10739400F08F114691469FE71174D2690123002AA8
:1073A400FAD1002B9CD02A609AE700231946F6E70D
:1073B4001B1A23F07F438B4234BFCB1A0023236074
:1073C40052E721681368994213D85B1A1360E2618B
:1073D40054E7091AD8691A4638B10346186888422E
:1073E400F7D3401A1860184613462160E061DC6147
:1073F40011E71346F2E7FFF76DFEC4E74C4511D1E0
:10740400D3692B6073B9DFF844E00120CDE902129F
:10741400CAF80800CEF800300E4B1870FFF752FE81
:10742400DDE902120B68C969C9F81C1011B10868BA
:1074340003440B602B68934218BF4FF001084DE7DB
:107444000C3400200D3400201434002010340020AB
:1074540004340020003400200010014000E100E06A
:10746400F4320020FEFF7F000134002008B5FFF74E
:1074740031FE104B00200B2218809A700E4B1860BE
:107484000E4B18700E4B18700E4B4FF48012C02127
:10749400C3F8802183F814131A6002F18042A2F524
:1074A4006F22C2F8080583F81113074BD2F804259C
:1074B4001A6008BDF4320020143400200C3400207B
:1074C4000D34002000E100E010340020074B9B78CD
:1074D4004BB132B128B10368187C20B959745A6190
:1074E4007047072070470820704700BFF43200201F
:1074F4002DE9F743DFF8848098F8023005460E46FC
:107504001746ABB3A0B3042930D9436983B3437C92
:107514000024012B0DF107000CBF8946A1468DF80C
:10752400074000F049F90DF10600FFF78DFDD8B1D1
:10753400012303700F4B4560D3F80435C0E9049769
:10754400C0E902369DF8063088F801309DF807003E
:1075540000F056F924B9084B4FF48012C3F8002107
:10756400204603B0BDE8F0830424EFE70724F7E7DF
:107574000824F5E70010014000E100E0F4320020A7
:10758400064A92783AB130B1426922B100220274BB
:107594000221FFF76FBD0820704700BFF4320020BE
:1075A4000648074A03780749D35C012213B1043023
:1075B40001F0C8BE0C3001F0ABBC00BFE8290020CC
:1075C4007C340020403400200648074A03780749E9
:1075D400D35C012213B1043001F06CBE0C3001F015
:1075E40049BC00BFE82900207C340020413400203D
:1075F40037B50578012D0DD0022D2ED005BB1E49BF
:107604001E48FFF710FD002832D103B0BDE830401A
:10761400FFF7DABF43681A4C19782046FFF7F1FCEC
:1076240080B18DF800500190164B68461B6898474E
:10763400A168E368A2885B1A9A420AD3FFF7B0FFF5
:1076440003B030BDA268E3689A42F1D08DF800001F
:10765400EAE70D4B01221A70F2E7C3688DF8005077
:107664000193FFF79DFF074B68461B689847E7E7C0
:1076740003238DF80030F6E7413400203034002035
:107684001C340020183400202C340020F0B51F4690
:10769400234B89B004461A600D4600293DD08A88E0
:1076A40020480968FFF79EFC002834D1AA89A968FC
:1076B4001D48FFF797FC00282DD11C4E0FCE6D46B8
:1076C4000FC596E80F0085E80F0063690693237CD5
:1076D400174A18488DF81C70003B18BF01238DF819
:1076E4001430637C002B14BF0E2300238DF8153057
:1076F400E3680293A368039323680193694663686C
:10770400009300F051FF30B90B4B1870236801331C
:1077140001D0FFF745FF09B0F0BD0720FBE700BF2C
:10772400183400201C3400203034002088B90200B2
:10773400F5750200E82900202C34002070B5084DAE
:10774400014608482E78FFF76EFC044636B1002344
:107754002B70FFF725FF08B1FFF700FC204670BD32
:107764002C3400201C34002010B501460E48FFF7CD
:1077740048FC0446A8B90D480D4A0378D35C63B1AC
:10778400043001F08BFD60B90A490748FFF74BFC50
:1077940038B9BDE81040FFF717BF0C3001F05EFBAD
:1077A400F1E7204610BD00BF30340020E829002056
:1077B4007C3400204134002070B5EFF3108672B69B
:1077C4000C4A946801239CB993600B4B0B4DD3F87E
:1077D400801029401160C3F88050D3F884105160A0
:1077E4004FF0FF32C3F88420047006B962B670BD4E
:1077F4000370FAE74434002000E100E0FC06FFBD1A
:10780400084B9A6810B55AB150B9EFF3108172B6AB
:10781400054A1C6814605C685460986001B962B6DB
:1078240010BD00BF4434002000E100E010B5034661
:1078340053E8000F0A4643E8002494F0000FF7D100
:1078440010BD10B5034653E8002F42EA010043E897
:10785400000494F0000FF6D110BD10B5034653E8B0
:10786400000F00EA010243E8002494F0000FF6D16F
:1078740010BD10B5034653E8002F02EB010043E8A6
:10788400000494F0000FF6D110BD10B5034653E880
:10789400002FA2EB010043E8000494F0000FF6D19E
:1078A40010BD0121FFF7CDBF0021FFF7D6BF10B5F2
:1078B40090B1D0E9012301689B1ADBB20A60013B55
:1078C400DBB2FF2B026802D10020107110BD1168D9
:1078D4004C1C14600B70F2E70E20F7E737B5054631
:1078E40000240DF107008DF80740FFF765FF2A68B3
:1078F4006B68116899420ED9481E106011F8013C5A
:10790400EC68298A01FB0344AB6811791B1ADBB2CA
:10791400994238BF13719DF80700FFF771FF2046A5
:1079240003B030BD37B5054600230DF107000C4602
:107934008DF80730FFF740FF2A681368591C11605F
:10794400E968641A298AB4FBF1F41C709DF80700F5
:10795400FFF756FF03B030BD826810B504462AB164
:1079640043690168006998470023A36010BD0EB401
:1079740003B5039921B104AB01AA019300F076F891
:1079840002B05DF804EB03B070470A2938B5044629
:107994000D4602D10D21FFF7F8FFA3682268591C98
:1079A400A160D554D4E901329A4204D32046BDE8FB
:1079B4003840FFF7D1BF38BD2DE9F84F9846DDE9CF
:1079C4000A43154682460F460A464FF00109AA4269
:1079D4000FD2C14538BFC14613F0010B01D16CB9B8
:1079E40000240126B8F1010F1BD908F1FF386E43BA
:1079F400F8E709F10109B2FBF5F2E8E79B070ED5B8
:107A0400B8F1000F0CBF30262026A145E9D2013C75
:107A140031465046FFF7B9FF002CF6D1E0E72026A7
:107A2400F3E7B7FBF6F39D42E1D9DFF83C80B7FBFF
:107A3400F6F3504618F8031006FB1377FFF7A5FF7B
:107A44003346AB42B6FBF5F6F1D2BBF1000F02D0E0
:107A54000CB1A14501D3BDE8F88F20215046013C6B
:107A6400FFF793FFF4E700BFA8B902002DE9F74F31
:107A7400054617468846002900F03E8118F8011B88
:107A840049B92B7B002B00F03781284603B0BDE8B1
:107A9400F04FFFF761BF252940F0B780002698F822
:107AA40000302D2B424608F1010823D0302B24D07E
:107AB4002B2B25D000242A2B02F1010123D13B6872
:107AC4001A1D1B683A601C440A4613782E2B26D1D3
:107AD40001324FF0000A104610F8011BA1F1300CDE
:107AE400BCF1090F1DD80A2303FB0A13A3F1300AC2
:107AF4000246F0E746F00106D1E746F00206CEE77B
:107B040046F00406CBE711F8013CA3F13000092844
:107B1400DBD80A2202FB0434303C0A46CBE74FF0A0
:107B2400000A12F8011B01F0FB0068289046F8D007
:107B3400782909D86F290CD8632962D022D825293D
:107B440063D0582900F0888098F80030002B95D134
:107B540097E770390829F7D801A353F821F000BF3B
:107B6400D77C02004D7B02004D7B02006D7C02003D
:107B74004D7B02004B7C02004D7B02004D7B0200DA
:107B84005D7C0200642901D06929DDD13A68D2F80C
:107B94000090111D89EAE9723960A2EBE9724FF095
:107BA400010B092A35DCD34538BFD3462CB1B9F1D2
:107BB400000F01DB720700D5013CB30702D5BAF10F
:107BC400000F03D0F00701D44CBB0024B9F1000F1F
:107BD4002DDAC9F100092D212846FFF7D6FE06F05B
:107BE4000302022A04D1BAF1000F01D11CBB002404
:107BF400CDE9004653460A2249462846FFF7DCFEF3
:107C0400A2E73B681A1D19783A602846FFF7BDFEC3
:107C14009AE70A230BF1010BB2FBF3F2C1E7A34588
:107C2400D4D220212846013CFFF7AFFECCE77107F0
:107C3400D5D52B21D0E7A345DAD230212846013C03
:107C4400FFF7A3FED2E73968CDE900460A1D3A6082
:107C540053460A220968D0E739680A1D3A60CDE91B
:107C6400004653461022F5E73B681A1D3A6016F0A9
:107C74000106D3F8009024D1B9F1000F03D048468F
:107C840003F034FD0646B4421DD809F1FF3919F852
:107C9400011F00293FF458AF2846FFF776FEF6E7A8
:107CA40028460136FFF771FE19F806100029F7D1AE
:107CB400A642BFF449AF20212846013CFFF765FEE8
:107CC400F6E70026F0E720212846013CFFF75DFE99
:107CD400D9E73B681A1D3A60302128461C68FFF733
:107CE40054FE78212846FFF750FE00220823CDE9F0
:107CF40000322146102280E703B0BDE8F08F00BFB8
:107D04002DE9F84FB0F806A04579D2F800B09DF8F7
:107D140028900AFB05F5043D88460BEB0301A942B4
:107D240003F1040488BFA5EB030BB4FBFAF6074682
:107D34000AFB1644C2F800B04EB9AAEB04055D452F
:107D440028BF5D46BBF1000F04D1BDE8F88F3F6842
:107D5400013EF1E7043408EB06003C442A46B9F13D
:107D6400000F0DD02146ABEB050B03F041FCDA45C7
:107D74002E443F6855464FF0000428BF5D46E1E7B6
:107D840001462046EFE7FFF792BDF8B54679014674
:107D9400721E0546002393422D6803D30024A64295
:107DA40002D8F8BD0133F6E70F682846FFF7BAFD9D
:107DB40001343946F3E72DE9F843068ACD1C07461A
:107DC400FFF78CFD043E35440446B5FBF6F5F0B1EF
:107DD4004FF48073EDB28380C680013D0760814615
:107DE4004FF00008A84512D23846FFF777FD064643
:107DF40048B163790133637108F10108C9F80000DF
:107E040007608146EEE72046FFF7BFFF3446204671
:107E1400BDE8F88301210430FFF72BBD10B5012123
:107E240004460430FFF731FDC0B220B92046BDE856
:107E34001040FFF7AABF10BD1FB5039200220092A5
:107E440003AAFFF75DFF05B05DF804FB1FB50392BD
:107E54000122009203AAFFF753FF05B05DF804FB6B
:107E640033DF704741DF7047064B10B500241C70A8
:107E7400054B1C60BFF35F8F0449054800F091F87F
:107E8400204610BD593400205C340020C4B90200DF
:107E94005034002007B500230DF107008DF807309A
:107EA400FFF78AFCF1EE103A23F09F03E1EE103A5B
:107EB400BFF35F8F0A4B4022C3F884219DF807006B
:107EC400FFF79EFC03F0FAF820B103B05DF804EB71
:107ED400FFF7C8BF20BF40BF20BF03B05DF804FB5D
:107EE40000E100E070B5244D044601212846FFF767
:107EF4009DFCBFF35F8F38B9042C0AD01F4B1A784E
:107F04001AB1BFF35F8F286070BD1D4A147001223F
:107F14001A701C4C1A4E6368BBB9FEF7C9FDFEF714
:107F240019FC0028FBD1164B1B78023B012B15D8FA
:107F3400BFF34F8F1449154BCA6802F4E062134330
:107F4400CB60BFF34F8F00BFFDE71B6830789847C5
:107F54000028D6D0204600F02EF8DCE703F0AEF877
:107F640008B1FFF77DFF4FF080430122C3F80025DD
:107F7400BFF34F8F20BFFDE75C340020593400204D
:107F8400583400205034002000ED00E00400FA05CD
:107F9400836800225A60C3E904229A60DA601A6096
:107FA40070470B684A684360934208BF002301602E
:107FB40008BF43607047436843B1026891685268E0
:107FC4000B449342436004BF0023436070470000A6
:107FD40010B50D49A1F59472914201D800200FE02B
:107FE4008C1AE30F03EBE4035B1002EBC30452F8B7
:107FF4003330834205D802D204F10802ECE760680A
:1080040010BD2146E8E700BFC8BE020008B5FFF76F
:10801400DFFF024B002808BF184608BD8ABD0200D6
:1080240010B50446C0B2FFF79FFB204610BD4FF0C9
:10803400704393F8E02F062A10D1D3F8E42F1207E7
:108044000CD1D3F8E80F00F0F003302B08D000F087
:10805400E000A0F1400358425841704700207047A7
:10806400012070474FF0704393F8E02F062A0CD19B
:10807400D3F8E42F120708D1D3F8E80F00F0F0008A
:10808400A0F1300358425841704700207047000067
:1080940008B5FFF7CCFF40B14FF08053884AD3F8BE
:1080A4002433C3F30423C2F84035FFF7DBFF10B1D8
:1080B400844B854A5A67FFF7BAFF48B14FF08053A3
:1080C4004FF08042D3F84432C3F34233C2F83C3514
:1080D400FFF7C8FF30B17D4AD2F8FC3023F080733B
:1080E400C2F8FC30FFF7A3FF40B14FF080430022F9
:1080F400C3F80C21C3F81021C3F83825FFF7B2FFE9
:1081040020B14FF080430322C3F8A025FFF7AAFF54
:1081140060B16F4B0522C3F810260122C3F88826EC
:108124000022C3F818263F22C3F814264FF07043E8
:1081340093F8E02F062A50D1D3F8E42F11074CD13D
:10814400D3F8E83F03F0F003502B46D14FF08052B0
:10815400604BD2F80414C3F82015D2F80814C3F8FD
:108164002415D2F80C14C3F82815D2F81014C3F847
:108174002C15D2F81414C3F83015D2F81814C3F817
:108184003415D2F81C14C3F84015D2F82014C3F8DF
:108194004415D2F82414C3F84815D2F82814C3F8A7
:1081A4004C15D2F82C14C3F85015D2F83014C3F877
:1081B4005415D2F83414C3F86015D2F83814C3F83F
:1081C4006415D2F83C14C3F86815D2F84014C3F807
:1081D4006C15D2F84424C3F87025FFF728FF48B182
:1081E4004FF080534FF08042D3F8583203F04F03DE
:1081F400C2F8E43EFFF71BFF48B14FF08043D3F8C9
:108204000024D20744BF6FF00102C3F800244FF0EA
:108214008053D3F83021062A0AD1D3F83431062BFF
:1082240001BF2D4AD2F83C3743F48063C2F83C378F
:10823400264AD2F8883043F47003C2F88830BFF37A
:108244004F8FBFF36F8F4FF01023D3F80022002A13
:1082540003DBD3F80432002B2EDA204B0122C3F8BF
:108264000425D3F80024002AFBD04FF01022152156
:10827400C2F80012D3F80024002AFBD04FF01023D8
:108284001522C3F80422154BD3F80024002AFBD08E
:108294000022C3F80425D3F80024002AFBD0BFF33E
:1082A4004F8F0A490E4BCA6802F4E0621343CB6055
:1082B400BFF34F8F00BFFDE70A4B0B4A1A6008BD9E
:1082C4000030014000C007400DF0ADBA00ED00E001
:1082D4000050004000C000400010004000E0014099
:1082E4000400FA05FC2900200090D003054A4FF051
:1082F400A043105CD3F8043523FA00F0C04300F027
:1083040001007047CCBE0200044B1A5C0123934069
:108314004FF0A042C2F80C35704700BFCCBE02003B
:10832400044B1A5C012393404FF0A042C2F8083575
:10833400704700BFCCBE020008B50020FFF7F0FF75
:108344000120FFF7EDFF0220FFF7EAFFBDE8084038
:108354000320FFF7E5BF08B50020FFF7D5FF012094
:10836400FFF7D2FF0220FFF7CFFFBDE8084003204C
:10837400FFF7CABF074A4FF0A041105CD1F804359B
:108384000122824022EA03001340C1F80805C1F823
:108394000C357047CCBE0200054A4FF0A043105C78
:1083A400D3F8103523FA00F0C04300F00100704701
:1083B400C8BE02000D2809D00E2809D00F2809D004
:1083C40010280CBF03204FF0FF3070470020704787
:1083D4000120704702207047014B185C704700BFB2
:1083E400C8BE0200C20708B501460CD54FF0A04331
:1083F4000322C3F84427C3F84827C3F84C27C3F81B
:108404005027FFF799FF8B070AD54FF0A0430C22A2
:10841400C3F83427C3F83827C3F83C27C3F84027E8
:1084240008BD000038B5074C051E04F1080318BF49
:108434001C4623682BB11A6822605B68284698475B
:10844400F7E738BD6834002020B9054B01225A7083
:10845400FFF7E8BF012802D1014A9070F8E770479E
:108464006034002020B9034B01225A70FFF7DABFB1
:10847400704700BF6034002038B50B4C237883B9B3
:108484000A486360A3602361E36000F0CBF805460B
:1084940002F014FE08B900F0D1F801232370284635
:1084A40038BD8525FBE700BF603400204D84020001
:1084B40037B50B4C00230DF107008DF80730FFF79B
:1084C4007BF9E368013BE360E56815B900F0C8F89F
:1084D400A5709DF80700FFF793F903B030BD00BF06
:1084E40060340020012813B508D003281CD018B923
:1084F400114B0122C3F8802002B010BD0F4C0023A1
:108504000DF107008DF80730FFF756F923780BB902
:10851400FFF7B2FFE3689DF807000133E36001232E
:10852400A370FFF76DF9E7E700F088F802B0BDE843
:108534001040FFF7BDBF00BF00E100E06034002041
:108544001FB503788DF800304368019383688DF874
:108554000830C368054A0393054B684653F8213035
:1085640052F82110984705B05DF804FB74340020DC
:10857400783400201FB503788DF8003043680193E8
:1085840083688DF80830C368054A0393054B684631
:1085940053F8213052F82110984705B05DF804FBD8
:1085A4007434002078340020F0B5194B90F800C0E2
:1085B40091F81DE043F82C20164B16460A6943F83F
:1085C4002C20154B03F80CE00C4607460FCC89B061
:1085D4006D460FC594E80F0085E80F00CDF810C074
:1085E400BEF1000F09D0002E0C4A694608BF32467E
:1085F400381D00F091FD09B0F0BD002E084A69460F
:1086040008BF324607F10C0000F06EFBF3E700BF31
:1086140078340020743400207C3400204585020026
:1086240079850200044A137923B9012110609180ED
:10863400184670478520704780340020074B1A681D
:10864400D2075FBFC02283F8002301221A604FF0D3
:1086540080430122C3F81825704700BF00E100E001
:108664004FF080430122DA60D3F81824D203FBD4FC
:10867400704700004FF0804307B5D3F800217AB16A
:108684000022C3F80021D3F800210092009A0122AD
:10869400C3F808230F4B587910B95A711B689847CF
:1086A4004FF08043D3F8042182B10022C3F804219F
:1086B400D3F804210192019A0222C3F80823054B3E
:1086C4001B68012003B05DF804EB184703B05DF8A4
:1086D40004FB00BF8034002000F1804000F5C0405E
:1086E400002382B0036003680193019B02B07047CA
:1086F400800000F1A040D0F8002722F44032C0F8F6
:108704000027D0F8003743EA0141C0F8001770474A
:10871400C208012300F0070003FA00F08B5C184341
:1087240088547047054B4FF0FF32072843F8202048
:1087340084BFC01880F84820704700BF88340020E8
:1087440038B5144D95F858400CBB2022FF2105F193
:10875400300002F076FFE0B20134FFF7E3FF0C2CA7
:10876400F9D10D4B0022C0216A6583F8061340211C
:1087740019604FF4BE70FFF7AFFF084B4FF0004194
:10878400C3F80413012385F85830104638BD082077
:10879400FCE700BF8834002000E100E000600040F6
:1087A400034B93F85800003818BF0120704700BFEE
:1087B400883400202DE9F041DFF8E48008EB000361
:1087C400054693F93030002B0F4664DA8B78C3F3F7
:1087D4004003002B0BBF082400240C2108218C42E9
:1087E40002D10420BDE8F08158F8240001303DD1C5
:1087F40008EB050166B248F8242081F830601BB903
:1088040008EB040383F84850BB785A070ED4D90701
:108814002ED5AB0003F1A043D3F8002722F00202C7
:10882400C3F800271D492846FFF772FFBB783A7842
:1088340013F0020325D0A40004F1804404F5C044DD
:108844002D02D4F8103523F4473323F44073C4F8CD
:1088540010351204D4F8103505F4F85502F44032FA
:1088640015431D43C4F810550020BBE70134B6E797
:108874007A7805F5E0734FF0A041920041F8232087
:10888400D0E7083E48FA86F696F8505045EA821238
:1088940086F85020E8E70820A4E700BFDC34002075
:1088A4008834002038B5204C251895F93020072A43
:1088B40018DD083A44FA82F494F850309B09032BEB
:1088C4000BD14FF0A043D3F81015C14001F00101C2
:1088D4000231BDE83840FFF70BBF012B0CBF02216A
:1088E4000321F6E7D3B2072B1DD8930003F180438D
:1088F40003F5C043D3F8100540F00100C3F8100598
:1089040002F1400040B2800080B2FFF7E5FE51B1B1
:1089140095F9303054F823302BB1012303FA02F2D5
:10892400024BC3F8042338BD8834002000600040A3
:108934004FF0A043D3F8103523FA00F000F0010003
:10894400704700002DE9F04F87B00024584D039480
:108954004FF48072012102F1804303F5C04390B2C9
:108964001B68012B06D1D5F804330B4202D0FFF764
:10897400B3FE0C430432B2F5907F4FEA4101EAD1D1
:108984004B4BD3F87C31012B0AD14FF4BE70FFF767
:10899400A3FE4FF0A04344F00044D3F810350393F2
:1089A400E3B2D3B1434F00250126344210D0AB00CB
:1089B40003F1804303F5C043D3F81005D3F8101531
:1089C40057F8253023B1C1F30141C0F3042098477F
:1089D4000135082D4FEA4606E7D1002C61DA002262
:1089E4004FF0FF33CDE90423DFF8C880DFF8C890E7
:1089F40000273E464FF0A04B19F9014B631C45D0AC
:108A0400C4F3C2030122E5B204F03F0004F00704FA
:108A140002FA04F406AA134413F8042C224235D0B3
:108A240008EB0002AD0992F9302058F822A0BAF1FF
:108A3400000F09D1032D29D104A901930090FFF758
:108A440067FEDDE9000301E0032DF5D000F5E071D8
:108A540013F80C3C5BF821102342C1F3014105D00B
:108A6400022913D1032D0CD1294604E003290DD189
:108A7400032D06D1022100900136FFF739FE00983C
:108A8400F6B2BAF1000F01D02946D0470137042FBE
:108A9400B2D136B14FF0A043039AD3F810359342C4
:108AA40002D107B0BDE8F08F0393049B05939DE7C3
:108AB4000060004088340020D8340020014B1B683B
:108AC400184700BFE43400200E4B984237B50C46DB
:108AD40002D0002003B030BD00230DF107008DF853
:108AE4000730FEF769FE084B1D7915B901221C6099
:108AF4001A719DF80700FEF783FE002DE9D01120BE
:108B0400E8E700BF00200040E43400200023435085
:108B140082B043580193019B02B070470A4610B5D6
:108B24004FF48E71FFF7F2FF136A9168C95C136A00
:108B340001331362C0F81C1510BD024608B5006865
:108B44004FF49271FFF7E2FF10684FF48471FFF75E
:108B5400DDFF136801221A6008BD8B690A4610B54F
:108B64004FF4847123B9FFF7D1FFD0F8183510BD45
:108B7400FFF7CCFF536AD168D0F81805C854536A7C
:108B840001335362F3E700001FB501238DF8003071
:108B9400044BCDE90110D3E900126846904705B0B3
:108BA4005DF804FBEC34002030B54D4DD5F80433AA
:108BB4009A0585B051D5D5F82431002B4DD04FF40A
:108BC40092712846FFF7A2FF4FF40173C5F80833EA
:108BD400444B93F829200AB901226A6040490222D1
:108BE4008DF80020D1F88024C1F8802403929A697A
:108BF4000292DA6801920022C3E906226846D3E9A8
:108C0400001290473648D0F81C315BB1354A116ADE
:108C1400536999424DD292F82830002B49D111461C
:108C2400FFF77CFF2E48D0F84431002B55D04FF489
:108C3400A271FFF76BFF2B4B93F829200AB1012295
:108C440002609A69002A48D0586AD96800229A6159
:108C540005B0BDE83040FFF797BFD5F804335B0794
:108C6400D0D5D5F80831002BCCD01E4C1C48214659
:108C7400FFF773FF636AA2699A42C3D1E369E168AB
:108C84004BB1A3612369E3600023606AE36163621B
:108C9400FFF77AFFB6E794F829300BB901236B602C
:108CA4000F4B4FF40172C3F808230023606AA361D9
:108CB400EEE74FF48E710A48FFF728FF5169002947
:108CC400B0D00023029191688DF800300191536176
:108CD4006846D2E900139847A4E705B030BD00BF49
:108CE40000200040EC3400202DE9F843564D90F864
:108CF40004802C2303FB0853064693F82A300C46C1
:108D04009146002B40F09B8050490068FFF7DCFE41
:108D14000746002840F0958022683068511C0BD02B
:108D24004FF0A04101239340C1F8083502F5E073E8
:108D34004FF0030C41F823C061684B1C1FBF01F5C1
:108D4400E0734FF0A04C4FF0000E4CF823E0A36901
:108D5400C0F8243594F814C0637DBCF1010F4CEACB
:108D64000303C0F86C35C0F81415C0F80C251DD1E8
:108D7400A268531C1FBF02F5E0734FF0A0414FF0EF
:108D8400000C41F823C0E368591C0BD04FF0A04CF1
:108D940001219940CCF8081503F5E0714FF0030E5A
:108DA4004CF821E0C0F80835C0F810252C2202FB4D
:108DB40008F2AB18C3F804902369AB50B9F1000F63
:108DC4002AD04FF48E71247FFFF7A0FE30684FF451
:108DD400A271FFF79BFE32681D4BC2F80433130BDC
:108DE40042F30732002AA8BF02F160404FEA44115F
:108DF400BABF184803F00F0400F56140C9B2B4BF0C
:108E0400015580F8001303F01F03012101FA03F355
:108E14005209114941F8223033680422C3F800256D
:108E24002C2303FB08530022C3E9062283F82920DC
:108E34005A61012283F82A203846BDE8F8830827BE
:108E4400FAE71127F8E700BFEC340020AD8B0200ED
:108E54008000020014ED00E000E100E00279044B20
:108E64002C2101FB02335869003818BF01207047D8
:108E7400EC3400202DE9F84F064689469246FFF768
:108E8400EDFF044600283DD196F804801F4F2C25A1
:108E940008FB057B4FF48E71CBF82000CBF814A0AF
:108EA4008BF82800CBF808903068FFF72FFE306865
:108EB400012383605946FFF731FEDBF804305D4639
:108EC40013BB30682A6A6B699A4211D33368D3F8AA
:108ED4001C21002AFBD00122DA6000202C2303FB92
:108EE400087700237B61BDE8F88F95F828303BB9FB
:108EF400D0F81C31002BF8D05946FFF70FFEE1E7FC
:108F04000F20EBE71120EEE72046ECE7EC340020DD
:108F14002DE9F0473A4D07792C2303FB0753064606
:108F24005C6824B103684FF40170C3F808032C2370
:108F340003FB0753986950B1D869002841D024B184
:108F440033684FF40172C3F80423112436E09A61A4
:108F5400D9605862D8612C2303FB075393F8293056
:108F64001BB910B93046FFF7E8FD4FF02C0808FB99
:108F7400075A3068DAF80430002B37D14FF4A27165
:108F8400D046FFF7C3FD3068D0F82491D0F80831FB
:108F9400D0F84441CBB914B9B9F1000FF3D02C2364
:108FA40003FB07550023AB61B9F1000F24D12CBB9F
:108FB40095F8291033680122B1B11A602046BDE842
:108FC400F0871961DA610120C5E7B9F1000FE6D134
:108FD400002CE4D14146FFF7C0FDDAF82430DAF87A
:108FE40018209A42CFD8DAE75A60E7E74FF40173C2
:108FF400C0F804330024E1E70324DFE70F24DDE7AE
:10900400EC3400200023435082B043580193019B69
:1090140002B070471FB501238DF80030044BCDE931
:109024000110D3E900126846904705B05DF804FBCF
:10903400183500207FB5364AD2F82461002E46D078
:1090440010464FF49271FFF7DDFF02238DF80030D4
:10905400D2F88034C2F880340393D2F83C350293BA
:109064002C4BDA6801920022C3E906226846D3E950
:10907400001290472648D0F8443173B14FF4A271DE
:10908400FFF7C0FF234B9A693AB10022C3E90622D5
:10909400D968D0F83C05FFF7BDFF1D48D0F8203152
:1090A4009BB14FF49071FFF7ADFF1A4B5A6962B14F
:1090B400D0F84C150291002299688DF80020019196
:1090C4005A616846D3E90012904704B070BDD2F8E3
:1090D4001031002BCED04FF488711046FFF792FF69
:1090E4000C4BD2F83C0599698842C3D1DC69D96834
:1090F40064B1D2F8005225F02005C2F800521A6972
:109104009C61DA60DE61FFF785FFB3E79C61FAE7F3
:1091140000200040183500202DE9F8435A4E90F8FD
:109124000480242303FB0863054693F820300C468F
:109134009146002B40F0A38054490068FFF7C4FC1B
:109144000746002840F09D8022682868511C0BD0F7
:109154004FF0A04101239340C1F8083502F5E073B4
:109164004FF0030C41F823C061684B1C1FBF01F58D
:10917400E0734FF0A04C4FF0000E4CF823E0A369CD
:10918400C0F8243594F814C0637DBCF1010F4CEA97
:109194000303C0F86C35C0F80C25C0F814151DD1B4
:1091A400A268531C1FBF02F5E0734FF0A0414FF0BB
:1091B400000C41F823C0E368591C0BD04FF0A04CBD
:1091C40001219940CCF8081503F5E0714FF0030E26
:1091D4004CF821E0C0F80835C0F81025242202FB21
:1091E40008F2B318C3F804902369B350B9F1000F1F
:1091F40034D04FF48871227FFFF704FF28684FF4BE
:109204009071FFF7FFFE28684FF49271FFF7FAFEA2
:1092140028684FF4A271FFF7F5FE2B681C49C3F8C8
:109224000413190B43F30733002BAEBF03F1604063
:1092340001F00F0417484FEA4212A8BF00F561403D
:10924400D2B2B4BF025580F8002301F01F010122FD
:1092540002FA01F15B09104A42F823102B68082234
:10926400C3F80025242303FB08660023C6E906335C
:109274007361012386F820303846BDE8F883082757
:10928400FAE71127F8E700BF1835002039900200EB
:109294001003020014ED00E000E100E00279044B49
:1092A400242101FB02335869003818BF012070479C
:1092B4001835002001F06043B3F1005F2DE9F04759
:1092C40006468846924635D190F80490FFF7E6FFAB
:1092D400044688BB1A4F3068242505FB09754FF4F2
:1092E4009071C5F814A0C5F80880FFF78BFE4FF401
:1092F400AC713068FFF786FE33686A69A968C3F801
:109304004415C3F8482501229A606A68B2B9D3F8B3
:109314002021D3F858014AB90028F8D00F2024237B
:1093240003FB097700237B61BDE8F087002818BFA1
:109334000F20F4E71020F7E71120F5E72046F3E7C4
:1093440018350020F8B501F06043B3F1005F04461E
:109354000F465ED10379304D242101FB0351496846
:1093640021B100684FF40476C0F80863242000FBA0
:1093740003539E6956B1D869002839D021B12368B6
:109384004FF40472C3F80423112030E09A61DF60C3
:10939400DE6120684FF48871FFF734FE20684FF4D3
:1093A400A271FFF72FFE2368C3F83475C3F838257C
:1093B40016BB01221A602479242202FB045252684B
:1093C4000ABBD3F81011D3F84421D3F82401114374
:1093D40002D10028F5D00A46242303FB04550023B8
:1093E400984218BF03209A42AB6118BF0F20F8BD02
:1093F4001F61DA610126CCE7D3F8002242F0200293
:10940400C3F80022D7E74FF40472C3F80423002002
:10941400EDE71020EBE700BF183500200220FEF72F
:10942400A9BF00002DE9F04780460D46FEF7C2FFB4
:109434000328044610D8012D10D0022D30D05DB978
:109444001A48FEF79DF81A4B04EB440213449D7826
:10945400184B1B5DAB4219D0BDE8F087144E00EBEE
:109464004003F218F55C5378470053B1DFF84C9091
:109474000E484A464FF40041FEF73AF808B989F815
:10948400008027443E440B4BB2781A55002DE3D09C
:10949400094B1B68002BDFD02846BDE8F04718476E
:1094A40000EB4004024804446578EFE7603500208F
:1094B400A0350020B9350020B43500203C3500200B
:1094C40000780221FFF7AEBF08B5094B1B7853B1F2
:1094D4000020FEF725FF0120FEF722FFBDE808402B
:1094E4000320FEF71DBFBDE80840FEF725BF00BFFF
:1094F4003D350020F8B57A4C237805461BB100238E
:109504002370FFF7E1FF172D00F28780DFE805F0F5
:109514000C1717425364757F878C878C949999999B
:109524009999C3C8D0D8E3E3FFF7CEFF6D48FEF79F
:1095340027F86D4B002204461A702046F8BD00201F
:10954400FEF7D4FEF0B10020FEF7EAFE022D0CBFB8
:109554004FF4E1644FF47A64634B1D7000254FF4BB
:1095640000464FF4FA7029464FF47A720023E4FB64
:10957400060101F025FF2A460146BDE8F840594896
:10958400FDF7B6BFFEF7C0FE022D0CBFC8244FF492
:10959400C874E1E70020FEF7A9FE40B10020FEF701
:1095A400BFFE4FF44874504B03221A70D6E7FEF7FF
:1095B400ABFEC824F7E70020FEF798FE38B1002080
:1095C400FEF7AEFE4FF47A64474B0422EDE7FEF754
:1095D4009BFE4FF4C874F7E70020FEF787FE48B1FE
:1095E4000020FEF79DFE404B05221A7041F69A11A9
:1095F4000022C2E7FEF788FEF5E70020FEF7BAFE78
:10960400394B06221A70002240F6CD41B5E70020FE
:10961400FEF77AFE344B07221A7000248DE70120EE
:109624002070FEF7A7FEEEE701202070FEF7A2FEF1
:1096340000224FF48041A0E7FEF78DFE2A4B0C2256
:10964400EAE72A482A4EFDF79BFFD5F111050446A7
:109654001CD0D8B9012D13D0C820454321464FF45E
:1096640000474FF4FA704FF47A720023C5FB0701E8
:1096740001F0A6FE224601461C48FDF739FF0446C8
:109684000220FEF741FE0123337056E70220FEF765
:1096940047FE0023F8E7FFF717FF134B1222BBE73F
:1096A400FFF712FF0020FEF72FFE0F4B1322B3E744
:1096B400FFF70AFF0120FEF727FE0B4B1422ABE74E
:1096C400FFF702FF0020FEF71FFE0120FEF71CFE3D
:1096D400054B1522A0E7FEF73EFE034B1D709CE7E9
:1096E400B035002080350020B835002040350020FA
:1096F4003D350020044B1B68DB0703D5034B18786A
:10970400FFF7F8BE704700BFAC350020B835002025
:1097140010B5002914BF03240024FEF75DFE800069
:1097240000F1A040D0F8002722F44032C0F800270E
:10973400D0F8003743EA0443C0F80037002010BDD6
:10974400032801D8FEF728BE00207047044B1B688D
:1097540013F0010301D0FFF7CDBE1846704700BFD8
:10976400AC35002038B51C4B18601C4B10F00204BB
:10977400054619601AD01A4B1A480E221A700F2285
:10978400DA7010229A7111225A72042140F2666230
:10979400FDF778FB044648B9FDF7CAFB044628B92F
:1097A4000146114A1148FDF791FE0446EB0711D515
:1097B4000120FEF717FE6CB921460D4A0D48FDF74E
:1097C40085FE044630B9BDE838400B4A0B480121F8
:1097D400FDF77CBE204638BDAC350020B4350020F2
:1097E400A0350020F4BE0200C594020018BF020098
:1097F400F99602001CBF02002194020014BF02006B
:10980400032811D8012A0AD101290FD100F10E022F
:10981400D2B20D4B00EB40001A54002070470129CE
:10982400F7D0022904D049B1072070470022F8E795
:10983400054B00EB400018444270EEE7024B00EB8E
:10984400400018448270E8E7A0350020032802D8BD
:109854000121FFF75DBF0620704708B501220221F0
:109864000020FFF7CDFF08B1072810D107220221FD
:109874000120FFF7C5FF08B1072808D100210A22FB
:109884000846FFF7BDFF10B1072808BF002008BD38
:109894000388102B10B502D0112B1ED010BD1A4C0A
:1098A4002168B1B901220846FFF7AAFF08B10728C9
:1098B40024D1072202210120FFF7A2FF08B10728C3
:1098C4001CD1042202210020FFF79AFF08B10728C7
:1098D40014D1236801332360E0E70B4A1368013B8A
:1098E4001360002BDAD1FFF7B8FF0028D6D0074B5E
:1098F4001B68002BD2D0BDE810401847034B1B68EF
:10990400002BE6D09847E4E7C4350020C03500209A
:1099140008B50020FFF79AFF08B1062806D10120F8
:10992400FFF794FF10B1062808BF002008BD00000F
:109934000D4B10B518600C4629B10120FFF700FF4C
:1099440040B102232370094B1B6853B9BDE8104092
:10995400FFF783BFFFF7F4FE08B10B23F2E7207093
:10996400F1E7002010BD00BFC0350020C435002041
:1099740075DF704776DF70477FDF70478FDF704792
:1099840070B50378012B044635D0022B24D013BBC9
:109994001C4C1D4D20882844FDF7D0FE238801333C
:1099A4009BB21D44238015F8012C0A2A03D0174AC0
:1099B40012889A420FD8144D154E228829463046F3
:1099C40001F0A8FA082804D01328F6D008B1FDF74E
:1099D400C5FA0023238070BD0E4B0F480F491B1A94
:1099E400DB081B0443F00100FDF716F86068BDE8CE
:1099F4007040FDF7B3BA074B074809491B1ADB0847
:109A04001B04EFE7BC360020C8350020002A0020E4
:109A1400C036002088B7020060B7020020BF0200F1
:109A240052BF02000146014801F0A5B9C03600202A
:109A34000388212B13B504460FD80F2B11D9103BE3
:109A4400112B0ED8DFE803F00F280D470D0D0D0D77
:109A54000D0D0D370D0D0D4E0D543B2B56D0562BC1
:109A640054D002B010BD81882B48002201F090FA36
:109A740008B1FDF773FA0720FFF768FE08B1FDF798
:109A84006DFAA188254800F01BFD0028E9D002B03A
:109A9400BDE81040FDF762BA214B2248A288224952
:109AA400C01AC008237A000440F0030002B0BDE8E5
:109AB4001040FCF7BEBF037A022BD2D1184B1948D1
:109AC4001A49C01AC008000440F0030002B0BDE8FF
:109AD4001040FCF7A1BF00231A4685218088FFF7B8
:109AE4004BFFD2E700F108018088FFF741FFCCE784
:109AF400002380888DF8043001A98DF80530FFF724
:109B04003DFF0028ADD0FDF729FAAAE7A08813216C
:109B1400FFF730FFB9E700BFC0360020022A00205B
:109B240060B7020088B702007EBF0200ACBF02002B
:109B340008B5074801F016F808B1FDF70FFA01203F
:109B4400FFF704FE18B1BDE80840FDF707BA08BDE9
:109B5400E43600202DE9F8430B78012B06460D4628
:109B640023D0022B5FD0002B6BD1374B374C3849B5
:109B7400E41AE408240444F003042046FCF74CFFF0
:109B8400698805F10E02304601F002FA08B1FDF7CA
:109B9400E5F9304601F098F908B1FDF7DFF9204600
:109BA4002C49BDE8F843FCF737BF284C264B8E6898
:109BB4008F89DFF8AC90E41AE408240444F001042B
:109BC4000025BD4219D3F31913F8013C0D2B25D000
:109BD400DFF890803A463146404601F09BF905464D
:109BE40078B31128F6D002461B492046FCF718FF2B
:109BF4002846BDE8F843FDF7B1B9705DFDF7B4FD43
:109C0400804648B11128F8D020462A464946FCF738
:109C140007FF4046FDF7A2F90135D2E70A20FDF718
:109C2400A3FD1128D3E7084B08480C49C01AC00803
:109C3400000440F00300FCF7EFFEBDE8F843FFF733
:109C440077BFBDE8F88300BF60B7020088B70200A1
:109C5400CABF0200DEBF020032C002005BC00200C5
:109C64000CC00200C03600201FB50378062B12D0AA
:109C7400072B17D0042B2AD1164B17481749C01AA3
:109C8400C008000440F00300FCF7C6FE04B0BDE8C1
:109C94001040FFF74DBF4068C8B104B0BDE81040A4
:109CA400FDF75CB941680B4C0B488B784A78001B74
:109CB4008C7903944C7902940C790194C008C97886
:109CC40000910004064940F00300FCF7BCFE04B018
:109CD40010BD00BF60B7020088B7020097C0020041
:109CE40069C0020010B504460020FFF72FFD08B13B
:109CF400FDF734F924B9FFF70BFE08B1FDF72EF98F
:109D0400012010BD0A8840F677239A4213B50C4609
:109D140017D10D4B0D480E49C01AC008000440F07D
:109D240003000190FCF778FEA3880A4A0A490198C7
:109D3400033B9BB213801A4602B0BDE81040FCF707
:109D440078BE02B010BD00BF60B7020088B7020041
:109D5400A7C00200002A0020C3C00200042808B5DE
:109D640006D00A2810D1BDE808400020FEF7BAB892
:109D7400064B13215888FFF7FDFD30F0080303D08C
:109D8400BDE80840FDF7EAB808BD00BFC0360020B2
:109D940008B50849084800F041FD08B1FDF7DEF8B0
:109DA4000548F72100F04EFD18B1BDE80840FDF765
:109DB400D5B808BD099D0200D036002000B54FF487
:109DC40000418BB00020FCF76BFC08B1FDF7C6F82E
:109DD400FCF79AFBFDF74AFB08B1FDF7BFF8454DC8
:109DE4000FCD04AC0FC495E80300434B434A0093E2
:109DF4004FF4807384E80300CDE902230193404AC1
:109E04000723694604A8FDF741FC08B1FDF7A6F84D
:109E14003C490120FFF7A6FC08B1FDF79FF804A90F
:109E24000020FFF785FD08B1FDF798F8364800F0EB
:109E34000DFB08B1FDF792F8FEF716F808B1FDF72F
:109E44008DF801F0FDF808B1FDF788F8002304A9A6
:109E54000120049301F086F908B1FDF77FF804A806
:109E640001F040FA08B1FDF779F8FFF791FF274BAD
:109E74002748049304A900F0C3FF08B1FDF76EF866
:109E8400102200210DEB020001F0DBFB0123214A2B
:109E940021488DF8143004A98DF81C3000F009FE17
:109EA40008B1FDF75BF81D4A1B48032100F0D6FDFD
:109EB40008B1FDF753F818480022042100F0E5FD2D
:109EC40008B1FDF74BF8164801F076FB154B164820
:109ED4001649C01AC008000440F00300FCF79CFDBA
:109EE400FFF726FEFCF736FC0028FBD1FDF7D2FF76
:109EF400F8E700BF30C102003437002034380020B6
:109F040085990200619D0200299A0200599B020072
:109F1400C03600206D9C0200E436002048C10200D7
:109F2400EBC0020060B7020088B702000EC1020055
:109F34000369C26893429CBF80681B18013B981A4E
:109F440070472DE9F843D0E902940546A9EB0408CB
:109F54004068904520440F46144404D901F048FB5E
:109F6400EC60BDE8F8834246A4EB090401F040FB31
:109F74006868224607EB0801F0E72DE9F843C56855
:109F84000646894617464FF000083469B36870687E
:109F9400A54228BFE418013C621B5C1BBC4228BFDD
:109FA4003C46944228BF144649462844224601F0C0
:109FB4001FFBB3682544AB4208BF00253F1BA044E8
:109FC400A144F560E1D14046BDE8F88310B5114CD9
:109FD400114AA2610223C4E90433104BE361A26471
:109FE4004FF400730E4A0F492362E26400231022E7
:109FF400E01DA3626362E362A3656365E3652265B2
:10A0040001F052FB0849204601F04EFB2023A371C6
:10A0140010BD00BF343900204CC10200BC390020FF
:10A02400AC39002055C1020059C1020070B5164B6D
:10A03400182400FB04451D4404FB00331646DC6A67
:10A04400012C0ED0022C18D0E4B92846FFF770FF7B
:10A05400864204D832462846FFF773FF344620462A
:10A0640070BD2846FFF764FF8642344628BF044685
:10A0740022462846FFF765FFF1E72846BDE8704011
:10A08400FFF77BBF0024EAE734390020FFF79EBFC7
:10A0940064DF704770B5C0B14AB116880024B44279
:10A0A40003D305196D789D4208D0A14201D8002040
:10A0B4000BE0055D01352C44A4B2F0E7A142F6D9CA
:10A0C400A31C1380005D013880B270BD2DE9F043FC
:10A0D40087B0002306460C461046ADF8063002AAA7
:10A0E40010230DF105018DF80530FFF7D1FF1EB9DE
:10A0F400002007B0BDE8F0830028F9D19DF8055091
:10A10400042D29D0102D29D0022DF2D10323BDF81E
:10A1140006206AB90DF1060221463046FFF7BAFF60
:10A12400BDF806301BB92B463046FFF7B3FF044693
:10A13400BDF80670002FDBD09DF805800025C146D0
:10A14400AC42D5D9E819424602A9304401F0FDF9E0
:10A1540038B14D44ADB2F3E70523D8E7062507230C
:10A16400D5E70120C5E79BDF70479DDF70479EDF81
:10A174007047000030B50B4B19680B4B002291421D
:10A1840001D1002009E09D788478A54206D11D887C
:10A194000488A54202D1054B186830BD013204334E
:10A1A400EDE700BFC43B0020CC3E0020BC3B0020B8
:10A1B40070B590F8C63216467622A0B002FB0300B2
:10A1C4000D46FFF7D7FF044660B17C22002101A8A9
:10A1D40001F037FA01238DF80430ADF806600295DA
:10A1E40001A8A04720B070BD2DE9F74F8A4690F82A
:10A1F400C612019193467622064601FB0200FFF740
:10A20400B9FF074688B3DFF87080D8F80050052DF1
:10A214002BD8174C019904EBC5197622EB0102FBEC
:10A224000161A9F802B009F10400009301F0E0F91A
:10A23400104E009BC9F87C70BAF1000F14BF0022C5
:10A244000222E254336801359D42C8F800500CD113
:10A254000025E36F20469847336801359D4204F199
:10A264008004F6D30023C8F8003003B0BDE8F08FB3
:10A27400C83B0020C43B0020C83E002037B503463D
:10A28400084693F8C52293F8C612BAB1013AD4B27B
:10A2940076224A43122505FB04221A44528A0132CB
:10A2A40092B2ADF80420762202FB013301A91B8986
:10A2B400ADF80630FFF759FF03B030BD762202FB3C
:10A2C4000132D288EDE7000070B54FF433720D46C9
:10A2D4000021044601F0B5F90E4BA4F8CA52002639
:10A2E4001E600D4B1B682360224601212846FFF7A0
:10A2F4003AFF112806D020B9012384F8C73284F824
:10A30400C80270BD012384F8C73284F8C8323046CD
:10A31400F7E700BFC83E0020CC3E002070B5194AC4
:10A3240090F8C93212680133DBB2934204460D46F9
:10A3340080F8C9324FF0000621D290F8C63280F876
:10A34400C5620133DBB2762113FB01F180F8C6321A
:10A3540042180D4850F823306350284601211671E5
:10A36400FFF701FF014648B184F8C7622A46204638
:10A37400FFF71EFF054B03221A705D8070BD80F845
:10A38400C762F7E7C43B0020CC3E0020C83B002056
:10A394002DE9F3470546762395F8C66295F8C5423C
:10A3A40016FB03F6AF1910464FF012083A7918FB62
:10A3B400046304F1010C0A3394452B441FD005F1C6
:10A3C4001C0C07F1220902F1FF3A66445FFA84FC8F
:10A3D400624518D9A24527D0B3F808E008FB04F376
:10A3E4000EF1010E39F803C0E64528D1334495F83F
:10A3F400C5C20CF1010C85F8C5C20134E6E71B891E
:10A404003A89934205D101230B70002002B0BDE8C4
:10A41400F0870133ADF80430ADF8062000230B704B
:10A4240001A9FFF7A4FEF1E71B89B7F808C063454B
:10A434000AD00133ADF80430ADF806C0EEE7ADF84C
:10A4440004E00CF1FF3CF7E70023D0E758B1074ADA
:10A4540000231360064A01211170064A1360064A5C
:10A464001060184670470E20704700BFC43B0020A0
:10A47400C03B0020C83E0020BC3B002010B5044671
:10A4840080B10C4B1B787BB1FFF774FE70B90A4A9C
:10A494001368052B0CD80949246841F8234001337B
:10A4A400136010BD0E20FCE70820FAE70020F8E74F
:10A4B4000420F6E7C03B0020C43B0020CC3E002033
:10A4C40050B1084A12784AB1074A126832B190F87A
:10A4D400C7322BB9FFF7F8BE0E207047082070472B
:10A4E40011207047C03B0020C43B00202DE9FF41F0
:10A4F4000C460546002800F03981002900F0368119
:10A504009C4B1B78002B00F031810388322B71D0D7
:10A514001BD8112B00F01A81302B3FD094F8C8328D
:10A52400002B00F023812B88303B9BB21F2B00F2C1
:10A534001D81B4F8CA32A988994240F01781204697
:10A5440004B0BDE8F041FFF7BFBE332BE6D18288EB
:10A55400B1F8CA329342E1D1C08891F8C6C291F8E9
:10A56400C562002800F0B580762101FB0C4C731CF9
:10A574009CF8041000278B428DF80F7000F0DA80ED
:10A584000DF10F0184F8C5322046FFF701FF0146A3
:10A59400002800F0D58084F8C77218E08388B1F8E9
:10A5A400CA229A42BAD1C388DBB991F8C63276215D
:10A5B40001FB03430169C3F8061011462046FFF767
:10A5C4005DFE01460028A9D0002384F8C732AA887A
:10A5D4002046FFF7EDFD684B03221A70AA885A80C3
:10A5E4009CE700212046FFF7FFFDA9882046FFF7DE
:10A5F40095FE93E78288B1F8CA329A428ED1C38815
:10A60400002B57D191F8C672762317FB03F701EBA1
:10A614000708837A98F804603344062B25DC88F80D
:10A624000430122212FB0672334605F10C01224457
:10A63400002098F80460B34201F10A0102F1120209
:10A6440027D31222013B02FB034394F8C62276214E
:10A654003B4401FB0242598A138999422AD2062EAD
:10A6640028D0A98884F8C562A8E7062388F80430AE
:10A674004248434BCA5B4349C01AC008000440F037
:10A6840002000190FCF7CCF93F490198FCF7C4F9AA
:10A69400C7E751F80A6C42F8086C51F8066C42F8A6
:10A6A400046C31F8026C168050809080D080108148
:10A6B4000133BEE7002684F8C5620DF10F01AA88B4
:10A6C4002046FFF765FE0146002839D084F8C762AA
:10A6D4007DE7762303FB0CF3122707FB0633B5F85B
:10A6E4000AE0294623447045BFF43EAFCF89A7F55D
:10A6F4002457082F08D8DFE807F0141705070707C1
:10A7040007071A008F899F829F8A3FB1DF8A2FB182
:10A714001F8B1FB15F8B002F7FF426AF01300631F2
:10A72400E1E78F89DF82EFE78F891F83ECE78F8969
:10A734005F83E9E701238DF80F30AA88012151E7EF
:10A744009DF80F30002B3FF4E9AEF6E78288B1F8AC
:10A75400CA329A427FF4E2AE002381F8C73281F80C
:10A76400C8324FF6FF73A1F8CA32D7E604B0BDE889
:10A77400F08100BFC03B0020C83B002090B702001E
:10A7840060B7020060C10200A6C1020090DF7047FA
:10A79400A5DF7047B5DF70477FB50023ADF808101B
:10A7A400ADF80A106A4602A90646ADF80C30ADF8B9
:10A7B4000E300093ADF80430FFF7E8FF054600B310
:10A7C400114B124CE41AE408FDF720FC240444F075
:10A7D400010403460E4932462046FCF72AF9BDF827
:10A7E4000020BDF8023052EA030103D00949204693
:10A7F400FCF71FF9BDF804201AB107492046FCF7FD
:10A804000FF9284604B070BD60B70200B0B702006B
:10A814000CC2020056C2020095C2020080B14FF081
:10A82400F7130360FB230371F723C380172303810A
:10A8340041F6FB320023016143818281184670474F
:10A844000E20704730B1A1F11703E02B04D84180EA
:10A85400002070470E2070470720704713B5034649
:10A8640080880C46B8B91A88242A00F09C8014D831
:10A87400112A74D0232A00F0A780102A3ED0A37A8C
:10A884004BB1E1880020FFF783FF002840F0A2804D
:10A894004FF48073638102B010BD3A2A68D0552A00
:10A8A400EDD1DB88C988A072172B38BF17238B42E0
:10A8B40028BF0B462381FFF76DFF60B1FDF7A6FBB0
:10A8C4004E4B4F4902464F481B1ADB081B0443F00A
:10A8D4000100FCF7A5F8E27A002AD0D12369002B05
:10A8E400CDD040F67721ADF802202289ADF80010D2
:10A8F400ADF80420694620469847C0E7DB7B0A7917
:10A904000A73012B13D0022B14D0E18823898B42C4
:10A9140005D20020FFF73CFF70B90123E372217BCD
:10A92400637B8B42ABD20020FFF736FFA7E70B888F
:10A93400E380EAE74B88FBE7112802D10123A372E5
:10A94400EDE7FDF763FB2D4B2F4902462D481B1AFB
:10A95400DB081B0443F00100FCF762F8DFE7F72390
:10A96400CB8017230B8141F6FB3348818B8186E72B
:10A974005B89CA88934228BF1346172B0A6938BFDC
:10A9840017230B8162B1C97A51B140F67721ADF832
:10A994000010ADF80200ADF8043069462046904737
:10A9A400002363816BE71A7A0B694A73002B3FF427
:10A9B40066AF4DF67A218DF80500ADF80010ADF8BC
:10A9C40002008DF8042095E7197A237B994228BF69
:10A9D4001946A9E711283FF45EAFFDF717FB074BB3
:10A9E4000949024607481B1ADB081B0443F001000F
:10A9F40002B0BDE81040FCF713B800BFB0B70200C6
:10AA04001CC3020060B70200EBC202008ADF704779
:10AA14008BDF70478CDF704730B5037A89B004460A
:10AA24000D46CBB1837C0193FFF7F2FF1422002182
:10AA340003A800F006FE019B04F10A0204F11401CC
:10AA4400A81CFFF7E7FF06238DF80C30049018B11B
:10AA5400636A0BB103A8984709B030BD10B503462B
:10AA640068B162B103290CD1007960B91C881188DE
:10AA74008C4203D00121197112681A6010BD0E2096
:10AA8400FCE70720FAE70420F8E750B1CB060AD028
:10AA940011F0040116BF012341714371827100203A
:10AAA40070470E20704707207047007DC0F3C00038
:10AAB4007047F0B503460C46002851D0426200228C
:10AAC40002604260002938D00A7902720A7B8274DB
:10AAD4000A68FAB100F1140502F108071068516818
:10AAE4002E4603C60832BA423546F7D110683060A4
:10AAF4009288B280A168C1B10A68C3F80A204A6882
:10AB0400C3F80E2003F128029A641F22A3F84C20F4
:10AB14000020F0BD426902F0E30242F4200242F454
:10AB24008272426150228261E4E706225A8118222D
:10AB3400DA604FF4C8721A82E4E74269017202F0E3
:10AB4400E30242F4200242F48272426150228261A2
:10AB5400062242811822C2604FF4C8720282D1E7F1
:10AB64000E20D6E710B5044686B048B3142200215F
:10AB740001A800F066FDFFF74BFF2046FFF795FFA5
:10AB840030B1636A23B101228DF8042001A89847EB
:10AB940004F1480104F11400FFF738FF044630F0D3
:10ABA40008000BD00748084B08491B1ADB081B0494
:10ABB40043F001002246FBF733FF204606B010BDE8
:10ABC4000E20FBE760B70200A0B7020058C30200E2
:10ABD4002DE9F04F06468BB036F8082B1D2A0746A0
:10ABE4000C4622D008D8102A00F0AF801B2A00F0AF
:10ABF40094800BB0BDE8F08F202AFAD114220DEB1B
:10AC04000200002100F01DFD626A002AF1D0B8683C
:10AC1400716805238DF81430143406AB099403C30A
:10AC2400317A197005A89047E3E71022002105A89E
:10AC340000F007FD04F1140320460993FFF735FFE4
:10AC440004F1480A78B102238DF8143005A8636A28
:10AC54000696984751460020FFF7D8FE3146204615
:10AC6400FFF7DAFEC5E794F8058094F80690B8F18A
:10AC7400000F45D094F804B0B98C224604EB8B0342
:10AC8400054693420CD1B9F1000F18D0AB4518D149
:10AC94009DF81C3043F004038DF81C30012313E0AD
:10ACA400386A0191CDE90223FFF710FADDE90112B8
:10ACB400039B00B30135EDB2B9F1000F1ED1002D95
:10ACC400E6D14FF00008434601220696B9F1000F81
:10ACD40019D09A421DD100238DF8143031462046F4
:10ACE400FFF79AFE636A0BB105A898475146002006
:10ACF400FFF78CFE7DE7B9F1000FC7D10432C0E73E
:10AD040043464246E1E7B8F1000F02D08DF81490B3
:10AD1400E4E703238DF81430E4E714220DEB02007A
:10AD2400002100F08EFC3A7A012A7FF462AF636A54
:10AD3400002B3FF45EAF042114348DF814100994F1
:10AD44008DF8182005A8984753E7002105A800F0BE
:10AD540078FC07238DF81430BB88ADF81C3004F15F
:10AD640014030993636A0696002BEBD141E7A3DF32
:10AD7400704762DF70472DE9F0410C4686B0054606
:10AD84001422002101A800F05CFC237813BBA288E4
:10AD9400012A1FD1A1792A7891421BD194F8088005
:10ADA40022461E4618469C461F461946884514D816
:10ADB400BCF1000F01D0ADF816701EB1ADF8120051
:10ADC400ADF81430EB682BB16288ADF8062001A908
:10ADD4002846984706B0BDE8F081B2F80EE0BEF10F
:10ADE400020F05D0BEF1030F06D001311232DDE7A8
:10ADF400D78A4FF0010CF8E7D08A138B0126F4E7C9
:10AE0400F0B5154B87B002AA04460D4603F1100CA9
:10AE1400174618685968164603C608336345324610
:10AE2400F7D1BCB1B5B121463846FFF7A2FF78B9D6
:10AE340023788DF806300123ADF804304FF6FF7304
:10AE440063802B68E360A080208101A8FFF716FBD4
:10AE540007B0F0BD0E20FBE7BCC302007FB503467C
:10AE64000846F9B1F3B14A884FF6FF718A4202D01D
:10AE74009988914216D11988112916D0392911D1EE
:10AE840082887AB1598991420CD1C26852B10121A8
:10AE94008DF8041003F11001DB890391ADF8103033
:10AEA40001A9904707B05DF804FB9B889342F9D150
:10AEB400C368002BF6D002228DF804204FF6FF72EF
:10AEC400428001A99847EDE71FB5F0B143884FF6DA
:10AED400FF7293421BD0C288CAB101218DF80010C1
:10AEE40000218DF8011040F20111ADF80410ADF805
:10AEF400062001A94FF4003218460292CDF80CD076
:10AF0400FFF735FF05B05DF804FB0E20FAE70820D3
:10AF1400F8E700001FB588B3F42A0CD9184B194878
:10AF24001949C01AC008000440F00200FBF774FD80
:10AF3400072004B010BD43884FF6FF74A3420BD121
:10AF44000F4B10481149C01AC008000440F0020019
:10AF5400FBF762FD0820ECE70089ADF8060000204D
:10AF64004FF48174ADF808000391184601A9ADF8B7
:10AF74000440ADF80A20FFF7FAFEDAE70E20D8E71E
:10AF840060B7020098B7020085C3020097C30200AD
:10AF940048B141802AB15388C38013888380938841
:10AFA4000381002070470E20704710DF70470000B7
:10AFB40013B5044609496846FCF7F3FF019808B93C
:10AFC40002B010BDD0E900212046904718B1684670
:10AFD400FCF7F1FFF2E71120F2E700BFD8C302004B
:10AFE40013B5044607496846FCF7DBFF019B0BB920
:10AFF40002B010BD2046D3E9002190476846FCF713
:10B00400DAFFF3E7F0C302000B4991F816335A094B
:10B01400EC231341DB0706D5084B9A683AB94FF481
:10B0240080030B60704742F20200FBF797BF1A6877
:10B0340042F480021A60704700E100E044340020CA
:10B04400F7B5194F3C7864BB184E0125204635707E
:10B05400FFF7AEFF112821D02046FFF7C1FF144BA4
:10B064008DF80340186801900DF10300FCF7A4FB70
:10B07400104901A8FFF799FF0446B0FA80F040098F
:10B0840038709DF80300FCF7BBFB3CB90A4B3470E5
:10B094001C70FFF7B9FF2846FFF7A2FF204603B054
:10B0A400F0BD0824FAE700BFE53E0020E43E00209E
:10B0B400D4C302007D6F0200E63E0020014B1878E5
:10B0C400704700BFE53E002007B508496846FCF715
:10B0D40068FF019B13B903B05DF804FBD3E90020BA
:10B0E40090476846FCF767FFF3E700BFE4C302003C
:10B0F400FFF7EABF60DF704769DF704761DF7047C1
:10B1040030B5134DADF5017D4FF4FA740DF1020124
:10B1140003A8ADF80240FFF7F1FF70B9294601A872
:10B12400FCF73FFF029B002BF0D003A8D3E90021DA
:10B13400904701A8FCF73FFFF4E7052805D00DF57B
:10B14400017DBDE83040FBF709BF0DF5017D30BD41
:10B1540078C60200024B1B780BB1FFF7D1BF7047D2
:10B16400E73E002030B5054685B00C46002900F0C6
:10B17400A5800023CDE90133514A039301230A60DA
:10B184008DF804008DF8063001A906232020ADF8BF
:10B194000830FFF7B1FF60B1FCF738FF494B4A496B
:10B1A40002464A481B1ADB081B0443F00100FBF764
:10B1B40037FC0023CDE901330393226840F20113E5
:10B1C40001A94020ADF80630FFF796FF60B1FCF707
:10B1D4001DFF3C4B3E4902463C481B1ADB081B043E
:10B1E40043F00100FBF71CFC0023CDE9013303937A
:10B1F40022688DF80450F72301A92320ADF8063006
:10B20400FFF77AFF60B1FCF701FF2E4B314902468C
:10B214002E481B1ADB081B0443F00100FBF700FC5B
:10B22400002301202268039301A9CDE901338DF89D
:10B234000400FFF761FF60B1FCF7E8FE214B2649EB
:10B24400024622481B1ADB081B0443F00100FBF7EB
:10B25400E7FB0023CDE9023322684FF4B06301A970
:10B26400A1200193FFF748FF60B1FCF7CFFE154B17
:10B274001A49024615481B1ADB081B0443F0010057
:10B28400FBF7CEFB00252268039501A9A020CDE998
:10B294000155FFF731FF034668B1FCF7B7FE094BD0
:10B2A4000F49024609481B1ADB081B0443F001003E
:10B2B400FBF7B6FB2B46184605B030BD0E23FAE764
:10B2C400E0290020C0B70200FCC3020060B70200FE
:10B2D40042C402008EC40200D5C4020021C502008B
:10B2E40072C5020073B505460668FFF703FF2B68B5
:10B2F400B34204461DD91A481A4B1B491B1ADB08D2
:10B304001B0443F002000190FBF786FB2B681749EE
:10B3140001983246FBF78DFB4FF080532A68D3F82F
:10B324000C31134901989B0203F100539A1AFBF75D
:10B3340077FB2CB90F4B01221A70204602B070BD66
:10B344002046FCF763FE074B0B49024604481B1AD0
:10B35400DB081B0443F00100FBF762FBEDE700BFD1
:10B3640060B70200C0B70200C5C50200F4C5020000
:10B3740025C60200E73E00204FC602004BDF70479F
:10B384001FB50E4C01A8FFF7F9FF70B9214602A8BA
:10B39400FCF707FE039B002BF4D00198D3E90021AE
:10B3A400904702A8FCF707FEF4E7052804D004B090
:10B3B400BDE81040FBF7D2BD04B010BD90C602003A
:10B3C40053EA020C61D02DE9F04BB3FA83F51E0069
:10B3D40007BFB2FA82F502FA05F403FA05F4164639
:10B3E400C5F120051EBF22FA05F73C43203556EA75
:10B3F400044C4FEA144418BF0134A3464FF000092B
:10B40400C846904271EB030C39D3094207BFB0FA26
:10B4140080F700FA07F6B1FA81F701FA07F6C7F1E7
:10B4240020071EBF20FA07FC46EA0C062037B6FBAD
:10B43400FBFC7F1B103F07F01F04C4F120060CFA2D
:10B4440004F42CFA06F644BF34460026202FA4BF89
:10B454002646002454EA060C08BF012418EB04080D
:10B4640049EB0609A4FB027CC01B06FB02CC04FBCF
:10B4740003CC71EB0C01904271EB030CC5D20B466B
:10B48400024649464046BDE8F08BB2FBF3F20000A9
:10B494007F2805D8034B185C034B5B5C184070474E
:10B4A40000207047A8C6020028C70200A0F161036B
:10B4B400192B98BF20387047A0F14103192B98BF6E
:10B4C400203070477F2805D8034B185C034B5B5C26
:10B4D4001840704700207047A8C6020028C7020021
:10B4E400A0F16103192B98BF20387047A0F14103E4
:10B4F400192B98BF203070477F299ABF0170012013
:10B504006FF02E0070475AB10A787F2A0AD800B12A
:10B514000260002119605960501A18BF0120704759
:10B52400002070476FF02E007047000008B5034BF1
:10B534005B689B681B68984708BD00BFD02C00203F
:10B5440008B50921FFF7F2FF08BD9AB330B5944658
:10B554000F2A18D902460B4640EA010414F0030FDF
:10B5640002D00CF1FF3C11E01946104604320433BA
:10B574000C680568A54206D110461946ACF1040CC6
:10B58400BCF1040FF0D8BCF1010C0FD00A460346FD
:10B5940084441146184601330132047891F800E0DE
:10B5A400744503D1184611466345F2D100780B78EF
:10B5B400C01A30BD0020704770B5054600F0C6F8CB
:10B5C400013D002615F8010F48B13146FCF728FD6E
:10B5D4000446B0F1FF3FF5D100F0B9F806E00021D0
:10B5E4000A20FCF71DFD044600F0B1F8204670BDAA
:10B5F400844640EA010313F0030F18D18446202A3D
:10B604000BD32DE9F007B1E8F807A0E8F807A2F199
:10B614002002202AF7D2BDE8F007042A07D351F804
:10B62400043B40F8043BA2F10402042AF7D2002AA6
:10B6340005D011F8013B00F8013B013AF9D160460D
:10B6440070478446002A2DD010F0030F04D000F870
:10B65400011B013A26D0F7E7C9B241EA012141EAC8
:10B664000141202A12D3A2F120022DE9F0030B4656
:10B674000C460D460E460F4688468946A0E8FA0356
:10B68400203AFBD2BDE8F00320320BD0042A05D3C4
:10B6940040F8041B043A05D0042AF9D200F8011B2F
:10B6A400013AFBD160467047024610F0030F16D1F1
:10B6B40011F0030F13D12DE9F0004FF001374FF0D3
:10B6C400803351F8044BA4EB070525EA04051D401B
:10B6D40002D142F8044BF4E7A1F10401F0BC11F8E3
:10B6E400013B02F8013B002BF9D1704700F1010145
:10B6F40010F0030F11D010F8012B002A23D010F002
:10B70400030F0AD010F8012B002A1CD010F0030FED
:10B7140003D010F8012B002A15D02DE970004FF04A
:10B7240001324FF0803350F8044BA4EB020525EAB4
:10B7340004051D4000D1F6E7A0F1040070BC10F828
:10B74400012B002AFBD1A0EB010070477047704722
:08B754006984020000000000FE
:04B75C00E99C020062
:10B76000D6BE020000000000DCBE020000000000A7
:10B77000E3BE020000000000E7BE0200000000007F
:10B78000ECBE02000000000085B8020000000303C8
:10B7900000C2020000000303B2C302000000030362
:10B7A0007CC3020000000303D0BE020000000000C2
:10B7B0004BC3020000000303CCC3020000000303DC
:10B7C0006CC602000000030384C6020000000303ED
:08B7D000B8B9020000000000FE
:10B7D800282D0020F02D0020F82D0020302D0020ED
:04B7E8001800000045
:08B7EC00E984020000000000E6
:10B7F40059B102000000000085B3020000000000FF
:10B804009598020000000000D5AB0200E436002049
:10B81400F1A40200022A002061A80200D036002010
:10B8240061AE0200C0360020359A0200000000001C
:10B8340058B802000000000064B80200E0290020AB
:10B844000000000000000000000000000338FDD8E4
:10B8540070470000D963020045640200D56302000A
:10B864007274745F6C6F675F6261636B656E6400B2
:10B874004261636B656E647320666C75736865649E
:10B8840000617070000000001C3200207F00000086
:10B894009C3200201B5B313B33316D0025734C6FB0
:10B8A40067732064726F707065642028256429258D
:10B8B400730D0A001B5B306D002573003C25733E3D
:10B8C4002025733A200020253032780020202000E3
:10B8D4007C002563001B5B313B33306D001B5B3107
:10B8E4003B33326D001B5B313B33336D001B5B31EB
:10B8F4003B33346D001B5B313B33356D001B5B31D7
:10B904003B33366D001B5B313B33376D007761721F
:10B914006E696E6700696E666F00646562756700C4
:10B92400B8B80200D9B8020098B80200E1B8020021
:10B93400E9B80200F1B80200F9B8020001B9020046
:10B9440009B902000000000066B9020011B9020042
:10B9540019B902001EB90200BC32002046617461AC
:10B964006C206572726F720053797374656D207206
:10B974006573657400000000000000000338FDD802
:10B9840070470000FFFFFFFFFFFFFFFFFFFFFFFF08
:10B99400FFFFFFFF00000000000000000000D601D0
:10B9A40006010000303132333435363738394142FC
:10B9B400434445467077725F6D676D740000000004
:10B9C4005CB7020060B70200040000004E52465FFC
:10B9D40053554343455353004E52465F4552524FCD
:10B9E400525F5356435F48414E444C45525F4D4964
:10B9F4005353494E47004E52465F4552524F525F91
:10BA0400534F46544445564943455F4E4F545F4552
:10BA14004E41424C4544004E52465F4552524F52AD
:10BA24005F494E5445524E414C004E52465F45527A
:10BA3400524F525F4E4F5F4D454D004E52465F454B
:10BA440052524F525F4E4F545F464F554E44004E34
:10BA540052465F4552524F525F4E4F545F535550BA
:10BA6400504F52544544004E52465F4552524F5235
:10BA74005F494E56414C49445F504152414D004E3E
:10BA840052465F4552524F525F494E56414C4944CB
:10BA94005F5354415445004E52465F4552524F52F3
:10BAA4005F494E56414C49445F4C454E475448000B
:10BAB4004E52465F4552524F525F494E56414C4991
