:1000000000000120BD020000E5020000E702000040
:10001000E9020000EB020000ED0200000000000019
:10002000000000000000000000000000EF020000DF
:10003000F102000000000000F3020000F5020000E1
:10004000F7020000F7020000D52500003526000069
:10005000F7020000F7020000E9200000F7020000AC
:10006000F7020000F7020000F7020000F7020000AC
:10007000F7020000F7020000F7020000F70200009C
:10008000F702000029100000F7020000F70200004C
:10009000C9100000F7020000F7020000F70200009C
:1000A000F7020000F7020000F7020000F70200006C
:1000B000F7020000F702000000000000000000004E
:1000C000F7020000F7020000F7020000F70200004C
:1000D000F7020000F7020000F70200000000000035
:1000E0000000000000000000000000000000000010
:1000F0000000000000000000000000000000000000
:1001000000000000000000000000000000000000EF
:1001100000000000000000000000000000000000DF
:1001200000000000000000000000000000000000CF
:1001300000000000000000000000000000000000BF
:1001400000000000000000000000000000000000AF
:10015000000000000000000000000000000000009F
:10016000000000000000000000000000000000008F
:10017000000000000000000000000000000000007F
:10018000000000000000000000000000000000006F
:10019000000000000000000000000000000000005F
:1001A000000000000000000000000000000000004F
:1001B000000000000000000000000000000000003F
:1001C000000000000000000000000000000000002F
:1001D000000000000000000000000000000000001F
:1001E000000000000000000000000000000000000F
:1001F00000000000000000000000000000000000FF
:1002000010B5054C237833B9044B13B10448AFF350
:1002100000800123237010BD90000020000000002A
:10022000503C000008B5034B1BB103490348AFF332
:10023000008008BD0000000094000020503C000039
:10024000A3F5803A704700BF174B002B08BF134B34
:100250009D46FFF7F5FF00218B460F461348144AD1
:10026000121A03F041FB0E4B002B00D098470D4BA8
:10027000002B00D098470020002104000D000D48FD
:10028000002802D00C48AFF3008003F0FBFA2000F6
:10029000290003F091F803F0E1FA00BF0000080024
:1002A000000000000000000000000120900000207D
:1002B000BC08002000000000000000000649074ABA
:1002C000074B9B1A03DD043BC858D050FBDC03F0FE
:1002D000EBF8FFF7B9FF0000B03C00000000002081
:1002E00090000020FEE7FEE7FEE7FEE7FEE7FEE700
:1002F000FEE7FEE7FEE7FEE7F0B595B000241D46F9
:100300000E460846174601F077FD30462346082280
:10031000099505A91A9D08970D950A948DF82C400A
:100320000C9401F0CDFD9DF814308DF81140DDE9FD
:10033000061003F00302012ACDE9020128D0022AA7
:1003400004D0304601F05CFD15B0F0BDBDF816508C
:10035000C3F3C2038DF81030C5F389150827082DA3
:100360002C4628BF08243B4622460EA9304601F001
:10037000A7FD2D1B214608AB02AA0EA8274400F0BA
:100380004DFD002DEBD1304601F03AFD15B0F0BD2A
:10039000BDF81470059DC7F38312C3F3C2040EA900
:1003A0003046920008238DF81040C7F3831701F000
:1003B00087FDC5F3952508AB3A4628460EA900935C
:1003C00002AB00F0B3FC304601F01AFD15B0F0BDF1
:1003D000014B01221A707047F0000020704700BFE7
:1003E00000B583B0044B0093044A4023FFF784FF19
:1003F00003B05DF804FB00BF01040000B000002062
:1004000038B50E480E4D03780E4CEB5C0025257078
:10041000D2B253B1043002F04DFF58B90A4B1B78E9
:1004200013B12378002BFCD038BD0C3002F0F8FC5F
:100430000028F3D000F0B0FDF0E700BF000000207E
:10044000B8080020F0000020AC0000202DE9704327
:1004500019481A4A0378D35C88B02BB3043002F0F1
:10046000BFFE174D0FCD6C460FC495E80F004FF03F
:10047000EB7684E80F004FF006084FF0FF394FF09D
:10048000FF344FF0FF350C48069600226946CDE94F
:100490000089CDE9024501F0E7FD48B9094B00228A
:1004A0001A7008B0BDE870830C3002F053FCD8E736
:1004B00000F072FDF2E700BF00000020B808002045
:1004C00024390000AC000020F0B5154D0FCD89B0E7
:1004D0006C460FC495E80F004FF0EB7C84E80F00EA
:1004E00006264FF0FF374FF0FF344FF0FF350D4A2F
:1004F0000D48CDF818C06946CDE90067CDE9024541
:1005000001F0B2FD20B9094B01221A7009B0F0BD0B
:1005100000F042FD054B01221A7009B0F0BD00BF8A
:1005200024390000D103000000000020AC000020AE
:1005300008B5FFF7C9FF0448042100F073FB034B23
:1005400001225A7108BD00BF843C00001400002045
:1005500038B50C4B0C48002400250022C3E90045A7
:10056000FF21C3F81824996083F82024C3F81424C9
:1005700001F0F6FB044610B9044801F0D5FC204612
:1005800038BD00BFC8010020943C00007C39000049
:1005900099B10E4B0E495B1ADB0815D030B400221E
:1005A0000C4D02E0013293420BD035F822408442D8
:1005B000F8D151F8320030BC7047054951F830008D
:1005C0007047002030BC704718467047843C0000DC
:1005D000543C000090000020094B013903EBC0009F
:1005E00003290BD8DFE801F0040208060420704755
:1005F00002207047407970470079704700207047AB
:10060000543C00002DE9F047934CD4E900239A4272
:1006100084B063D00023C4F81834BFF34F8FD4E9FB
:10062000013503EA0501CA1C04EB820614F82220F6
:10063000500719D52768327802F00302012A43D007
:10064000022A03D17288023303EB921305EA0301F5
:10065000D4F81804CA1C04EB820628B99F4239D981
:1006600014F822205207E6D404EB81015A1CC96811
:1006700001912A4004EB820201F00301D268029248
:10068000022903F102062DD0012900F09080D4F850
:1006900010543DB12B6828469B689847EB681D684D
:1006A000002DF7D16D486E4B6E49C01AC00800048A
:1006B00040F0020000F0DCF8D4E90030C01A18BFA6
:1006C000012004B0BDE8F08732880233C2F3831200
:1006D0001344BBE7676004B0BDE8F087002004B0B6
:1006E000BDE8F087BDF806305F48C3F38919B9F15A
:1006F000500FC84628BF4FF0500868F38F1308F119
:100700000801ADF8063001F02DFB07460028BED0E9
:1007100001F072FB0023082201A9384601F09CFB7E
:1007200025EA06030133B8EB830F4FEA830A78D931
:10073000BAF1000F00F0888005EA06010331A8EB4A
:100740000A0804EB81010823524638465FFA88F80C
:1007500001F082FB454942460AF10803384601F0A0
:100760007BFB09F1030906EB9906D4F81834002B3A
:1007700066D1D4F8105465B1EB685A7928463946E9
:10078000002A59D02B681B689847EB681D68002D1C
:10079000F2D1384601F034FB002000F085FED4F899
:1007A000183403B96660002000F086FE84E7BDF8C7
:1007B00004302D48C3F38312062A28BF0622911C59
:1007C00062F389138900ADF8043001F0CBFA0746D3
:1007D00000283FF45CAF01F00FFB0023082201A9C1
:1007E000384601F039FBBDF8043013F4707FBCD0FB
:1007F0004FF00008314629404FEA8803033108339F
:1008000004EB81010422384601F026FBBDF80430D8
:1008100008F10108C3F38313434506F10106E9D843
:10082000A3E705EA0601033104EB810142460823F0
:10083000384601F011FB94E71D68002D9CD1A8E714
:10084000384601F0DDFA37E70849424608233846C2
:1008500001F002FB85E700BFC80100207C3C0000DE
:10086000543C000064390000943C0000D401002096
:100870002DE9F04F624C87B006460020A568019133
:1008800000F012FED4E9012327681A440132D21B7A
:10089000012A00F2858004F21C4804F5836A04F200
:1008A00014491BE0BDF80E30C3F389130333090C60
:1008B0000BEB930B4846009100F042FE0099002894
:1008C0003ED04046C4F804B000F00EFED4E9011357
:1008D000226819440131891A012962D80121404650
:1008E00000F002FE504600F01BFE484600F018FEE5
:1008F000D4E9013C03EA0C02D11C04EB810014F89A
:1009000021E01EF0040F0EF0040129D104EB820255
:10091000591CD268039201EA0C0104EB810102F038
:100920000302012AC96803F1020B32D0022AB9D0AE
:1009300000214846009100F003FE00990028C0D134
:100940004046C1E743880BEB93130CEA0302D11C2A
:1009500004EB810014F8211001F004010029D5D026
:1009600090F800E00EF0030EBEF1010F0BD0BEF1C7
:10097000020F03F1020B02F1030EE3D004EB8E0031
:100980000029EDD1C2E702880233C2F38312134477
:10099000DBE7BDF80C30C3F38313090C9B4489E7F4
:1009A0003A461340033302320521002044F8231055
:1009B000226000F081FD0021124800F087FD80F3E5
:1009C0001000F1007B1C2B40019A01F038013D40E2
:1009D00004EB830341F001010004033540EA1646AD
:1009E00041EA8221DE6044F8251094F820341BB1DE
:1009F000FFF708FE0028FBD107B0BDE8F08F00BF6D
:100A0000C8010020E40500202DE9F04F13468BB00B
:100A1000814C0192033302469D080020A368029393
:100A2000CDE90421039500F03FFDD4E90132D4F86B
:100A300000A013440133AE1CA3EB0A039E4240F214
:100A4000878004F21C4504F5836904F214471BE017
:100A5000BDF81E30C3F3891303334FEA11480BEB83
:100A6000930B384600F06CFD414600283DD02846E7
:100A7000C4F804B000F038FDD4E901322168134411
:100A800001335B1A9E4264D90121284600F02CFDF7
:100A9000484600F045FD384600F042FDD4E90130FB
:100AA00003EA0002D11C04EB810E14F821C01CF0F3
:100AB000040F0CF0040129D104EB8202591CD26806
:100AC0000792014004EB810102F00302012AC96888
:100AD00003F1020B34D0022ABAD0384600F030FDC0
:100AE0004FF0000841460028C1D12846C2E7BEF8B1
:100AF000023008EB931300EA0302D11C04EB810ED1
:100B000014F8211001F004010029D5D09EF800C08E
:100B10000CF0030CBCF1010F0BD0BCF1020F03F180
:100B2000020802F1030CE2D004EB8C0E0029EDD197
:100B3000C2E7BEF800200233C2F383121344DAE79F
:100B4000BDF81C30C3F383134FEA11489B4488E778
:100B500051460A400E4403990332062361F39F5322
:100B6000002044F82230266000F0A6FC029AA36818
:100B70000AF1020010400133019A1B1AB2EB830FF5
:100B800000F103004FEA830504EB800040D9059E85
:100B90002A46314602F09AFE33462B441946019B01
:100BA0001E485A1B02F092FE00211D4800F08EFCE8
:100BB00080F310000299049D0AF101030B402A0CF6
:100BC00004EB830301EA0A0A0AF1030A42EA00403D
:100BD000D860EA0054F82A30019902F0380242F055
:100BE000020242EA815803F47C1248EA020244F805
:100BF0002A2094F8203413B90BB0BDE8F08FFFF72A
:100C000001FD0028F8D0FFF7FDFC0028F7D1F3E73D
:100C1000059902F05BFEC7E7C8010020D40100205F
:100C2000E405002030B4154DD5F81014044600201A
:100C300071B10B4601E01B6853B1DB681A7982423F
:100C4000F9D101300A28F3D14FF0FF3030BC7047A2
:100C5000E3681871D5F810344BB1DA68E3681268AC
:100C60001A60D5F81034DB681C6030BC7047C5F8DA
:100C70001044E268136030BC704700BFC801002018
:100C800038B5094BD3F81044012583F820544CB1F2
:100C9000E3685D71236820465B689847E3681C68D9
:100CA000002CF5D138BD00BFC801002030B5C38885
:100CB00085B004460D461BBB217A05291ED0627AF9
:100CC00082B9134AA08852F8212003920021FFF72D
:100CD0005FFC039A0F490346284605B0BDE8304043
:100CE00000F0A2BCA088FFF777FC0B4B0B4953F830
:100CF0002020284600F098FC217AE2E705B030BDBC
:100D0000074A00920749084A284600F08DFCD3E7BD
:100D1000543A0000B4390000303A0000B039000005
:100D2000A839000090390000883900002DE9F0430F
:100D300085B04FF0000C0C9C814694F80C8084F830
:100D40000CC00E461746184621461D46FFF7AEFF5B
:100D5000062F09D8DFE807F0042E343B444F1F006C
:100D60004946204600F060FC2B7A052B05D06B7AB3
:100D70005BB92749204600F057FC204600F048FCAC
:100D800084F80C8005B0BDE8F083224A2249204651
:100D900000F04AFCEDE7D6E90413F2680393B36868
:100DA0000291CDE900324946D6E90023204600F001
:100DB0003BFCD9E732684946204600F035FCD3E7D2
:100DC000D6E900234946204600F02EFCCCE7B36864
:100DD0000093D6E900234946204600F025FCC3E7EE
:100DE000D6E9023201920093D6E900234946204613
:100DF00000F01AFCB8E7D6E90321B3680291CDE907
:100E000000324946D6E90023204600F00DFCABE74E
:100E1000C0390000A8390000B0390000082900D905
:100E200070472DE9F04F9B4683B000241B7B8BF865
:100E30000C400D4606465946104690460193DFF891
:100E4000D0902C4FFFF732FF05E0325D013400F007
:100E5000EBFB082C09D0A54239465846F5D849463F
:100E6000013400F0E1FB082CF5D12349DFF8A49010
:100E7000224C234F584600F0D7FB4FF0000A0DE0FC
:100E8000D15D11F0970F08BF2E22214658460AF176
:100E9000010A00F0C9FBBAF1080F10D0554505D979
:100EA00016F80A207E2AEBD92E22EEE7494658464C
:100EB0000AF1010A00F0B8FBBAF1080FEED198F878
:100EC0000830052B02D098F8093063B90D4958460F
:100ED00000F0AAFB584600F09BFB019B8BF80C30FE
:100EE00003B0BDE8F08F084A0849584600F09CFB63
:100EF000ECE700BFC4390000D0390000D43900004D
:100F0000493B0000C0390000A8390000B03900009A
:100F1000CC390000BC390000074B4FF0A041185CF1
:100F2000D1F804350122824022EA03001340C1F8BF
:100F30000805C1F80C357047683A0000C20730B4A4
:100F40001AD54FF0A0430322C3F844274FF40035CD
:100F5000C3F848274FF48024C3F84C274FF40021EE
:100F6000C3F850274FF48012C3F80855C3F808455A
:100F7000C3F80815C3F8082583070AD54FF0A04326
:100F80000C22C3F83427C3F83827C3F83C27C3F82A
:100F9000402730BC704700BF00B585B00346002134
:100FA00001AA44F20100CDE90111039300F004F815
:100FB00005B05DF804FB00BF10B572B6FFF760FE28
:100FC000FFF720FB0028FBD1104B114C1149E41A0C
:100FD000E408240444F00100FFF74AFC0E4B1B68B0
:100FE000DB0700D500BE0D4944F00200FFF740FCCE
:100FF000BFF34F8F0A490B4BCA6802F4E0621343F8
:10100000CB60BFF34F8F00BFFDE700BF543C000033
:101010007C3C00006C3A0000F0ED00E0783A000003
:1010200000ED00E00400FA05F8B52049204B00244B
:10103000C1F84041C1F84441C1F84841C1F84C41B0
:10104000C1F80041C1F804411B6833B31948D1F815
:10105000045501681A686D1A25F07F45AA42274693
:101060000DD8197CDE69AD1A144419B1D3E90520F5
:101070001F7490471EB133461A68AA42F1D90E492F
:101080000E4A0B7812789A4208D00D490D4A41F861
:1010900023404FF48013C2F80031F8BD531CDBB27B
:1010A000022B08BF00230B70EFE700BF00100140C8
:1010B000A4070020A00700209D0700209C07002017
:1010C0009407002000E100E02DE9F04FB34AB44955
:1010D00013780978994285B000F088810133DBB23A
:1010E000022B08BF0023AF481370AF4A0568DFF832
:1010F000D08252F82310D8F800606B1823F07F4399
:101100000360002E00F0C18100200746044684469B
:101110003346AE4613E0D868DD69C3F800C0891ACB
:10112000144438B10EEB040222F07F42C3E90120DF
:10113000DF611F460120002D00F05F812B461A68F9
:101140008A42E8D9002800F08B81C8F8003099461F
:10115000521A1A6001230093944B954EDFF864A253
:1011600043F0010301934D464FF0000B002F31D0A7
:10117000D7E901303C46FF698A4ADFF84CC2126861
:10118000991A21F07F41614500F2DD800B18236040
:1011900000220121C4E90122E2612174002D00F046
:1011A000F3802A689A4280F0E880294605E0D1F869
:1011B00000E09E4580F0CF8072460846C9699C4693
:1011C0009B1A0029F3D12360E161C4612C462546B6
:1011D000002FCDD170783378984247D09C460CEBE5
:1011E0004C0CB27806EBCC0C591CCBB29A429CF852
:1011F0000420337004BF00233370022ADCF8084057
:1012000024D0032A18D0012AE6D1227C002AE3D177
:10121000DCF80C306360DCF81000A060DCF814101F
:10122000E1609AF800E0DCF81810A161BEF1000F4F
:10123000A2D0626013469FE7002DCDD000232B740F
:10124000ED69002DFBD1C8F80050C3E755B1AC42A1
:1012500000F0BC802A4601E0944239D01146D269A0
:10126000002AF9D1002222749842B7D1BBF1000FB5
:1012700001D1A94541D0002D44D04A4A4D4B1468B4
:10128000D3F804654C4FD5F800803A78351B25F02B
:101290007F450335002A00F0B580464AA8452CBF9B
:1012A0004444641924F07F44C2F84045D2F8043520
:1012B0009B1BA41B23F07F4324F07F440333A342F2
:1012C00000F2B98000238AF8003005B0BDE8F08F45
:1012D0008C427DD0E0692268C861002858D0AC46B5
:1012E000036813440360AC4552D000223378707811
:1012F000227465464FF0010BB6E7009B002BE1D04E
:10130000002DBAD12B4E2D4A284C4FF400314FF40A
:1013100080330127C2F880103C43C6F848334FF4AD
:101320003C60C6F808337760A0471E4BB7604FF4A7
:101330003C601D60A047204B1D7000238AF80030E0
:1013400005B0BDE8F08FD31A23F07F4383420BD260
:10135000C31A23601CE77244A2EB0C020A602360EC
:10136000E161C4612C4632E700230122C4E9003365
:10137000A360E36122743DB12A68C8F80040D31A23
:101380002B60E561254623E7C8F8004025461FE7A6
:10139000002233787078227466E700BF9C07002033
:1013A0009D070020A007002094070020903A00002D
:1013B00084060020001001409107002000E100E0B9
:1013C000A407002090070020FEFF7F0029462A4640
:1013D000D5F81CC0C8F800C0BCF1000F42D0D069DD
:1013E0001268C86100287FF47BAF7CE7DFF8B48027
:1013F0000027D8F800900097AEE6A946C8F800503C
:101400000090A9E62349244A4FF48030C3F84403EE
:101410004FF00109C3F804034FF40030C1F8800114
:1014200042F001020860C3F800904FF43C6090471E
:1014300087F8009031E7184BD2F80415C2F8401530
:1014400043F001034FF43C609847124B4FF40032D5
:10145000C3F8002100238AF8003005B0BDE8F08F02
:10146000B14675E6CDE902210C4A0D48012393608F
:10147000C0F800C08AF800304FF43C60019B9847E8
:10148000DDE90221D8F800C0A9E70123B1463746BB
:10149000009361E600E100E0903A00000010014096
:1014A000A0070020A407002072B6024A1368013387
:1014B00013607047A8070020034A1368013B1360BC
:1014C00003B962B6704700BFA807002010B40346F6
:1014D00053E8000F0A4643E8002494F0000FF7D1C8
:1014E0005DF8044B704700BF10B4034653E8002F6B
:1014F00002EB010043E8000494F0000FF6D15DF820
:10150000044B704710B4034653E8002FA2EB0100D0
:1015100043E8000494F0000FF6D15DF8044B7047E7
:1015200010B40346012253E8001F41EA020043E8D9
:10153000000494F0000FF6D15DF8044B704700BF33
:1015400010B40346002253E8000F00EA020143E80A
:10155000001494F0000FF6D15DF8044B704700BF03
:10156000B8B130B4D0E90112521A0468D2B2531E95
:101570002160DBB242B101680A685C1E551C0D6037
:101580001370E3B2FF2BF6D103680020187130BC52
:1015900070470E20704700BF38B504460020FFF7A3
:1015A00083FFD4E900311A688A4215D9511E1960A7
:1015B0002168A3680868258A12F8012CE4681B1AC0
:1015C0000879DBB2984205FB024400D20B7100207F
:1015D000FFF772FF204638BD00240020FFF76CFFA4
:1015E000204638BD38B5054600200C46FFF75CFFA5
:1015F0002A681368591C1160E9682A8A641AB4FBC6
:10160000F2F41C70BDE838400020FFF755BF00BF62
:10161000826842B110B50446436901680069984781
:101620000023A36010BD70470EB400B582B00399CB
:1016300021B104AB01AA019300F0ACF802B05DF84F
:1016400004EB03B0704700BF2DE9F04F164683B09E
:10165000B142DDE90C920F4605469A46C0F09580EE
:101660000B464FF00108B3FBF6F39E4208F1010868
:10167000F9D9D04538BFD04612F00103019302D109
:10168000B9F1000F5ED1AA68012403E00AF1FF3A24
:1016900006FB04F4BAF1010FF8D8B7FBF4F39E424D
:1016A000F6D9DFF8ECA007E0B442B4FBF6F31AD3A6
:1016B000AA681C46B7FBF3F31AF803B0BBF10A0F94
:1016C00004FB137728D02B68511CA96003F802B0E3
:1016D000D5E901329A42E7D32846FFF799FFB4FBD8
:1016E000F6F3B442E4D2019B9BB1B9F1000F10D0E4
:1016F0002024C84509F1FF390BD2AB682A68591C70
:10170000A960D454D5E901329A4214D2B9F1000F3C
:10171000EFD103B0BDE8F08F511C2B68A9604FF0EA
:101720000D019954D5E901329A42CCD32846FFF7EE
:101730006FFFAA68C7E72846FFF76AFFB9F1000FF5
:10174000D7D1E6E793071AD42024AA68C84502F146
:10175000010199D22B68A9609C54D5E901329A42C3
:1017600009F1FF3903D2B9F1000FEFD18CE7284618
:10177000FFF74EFFAA68B9F1000FE7D184E7BAF18D
:10178000000F0CBF30242024DFE74FF0010870E782
:10179000983A0000002900F054822DE9F04FDFF85C
:1017A000B8950C7885B0064690460D464FF00D0A68
:1017B00010E00A2CB36800F0AD803268591CB160AB
:1017C000D454D6E901329A4280F0A0802C78002CC3
:1017D00000F087800135002C00F08380252CE8D1B3
:1017E000294600270D4611F8012B2D2A00F088808C
:1017F000302A00F088802B2A7AD02A2A00F099809B
:10180000A2F13003092B4FF000040BD804EB840441
:1018100002EB440415F8012FA2F13003092BA4F1C7
:101820003004F3D92E2A00F09080002301E015F84F
:10183000012F02F0FB016829F9D0252A00F07781F9
:10184000583AD1B2202947D8202A45D8DFE812F0EB
:101850003501440044004400440044004400440076
:101860004400440044004301130144004400440088
:101870004400130144004400440044004400440078
:10188000D20044004400A2004400940044004400FC
:10189000350101209842024638BF1A460292002CB8
:1018A00040F05081B80740F16E81002B40F04E822D
:1018B0001C46BBF1000FC0F20A827A0700F11A82BF
:1018C00007F00302022A00F0EA81CDE900475946F9
:1018D0000A223046FFF7B8FE01352C78002C7FF441
:1018E00079AF337B002B40F01C8105B0BDE8F08F51
:1018F0000D4611F8012B2D2A47F004077FF478AF2D
:1019000047F001076EE747F002076BE73046FFF745
:101910007FFE5BE73268591CB16002F803A0D6E98C
:1019200001239342FFF449AF3046FFF771FEB368DD
:1019300043E7D8F800301A1DC8F800206A781C6800
:101940002E2A05F101057FF470AF6A78A2F1300309
:10195000092B05F101054FF000033FF66AAF03EBD9
:10196000830302EB430315F8012FA2F1300109298B
:10197000A3F13003F3D95CE7D8F80020111DC8F8B3
:10198000001011683046CDE900470A22FFF75CFEDF
:101990000135A2E7D8F800301A1DC8F8002017F06A
:1019A0000107D3F800B040F0F080BBF1000F03D086
:1019B000584601F0A1FF0746BC4240F24381002C8B
:1019C00000F04081202205E0BC4200F03B81002C69
:1019D00000F03881B1683368481CB0605A54D6E9C9
:1019E0000130984204F1FF34EED33046FFF710FE89
:1019F0002022E9E7D8F80020131DC8F80030B368AA
:101A000031681768581C3022B060CA54D6E90123E7
:101A1000934280F0EF803268581C7821B060D15436
:101A2000D6E901329A4280F0E0800F2F03D93B467D
:101A30001B090F2BFCD84FF0805406E00F2C4FEA07
:101A400014137FF649AFB2681C46B7FBF4F319F8DC
:101A500003B0BBF10A0F04FB137754D03368511C59
:101A6000B16003F802B0D6E901329A42E6D33046BB
:101A7000FFF7CEFDE2E7D8F80020111DC8F80010EE
:101A8000D2F800B08BEAEB72A2EBEB72092A7FF777
:101A900000AFDFF8C8C2012011466329ACFB02E2A7
:101AA00000F101004FEAD202F6DC9842024638BF4C
:101AB0001A460292002C45D1F4E6D8F80020111DF8
:101AC000C8F8001011683046CDE900471022FFF732
:101AD000BBFD013501E7D8F800301A1DC8F8002019
:101AE0001C78B3680A2C00F011813268591CB1606F
:101AF000D454D6E901329A42FFF4EEAE3046FFF7F5
:101B000087FD0135E9E63368511CB16003F802A096
:101B1000D6E901329A42A1D33046FFF779FDB26887
:101B20009CE7304605B0BDE8F04FFFF771BDB368E4
:101B30003168581CB060CA54D6E901329A42DDD2ED
:101B40000135CAE6BBF1000F59DB7A0757D4B80755
:101B500002D5002B3FF4ADAEF9073FF5AAAE94B124
:101B600020220299A142BFF4A4AEB168481CB06023
:101B700030684254D6E90101814204F1FF3480F01B
:101B8000D480002CEDD1002493E69BF80030002B8C
:101B900000F0E080B0685F46CBF101020A2B02EB57
:101BA000070B3CD0411CB16031680B54D6E90130C1
:101BB000984226D217F8013F002BEFD15C457FF603
:101BC0008BAE202702E05C453FF486AEB2683368F6
:101BD000511CB1609F54D6E901329A4204F1FF349E
:101BE000F1D33046FFF714FDEDE73046FFF710FD67
:101BF000B2681AE73046FFF70BFDB3680BE7013C0C
:101C0000A5E730460292FFF703FD17F8013F002BCE
:101C1000D4D0029AB0680A2B02EB070BC2D1411C48
:101C2000B160316801F800A0D6E901108842B9D34B
:101C30003046CDE90232FFF7EBFCDDE90232B06855
:101C4000B0E770479BF80040002C3FF445AE0A2CEB
:101C5000B0680ED03368421CB2601C54D6E9013023
:101C6000984214D21BF8014F002C3FF435AE0A2CD9
:101C7000F0D13368421CB26003F800A0D6E901300D
:101C80009842E7D33046FFF7C3FCB068E2E730463E
:101C9000FFF7BEFC1BF8014F002CD8D11CE6002B2F
:101CA0007FF413AE8CB130220299A142BFF40DAE85
:101CB000B168481CB06030684254D6E901018142E5
:101CC00004F1FF343BD2002CEED10024FDE5B168D5
:101CD0004A1CB26032682D205054D6E9012191424D
:101CE000CBF1000BFFF4ECAD30460393FFF790FC13
:101CF000039BE5E5B1684A1CB26032682B20505462
:101D0000D6E901219142FFF4DBADEDE73268591CC1
:101D1000B16002F803A0D6E901239342FFF4E5AED7
:101D20003046FFF775FCB368DFE630460393FFF7F4
:101D30006FFC039B2022002C7FF413AF23E7304677
:101D40000393FFF765FC039B3022BCE7F9073FF5DF
:101D5000B0AD18E79B4631E7983A0000CDCCCCCC2B
:101D6000FFF7FEBB2DE9F041058A0331043D4E1912
:101D70008046B6FBF5F6FFF70FFCA0B3F6B24FF4C2
:101D80008073013E0446C580C0F8008083802BD05C
:101D90000346002508E06279AE4202F10102627159
:101DA0003860C0F800801FD040461F46FFF7F4FBA4
:101DB000013503460028EED16779791E17D02246F7
:101DC000013399421268FBD1D2F800805FB12668D6
:101DD000002501E034463668214601354046FFF7CC
:101DE00001FCAF42F6D800242046BDE8F08120680F
:101DF0002146FFF7F7FBF6E704300121FFF774BB3C
:101E00002DE9F041012104460430FFF77BFB10F07F
:101E1000FF0301D0BDE8F0816779791E16D0224614
:101E2000013399421268FBD1D2F80080002FF1D023
:101E30002668002501E034463668214601354046D3
:101E4000FFF7D0FBAF42F6D8BDE8F081206821460D
:101E5000BDE8F041FFF7C6BB2DE9F8430546C6884B
:101E60004079144606FB00F2043A04EB030C1F1DF4
:101E7000624538BFD41ABE428846B7FBF6F106FB6E
:101E8000117002D801392D68FCD1371AA74228BF3A
:101E900027469CB14FF000090430E41B28443A4621
:101EA00008EB090101F012FDA642B9442D6837463E
:101EB0004FF0000028BF2746002CEDD1BDE8F88385
:101EC0002DE9F8430546C6884079144606FB00F222
:101ED000043A04EB030C1F1D624538BFD41ABE42FE
:101EE0008846B7FBF6F106FB117002D801392D6860
:101EF000FCD1371AA74228BF27469CB14FF00009F2
:101F000004302918E41B3A4608EB090001F0DEFC16
:101F1000A642B9442D6837464FF0000028BF274637
:101F2000002CEDD1BDE8F8838268002393608268BD
:101F30001361826853618268D360826853608268EB
:101F40001360704730B587B0057844688DF8045049
:101F500002948568084A094B8DF80C50D0E903407B
:101F600053F821308DF8140052F82110049401A880
:101F7000984707B030BD00BFAC070020B80700206D
:101F80002DE9F04F1A4EDFF86CE0DFF86C90DFF8C7
:101F90006CA00C46154607469B4696E80F0087B096
:101FA00002AE86E80F0017F804CB23680193002DDA
:101FB0004EF82C5094F8058094F804E04AF82CB0C0
:101FC000314608BF2A46019EA568A4890296384674
:101FD00018BF4A4663468DF80DE08DF80E800495D3
:101FE000ADF8144000F056FB07B0BDE8F08F00BF1D
:101FF000A83A0000B8070020451F0000AC070020E9
:1020000030B585B0047845688DF80040D0E90240CD
:10201000064A074B039053F82130019552F82110DE
:102020008DF808406846984705B030BDC4070020C9
:10203000C807002030B585B0047845688DF80040A9
:10204000D0E90240064A074B039053F8213001952E
:1020500052F821108DF808406846984705B030BD09
:10206000C4070020C8070020F0B51A4B90F800C044
:10207000194C1A4D91F81DE044F82C2007460869C8
:1020800045F82C0003F80CE00C4616460FCC89B03E
:102090006D460FC594E80F0085E80F00CDF810C01D
:1020A000BEF1000F0AD0002E0D4A694607F1040068
:1020B00008BF324600F0B2FF09B0F0BD002E094A59
:1020C000694607F10C0008BF324600F075FD09B003
:1020D000F0BD00BFB8080020C8070020C4070020DA
:1020E00001200000352000002DE9F04186B0C04AF3
:1020F000002301931168012900F0C8811E46BD4BE1
:102100001A68012A00F0B481BB4B1A68012A00F05A
:10211000A181BA4B1A68012A00F08E81B84B1A6867
:10212000012A00F07B81B74B1A68012A00F0528126
:10213000B54B1A68012A00F03F81B44B1A68012A96
:1021400008D0B34B1A68012A00F0AC81F6B906B08A
:10215000BDE8F081AF4AD2F804231206F1D500227F
:102160001A6019680491196E0498012903F160033B
:1021700046F080060AD11A601B6805934FF0A04311
:10218000059AD3F81035019346F00046A24F00247B
:102190000125A30003F180432E4203F5C0434FEA1B
:1021A00045050BD0D3F8100557F82420D3F81015A7
:1021B000C0F30420C1F3014102B190470134082C5F
:1021C000E7D1002EC3DA00224FF0FF33CDE902231E
:1021D000914C012502AE94F95000471C37D0C0F352
:1021E000C20C06AB03EB0C0700F0070317F80C2C2E
:1021F00005FA03F31A42C1B200F03F0027D02218BB
:10220000890992F9302054F82280B8F1000F00F0CB
:102210009D81032900F09D81820002F1A04217F800
:10222000147CD2F800C71F40CCF3014C0BD0BCF19A
:10223000020F0CD1032900F0BF810027B8F1000F75
:1022400006D0C04704E0BCF1030F00F0A3810027D3
:1022500094F95100411C32D0C0F3C20E06AB03EB1F
:102260000E0C00F007031CF80C2C05FA03F31A42BD
:10227000C1B200F03F0022D02218890992F9302023
:1022800054F82280B8F1000F00F07B81032900F0A0
:102290007B81820002F1A04E1CF814CCDEF80027EE
:1022A0001CEA030FC2F3014200F03A81022A06D170
:1022B000032900F08481B8F1000F00D0C04794F9E1
:1022C0005200421C32D0C0F3C20E06AB03EB0E0C20
:1022D00000F007031CF80C2C05FA03F31A42C1B2F4
:1022E00000F03F0022D02218890992F9302054F8DA
:1022F0002280B8F1000F00F03B81032900F03B8100
:10230000820002F1A04E1CF814CCDEF800271CEA73
:10231000030FC2F3014200F0ED80022A06D1032927
:1023200000F05081B8F1000F00D0C04794F953007D
:10233000431C32D0C0F3C20E06AB03EB0E0C00F010
:1023400007021CF80C3C05FA02F21342C1B200F07D
:102350003F0022D02318890993F9303054F82380A4
:10236000B8F1000F00F0FB80032900F0FB80830030
:1023700003F1A04E1CF814CCDEF800371CEA020F63
:10238000C3F3014300F09C80022B06D1032900F027
:102390001C81B8F1000F00D0C047002F3FF4D7AE2A
:1023A0004FF0A043019AD3F810359A423FF4CFAED4
:1023B000029A019303920EE7164AD2F804235106BB
:1023C0007FF5BBAE00221A601B680493049B46F0A5
:1023D0004006B2E60F4AD2F8042390067FF5A8AE75
:1023E00000221A601B680493049B46F020069FE6B7
:1023F0000061004004610040086100400C61004041
:102400001061004014610040186100401C610040F0
:102410007C61004000600040D00700206C4AD2F888
:102420000423D4067FF57FAE00221A601B68049354
:10243000049B46F0100676E6654AD2F80423150799
:102440007FF56CAE00221A601B680493049B46F073
:10245000080663E65E4AD2F8042357077FF559AEB3
:1024600000221A601B680493049B46F0040650E6A1
:10247000574AD2F8042392077FF546AE00221A602D
:102480001B680493049B46F002063DE65049D1F8D0
:10249000046316F001063FF432AE13601368049330
:1024A000049B2CE600221A601B6805934FF0A043A2
:1024B000059AD3F810350193002E3FF484AE63E6FD
:1024C000032B7FF46AAF03297FF463AF4FF400322C
:1024D000DEF8003723F44033CEF80037DEF800375B
:1024E0001343CEF80037B8F1000F3FF459AF01376E
:1024F000FFB251E7032A7FF419AF03297FF412AF2B
:102500004FF40032DEF8003723F44033CEF80037C2
:10251000DEF8003701371343FFB2CEF8003701E78A
:10252000032A7FF4CCAE03297FF4C5AE4FF400320A
:10253000DEF8003723F44033CEF80037DEF80037FA
:1025400001371343FFB2CEF80037B4E603297FF416
:102550007EAE16F80C201A4306F80C205CE6032920
:102560007FF41BAF16F80E30134306F80E30FEE66C
:1025700003297FF4DBAE16F80E201A4306F80E206E
:10258000BEE603297FF49BAE16F80E201A4306F828
:102590000E207EE603297FF451AE4FF40037D2F8C7
:1025A000003723F44033C2F80037D2F800373B43FA
:1025B000C2F80037012741E64FF44037EFE74FF408
:1025C0004032B5E74FF440329CE74FF440327FE7AA
:1025D00000600040014B1B68184700BF2C0800201A
:1025E00038B50C4B984213D100200D46FEF75CFF26
:1025F000094B1C7924B10020FEF75EFF112038BD85
:10260000012220461D601A71FEF756FF204638BD94
:10261000002038BD002000402C080020034B9842C9
:1026200003D1034B00221A601A717047002000404A
:102630002C080020144AD2F81831E3B10021134BC2
:10264000C2F81811D2F81811DA7F82B0FF2A01916E
:10265000019908D0997F79B101214FF0A04001FA8A
:1026600002F2C0F80C2500225A771A72D3E9002131
:10267000074802B01047704701214FF0A04001FA0F
:1026800002F2C0F80825EEE70030004034080020D0
:102690003C0800202DE9F04F0679DFF8FCA106EB9D
:1026A000C6090AEB890B05469BF81C0083B0CDE9EF
:1026B0000032002840F0BA802F680C463846734933
:1026C000FFF78EFF002840F0D4804FEA8909019A75
:1026D0004AF80920009BCBF80430237B94F800C013
:1026E000012B4FF0A0414FF0010303FA0CF394BF0C
:1026F000C1F80C35C1F8083523784FF0A04C03F52C
:10270000E07301214CF823106378FF2B4FEAC608D1
:1027100000F0908003F5E07E99404FF00309CCF87B
:102720000C154CF82E9094F802C0BCF1FF0F00F08D
:1027300089800CF5E07E4FF0A0414FF0040941F88C
:102740002E90E64694F802C008EB06010AEB8101E0
:1027500081F820C094F803C081F81FC0BCF1FF0FBE
:102760001AD02179002970D101214FF0A04901FA36
:102770000CF1C9F80815E1784FF0A04C01F5E071B3
:102780004FF003094CF8219008EB06010AEB810198
:1027900094F804C081F81EC02178C7F80815C7F85E
:1027A0000C35C7F810E5A368C7F82435637B217B97
:1027B000003B18BF0123022965D0032960D00129FD
:1027C0005BD0C7F85435A379C7F8C035002A44D088
:1027D00040220723C7F80423C7F800352A68637925
:1027E00042F3073100294FEA12323ADB01F160412E
:1027F00001F561415B01DBB281F800332B68244CA9
:1028000043F307325209C3F30433012101FA03F3FE
:1028100044F8223046440AEB860A002201238AF853
:102820001D208AF81C3003B0BDE8F08F082003B0EB
:10283000BDE8F08F94F802C0BCF1FF0F4FF0FF33FA
:102840007FF477AF4FF0FF3E7EE701214FF0A049C4
:1028500001FA0CF1C9F80C158DE70723C7F800350C
:10286000D8E70C4902F00F025B011144DBB20B7692
:10287000C4E7112003B0BDE8F08F43F00203A0E7E6
:1028800043F006039DE743F004039AE73526000072
:1028900000E100E0FCEC00E0340800202DE9F04706
:1028A0000779DFF850C107EBC7030CEB83068646B8
:1028B000707F82B0002840F093809B000C465CF84B
:1028C000033015464FEAC70823B112F0140F04BFB6
:1028D0000123737708EB07060CEB860694E80F00DC
:1028E00096F81FA006F10C09BAF1FF0F89E80F0056
:1028F00009D0B37F002B61D001234FF0A04203FA2F
:102900000AF3C2F80835226822B102F06043B3F13D
:10291000005F5BD1A36823B103F06043B3F1005FB4
:1029200054D1DEF800306168C3F84425C3F8481577
:10293000D4E90221C3F834250022C3F83815C3F8BE
:102940001821D3F818210192019A15F0010218BF3D
:102950000122C3F8502515F0020218BF0122C3F866
:1029600040252A075CBF01221A6108EB07025CF8C8
:10297000222062B115F004004FF040021ABFC3F8E4
:1029800008230020C3F8042302B0BDE8F087D3F881
:102990001821002AFBD047440CEB870C9CF81F3011
:1029A000FF2B24D09CF81E0001224FF0A04102FA18
:1029B00003F3C8B1C1F80C350020E5E701234FF05F
:1029C000A04203FA0AF3C2F80C359CE747440CEB2B
:1029D000870C002310208CF81D3002B0BDE8F08772
:1029E000112002B0BDE8F087C1F80835CCE700201F
:1029F000CAE700BF3408002030B56D4AD2F804336E
:102A000099058BB068D5D2F82431002B64D000230F
:102A1000C2F82431D2F8243103934FF40171654B8D
:102A20000398C2F8081393F8291009B901215160DD
:102A30005F4902228DF81820D1F88024C1F8802443
:102A40009869D968099200240025CDE90710C3E9E7
:102A50000645D3E9001206A89047554AD2F81C3122
:102A6000C3B1544B186A596988426AD293F8280056
:102A700000F0FF04002864D1C2F81C41D2F81C11F8
:102A8000029102999C68186A196A205C01311962E6
:102A9000C2F81C05464AD2F84431DBB10021454B4F
:102AA000C2F84411D2F8440193F82910009000981C
:102AB00009B1012111609A6962B1586AD96800228E
:102AC0009A610122CDE907108DF8182006A8D3E9F4
:102AD000001290470BB030BD354AD2F804335B0783
:102AE000BBD5D2F80831002BB7D0324B99690029F9
:102AF0003CD00021C2F80811D2F8081104910499C1
:102B0000D868596AD2F8182542545A6A996901322C
:102B10005A625A6A8A42A0D1DA69002A2FD0DD6847
:102B20005C6A18699A6101210022D860DA615A62F0
:102B30008DF81810CDE90754D3E9001206A8904784
:102B40008BE71B4A0020C2F81C01D2F81C2101921D
:102B5000019A00299ED09A688DF818000891586152
:102B6000079206A8D3E90012904793E7C2F808112C
:102B7000D2F8080105900598D2F81825C9E793F80E
:102B8000292012B90A4A01215160094A4FF4017102
:102B9000C2F80813596ADA680891002401200792E4
:102BA0008DF81800D3E900129C6106A8904754E7FD
:102BB00000200040580800202DE9F041604F0679C0
:102BC0002C2303FB067382B093F82A30002B40F0CD
:102BD000898005460C4600685A499046FFF700FD7B
:102BE00000287BD12368591C0CD001224FF0A04152
:102BF00002FA03F3C1F80835236803F5E0730322F2
:102C000041F8232063685A1C06D003F5E0734FF0A7
:102C1000A042002142F823102B68A269C3F82425A2
:102C2000217D637D2A680B43C2F86C35D4E900121C
:102C30002B68C3F81425C3F80C15237D012B5DD038
:102C40002C2303FB06F3FA18C2F804802269FA5019
:102C5000B8F1000F2FD02A68237F3B4C0021C2F827
:102C60001C11D2F81C2100922A68DDF800C0C2F8BD
:102C70004411D2F844112A6801910199C2F8044321
:102C80002A6842F3073100294FEA12322EDB01F1A4
:102C9000604101F561415B01DBB281F800332B68D3
:102CA0002A4C43F307325209C3F30433012101FADA
:102CB00003F344F822302C23296803FB067604240E
:102CC00000230122C6E90633C1F8004586F82A2010
:102CD00086F82930736102B0BDE8F081112002B09E
:102CE000BDE8F081082002B0BDE8F081184902F08B
:102CF0000F025B011144DBB20B76D0E7A368591CCD
:102D000006D003F5E0734FF0A042002142F82310F3
:102D1000E3685A1C0DD001224FF0A04102FA03F3E0
:102D2000C1F80835E36803F5E073032241F8232076
:102D3000E3682A68A168C2F80835C2F810157FE771
:102D400058080020F92900008000020000E100E09E
:102D5000FCEC00E0F8B52F4D047902682C2303FB4E
:102D6000045300215B68C2F8001583B103682A4A46
:102D7000C3F808230268294E42F307335B09203366
:102D8000C2F30432012101FA02F246F8232003685B
:102D90004FF0FF32D3F80CC5D3F81475D3F80815EB
:102DA000D3F81065C3F81425C3F80C2503689445BF
:102DB000C3F80825C3F8102506D00CF5E07C4FF0C9
:102DC000A043022243F82C207B1C06D007F5E077B5
:102DD0004FF0A043022243F82720721C06D006F5CC
:102DE000E0764FF0A043022243F826204B1C06D089
:102DF00001F5E0714FF0A043022243F82120006862
:102E0000FFF70CFC2C2303FB0454002384F82A3026
:102E10006360F8BD580800208402020000E100E071
:102E20002DE9F041314E05792C2303FB056304465F
:102E3000586984B000284CD11862996083F8280042
:102E40005A612268C2F81C01D2F81C112268029152
:102E50000121029F91602268D3F808C0C2F81C01CA
:102E6000D2F81C11019101991F6A196A1CF80770A8
:102E700001311962C2F81C755A6812B104B0BDE87C
:102E8000F0811A6A5F692168BA421BD2864602E065
:102E900093F828200ABBD1F81C21002AF8D0C1F8E9
:102EA0001CE1D1F81C210392039AD3F820801A6AFE
:102EB0001CF8088001321A62C1F81C851A6ABA42ED
:102EC000E9D32168D1F81C31002BFBD00123CB6062
:102ED00004E0112004B0BDE8F0810F202C2303FB97
:102EE000056500236B6104B0BDE8F081580800203F
:102EF00030B5484BD3F8242189B0002A57D000229E
:102F0000C3F82421D3F82421029202228DF8102044
:102F1000029AD3F88014404AC3F880140791D3F87A
:102F20003C15D3680691002400250593C2E90645A7
:102F30001168536804A89847364BD3F844214AB126
:102F40000021354AC3F84411D3F844019169019036
:102F50000198D9B92F4BD3F82021AAB10021C3F889
:102F60002011D3F820012C4A00900098506958B1E4
:102F7000D3F84C05936806908DF8101051610593B5
:102F800004A8D2E90013984709B030BDD3F83C3506
:102F9000D168069300240025012305918DF8103097
:102FA000C2E90645D2E9001304A89847D2E7D3F84E
:102FB00010110029C0D0C3F81021D3F81011164801
:102FC000039103998469D3F83C15A142B4D1C46933
:102FD000A4B1D3F80052846125F02005C3F8005253
:102FE000D0E90343C26101220691C36001684368CE
:102FF00005948DF8102004A898479DE7C268846165
:103000000123CDE905218DF81030D0E9001304A883
:10301000984791E700200040880800202DE9F04300
:1030200007796A4E07EBC70306EB830385B093F875
:103030002030002B40F09B8004460D460068644918
:103040009146FFF7CDFA002840F08D802B68591C7F
:103050004FEAC7080CD001224FF0A04102FA03F357
:10306000C1F808352B6803F5E073032241F82320EB
:103070006B685A1C06D003F5E0734FF0A0420021A4
:1030800042F823102368A969C3F82415297D6A7DB5
:1030900023680A43C3F86C25D5E900312268C2F8D9
:1030A0000C35C2F814152B7D012B6CD008EB0702F0
:1030B00006EB8203C3F804902B6946F82230B9F17D
:1030C000000F3FD021682B7F424D0022C1F8102114
:1030D000D1F8101100912168DDF800C0C1F820215D
:1030E000D1F8201101912168DDF804C0C1F8242134
:1030F000D1F8241102912168DDF808C0C1F84421FB
:10310000D1F84411226803910399C2F8045322684C
:1031100042F3073100294FEA12322CDB01F1604102
:1031200001F561415B01DBB281F8003323682A4D70
:1031300043F307325209C3F30433012101FA03F3C5
:1031400045F822304744226806EB87060023012415
:103150000821C2F80015C6E9063386F820407361DD
:1031600005B0BDE8F083112005B0BDE8F08308206C
:1031700005B0BDE8F083194902F00F025B0111446C
:10318000DBB20B76D2E7AB68591C06D003F5E073CF
:103190004FF0A042002142F82310EB685A1C0DD0DA
:1031A00001224FF0A04102FA03F3C1F80835EB68A1
:1031B00003F5E073032241F82320EB682268A96835
:1031C000C2F80835C2F8101570E700BF8808002063
:1031D000F12E00001003020000E100E0FCEC00E032
:1031E000F8B50579304C026805EBC50304EB8303A1
:1031F00000215B68C2F80015EE0083B103682B4A1A
:10320000C3F8082302682A4F42F307335B092033CF
:10321000C2F30432012101FA02F247F823200368C5
:103220004FF0FF32D3F80CE5D3F814C5D3F80815E6
:10323000D3F81075C3F80C25C3F814250368964518
:10324000C3F80825C3F8102506D00EF5E07E4FF030
:10325000A043022243F82E20BCF1FF3F06D00CF51C
:10326000E07C4FF0A043022243F82C207A1C06D0C9
:1032700007F5E0774FF0A043022243F827204B1CCC
:1032800006D001F5E0714FF0A043022243F821205F
:10329000354404EB85040068FFF7C0F9002384F887
:1032A00020306360F8BD00BF8808002010030200D2
:1032B00000E100E0F0B401F06044B4F1005F82B0DE
:1032C0002CD10579244E05EBC50406EB8404034696
:1032D0006069EF00002839D16261A1601A68C2F804
:1032E0002001D2F820C11A68CDF804C0DDF804C06E
:1032F000C2F85801D2F8582100921A68DDF800C0CF
:10330000D4F814C0C2F84415C2F848C51A6801219F
:103310009160626832B102B0F0BC7047102002B018
:10332000F0BC70471B6800E0A0B9D3F82021D3F8A7
:103330005801002AF8D0002818BF0F207B1906EB8F
:10334000830300225A6102B0F0BC7047112002B022
:10335000F0BC70470F20F1E78808002038B5104A0C
:10336000104C114B114D1249A41AE408240444F0E6
:103370000304012220461A70FDF77AFA2B7803B96C
:1033800038BD0C492046FDF773FA284600F0B4FA20
:10339000294682B22046BDE83840FDF735BB00BF64
:1033A000543C00007C3C0000B4080020AC08002025
:1033B000DC3A0000F03A00002DE9F04F012089B01E
:1033C000FDF7BCFD4FF400410020FDF7C1F80028D7
:1033D0004CD1FDF7ADF8284B284D0FCB6C4684E857
:1033E0000F00274A2748009521460023FEF7C8FD15
:1033F00000283ED1244B25482549DFF8A480254EDE
:10340000254DDFF8A0B0C01AC008000440F003004A
:10341000FDF72EFAC24646F0010607274FF00009D5
:1034200007220021504600F05FFA1C4885F8009002
:10343000002204A9CDE904B7CDE90687FFF72EFAEB
:1034400008B110E020BF2B78002BFBD0FDF7DAF895
:103450000028FBD1FDF760FDC8244FF47A40B04747
:10346000013CFAD1DCE7FDF797FDECE7FDF794FDB1
:10347000AFE7FDF791FDBDE7143B00001A1D1E1FCD
:103480005D330000383B0000543C00007C3C0000F1
:10349000FC3A0000303B0000B40800203C3B000038
:1034A000AC0800201C00002030B4B84B1B78062B61
:1034B00020D0B74B1B68062B00F08180B54AD2F8AC
:1034C000883043F47003C2F88830BFF34F8FBFF3E6
:1034D0006F8F4FF01023D3F80022002AC0F28681AC
:1034E000D3F80432002BC0F28181AB4BAB4A1A6097
:1034F00030BC7047AA4B1B681D07DAD1A94B1B686B
:1035000003F0F002302A00F09B8003F0E003402B30
:1035100000F09680A34B1B6803F0F003302B00F003
:10352000A080A04B1B6803F0F002302A77D003F094
:10353000E003402B73D09B4B1B6803F0F003302B50
:1035400000F01481974B1B6803F0F002302A52D030
:1035500003F0E003402B4ED0924B1B6803F0F003C6
:10356000302B00F0F5808F4B1B6803F0F003302BFD
:1035700000F0D7808B4B1B6803F0F003502B7ED0FC
:10358000884B1B6803F0F002302A23D003F0E003DD
:10359000402B1FD0834B1B6803F0F002302A03D06E
:1035A00003F0E003402B84D14FF08043D3F8002494
:1035B000D20744BF6FF00102C3F8002479E77A4BC9
:1035C0001B68062B7FF47AAF784A136843F4806354
:1035D000136073E7764B6D4A1B681278754903F0E8
:1035E0004F03062A0B607FF464AF6D4B1B6819070D
:1035F0007FF45FAFCEE7654A11784FF08043002239
:103600000629C3F80C21C3F81021C3F838257FF42C
:1036100050AF634B1B681B077FF44BAF9CE7664BB7
:103620005A4A1B6812786549C3F34233062A0B6075
:103630007FF43FAF5A4B1B6819077FF43AAF7AE724
:103640005F4B524A1B6812785E49C3F30423062A73
:103650000B607FF42EAF524B1B681C077FF429AF21
:1036600058E74A4B584A1B7858491160062B7FF49B
:1036700020AF4B4B1B6818077FF41BAF51E74FF08F
:103680008052534BD2F80414C3F82015D2F8081412
:10369000C3F82415D2F80C14C3F82815D2F8101466
:1036A000C3F82C15D2F81414C3F83015D2F8181436
:1036B000C3F83415D2F81C14C3F84015D2F82014FE
:1036C000C3F84415D2F82414C3F84815D2F82814C6
:1036D000C3F84C15D2F82C14C3F85015D2F8301496
:1036E000C3F85415D2F83414C3F86015D2F838145E
:1036F000C3F86415D2F83C14C3F86815D2F8401426
:103700002248C3F86C15D2F844140278C3F8701537
:10371000062A7FF4CEAE224B1B6818077FF4C9AE91
:103720002EE71A4B2B4C1B782B492C482C4A05258D
:10373000256001250D6000243F21062B04601160E7
:103740007FF4B7AE164B1B681C077FF4B2AE11E7CF
:103750000E4B244A1B780321062B11607FF4A9AE7F
:103760000F4B1B681D077FF4A4AEFCE61E4A0749F9
:10377000D368097823F080730629D3607FF499AE6B
:10378000074B1B681A077FF494AEDBE6E00F00F0EE
:103790003001001000ED00E0240000200090D00374
:1037A000E40F00F0E80F00F0340100103C17004077
:1037B00058020010E40E0040440200103C05004096
:1037C000240300104035014074C007400DF0ADBA2D
:1037D00000C0004010560040885600401856004077
:1037E00014560040A0050040F0ED00E0184A012307
:1037F000C2F80435D2F80034002BFBD04FF0102370
:103800001521134AC3F80012D2F80034002BFBD064
:103810004FF0102315210E4AC3F80412D2F80034D9
:10382000002BFBD000230A49C2F80435D1F800343C
:10383000002BFBD0BFF34F8F0649074BCA6802F439
:10384000E0621343CB60BFF34F8F00BFFDE700BFC3
:1038500000E0014000ED00E00400FA0508B5074B68
:10386000044613B10021AFF30080054B1868836A4A
:1038700003B19847204600F047F800BF0000000061
:103880004C3C000070B50D4D0D4C641BA41000267F
:10389000A64209D10B4D0C4C00F038F8641BA41063
:1038A0000026A64205D170BD55F8043B9847013665
:1038B000EEE755F8043B98470136F2E78800002010
:1038C00088000020880000208C0000200A449142DB
:1038D00000F1FF3300D1704710B511F8014B03F828
:1038E000014F9142F9D110BD02440346934200D1E9
:1038F000704703F8011BF9E7034613F8012B002A70
:10390000FBD1181A01387047FEE700BFF8B500BFB9
:10391000F8BC08BC9E467047F8B500BFF8BC08BCB0
:103920009E467047FFFFFFFFFFFFFFFFFFFFFFFF08
:10393000FFFFFFFF00000000000000000000D601B4
:1039400006010000E10300004D040000DD0300005B
:10395000756172745F6C6F675F6261636B656E64E3
:10396000000000004261636B656E647320666C75D5
:10397000736865640000000061707000EC05002051
:103980007F0000006C0600201B5B313B33316D0073
:1039900025734C6F67732064726F707065642028A4
:1039A00025642925730D0A001B5B306D00000000A3
:1039B000257300003C25733E2025733A200000004B
:1039C0000D0A000020253032780000002020200061
:1039D0007C000000256300001B5B313B33306D0031
:1039E0001B5B313B33326D001B5B313B33336D006E
:1039F0001B5B313B33346D001B5B313B33356D005A
:103A00001B5B313B33366D001B5B313B33376D0045
:103A10006572726F720000007761726E696E670086
:103A2000696E666F000000006465627567000000E3
:103A3000A8390000D839000088390000E0390000BA
:103A4000E8390000F0390000F8390000003A0000C1
:103A5000083A000000000000103A0000183A000088
:103A6000203A0000283A00001112131446617461D4
:103A70006C206572726F720053797374656D207279
:103A80006573657400000000000000000000000085
:103A90000338FDD8704700003031323334353637C3
:103AA0003839414243444546FFFFFFFF0006FF000F
:103AB00000000040000000004750494F54450000FE
:103AC000505253005350494D00000000554152548C
:103AD0000000000055415254450000005472616ED0
:103AE0007366657220636F6D706C657465642E001B
:103AF0002052656365697665643A00005350492039
:103B00006578616D706C6520737461727465642E84
:103B100000000000FFFFFFFF06FF00000000004064
:103B20000000000000000000000000000000000095
:103B30000338FDD87047000000000000003000404E
:103B40000000000001000000002020202020202094
:103B5000202028282828282020202020202020203D
:103B6000202020202020202020881010101010104D
:103B70001010101010101010100404040404040499
:103B80000404041010101010101041414141414133
:103B90000101010101010101010101010101010115
:103BA0000101010110101010101042424242424225
:103BB00002020202020202020202020202020202E5
:103BC000020202021010101020000000000000008D
:103BD00000000000000000000000000000000000E5
:103BE00000000000000000000000000000000000D5
:103BF00000000000000000000000000000000000C5
:103C000000000000000000000000000000000000B4
:103C100000000000000000000000000000000000A4
:103C20000000000000000000000000000000000094
:103C30000000000000000000000000000000000084
:103C4000000000000000000000000000280000202C
:043C50000000000070
:103C5400B83A000000000000C03A00000000000074
:103C6400C43A000000000000CC3A0000000000004C
:103C7400D43A00000000000078390000000003037B
:103C840044390000000000005039000014000020F6
:103C9400F4000020BC010020C4010020FC0000202E
:043CA4001800000004
:083CA80098C5FF7F0100000038
:103CB0000000000000200040000000000020004044
:103CC0000000000000000000FF0000004E6F726462
:103CD000696300000090D0030000000000000000B5
:103CE00000000000000000000000000000000000D4
:103CF00000000000000000000000000000000000C4
:103D000000000000000000000000000000000000B3
:103D100000000000000000000000000000000000A3
:103D20000000000000000000000000000000000093
:103D30000000000000000000250200000102000059
:04000003000002BD3A
:00000001FF
