:1000000000000420750300005D0300005F03000092
:1000100061030000630300006503000000000000AE
:100020000000000000000000000000006703000066
:1000300069030000000000006B0300006D03000076
:100040006F03000049270000F11900006F03000052
:100050006F0300006F030000411800006F030000F1
:100060000125000015250000112700006F03000086
:100070006F0300006F0300006F0300006F030000B8
:100080006F030000790D00006F0300006F03000094
:10009000150E00006F0300006F0300006F030000E7
:1000A0006F0300006F030000292500003D250000BC
:1000B0006F0300006F03000000000000000000005C
:1000C0006F0300006F0300006F0300006F03000068
:1000D0006F0300006F0300006F0300006F03000058
:1000E0006F0300006F0300006F03000000000000BA
:1000F000000000006F030000000000006F0300001C
:1001000000000000000000000000000000000000EF
:1001100000000000000000000000000000000000DF
:1001200000000000000000000000000000000000CF
:1001300000000000000000000000000000000000BF
:1001400000000000000000000000000000000000AF
:10015000000000000000000000000000000000009F
:10016000000000000000000000000000000000008F
:10017000000000000000000000000000000000007F
:10018000000000000000000000000000000000006F
:10019000000000000000000000000000000000005F
:1001A000000000000000000000000000000000004F
:1001B000000000000000000000000000000000003F
:1001C000000000000000000000000000000000002F
:1001D000000000000000000000000000000000001F
:1001E000000000000000000000000000000000000F
:1001F00000000000000000000000000000000000FF
:10020000354936480A1A02D0072291438D463449AF
:1002100034480A1A06D00722914381F30988022242
:1002200082F3148830483149314A00F044F83148AB
:100230003149324A00F03FF831483249324A00F041
:100240003AF832483249334A00F035F832483349F7
:10025000334A00F030F833483349344A00F02BF881
:1002600033483449344A00F026F8344834490022EF
:1002700000F02CF833483449002200F027F83348C6
:100280003349091A082902DB002202604160314A21
:1002900090471F481F49884205D00268043003B4C4
:1002A000904703BCF7E700208646EC46002000217B
:1002B000294A9047FEE7884207D0521A05D00378B2
:1002C00001300B700131013AF9D17047884202D0F8
:1002D00002700130FAE770470000042000E00320BC
:1002E000000004200000042064360000000000200C
:1002F00038000020D4030000D4030000F8310000CF
:100300006436000000000020000000204C32000095
:100310004C3200004C3200004C3200004C320000E5
:100320004C3200004C3200004C32000062360000BB
:100330009C360000380000203800002038000020E3
:10034000540A0020540A0020540A0020540A0020B5
:10035000542A00209D0300003D280000FEE7FEE730
:10036000FEE7FEE7FEE7FEE7FEE7FEE7FEE7FEE765
:10037000704700BF1048804710484FF0070188437E
:1003800085460F4880470F48016841F470010160BD
:10039000BFF34F8FBFF36F8FFFF732BF0A480B4990
:1003A0000B4A884207D0521A05D0037801300B70EF
:1003B0000131013AF9D170477103000000000420B7
:1003C000392E000088ED00E04C32000000000020D3
:0403D0000000002009
:1003D400F0B595B01D46164608460C4601F05CF98A
:1003E4001A9B0D93CDE9086500252B46082205A923
:1003F40020460A958DF82C500C9501F069F9079B5D
:100404000293069B03939DF814308DF8115003F06A
:100414000302012A1DD1BDF81420059DC3F3C203B4
:10042400C2F383168DF81030B20008230EA92046BB
:1004340001F04EF9C5F3952508AB0093324602ABA3
:100444000EA9284600F064FB204601F029F915B0F6
:10045400F0BD022AF8D1BDF81650C3F3C203C5F3A8
:1004640089158DF810300827082D2E4628BF082638
:100474003B4632460EA9204601F02AF9AD1B08ABD3
:1004840002AA31460EA8374400F0A6FB002DEBD19A
:10049400DAE70000014B01221A707047790000204E
:1004A4007047000070B50E4D06460FCD88B06C46FF
:1004B4000FC495E80F00002E84E80F00094A0A488B
:1004C4004FF0060308BF00226946009301F03EF98D
:1004D40008B100F0E1FB054B1E7008B070BD00BF11
:1004E4004C32000099040000000000203800002075
:1004F40007B5044B0093044A4023FFF769FF03B098
:100504005DF804FB110500003900002038B50D48E2
:100514000D4C0E4D002323700378EB5CD2B263B113
:10052400043001F0D7FE08B100F0B6FB084B1A788E
:1005340012B12378002BFBD038BD0C3001F0A6FC9F
:10054400F1E700BF0000002079000020A806002089
:100554003800002008B50848084A0378D35C3BB14A
:10056400043001F057FEBDE808400020FFF79ABFB1
:100574000C3001F02BFCF6E700000020A806002058
:10058400037813F0040216D003F00303012B03D005
:10059400022B09D0012070470A6800880232C0F398
:1005A400831002440A60F5E70B684288023303EBC8
:1005B40092130B60EEE71046704700002DE9F04FF0
:1005C400DFF824A10F4685B00446861C002015469A
:1005D40000F08CFDDAF800103960DAE901321344D6
:1005E40001335B1A0AF21C470AF583690AF21448BC
:1005F400B3421BD30020002D72D004F00F039B01E3
:1006040043F0050363F30F00DAF80020DAF808304A
:100614001340033332444AF823000020CAF8002070
:1006240000F066FD012005B0BDE8F08F01213846D9
:1006340000F083FD484600F098FD404600F095FD2B
:10064400DAF80400DAF808B0009000EA0B0003308E
:100654000AEB80006946FFF793FF009B50BB0BEA4F
:1006640003020AEB820203F1020CD2680192013305
:1006740003EA0B0B0AEB8B0B02F00302012ADBF8F3
:100684000C10CDF800C023D0022A16D08346404671
:1006940000F06EFD10B1009BCAF80430594638468C
:1006A40000F04BFDDAE901231344DAF800200133AA
:1006B4009B1A9DE70BEA0300C9E7BDF80630C3F3B4
:1006C400891303334FEA114B0CEB93030093DEE7DA
:1006D400BDF80430C3F383134FEA114B6344F5E7C9
:1006E400A40544F006008FE74C01002030B50A4C05
:1006F40071B10A4A0A49121BD20800239A4201D155
:10070400002030BD31F82350854202D00133F5E793
:10071400034654F83300F4E7F831000028320000AF
:1007240000000020094B013903EBC000032909D85C
:10073400DFE801F00A0204060420704700797047DC
:10074400407970470020704702207047F83100005C
:10075400034BD3E90030C31A58425841704700BFD5
:100764004C0100202DE9F04385B0FFF7F1FF064668
:10077400002840F0FA807E4CC4F81804BFF34F8F71
:100784006368A56800932B40033304EB8300694638
:10079400FFF7F6FE009B18B1D4F81824002A62D0A3
:1007A40005EA0302991C013304EB82022B4004EB9B
:1007B4008303D268DB68029302F00303022B0192E5
:1007C400009163D1BDF806306A48C3F38917502FEE
:1007D400B84628BF4FF0500808F1080168F38F139A
:1007E400C1F30901ADF8063000F027FF06460028E2
:1007F40000F0A68000F050FF0023082201A9304633
:1008040000F05CFF009925EA01020132B8EB820F87
:100814004FEA820333D95FFA88F863B32940DDB223
:10082400A8EB050803315FFA88F9A846524D04EB9A
:10083400810108234246304600F040FF3DB108F1F3
:100844000803DBB24A462946304600F037FF009BD6
:10085400033703EB97070097D4F81834002B4BD1D8
:10086400D4F810545BE022689A428CD86260304617
:1008740005B0BDE8F08340491D469946D9E72940B3
:1008840003310823424604EB8101DDE7012B57D1F4
:10089400BDF804303748C3F38311062928BF062165
:1008A40061F38913023101F00F018900ADF80430BE
:1008B40000F0C3FE0646002842D000F0EDFE0023FF
:1008C400082201A9304600F0F9FE0027BDF80420F3
:1008D400C2F38312BB00974203F10803BCD2009910
:1008E4004A1C29400331009204EB81010422304662
:1008F40000F0E4FE0137E9E7304600F0D1FEFFF7EF
:1009040027FF80F00100C6B2B1E7EB685B7923B141
:100914002B6831461B6828469847EB681D68002DF4
:10092400F3D1304600F0BCFE284600F0DFFBD4F8DB
:1009340018340BB9009B6360002000F0D9FBDEE79C
:10094400D4F8104454B90D4B0D480E49C01AC008D0
:10095400000440F0020000F063F8D0E7236820466A
:100964009B689847E3681C68ECE700267FE700BFB4
:100974004C0100203832000058010020F8310000FA
:1009840020320000893200002DE9F74F224E044640
:100994000F46924601A901221846D6F808909B46B4
:1009A400FFF70CFE20B3019D4FF00008AA1CD845A8
:1009B40008EB020126D11948002100F09BFB80F3CB
:1009C4001000000440EA1440E4006B1C04F03804F6
:1009D40003EA090305EA090544F0010406EB83036D
:1009E400033544EA881444EA8724D86046F825404D
:1009F40096F820341BB1FFF7B5FE0028FBD103B0F5
:100A0400BDE8F08F09EA010106EB81015AF82830AC
:100A1400CB6008F10108CAE74C01002068050020FA
:100A240000231A46FFF7B0BF38B5084B0125D3F8A9
:100A3400104483F8205404B938BDE3685D71236819
:100A440020465B689847E3681C68F4E74C01002083
:100A540030B5C38885B004460D4633B1144A0092BC
:100A64001449154A284600F0C6FB217A05291DD0F1
:100A7400637A4BB1A088FFF755FE104B104953F829
:100A84002020284600F0B7FB227A0E4BA08853F8AA
:100A9400222003920021FFF729FE039A0A49034604
:100AA400284605B0BDE8304000F0A5BB05B030BD18
:100AB400BE320000A63200009E3200002C3300003B
:100AC400C332000050330000C632000007B50346AD
:100AD4000846197A052911D05B7A2BB1094A0A49CB
:100AE400019000F088FB01980849019000F083FB15
:100AF400019803B05DF804EB00F072BB002AF8D053
:100B0400F2E700BFBE320000C3320000BB32000077
:100B14002DE9F04385B01F460C9D002395F80C90F9
:100B24002B7306460C46904629463846FFF790FF3D
:100B3400B8F1060F09D8DFE808F00412181F2833AB
:100B440040003146284600F056FB0022294638462C
:100B5400FFF7BCFF85F80C9005B0BDE8F083226870
:100B64003146284600F047FBEFE7D4E9002331463D
:100B7400284600F040FBE8E7A36800933146D4E937
:100B84000023284600F037FBDFE7E3680193A368FE
:100B940000933146D4E90023284600F02CFBD4E727
:100BA40023690293E3680193A36800933146D4E96F
:100BB4000023284600F01FFBC7E7636903932369FA
:100BC4000293E3680193A36800933146D4E90023B8
:100BD400284600F010FBB8E708292DE9F74F8046B6
:100BE4000E4617461C463DD800251B7B257321461F
:100BF40010460193FFF72CFFDFF88CA0DFF88CB0D0
:100C0400AE4232D918F805205946204600F0F3FACE
:100C14000135082DF4D11B49DFF874A0DFF874B056
:100C2400204600F0E8FA4FF000094E4524D918F8A0
:100C340009507E2D1ED8284602F05CFA002814BF05
:100C44002A462E225946204600F0D5FA09F1010918
:100C5400B9F1080FE9D1012221463846FFF736FFE2
:100C6400019B237303B0BDE8F08F5146204600F08A
:100C7400C2FACDE72E22E5E75146204600F0BBFA42
:100C8400E4E700BFDA320000D6320000D0320000C0
:100C9400D8320000DC3200001FB50021039001AA05
:100CA40044F20100CDE9011100F004F805B05DF84B
:100CB40004FB000038B572B6FFF7B6FEFFF752FD2D
:100CC4000028FBD1104B114C114D1249E41AE408D1
:100CD400240444F00100FFF7A3FED5F8F030DB074D
:100CE40000D500BE0C4944F00200FFF799FEBFF3A3
:100CF4004F8FEA68094B02F4E0621343EB60BFF3E1
:100D04004F8F00BFFDE700BFF83100002032000024
:100D140000ED00E064330000703300000400FA05C5
:100D2400024B4FF43C6043F001031847803300004A
:100D340038B50C4B0C4C4FF40032C3F8802001251D
:100D44004FF48033C4F84833C4F808336560FFF7C0
:100D5400E7FF064BA56000241C60FFF7E1FF044B8E
:100D64001C7038BD00E100E0001001408C0600203A
:100D74007D060020F8B51F4B1F491B680025C1F8EC
:100D84004051C1F84451C1F84851C1F84C51C1F81F
:100D94000051C1F804514BB3D1F80445174909680F
:100DA400641A24F07F442F461A68A24209D8A41A70
:100DB40015441A7CDE691AB1D3E905201F749047E3
:100DC400AEB90F4A0F4B11781B788B4205D1013312
:100DD400DBB2022B08BF0023137012780A4B43F8CE
:100DE40022500A4B4FF48012C3F80021F8BD334659
:100DF400DAE700BF90060020001001408C060020B6
:100E040089060020880600208006002000E100E01A
:100E14002DE9F04FA14AA24913780978A14D9942CE
:100E240085B03CD00133DBB2022B08BF0023137022
:100E34009D4912789D4B0F6853F822003B1823F00C
:100E44007F4300220B602B6816461446944613B960
:100E540042B12B6006E0196881420ED902B12B60C1
:100E6400091A196001272B68DFF848A201934FF093
:100E74000008BEB9DFF844B260E0401A0C44D968F7
:100E8400D3F81CE0C3F800C031B13A1922F07F4214
:100E9400C3E90121DE611E4673460122D7E700261D
:100EA4003746E0E73446F6697F4B60681B68DFF835
:100EB40010C2A168C21A22F07F42624500F2A680E5
:100EC4000A442260012222742A680023C4E90133FF
:100ED400E361002A40F0A3802C60CAE79BF802106B
:100EE4005A1CD2B291428BF8002004BF00228BF826
:100EF4000020182202FB03B32A6819799C6802298E
:100F040075D003297FD0012918D1207CB0B9D3E949
:100F14000312A2605A69E2609A69654BA2611A7869
:100F2400002A18BF01466160BEE78C4200F094803D
:100F34008946C9690029F8D1002323749BF800303D
:100F44009BF801209A42C9D12B68B8F1000F04D153
:100F5400019A9A4201D1002F43D0002B79D0D3F8C3
:100F640000A0544D504BD5F804751C68DFF854812B
:100F74003E1B98F8003026F07F4603369BB94FF4A9
:100F84008033C5F84433C5F804334B4B4FF4003277
:100F94004FF00109C3F880211A60C5F80090FFF7EB
:100FA400BFFE88F80090B2452CBF5444A41924F025
:100FB4007F44C5F84045D5F80435DB1B23F07F4357
:100FC400E41B033324F07F44A3420AD9D5F8043543
:100FD400C5F84035FFF7A4FE374B4FF40032C3F891
:100FE4000021334B00221A7005B0BDE8F08F114682
:100FF40091469FE71174D2690123002AFAD1002B8C
:101004009CD02A609AE700231946F6E71B1A23F0BE
:101014007F438B4234BFCB1A0023236052E72168FD
:101024001368994213D85B1A1360E26154E7091AF2
:10103400D8691A4638B1034618688842F7D3401A6B
:101044001860184613462160E061DC6111E713461D
:10105400F2E7FFF76DFEC4E74C4511D1D3692B606D
:1010640073B9DFF844E00120CDE90212CAF80800A0
:10107400CEF800300E4B1870FFF752FEDDE9021275
:101084000B68C969C9F81C1011B1086803440B60E6
:101094002B68934218BF4FF001084DE788060020E3
:1010A40089060020900600208C060020800600207F
:1010B4007C0600200010014000E100E070050020E3
:1010C400FEFF7F007D06002072B6024A13680133DA
:1010D4001360704794060020034A1368013B1360B1
:1010E40003B962B6704700BF94060020FFF7ECBF57
:1010F400FFF7F2BF10B5034653E8000F0A4643E872
:10110400002494F0000FF7D110BD10B5034653E846
:10111400002F42EA010043E8000494F0000FF6D1E6
:1011240010BD10B5034653E8000F00EA010243E87E
:10113400002494F0000FF6D110BD10B5034653E817
:10114400002F02EB010043E8000494F0000FF6D1F5
:1011540010BD10B5034653E8002FA2EB010043E88D
:10116400000494F0000FF6D110BD0121FFF7CDBFAC
:101174000021FFF7D6BF38B504460020FFF7B6FFBD
:10118400226863681168994213D9481E106011F8E7
:10119400013CE568218A01FB0355A36811791B1AF8
:1011A400DBB2994200D213710020FFF7A1FF284659
:1011B40038BD0025F8E738B5054600200C46FFF792
:1011C40095FF2A681368591C1160E968641A298A12
:1011D400B4FBF1F41C70BDE838400020FFF788BF71
:1011E400826810B504462AB14369016800699847CA
:1011F4000023A36010BD0EB403B5039921B104AB61
:1012040001AA019300F076F802B05DF804EB03B094
:1012140070470A2938B504460D4602D10D21FFF75F
:10122400F8FFA3682268591CA160D554D4E901329F
:101234009A4204D32046BDE83840FFF7D1BF38BDF9
:101244002DE9F84F9846DDE90A43154682460F46D4
:101254000A464FF00109AA420FD2C14538BFC14620
:1012640013F0010B01D16CB900240126B8F1010F70
:101274001BD908F1FF386E43F8E709F10109B2FB05
:10128400F5F2E8E79B070ED5B8F1000F0CBF302646
:101294002026A145E9D2013C31465046FFF7B9FF6B
:1012A400002CF6D1E0E72026F3E7B7FBF6F39D42E6
:1012B400E1D9DFF83C80B7FBF6F3504618F8031089
:1012C40006FB1377FFF7A5FF3346AB42B6FBF5F6F3
:1012D400F1D2BBF1000F02D00CB1A14501D3BDE89E
:1012E400F88F20215046013CFFF793FFF4E700BF3D
:1012F400863300002DE9F74F054617468846002936
:1013040000F03E8118F8011B49B92B7B002B00F03B
:101314003781284603B0BDE8F04FFFF761BF2529A8
:1013240040F0B780002698F800302D2B424608F193
:10133400010823D0302B24D02B2B25D000242A2B9A
:1013440002F1010123D13B681A1D1B683A601C4459
:101354000A4613782E2B26D101324FF0000A10468C
:1013640010F8011BA1F1300CBCF1090F1DD80A23A0
:1013740003FB0A13A3F1300A0246F0E746F0010624
:10138400D1E746F00206CEE746F00406CBE711F8B3
:10139400013CA3F130000928DBD80A2202FB043403
:1013A400303C0A46CBE74FF0000A12F8011B01F06B
:1013B400FB0068289046F8D0782909D86F290CD802
:1013C400632962D022D8252963D0582900F0888067
:1013D40098F80030002B95D197E770390829F7D891
:1013E40001A353F821F000BF5F150000D5130000DE
:1013F400D5130000F5140000D5130000D314000029
:10140400D5130000D5130000E5140000642901D0B1
:101414006929DDD13A68D2F80090111D89EAE97290
:101424003960A2EBE9724FF0010B092A35DCD34590
:1014340038BFD3462CB1B9F1000F01DB720700D5D8
:10144400013CB30702D5BAF1000F03D0F00701D471
:101454004CBB0024B9F1000F2DDAC9F100092D218C
:101464002846FFF7D6FE06F00302022A04D1BAF199
:10147400000F01D11CBB0024CDE9004653460A22CB
:1014840049462846FFF7DCFEA2E73B681A1D197897
:101494003A602846FFF7BDFE9AE70A230BF1010BD9
:1014A400B2FBF3F2C1E7A345D4D220212846013C84
:1014B400FFF7AFFECCE77107D5D52B21D0E7A345C5
:1014C400DAD230212846013CFFF7A3FED2E739687F
:1014D400CDE900460A1D3A6053460A220968D0E75E
:1014E40039680A1D3A60CDE9004653461022F5E7F3
:1014F4003B681A1D3A6016F00106D3F8009024D117
:10150400B9F1000F03D0484601F044FE0646B44248
:101514001DD809F1FF3919F8011F00293FF458AF0C
:101524002846FFF776FEF6E728460136FFF771FEF8
:1015340019F806100029F7D1A642BFF449AF2021BB
:101544002846013CFFF765FEF6E70026F0E7202178
:101554002846013CFFF75DFED9E73B681A1D3A6057
:10156400302128461C68FFF754FE78212846FFF7EF
:1015740050FE00220823CDE900322146102280E7E4
:1015840003B0BDE8F08F00BF2DE9F84FB0F806A016
:101594004579D2F800B09DF828900AFB05F5043D82
:1015A40088460BEB0301A94203F1040488BFA5EBB1
:1015B400030BB4FBFAF607460AFB1644C2F800B064
:1015C4004EB9AAEB04055D4528BF5D46BBF1000F8B
:1015D40004D1BDE8F88F3F68013EF1E7043408EB1D
:1015E40006003C442A46B9F1000F0DD02146ABEB6E
:1015F400050B01F084FDDA452E443F6855464FF053
:10160400000428BF5D46E1E701462046EFE7F8B550
:1016140046790146721E0546002393422D6803D382
:101624000024A64202D8F8BD0133F6E70F68284625
:10163400FFF7C1FD01343946F3E72DE9F843068A83
:10164400CD1C0746FFF797FD043E35440446B5FB21
:10165400F6F5F0B14FF48073EDB28380C680013D9E
:10166400076081464FF00008A84512D23846FFF7BC
:1016740082FD064648B163790133637108F10108BC
:10168400C9F8000007608146EEE72046FFF7BFFF78
:1016940034462046BDE8F88301210430FFF74DBDF0
:1016A40010B5012104460430FFF753FDC0B220B940
:1016B4002046BDE81040FFF7AABF10BD1FB5039236
:1016C4000022009203AAFFF75FFF05B05DF804FB58
:1016D4001FB503920122009203AAFFF755FF05B03C
:1016E4005DF804FB1FB503788DF80030436801935F
:1016F40083688DF80830C368054A0393054B684630
:1017040053F8213052F82110984705B05DF804FBD6
:1017140098060020A00600201FB503788DF800303D
:101724004368019383688DF80830C368054A0393BE
:10173400054B684653F8213052F82110984705B0FC
:101744005DF804FB98060020A0060020F0B5194BB4
:1017540090F800C0DFF86CE043F82C20164B1646D6
:101764000A6943F82C204B7F0EF80C300C460746D0
:101774000FCC89B06D460FC594E80F0085E80F00C3
:101784003B78CDF810C01EF803304BB1002E0B4A45
:10179400694608BF3246381D00F060FC09B0F0BD50
:1017A400002E074A694608BF324607F10C0000F0D4
:1017B40039FAF3E7A006002098060020E916000095
:1017C4001D170000A806002000F1804000F5C0406D
:1017D400002382B0036003680193019B02B0704749
:1017E40003681F2B83BF03F01F03036001484FF0FE
:1017F400A04070470003005007B5019001A8FFF70F
:10180400EFFF019B00EB8300D0F8003723F4403353
:10181400C0F80037D0F8003743EA0141C0F8001798
:1018240003B05DF804FBC208012300F0070003FACB
:1018340000F08B5C18438854704700002DE9F04F8A
:1018440000248BB0CDE90444644D4FF4807201212F
:1018540002F1804303F5C04390B21B68012B06D10B
:10186400D5F804330B4202D0FFF7AEFF0C43043229
:10187400B2F5907F4FEA4101EAD1584BD3F87C315D
:10188400012B0ED14FF4BE70FFF79EFF4FF0A04323
:1018940044F00044D3F810350493514BD3F8103579
:1018A4000593E3B2D3B14F4F00250126344210D043
:1018B400AB0003F1804303F5C043D3F81005D3F81C
:1018C400101557F8253023B1C1F30141C0F30520A9
:1018D40098470135082D4FEA4606E7D1002C79DAFE
:1018E4000023CDE906334FF0FF33CDE90833DFF8A9
:1018F400F4A03D4B019300263546019B13F9014B9F
:101904000193631C4DD0C4F3C2070122E3B204F077
:101914003F0B04F0070402FA04F40AAA174417F868
:10192400081C21423DD00AEB0B014FEA931991F9AF
:1019340030105AF82180B8F1000F07D1B9F1030F24
:101944002FD106A95846FFF76EFF02E0B9F1030F45
:10195400F7D003A8CDF80CB0FFF742FF039901F5C7
:10196400E07150F8211017F8180C2042C1F301411E
:1019740006D0022915D1B9F1030F0CD1494605E06F
:1019840003290ED1B9F1030F05D102215846FFF7FF
:1019940033FF0135EDB2B8F1000F02D04946584685
:1019A400C0470136042EA8D1A5B14FF0A043049935
:1019B400D3F8102503F540739142D3F8103502D1C2
:1019C4000599994206D004920593069A079B0892BA
:1019D40009938EE70BB0BDE8F08F00BF00600040B4
:1019E40000030050AC0600200C070020014B1B68CC
:1019F400184700BF1807002038B50B4B98420C4617
:101A040001D0002038BD0020FFF770FB074B1D7983
:101A140015B901221C601A710020FFF769FB002D23
:101A2400EFD01120EEE700BF00200040180700208F
:101A3400034B984201BF034B00221A601A7170478E
:101A440000200040180700200023435082B0435870
:101A54000193019B02B070470A4610B54FF48E7192
:101A6400FFF7F2FF136A9168C95C136A01331362CA
:101A7400C0F81C1510BD8B690A4610B54FF484716B
:101A840023B9FFF7E1FFD0F8183510BDFFF7DCFFED
:101A9400536AD168D0F81805C854536A01335362A5
:101AA400F3E700001FB501238DF80030044BCDE9A6
:101AB4000110D3E900126846904705B05DF804FBB5
:101AC4002007002030B54D4DD5F804339A0585B074
:101AD40051D5D5F82431002B4DD04FF492712846BE
:101AE400FFF7B2FF4FF40173C5F80833444B93F882
:101AF40029200AB901226A60404902228DF8002097
:101B0400D1F88024C1F8802403929A690292DA6899
:101B140001920022C3E906226846D3E900129047E5
:101B24003648D0F81C315BB1354A116A5369994281
:101B34004DD292F82830002B49D11146FFF78CFF83
:101B44002E48D0F84431002B55D04FF4A271FFF742
:101B54007BFF2B4B93F829200AB1012202609A697A
:101B6400002A48D0586AD96800229A6105B0BDE8B5
:101B74003040FFF797BFD5F804335B07D0D5D5F8CD
:101B84000831002BCCD01E4C1C482146FFF773FFB4
:101B9400636AA2699A42C3D1E369E1684BB1A36164
:101BA4002369E3600023606AE3616362FFF77AFFFD
:101BB400B6E794F829300BB901236B600F4B4FF44F
:101BC4000172C3F808230023606AA361EEE74FF4AF
:101BD4008E710A48FFF738FF51690029B0D00023FD
:101BE400029191688DF80030019153616846D2E901
:101BF40000139847A4E705B030BD00BF00200040A3
:101C0400200700201F2886BF00F01F00044B4FF060
:101C1400A04300F5E070022243F82020704700BF83
:101C2400000300502DE9F843624D90F804802C2302
:101C340003FB0853064693F82A300C469146002BC2
:101C440040F0B4805C490068FFF7D6FE07460028E0
:101C540040F0AE802268531C10D01F2A87BF57491A
:101C640002F01F0313464FF0A0410120984003F5F2
:101C7400E073C1F80805032041F823006168481C9B
:101C84000DD01F298BBF01F01F030B464B484FF0AB
:101C9400A04003F5E0734FF0000C40F823C0306817
:101CA400A369C0F8243594F814C0637DBCF1010F16
:101CB4004CEA0303C0F86C35C0F81415C0F80C25C1
:101CC4002BD1A368591C0DD01F2B8BBF03F01F020F
:101CD4001A463A494FF0A04102F5E0724FF0000C69
:101CE40041F822C0E1684A1C13D01F2987BF334A38
:101CF40001F01F0C8C464FF0A0424FF0010E0EFA7B
:101D04000CFE0CF5E07CC2F808E54FF0030E42F837
:101D14002CE0C0F80815C0F810352C2202FB08F29C
:101D2400AB18C3F804902369AB50B9F1000F2AD063
:101D34004FF48E71247FFFF787FE30684FF4A27151
:101D4400FFF782FE32681E4BC2F80433130B42F3D2
:101D54000732002AA8BF02F160404FEA4411BABF1B
:101D6400184803F00F0400F56140C9B2B4BF01552F
:101D740080F8001303F01F03012101FA03F3520951
:101D8400114941F8223033680422C3F800252C237A
:101D940003FB08530022C3E9062283F829205A6171
:101DA400012283F82A203846BDE8F8830827FAE799
:101DB4001127F8E720070020C91A0000000300508B
:101DC4008000020014ED00E000E100E02DE9F041A4
:101DD40003680579244C0022C3F800252C2202FB59
:101DE4000542014652686AB1204AC3F8082343F306
:101DF4000732C3F3043652090120B04020321C4E8E
:101E040046F82200D3F80C05D3F81485D3F80865F6
:101E1400D3F810754FF0FF329042C3F81425C3F87D
:101E24000C25C3F80825C3F8102501D0FFF7EAFEF6
:101E3400B8F1FF3F02D04046FFF7E4FE7A1C02D01F
:101E44003846FFF7DFFE731C02D03046FFF7DAFE98
:101E54000868FFF7EDFD2C2303FB0544002384F8F9
:101E64002A306360BDE8F08120070020840202006C
:101E740000E100E00279044B2C2101FB0233586994
:101E8400003818BF01207047200700202DE9F84FC3
:101E9400064689469246FFF7EDFF044600283DD1E9
:101EA40096F804801F4F2C2508FB057B4FF48E7198
:101EB400CBF82000CBF814A08BF82800CBF80890BE
:101EC4003068FFF7C1FD3068012383605946FFF78E
:101ED400C3FDDBF804305D4613BB30682A6A6B69C6
:101EE4009A4211D33368D3F81C21002AFBD0012273
:101EF400DA6000202C2303FB087700237B61BDE814
:101F0400F88F95F828303BB9D0F81C31002BF8D065
:101F14005946FFF7A1FDE1E70F20EBE71120EEE7BB
:101F24002046ECE7200700200023435082B04358AA
:101F34000193019B02B070471FB501238DF8003057
:101F4400044BCDE90110D3E900126846904705B06F
:101F54005DF804FB4C0700207FB5364AD2F82461B3
:101F6400002E46D010464FF49271FFF7DDFF022396
:101F74008DF80030D2F88034C2F880340393D2F85C
:101F84003C3502932C4BDA6801920022C3E9062205
:101F94006846D3E9001290472648D0F8443173B11B
:101FA4004FF4A271FFF7C0FF234B9A693AB10022A4
:101FB400C3E90622D968D0F83C05FFF7BDFF1D48E8
:101FC400D0F820319BB14FF49071FFF7ADFF1A4B5D
:101FD4005A6962B1D0F84C150291002299688DF8C3
:101FE400002001915A616846D3E90012904704B079
:101FF40070BDD2F81031002BCED04FF4887110464A
:10200400FFF792FF0C4BD2F83C0599698842C3D183
:10201400DC69D96864B1D2F8005225F02005C2F811
:1020240000521A699C61DA60DE61FFF785FFB3E74D
:102034009C61FAE7002000404C0700201F2886BF5F
:1020440000F01F00044B4FF0A04300F5E0700222A3
:1020540043F82020704700BF000300502DE9F843E7
:10206400664E90F80480242303FB0863054693F826
:1020740020300C469146002B40F0BC80604900683B
:10208400FFF7BAFC0746002840F0B68021684B1CD5
:1020940010D01F2987BF5B4A01F01F030B464FF086
:1020A400A0420120984003F5E073C2F8080503201C
:1020B40042F823006268501C0DD01F2A8BBF02F027
:1020C4001F0313464F484FF0A04003F5E0734FF051
:1020D400000C40F823C02868A369C0F8243594F89C
:1020E40014C0637DBCF1010F4CEA0303C0F86C35E6
:1020F400C0F80C15C0F814252BD1A368591C0DD0B9
:102104001F2B8BBF03F01F021A463E494FF0A0411C
:1021140002F5E0724FF0000C41F822C0E1684A1C5D
:1021240013D01F2987BF374A01F01F0C8C464FF08C
:10213400A0424FF0010E0EFA0CFE0CF5E07CC2F842
:1021440008E54FF0030E42F82CE0C0F80815C0F87B
:102154001035242202FB08F2B318C3F80490236953
:10216400B350B9F1000F34D04FF48871227FFFF7D8
:10217400DBFE28684FF49071FFF7D6FE28684FF411
:102184009271FFF7D1FE28684FF4A271FFF7CCFEDD
:102194002B681D49C3F80413190B43F30733002BB1
:1021A400AEBF03F1604001F00F0418484FEA421239
:1021B400A8BF00F56140D2B2B4BF025580F8002335
:1021C40001F01F01012202FA01F15B09104A42F8F1
:1021D40023102B680822C3F80025242303FB086678
:1021E4000023C6E906337361012386F8203038469C
:1021F400BDE8F8830827FAE71127F8E74C07002021
:102204005D1F0000000300501003020014ED00E005
:1022140000E100E02DE9F04103680579244C002237
:10222400C3F80025242202FB0542014652686AB124
:10223400204AC3F8082343F30732C3F30436520990
:102244000120B04020321C4E46F82200D3F80C0581
:10225400D3F81485D3F80865D3F810754FF0FF321E
:102264009042C3F80C25C3F81425C3F80825C3F815
:10227400102501D0FFF7E2FEB8F1FF3F02D040463F
:10228400FFF7DCFE7A1C02D03846FFF7D7FE731C3A
:1022940002D03046FFF7D2FE0868FFF7C9FB2423BB
:1022A40003FB0544002384F820306360BDE8F0811B
:1022B4004C0700201003020000E100E00279044B07
:1022C400242101FB02335869003818BF01207047EC
:1022D4004C07002001F06043B3F1005F2DE9F047A3
:1022E40006468846924635D190F80490FFF7E6FFFB
:1022F400044688BB1A4F3068242505FB09754FF442
:102304009071C5F814A0C5F80880FFF70DFE4FF4CE
:10231400AC713068FFF708FE33686A69A968C3F8CE
:102324004415C3F8482501229A606A68B2B9D3F803
:102334002021D3F858014AB90028F8D00F202423CB
:1023440003FB097700237B61BDE8F087002818BFF1
:102354000F20F4E71020F7E71120F5E72046F3E714
:102364004C0700202DE9F347002406460F4690460B
:1023740000F5A0754FF48039A246A00000F5A073C3
:1023840098B22B686BB1D6F8043309FA04F21A42F6
:1023940007D0C5F800A02B680193019BD7E9003151
:1023A40098470134A04505F10405E6D102B0BDE823
:1023B400F0870000F7B506792F4D0C237343EF180F
:1023C4003C7A002C56D1EA504B687B60477903680D
:1023D4002246D0B2874244D843F30734C878002C4D
:1023E400A8BF04F16047C3F30732BABF234F02F01A
:1023F4000F0C07F561474FEA4010C0B2B4BF07F8AD
:102404000C0087F80003640901201D4F02F01F022D
:1024140000FA02F247F82420D3F804454A7824F05D
:10242400030402F003022243C3F80425D3F8084549
:102434008A7824F0030402F003022243C3F8082537
:102444000A78D3F8104502F00F0224F00F010A4372
:10245400C3F810250C2303FB06552872002003B093
:10246400F0BD900000F5A07001321C501858019086
:102474000198AEE70820F2E77007002014ED00E0B1
:1024840000E100E0036801221A600279034B0C2189
:1024940001FB023302221A72704700BF700700204A
:1024A40037B54FF4803400688C407BB101F15003A0
:1024B4009B000025C550C3580193019BC0F80443F9
:1024C40001F5A87140F8212003B030BDC0F80843DD
:1024D400F6E770B4046840F20116D4F800528E4056
:1024E40025EA0605C4F80052D4F800522B43C4F878
:1024F40000329DF80C3070BCFFF7D2BF024903488C
:102504000422FFF72FBF00BF7007002000800040A7
:10251400024903480422FFF725BF00BF7C070020BF
:1025240000900040024903480622FFF71BBF00BF8A
:102534008807002000A00140024903480622FFF753
:1025440011BF00BF9407002000B0014000F01F003D
:10255400034B00F5E070032243F82020704700BFCE
:1025640000030050B0F5A07F38B50AD1054D064CE4
:102574002A6806492368002000F040FC00232B60F1
:10258400236038BDA0070020C8070020B233000034
:102594001FB5124A92E8030002AB012283E803004C
:1025A4008DF80B200E480F4A1946FFF703FF08B1B8
:1025B400FEF772FB0C4B0D49D3F810250848012394
:1025C400D2B221FA02F200930021FFF782FF0448FD
:1025D400FFF758FF05B05DF804FB00BFF0330000BF
:1025E400F833000069250000009000400024F40046
:1025F400104B0422C3F8102500210322C3F804154C
:102604004FF4FA70C3F808250122C3F80022C3F876
:102614004005DA60C3F840114FF48031C3F8041365
:102624000549402081F80A034FF4806008601A606D
:10263400704700BF00A0004000E100E02D4B2E4990
:102644000822C3F80C250422C3F808250022C3F885
:102654001025C3F8241501F10431C3F8281501F13C
:102664000241A1F5E701A1F58E61C3F81C1501F142
:102674002031C3F820150121C3F82C25C3F83015E7
:10268400C3F814251D4AC3F818250222C3F83425BB
:10269400D3F8342502F00302022A1FD14FF6FF7249
:1026A400C3F83C25164AC3F83825124B02211122DF
:1026B400C3F80012C3F80423124A202082F801034D
:1026C4001160114AC3F804250022C3F80421C3F899
:1026D4000821C3F8102101221A607047D3F8342569
:1026E40002F00302012AE0D1FF22C3F83C2540F2A4
:1026F4000712D8E700100040C4C3C2C1202004035D
:102704002110010000E100E0A50700200B4B00228E
:10271400C3F84021A3F5104301229A60084AD2F875
:102724000435DB4303F00803C2F80835D2F8043556
:1027340003F00803C2F80C35704700BF00A0004046
:1027440000030050294BD3F81021002A3AD0284A1C
:10275400D2F80435DB4303F01003C2F80835D2F88D
:10276400043503F01003C2F80C35224B5A780132B9
:10277400D2B20A2A5A7004D11A7801321A7000228D
:102784005A701A4A1C480021C2F8101101701B49E2
:102794000978C2F80815C2F8043501231360144AF5
:1027A400D2F80435DB4303F00203C2F80835D2F84B
:1027B400043503F00203C2F80C35114A13680133DF
:1027C40013607047D3F8001179B1C3F80021084AA7
:1027D400D2F80435DB4303F00403C2F80835D2F819
:1027E400043503F00403C2F80C35704700100040B0
:1027F40000030050A5070020A40700201C000020AF
:10280400A00700204FF080430022C3F800210122DA
:102814001A60D3F80021002AFBD001220021C3F85A
:102824001825C3F804119A604FF08042D2F804319D
:10283400002BFBD07047000008B52120FFF7E2FF12
:10284400FFF784FE2220FFF781FE2320FFF77EFEA0
:102854002420FFF77BFEFFF7F1FEFFF799FEFFF759
:10286400C7FE0349002000F0C9FA30BFFDE700BFEE
:10287400C43300000369C26893429CBF80681B187C
:10288400013B981A70472DE9F843D0E902940546B4
:10289400A9EB04084068904520440F46144404D929
:1028A40000F02DFCEC60BDE8F8834246A4EB09047B
:1028B40000F025FC6868224607EB0801F0E72DE9E3
:1028C400F843C5680646894617464FF00008346940
:1028D400B3687068A54228BFE418013C621B5C1B06
:1028E400BC4228BF3C46944228BF1446494628446B
:1028F400224600F004FCB3682544AB4208BF00251F
:102904003F1BA044A144F560E1D14046BDE8F883F3
:1029140010B5114C114AA2610223C4E90433104BCF
:10292400E361A2644FF400730E4A0F492362E26428
:1029340000231022E01DA3626362E362A365636562
:10294400E365226500F004FC0849204600F000FC21
:102954002023A37110BD00BFCC0700200034000069
:102964005408002044080020093400000D340000FD
:1029740070B5164B182400FB04451D4404FB0033BA
:102984001646DC6A012C0ED0022C18D0E4B9284675
:10299400FFF770FF864204D832462846FFF773FFDC
:1029A4003446204670BD2846FFF764FF864234460D
:1029B40028BF044622462846FFF765FFF1E728466C
:1029C400BDE87040FFF77BBF0024EAE7CC07002096
:1029D40070B50B4B1B7804460D4616460BB9FFF732
:1029E40097FF0020FEF782FB324629462046FFF778
:1029F400BFFF04460020FEF77BFB204670BD00BFEE
:102A0400CC070020826810B504464068531C8342FA
:102A140005D820688154A360E3680133E360D4E9F6
:102A240001329A420BD121682069FFF7D1FFA368D4
:102A3400984215BF4FF0FF330023E360A36010BD3D
:102A44002DE9F84F9946DDE90A43164605468846BE
:102A54000A464FF0010AB24212D2CA4538BFCA46EA
:102A640013F0010B01D184B90024EB68002B48DB7F
:102A74000127B9F1010F1FD909F1FF397743F8E7AD
:102A84000AF1010AB2FBF6F2E5E79B0712D5B9F1A8
:102A9400000F0CBF30272027A245E6D2394628462E
:102AA400FFF7B0FFEB68002B04F1FF34DDDB002CF3
:102AB400F2D1D9E72027EFE7B8FBF7F39E42DDD93F
:102AC400DFF84890B8FBF7F3284619F8031007FB22
:102AD4001388FFF797FFEB68002B03DBB7FBF6F3D4
:102AE400B74210D2BBF1000F0BD054B1A24508D2AB
:102AF40020212846FFF786FFEB68002B04F1FF3402
:102B0400F3DABDE8F88F1F46DCE700BF1434000099
:102B14002DE9F743DDF82880174681EAE1720E4675
:102B24001C46A2EBE172054601230A21092A35DC81
:102B3400BB4238BF3B4699462CB1002E02DB18F04D
:102B4400040F00D0013C18F0020F00D027B118F098
:102B5400010F01D134BB0024EB68002B1BDB002EDA
:102B64002CDA76422D212846FFF74CFFEB68002B28
:102B740011DB08F00303022B02D10FB91CBB0024A4
:102B8400EB68002B07DBCDE900483B460A223146BF
:102B94002846FFF755FF03B0BDE8F0830133B2FBCD
:102BA400F1F2C3E7A145D7D220212846FFF72AFF37
:102BB400EB68002B04F1FF34CCDACDE718F0040FF6
:102BC400D4D02B21CFE7A145DAD230212846FFF714
:102BD40019FFEB68002B04F1FF34CFDAD0E70000D3
:102BE4002DE9F0472DED028B00239AB00D464021CC
:102BF400CDE90613CDE908300DF12809DFED7E8A11
:102C0400CDF81490804614464FF00A0A15F8011BBB
:102C140049B9089B002B00F3E38008981AB0BDEC77
:102C2400028BBDE8F087252940F0AA80002607E042
:102C3400302B0FD146F0020601E046F0010615469E
:102C44002A4612F8013B2D2BF7D0F1D8232B11D0B3
:102C54002B2B0CD000272A4612F8013BA3F130019C
:102C640009290AD80AFB0737303F1546F3E746F02F
:102C74000406E4E746F00806E1E72E2B0DD11546DD
:102C84000022294611F8013BA3F13000092805D898
:102C94000AFB0232303A0D46F3E700222B4613F8C2
:102CA400011B01F0FB0068281D46F8D0662931D0CD
:102CB40015D8582974D007D8252961D0462929D098
:102CC400089B002BA2DAA4E7632955D06429F7D125
:102CD400216800960B1D236009683B4648E0703963
:102CE400CBB2082BECD80829EAD801A353F821F079
:102CF400D52D0000C52C0000C52C0000B52D00000A
:102D0400C52C00008D2D0000C52C0000C52C000032
:102D1400A52D000023680392073323F0070303F172
:102D240008012160D3E9000100F062F908EE100AFD
:102D3400FDEEC87A039A009617EE901A3B4605A852
:102D4400FFF7E6FE2E2105A8FFF75CFE28EE288A91
:102D540042F21071BDEEC88A009618EE100A0028DF
:102D6400B8BF40423B46B0FBF1FC042201FB1C010E
:102D740005A8FFF7CDFEA3E723681A1D1978226082
:102D840005A8FFF73FFE9BE72168CDE900760B1D00
:102D9400236013460A22096805A8FFF751FE8FE74E
:102DA4002168CDE900760B1D236013461022F2E75B
:102DB40023681A1D22601E6816F8011B00293FF4BF
:102DC4007FAF05A8FFF71EFE089B002BF4DA77E718
:102DD40021680B1D236000220823CDE90032E5E7BA
:102DE400079A1AB149464046FFF7F2FDDDE9072389
:102DF4001344089311E700BF00401C460EB403B50A
:102E040003AB01AA53F8041B0193FFF7E9FE02B0D8
:102E14005DF804EB03B070474FF08053D3F83021D2
:102E2400082A03BFD3F83401B0FA80F04009002027
:102E34007047000008B54FF080430022C3F80C210E
:102E4400C3F81021C3F838254FF0805203F54043EE
:102E5400D2F80414C3F82015D2F80814C3F82415C2
:102E6400D2F80C14C3F82815D2F81014C3F82C1592
:102E7400D2F81414C3F83015D2F81814C3F8341562
:102E8400D2F81C14C3F84015D2F82014C3F8441522
:102E9400D2F82414C3F84815D2F82814C3F84C15F2
:102EA400D2F82C14C3F85015D2F83014C3F85415C2
:102EB400D2F83414C3F86015D2F83814C3F8641582
:102EC400D2F83C14C3F86815D2F84014C3F86C1552
:102ED400D2F84424C3F87025FFF79EFF18B13B4B8A
:102EE4003B4AC3F88C26FFF797FF18B1394BFB22F6
:102EF400C3F81825FFF790FF70B14FF080414FF0F1
:102F04008053D1F8E42ED3F8583222F00F0203F0A4
:102F14000F031343C1F8E43EFFF77EFF20B12E4BAD
:102F24004FF40072C3F840264FF08043D3F80024D6
:102F3400D20744BF6FF00102C3F80024274AD2F835
:102F4400883043F47003C2F88830BFF34F8FBFF367
:102F54006F8F4FF01023D3F80022002A03DBD3F83D
:102F64000432002B2EDA1E4B0122C3F80425D3F8B9
:102F74000024002AFBD04FF010221221C2F80012C4
:102F8400D3F80024002AFBD04FF010231222C3F8F8
:102F94000422134BD3F80024002AFBD00022C3F8E8
:102FA4000425D3F80024002AFBD0BFF34F8F0B492C
:102FB4000C4BCA6802F4E0621343CB60BFF34F8F3B
:102FC40000BFFDE7084B094A1A6008BD00500040E5
:102FD4004881030000F000400090024000ED00E052
:102FE40000E001400400FA05200000200090D00316
:102FF40001F000428B1AA3F16051B1F5801F0ADB86
:10300400B1F17F6F09D242EAC102C10071F10041FE
:1030140042EB507070471046704701285B4113F52E
:10302400001F04D842F0FE4040F400007047C9007D
:1030340041EA507040EA020040F4800040F08040D1
:10304400704700BF7F2805D8034B185C034B5B5CBB
:10305400184070470020704730340000B03400003E
:10306400A0F16103192B98BF20387047A0F14103E8
:10307400192B98BF203070477F2805D8034B185C64
:10308400034B5B5C184070470020704730340000ED
:10309400B0340000A0F16103192B98BF20387047A9
:1030A400A0F14103192B98BF203070477F299ABFA4
:1030B400017001206FF02E0070475AB10A787F2A00
:1030C4000AD800B10260002119605960501A18BF73
:1030D40001207047002070476FF02E0070470000F9
:1030E40008B5034B5B689B681B68984708BD00BF25
:1030F4002400002008B50921FFF7F2FF08BD84462B
:1031040040EA010313F0030F18D18446202A0BD39D
:103114002DE9F007B1E8F807A0E8F807A2F12002CA
:10312400202AF7D2BDE8F007042A07D351F8043B5C
:1031340040F8043BA2F10402042AF7D2002A05D085
:1031440011F8013B00F8013B013AF9D160467047A0
:10315400024610F0030F16D111F0030F13D12DE91D
:10316400F0004FF001374FF0803351F8044BA4EBDB
:10317400070525EA04051D4002D142F8044BF4E793
:10318400A1F10401F0BC11F8013B02F8013B002B52
:10319400F9D1704700F1010110F0030F11D010F8BC
:1031A400012B002A23D010F0030F0AD010F8012BB2
:1031B400002A1CD010F0030F03D010F8012B002AB2
:1031C40015D02DE970004FF001324FF0803350F8E4
:1031D400044BA4EB020525EA04051D4000D1F6E7E3
:1031E400A0F1040070BC10F8012B002AFBD1A0EB65
:0431F400010070471F
:1031F80096330000000000009D330000000000002E
:10320800AC33000000000000A13300000000000003
:10321800A6330000000000009A32000000000303FB
:103228006C3200000000000078320000140000201A
:103238007C000020440100204C0100208400002074
:04324800180000006A
:10324C00FFFFFFFFFFFFFFFFFFFFFFFFFFFFFFFF82
:10325C0000000000000000000000D6010601000084
:10326C00F504000059050000A50400007561727496
:10327C005F6C6F675F6261636B656E640042616374
:10328C006B656E647320666C757368656400617041
:10329C0070001B5B313B33316D0025734C6F6773D2
:1032AC002064726F70706564202825642925730D65
:1032BC000A001B5B306D002573003C25733E2025F6
:1032CC00733A2000202530327800202020007C002A
:1032DC002563001B5B313B33306D001B5B313B3393
:1032EC00326D001B5B313B33336D001B5B313B3369
:1032FC00346D001B5B313B33356D001B5B313B3355
:10330C00366D001B5B313B33376D007761726E6934
:10331C006E6700696E666F00646562756700000019
:10332C00BE320000DF3200009E320000E7320000A7
:10333C00EF320000F7320000FF32000007330000CC
:10334C000F330000000000006A3300001733000048
:10335C001F33000024330000466174616C206572D9
:10336C00726F720053797374656D20726573657436
:10337C00000000000338FDD870473031323334354B
:10338C00363738394142434445464750494F5445F6
:10339C00005052530055415254005541525445006F
:1033AC0054494D45520061647653656E643A256408
:1033BC002C74323A25640A00526164696F2074726D
:1033CC00616E736D697474657220737461727420AC
:1033DC006E6F206A756D70206368616E6E656C0A25
:1033EC0000000000000003060000000000900040F8
:1033FC00010400005465726D696E616C0052545486
:10340C000053454747455200303132333435363757
:10341C00383941424344454643000000504F53491C
:10342C005800000020202020202020202068282860
:10343C002828202020202020202020202020202070
:10344C0020202020481010101010101010101010F8
:10345C0010101010848484848484848484841010D8
:10346C0010101010108181818181810101010101F5
:10347C000101010101010101010101010101011021
:10348C0010101010108282828282820202020202CA
:10349C0002020202020202020202020202020210F2
:1034AC0010101020000703200417020108571040C9
:1034BC008000000024340000283500003C36000059
:1034CC0053756E004D6F6E00547565005765640042
:1034DC005468750046726900536174000000000066
:1034EC004A616E00466562004D6172004170720067
:1034FC004D6179004A756E004A756C004175670024
:10350C00536570004F6374004E6F76004465630022
:10351C0000000000414D00504D00000060360000DE
:10352C005C3600005C3600005C3600005C36000047
:10353C005C3600005C3600005C3600005C36000037
:10354C005C360000FFFFFFFFFFFFFFFFFFFFFFFFE9
:10355C00FFFF00009C350000CC340000D835000083
:10356C00EC340000203500008035000030360000BF
:10357C008C350000256D2F25642F25790000000067
:10358C002561202562202565202554202559000021
:10359C0053756E646179004D6F6E6461790054757A
:1035AC006573646179005765646E65736461790055
:1035BC00546875727364617900467269646179004C
:1035CC005361747572646179000000004A616E7514
:1035DC00617279004665627275617279004D617233
:1035EC00636800417072696C004D6179004A756EB8
:1035FC0065004A756C790041756775737400536585
:10360C007074656D626572004F63746F62657200F1
:10361C004E6F76656D62657200446563656D6265BB
:10362C007200000025483A254D3A25530000000051
:10363C004930000065300000713000007D30000022
:10364C0099300000A5300000B1300000BF30000000
:06365C00000000002E003A
:103664000000000000200040000000000020004096
:103674000000000000000000FF000000044D0000F6
:103684000090D003C0340000C0340000C0340000F7
:08369400C0340000C034000046
:040000030000037581
:00000001FF
