:1000000000000120750300005D0300005F03000095
:1000100061030000630300006503000000000000AE
:10002000000000000000000000000000610500006A
:100030006903000000000000810500006D0300005E
:10004000751900006F0300006F0300006F030000CC
:100050006F0300006F030000251A00006F0300000B
:100060006F0300006F0300006F0300006F030000C8
:100070006F0300006F0300006F0300006F030000B8
:100080006F030000810600006F0300006F03000093
:100090006F0300006F0300006F0300006F03000098
:1000A0006F0300006F0300006F0300006F03000088
:1000B0006F0300006F03000000000000000000005C
:1000C0006F0300006F0300006F0300006F03000068
:1000D0006F0300006F0300006F03000000000000CA
:1000E0000000000000000000000000000000000010
:1000F0000000000000000000000000000000000000
:1001000000000000000000000000000000000000EF
:1001100000000000000000000000000000000000DF
:1001200000000000000000000000000000000000CF
:1001300000000000000000000000000000000000BF
:1001400000000000000000000000000000000000AF
:10015000000000000000000000000000000000009F
:10016000000000000000000000000000000000008F
:10017000000000000000000000000000000000007F
:10018000000000000000000000000000000000006F
:10019000000000000000000000000000000000005F
:1001A000000000000000000000000000000000004F
:1001B000000000000000000000000000000000003F
:1001C000000000000000000000000000000000002F
:1001D000000000000000000000000000000000001F
:1001E000000000000000000000000000000000000F
:1001F00000000000000000000000000000000000FF
:10020000354936480A1A02D0072291438D463449AF
:1002100034480A1A06D00722914381F30988022242
:1002200082F3148830483149314A00F044F83148AB
:100230003149324A00F03FF831483249324A00F041
:100240003AF832483249334A00F035F832483349F7
:10025000334A00F030F833483349344A00F02BF881
:1002600033483449344A00F026F8344834490022EF
:1002700000F02CF833483449002200F027F83348C6
:100280003349091A082902DB002202604160314A21
:1002900090471F481F49884205D00268043003B4C4
:1002A000904703BCF7E700208646EC46002000217B
:1002B000294A9047FEE7884207D0521A05D00378B2
:1002C00001300B700131013AF9D17047884202D0F8
:1002D00002700130FAE770470000012000E00020C2
:1002E0000000012000000120C81F000000000020C5
:1002F00004000020D4030000D4030000A81F000065
:10030000C81F00000000002000000020A81F0000FF
:10031000A81F0000A81F0000A81F0000A81F0000C1
:10032000A81F0000A81F0000A81F0000C81F000091
:10033000CC1F000004000020040000200400002066
:10034000BC110020BC110020BC110020BC110020F9
:10035000BC3100209D030000B51B0000FEE7FEE756
:10036000FEE7FEE7FEE7FEE7FEE7FEE7FEE7FEE765
:10037000704700BF1048804710484FF0070188437E
:1003800085460F4880470F48016841F470010160BD
:10039000BFF34F8FBFF36F8FFFF732BF0A480B4990
:1003A0000B4A884207D0521A05D0037801300B70EF
:1003B0000131013AF9D170477103000000000120BA
:1003C000951C000088ED00E0A81F00000000002040
:0403D0000000002009
:1003D400044B1A5C012393404FF0A042C2F8083545
:1003E400704700BFA81F000008B50020FFF7F0FF0A
:1003F4000120FFF7EDFF0220FFF7EAFFBDE8084008
:100404000320FFF7E5BF0000074A4FF0A041105C4E
:10041400D1F804350122824022EA03001340C1F8D6
:100424000805C1F80C357047A81F0000C20708B5BD
:1004340001460CD54FF0A0430322C3F84427C3F868
:100444004827C3F84C27C3F85027FFF7CDFF8B0785
:100454000AD54FF0A0430C22C3F83427C3F8382739
:10046400C3F83C27C3F8402708BD000038B543074C
:1004740004461CBF20F00704083400F065FD0C4A54
:1004840013681BB90B4B23F0070313600A490B686D
:1004940040F6F7701C44844208D8A34206D215687B
:1004A4000C601D4400F0DEFD284638BD0025F9E748
:1004B400040000201000002008100020704700F104
:1004C40008034FF0FF32C0E90223436003610023B5
:1004D4000360704700230361704743684B609A6868
:1004E4008A609A6851609960036808610133036007
:1004F400704730B50C68631C0AD103695A684A60B6
:1005040091608B605960036808610133036030BDFA
:1005140000F10802134652681568A542FAD9EDE7BE
:10052400D0E9011203698A6051605968814208BFA9
:100534005A60002202611A68013A1A60186870470A
:100544000548006880F3088862B661B6BFF34F8F30
:10055400BFF36F8F00DF00BF00000000064B196877
:100564000868B0E8F04F80F30988BFF36F8F4FF04D
:10057400000080F31188704720100020EFF30980F9
:10058400BFF36F8F144B1A681EF0100F08BF20EDD5
:10059400108A20E9F04F10604DF8043D4FF0400000
:1005A40080F31188BFF34F8FBFF36F8F00F022FEEB
:1005B4004FF0000080F3118808BC19680868B0E89F
:1005C400F04F1EF0100F08BFB0EC108A80F30988BA
:1005D400BFF36F8F704700BF20100020402383F3C8
:1005E4001188FEE74FF0807340E90213054B40F891
:1005F4000C3C6FF0020340F8202C40F8243C4438B3
:10060400704700BFE10500000F4C08B5E02384F8F3
:10061400223000F06BF80D4B00221A60D4F88830B9
:100624000B4A43F47003C4F88830536B43F04043DF
:100634005363236943F010032361FFF781FF4023D1
:1006440083F31188FEE700BF00ED00E00C100020EA
:1006540000EF00E0402383F31188024A136801335A
:10066400136070470C100020034A1368013B1360A9
:100674000BB983F3118870470C10002073B5194B24
:100684000022C3F84021D3F8401101910199EFF3FE
:100694001186402181F31188D3F80445C3F8002161
:1006A400D3F800310093009B00F056FC201A20F090
:1006B4007F4424F0010020B100F07EFE022818BF20
:1006C40001240025013C09D225B1074B4FF080528B
:1006D4005A6040BF86F3118802B070BD00F04AFC36
:1006E4000543EFE70010014000ED00E008B50020ED
:1006F40001F0CAF8094B1F22C3F808250122C3F8E8
:1007040004239A601A600222C3F84423044BE022B3
:1007140083F811234FF400321A6008BD0010014021
:1007240000E100E07FB5054672B6284CD4F80465B4
:1007340000F028FE002845D0254BAB4228BF2B46AD
:10074400F21822F07F420121C4F80813C4F84025AE
:100754000022C4F84021D4F840210192019A4FF4B8
:100764008032C4F80423BFF34F8F3DB1194A20BF30
:10077400D2F80001D2F804110143F8D04FF48032CA
:10078400C4F808230022C4F84021D4F8401103918E
:100794000399C4F80021D4F800210292029A01229C
:1007A400C4F80423D4F804050A4A801B20F07F40CF
:1007B40098424FF4003128BF1846C2F8801108B19E
:1007C40000F0D0FB62B604B070BD00BF0010014061
:1007D400FDFFFF0000E100E010B50446FFF73AFF1B
:1007E400A46BFFF741FFB4FA84F0400910BDF8B5DB
:1007F4001546026C866B044652B9076847BB4068CD
:1008040000F0EAFD676005460136A6632846F8BD98
:1008140065B9806801F06AFBA368226C13446268BE
:10082400A3609342F0D32368A360EDE7C06801F0AE
:100834005DFB226CE36851429B1A2268E360934299
:100844003EBF63685B18E360022D01D116B1013E1F
:100854000025D9E73546D7E7034610B41A6C084695
:100864006AB1DC68596814448C4228BF1968DC609A
:1008740028BFD960D9685DF8044B01F037BB5DF837
:10088400044B704770B50446FFF7E4FE94F84550F6
:1008940004F124066DB2002D14DCFF2384F84530E6
:1008A400FFF7E2FEFFF7D6FE94F8445004F1100679
:1008B4006DB2002D12DCFF2384F84430BDE8704093
:1008C400FFF7D2BE636A002BE7D0304600F0E4FCA9
:1008D40008B100F051FD013D6DB2DCE72369002B46
:1008E400E9D0304600F0D8FC08B100F045FD013DE8
:1008F4006DB2DEE738B504460D46FFF7ABFED4E92A
:100904000F312268A2604B43D0185B1A1344606015
:10091400E3600020FF23A06384F8443084F845306A
:100924009DB923696BB104F1100000F0B5FC40B12E
:100934000A4B4FF080525A6040BFBFF34F8FBFF352
:100944006F8FFFF791FE012038BD04F11000FFF70F
:10095400B6FD04F12400FFF7B2FDF2E700ED00E07C
:1009640070B50646484348300D46FFF77FFD044600
:1009740048B155B100F14803C4E90F652360012172
:100984002046FFF7B7FF204670BD0346F4E700009A
:100994002DE9FF474FF00008DFF8F8A00192044664
:1009A4000F461E46C146FFF755FEA26BE36B9A4203
:1009B40001D3022E1AD1324639462046FFF717FFDB
:1009C400636A1BB104F1240000F066FC40B1314BB2
:1009D4004FF080525A6040BFBFF34F8FBFF36F8F09
:1009E400FFF742FE012004B0BDE8F087019D1DB968
:1009F400FFF73AFE0020F6E7B8F1000F02D102A893
:100A040000F086FCFFF730FE00F09EFAFFF722FEAE
:100A140094F84430FF2B08BF84F8449094F8453090
:100A2400FF2B08BF84F84590FFF71EFE01A902A81A
:100A340000F07AFC38BBFFF70DFEA26BE36B9A4221
:100A44000FD1FFF711FE019904F1100000F000FC32
:100A54002046FFF717FF00F005FB50B14FF00108E7
:100A6400A1E7FFF701FE2046FFF70CFF00F0FAFABA
:100A7400F4E74FF08053CAF8043040BFBFF34F8F00
:100A8400BFF36F8FEAE72046FFF7FCFE00F0EAFAB7
:100A9400B0E700BF00ED00E0F8B504461746EFF3F9
:100AA4001186402282F31188806BE26B904201D35D
:100AB400022B1ED194F845501A466DB22046FFF71A
:100AC40096FE6B1C10D1636A0BB9012009E004F196
:100AD400240000F0E1FB0028F7D0002FF5D001201E
:100AE400386086F31188F8BD01356DB284F845503D
:100AF400EBE70020F5E700002DE9F04385B000277F
:100B0400DFF8E490019204460E46B846FFF7A2FDD2
:100B1400A56BDDB131462046013DFFF79DFEA5637F
:100B240023696BB104F1100000F0B6FB40B12E4B09
:100B34004FF080525A6040BFBFF34F8FBFF36F8FA7
:100B4400FFF792FD012005B0BDE8F083019D1DB9BA
:100B5400FFF78AFD0020F6E717B902A800F0D8FBDA
:100B6400FFF782FD00F0F0F9FFF774FD94F84430CC
:100B7400FF2B08BF84F8448094F84530FF2B08BF4E
:100B840084F84580FFF770FD01A902A800F0CCFBB2
:100B9400F8B92046FFF720FEA8B1019904F124001A
:100BA40000F056FB2046FFF76DFE00F05BFA40B9FB
:100BB4004FF08053C9F8043040BFBFF34F8FBFF3E9
:100BC4006F8F0127A2E72046FFF75CFE00F04AFA88
:100BD400F7E72046FFF756FE00F044FA2046FFF7F9
:100BE400FBFD0028EDD0B5E700ED00E0054B1A68E9
:100BF40012B19A682AB9012243F8321003EBC203F6
:100C0400586070471010002070B504460D46164613
:100C1400FFF720FD94F84430FF2B04BF002384F831
:100C2400443094F84530FF2B04BF002384F845304A
:100C3400FFF71AFDA36B2BB93246294604F12400B1
:100C440000F016FB2046BDE87040FFF71BBE000015
:100C5400F8B51A4B1A4E1D680446306804300F4626
:100C6400FFF75EFC40B932681649D06A0B6801226E
:100C7400824023EA02030B60631C07D137B1316859
:100C84001148BDE8F8400431FFF727BC33682C193C
:100C94005C6007D30D4B18683168BDE8F840043137
:100CA400FFF727BC0A4B186831680431FFF721FCB1
:100CB400084B1A68A24288BF1C60F8BDF4100020DB
:100CC400201000207C100020CC10002028100020D0
:100CD40024100020AC100020094B0A4A1B6812683B
:100CE400D06A58B9084A1268012A08D8012B06D8D4
:100CF400064B1868064B1B68C01A704700207047E3
:100D04007C100020201000202C100020AC100020AB
:100D1400F4100020064A13681968064B19B94FF0FD
:100D2400FF321A6070471268D268D2685268F8E7D6
:100D340024100020AC1000202DE9F84F9500074640
:100D440028460E469846FFF791FB8146002800F09E
:100D54009E804820FFF78AFB0446002800F0948018
:100D6400C0F830902A46A521484601F0E8F8D4F8A6
:100D740030B0731E04F13402033613F8011F02F875
:100D8400011B09B19E42F8D10A9E022E28BF0226F9
:100D94004FF0000A04F10409C4E90E6AE662484609
:100DA40084F837A0043DFFF795FBC6F1030604F170
:100DB40018005D44FFF78EFBC4F840A02461A661CF
:100DC400646284F844A04246394625F00700FFF7E0
:100DD40009FC0B9B206003B11C60FFF73BFC324B0A
:100DE400324E1A68324F01321A603268002A51D1E9
:100DF40034601B68012B1FD12E48DFF8E8802E4D8C
:100E0400FFF75DFB2D48FFF75AFB2D48FFF757FB13
:100E14004046FFF754FB2846FFF751FB2948FFF7EC
:100E24004EFB2948FFF74BFB2848FFF748FB284BAC
:100E3400C3F80080274B1D60274A284913680868B7
:100E440001331360E26A012505FA02F303430B60E0
:100E5400184B142000FB02304946FFF73EFBFFF716
:100E640003FC3B686BB13368DA6AE36A9A4208D2DE
:100E74001B4B4FF080525A6040BFBFF34F8FBFF3FC
:100E84006F8F2846BDE8F88F4846FFF717FB4FF0F1
:100E9400FF35F6E73B68002BCED13368DA6AE36AA4
:100EA4009A4298BF3460C7E76810002020100020E1
:100EB400C81000202C1000209410002040100020A6
:100EC40054100020B4100020E0100020CC100020AA
:100ED4002410002028100020781000207C1000200E
:100EE40000ED00E08010002013B5114B01930024A5
:100EF40010491148009423463C22FFF71DFF0128A6
:100F040013D100F0EDFA01280FD1402383F31188A7
:100F14000A4B4FF0FF321A60094B1860094B1C60F2
:100F240002B0BDE81040FFF76FBB02B010BD00BFB8
:100F3400A8100020AC1F000075110000AC100020A8
:100F4400C8100020F4100020024A13680133136013
:100F5400704700BF74100020014B1868704700BF31
:100F6400F4100020024A136818441060704700BF50
:100F7400F41000202DE9F84F2F4B1B68002B54D19F
:100F84002E4B1D6801351D605DB92D4A2D4B11682E
:100F9400186810602C4A1960136801331360FFF756
:100FA400B9FE2A4F3B68AB424FF0000607D9284BE5
:100FB4001B68002B0CBF30460120BDE8F88FDFF81A
:100FC4008090DFF89880DFF898A0D9F800301B688B
:100FD4001BB94FF0FF333B60E9E7D9F80030DB6819
:100FE400DC6863689D42F6D304F1040B5846FFF7AE
:100FF40097FAA36A1BB104F11800FFF791FAE26AA9
:10100400D8F800100123934014200B4300FB02A0E6
:101014005946C8F80030FFF760FA0E4BE26A1B68C5
:10102400DB6A9A4228BF0126CFE70B4A13680133D3
:1010340013600026BBE700BF74100020F4100020EA
:101044002410002028100020B0100020AC10002034
:10105400F810002020100020701000207C100020C8
:101064002C1000202DE9F341FFF7F4FA2B4B1A68FA
:10107400013A1A601C6834B10024FFF7F5FA2046DF
:1010840002B0BDE8F081264B1B68002BF4D0254D3F
:10109400254EDFF8A8801FE0EB68DC6804F1180037
:1010A400FFF73EFA211D08460191FFF739FAE26A7B
:1010B40030680199012707FA02F30343142000FB67
:1010C40002803360FFF709FA184BE26A1B68DB6A97
:1010D4009A4201D3164B1F602B68002BDCD10CB154
:1010E400FFF718FE134D2C6844B1114E0127FFF78A
:1010F40041FF00B13760013CF9D12C600C4B1B68F7
:10110400002BB9D00C4B4FF080525A6040BFBFF354
:101114004F8FBFF36F8F0124AFE700BF741000201F
:1011240068100020B41000207C1000202010002043
:10113400F81000207010002000ED00E02C100020BA
:1011440008B548B9094B4FF080525A6040BFBFF30D
:101154004F8FBFF36F8F08BD0021FFF7F5FEFFF738
:1011640077FDFFF77FFF0028ECD0F4E700ED00E007
:10117400F8B51B4C1B4F1C4E2368DBB91B4B1B687B
:10118400012B08D91A4B4FF080525A6040BFBFF36D
:101194004F8FBFF36F8FFFF79FFD0128EBD9FFF748
:1011A400D3FEFFF799FD012801D9FFF7BBFAFFF73A
:1011B40059FFE0E7FFF74EFAFB68DD68281DFFF7EB
:1011C400AFF93368013B33602368013B2360FFF7C9
:1011D4004BFA286BFFF772F92846FFF76FF9CBE754
:1011E4006C100020E0100020681000202C1000205B
:1011F40000ED00E0114B1A68114B30B512B1012219
:101204001A6030BD1A600F4B0F491B68B3FA83F3A1
:10121400C3F11F03142505FB03F288180832446840
:10122400646844600A44944204BF6268426005FBF7
:1012340003135B68DA68054BE2E700BF7410002013
:10124400F81000207C1000202C100020201000201A
:1012540010B5064B0C4619681831FFF74AF92046B9
:101264000121BDE81040FFF7F3BC00BF20100020AF
:1012740038B5084B0D46196814461831FFF72DF997
:10128400002C21460CBF28464FF0FF30BDE8384003
:10129400FFF7DEBC20100020C36837B5DC6804F11A
:1012A400180108460191FFF73BF9134B01991B689C
:1012B40003BB211D08460191FFF732F90F48E26A8A
:1012C40005680199012393402B4303600C4B1420C0
:1012D40000FB0230FFF701F90A4BE26A1B68DB6A84
:1012E4009A4285BF084B012000201860FFF712FDC9
:1012F40003B030BD0548EDE7741000207C100020D9
:101304002C10002020100020F8100020B410002021
:10131400034B1B680360034B1B684360704700BFAB
:10132400B0100020F410002070B50C460546FFF7FD
:1013340091F90F4B196823685A1C10D00D482E6878
:1013440000686A68864201D08A420FD9881A8342AB
:101354000AD95B1A134423602846FFF7D9FF0024F7
:10136400FFF782F9204670BD002323600124F7E7CC
:10137400F4100020B0100020014B01221A607047C5
:10138400F8100020084B186860B9084B1B6853B963
:10139400074B1868074B1B68013B984214BF012098
:1013A4000220704700207047B4100020F81000207D
:1013B400CC10002068100020054B1B6833B1054B8E
:1013C4001B68002B0CBF02200020704701207047CF
:1013D400C810002074100020F7B5044610B900208E
:1013E40003B0F0BDC36BC16A826B013B9142C3631E
:1013F400F5D0002BF3D1011D08460191FFF790F8B9
:10140400104F114A019950B9E06A14264643BB595A
:101414002BB913680125854023EA05031360A36BE8
:10142400E362C3F10300A0611068012404FA03F528
:101434000543142000FB03701560FFF74EF82046A7
:10144400CEE700BF2C1000207C100020F8B50F4C14
:10145400FFF700F92568ADB90D4F0E4E3846FFF77A
:101464002EF83046FFF72BF80B4B1F600B4B2A4628
:10147400102120201E60FFF773FA206010B1084984
:10148400FFF7B4FBBDE8F840FFF7EEB830110020D9
:101494000411002018110020FC100020001100206D
:1014A400B11F0000914208B5416000610AD8D21A08
:1014B40083699A420DD2084B011D1868FFF719F889
:1014C400002008BD9A4201D2994202D2034B011D69
:1014D400F3E70120F5E700BF00110020FC10002015
:1014E40007B5FFF7B3FF084B186848B1074B0193E2
:1014F400022300930649074800235022FFF71CFCEF
:1015040003B05DF804FB00BF30110020341100204B
:10151400B61F0000291600002DE9F041804628205E
:101524000F4616461D46FEF7A1FF044658B1FFF7C5
:101534008DFF069BC4F80080C4E9067625626362C9
:10154400201DFEF7C7FF2046BDE8F0817FB50F4C94
:101554000546206816461A4680B10529CDE90016CD
:1015640002950DDCFFF728FF0023022808BF089A24
:10157400206818BF1A466946FFF70AFA04B070BD1E
:1015840000236946FFF788FAF8E700BF301100200E
:101594002DE9FF47DFF888800646FFF7DDFCD8F821
:1015A40000308342054634D91B4F4FF000093B6895
:1015B4001A685AB9194A1168396013600123284618
:1015C4003360C8F8005004B0BDE8F087DB68DC681D
:1015D400D3F800A0211D08460391FEF7A1FF636A1A
:1015E40020469847E3690399012BE0D1A36953444A
:1015F4009A4505D2386863602461FEF77AFFD6E71E
:101604000023CDF80090524619462046FFF79EFF6E
:10161400CDE70023D3E700BFFC1000200011002019
:101624002C1100202DE9F047594E88B04FF00008E6
:1016340033681D68002D5BD0DB68D3F80090554FEC
:10164400FFF782FC04A8FFF7A3FF049C8246002C4A
:101654006AD1002D4ED0484552D3FFF703FD3368BD
:10166400DB68DD68281DFEF75BFFEB69012B0ED1FB
:10167400A9694B46524649442846FFF713FF30B147
:10168400009423464A4621462846FFF75FFF6B6ACB
:10169400284698473868002204A9FFF72DFA002845
:1016A400C6D0049B0698002B41DB069C6369002B83
:1016B40044D103A8FFF76CFF049B0246092BE9D829
:1016C40001A151F823F000BF491700004917000099
:1016D40049170000991600007B1700008B170000C3
:1016E4004917000049170000991600007B170000F5
:1016F400A946A4E7284B1B681C68B4FA84F464095F
:1017040038682246A9EB0A01FFF77EFAFFF7AAFC24
:101714000028BFD1214B4FF080525A6040BFBFF325
:101724004F8FBFF36F8FB5E7FFF79CFCB2E7059BC4
:1017340007999847049B002BACDBB6E7201DFEF706
:10174400EFFEB6E7A169059B20461944FFF7AAFE00
:1017540000289FD0636A20469847E369012B99D1FA
:10176400A2690599CDF8008000230A442046194651
:10177400FFF7ECFE8EE70599A1610346014420467C
:10178400FFF790FE86E72046FEF798FE82E700BF4B
:10179400FC100020301100200011002000ED00E0BA
:1017A4001FB50021039001AA44F20100CDE9011103
:1017B40000F004F805B05DF804FB000072B6094BB4
:1017C400D3F8F020D20700D500BEBFF34F8FD968FD
:1017D400054A01F4E0610A43DA60BFF34F8F00BFAA
:1017E400FDE700BF00ED00E00400FA0572B6024A0E
:1017F400136801331360704738110020034A1368DB
:10180400013B136003B962B6704700BF3811002072
:10181400FFF7ECBFFFF7F2BF38B5074C051E04F124
:10182400080318BF1C4623682BB11A6822605B6842
:1018340028469847F7E738BD4411002020B9054BE6
:1018440001225A70FFF7E8BF012802D1014A9070C3
:10185400F8E770473C11002038B5094C23786BB980
:1018640008486360A3602361E36000F037F805462D
:1018740000F040F801232370284638BD8525FBE796
:101884003C1100204118000038B5134CA3780546DC
:1018940003F0FF0073B115B16B6801209847002075
:1018A400FFF7B6FFE3680133E3600020BDE838408A
:1018B400FFF7B0BFFFF7ACFF25B1226913463BB970
:1018C4002A602561E368002BECD100F025F8E9E7F4
:1018D4009D42F7D01B68F2E73C110020044A1379BB
:1018E40023B9012110609180184670478520704704
:1018F40050110020074B1A68D2075FBFC02283F83B
:10190400002301221A604FF080430122C3F81825F6
:10191400704700BF00E100E037B54FF0804300227C
:10192400C3F80421D3F804210192019A0222C3F8D6
:1019340004230D4AD2F8FC0040F08073C2F8FC3056
:101944000A4B1C6844F0010119605D685968491B21
:10195400B1F50A5FFAD31C604FF08043C2F8FC0073
:1019640001229A6003B030BD00ED00E0001000E0F9
:101974004FF0804307B5D3F800217AB10022C3F8B1
:101984000021D3F800210092009A0122C3F8082311
:101994000F4B587910B95A711B6898474FF0804320
:1019A400D3F8042182B10022C3F80421D3F804211E
:1019B4000192019A0222C3F80823054B1B680120F7
:1019C40003B05DF804EB184703B05DF804FB00BFF7
:1019D4005011002000F1804000F5C040002382B087
:1019E400036003680193019B02B07047800000F11B
:1019F400A040D0F8002722F44032C0F80027D0F8E5
:101A0400003743EA0141C0F800177047C2080123B8
:101A140000F0070003FA00F08B5C18438854704709
:101A24002DE9F04F87B00024584D03944FF4807291
:101A3400012102F1804303F5C04390B21B68012BDE
:101A440006D1D5F804330B4202D0FFF7C3FF0C4391
:101A54000432B2F5907F4FEA4101EAD14B4BD3F8FF
:101A64007C31012B0AD14FF4BE70FFF7B3FF4FF066
:101A7400A04344F00044D3F810350393E3B2D3B148
:101A8400434F01260025344210D0AB0003F18043BC
:101A940003F5C043D3F81005D3F8101557F82530D3
:101AA40023B1C1F30141C0F3042098470135082D47
:101AB4004FEA4606E7D1002C61DA00224FF0FF33EB
:101AC400CDE90423DFF8C880DFF8C8900026374644
:101AD4004FF0A04B19F9014B631C45D0C4F3C2036A
:101AE4000122E5B204F03F0004F0070402FA04F412
:101AF40006AA134413F8042C224235D008EB000242
:101B0400AD0992F9302058F822A0BAF1000F09D19A
:101B1400032D29D104A901930090FFF777FFDDE994
:101B2400000301E0032DF5D000F5E07113F80C3C3F
:101B34005BF821102342C1F3014105D0022913D1DE
:101B4400032D0CD1294604E003290DD1032D06D120
:101B5400022100900136FFF749FF0098F6B2BAF16E
:101B6400000F01D02946D0470137042FB2D136B136
:101B74004FF0A043039AD3F81035934202D107B033
:101B8400BDE8F08F0393049B05939DE7006000403C
:101B940058110020A81100200120FEF735BC08B51B
:101BA4000020FEF731FCC820FFF7CAFAF8E700006E
:101BB40013B5FFF751FE08B1FFF7F2FD0120FEF760
:101BC40035FC144B01930223134900934FF48272A2
:101BD40000231248FFF7B0F8114B009301224FF491
:101BE4007A7100230F48FFF797FC0F4B04461860E7
:101BF400FFF7B2F900230246009301212046FFF7C4
:101C0400A5FC0A4A136943F004031361FFF76CF956
:101C1400FEE700BFB4110020BE1F0000A31B00009C
:101C24009D1B0000C31F0000B811002000ED00E060
:101C34004FF0704393F8E02F062A10D1D3F8E42F25
:101C440012070CD1D3F8E80F00F0F003302B08D0C2
:101C540000F0E000A0F140035842584170470020D2
:101C64007047012070474FF0704393F8E02F062A25
:101C74000CD1D3F8E42F120708D1D3F8E80F00F001
:101C8400F000A0F1300358425841704700207047DB
:101C940008B5FFF7CDFF40B14FF08053884AD3F821
:101CA4002433C3F30423C2F84035FFF7DCFF10B13B
:101CB400844B854A5A67FFF7BBFF48B14FF0805306
:101CC4004FF08042D3F84432C3F34233C2F83C3578
:101CD400FFF7C9FF30B17D4AD2F8FC3023F080739E
:101CE400C2F8FC30FFF7A4FF40B14FF0804300225C
:101CF400C3F80C21C3F81021C3F83825FFF7B3FF4C
:101D040020B14FF080430322C3F8A025FFF7ABFFB7
:101D140060B16F4B0522C3F810260122C3F8882650
:101D24000022C3F818263F22C3F814264FF070434C
:101D340093F8E02F062A50D1D3F8E42F11074CD1A1
:101D4400D3F8E83F03F0F003502B46D14FF0805214
:101D5400604BD2F80414C3F82015D2F80814C3F861
:101D64002415D2F80C14C3F82815D2F81014C3F8AB
:101D74002C15D2F81414C3F83015D2F81814C3F87B
:101D84003415D2F81C14C3F84015D2F82014C3F843
:101D94004415D2F82414C3F84815D2F82814C3F80B
:101DA4004C15D2F82C14C3F85015D2F83014C3F8DB
:101DB4005415D2F83414C3F86015D2F83814C3F8A3
:101DC4006415D2F83C14C3F86815D2F84014C3F86B
:101DD4006C15D2F84424C3F87025FFF729FF48B1E5
:101DE4004FF080534FF08042D3F8583203F04F0342
:101DF400C2F8E43EFFF71CFF48B14FF08043D3F82C
:101E04000024D20744BF6FF00102C3F800244FF04E
:101E14008053D3F83021062A0AD1D3F83431062B63
:101E240001BF2D4AD2F83C3743F48063C2F83C37F3
:101E3400264AD2F8883043F47003C2F88830BFF3DE
:101E44004F8FBFF36F8F4FF01023D3F80022002A77
:101E540003DBD3F80432002B2EDA204B0122C3F823
:101E64000425D3F80024002AFBD04FF010221521BA
:101E7400C2F80012D3F80024002AFBD04FF010233C
:101E84001522C3F80422154BD3F80024002AFBD0F2
:101E94000022C3F80425D3F80024002AFBD0BFF3A2
:101EA4004F8F0A490E4BCA6802F4E0621343CB60B9
:101EB400BFF34F8F00BFFDE70A4B0B4A1A6008BD02
:101EC4000030014000C007400DF0ADBA00ED00E065
:101ED4000050004000C000400010004000E00140FD
:101EE4000400FA05000000200090D003844640EA74
:101EF400010313F0030F18D18446202A0BD32DE9D4
:101F0400F007B1E8F807A0E8F807A2F12002202AB8
:101F1400F7D2BDE8F007042A07D351F8043B40F890
:101F2400043BA2F10402042AF7D2002A05D011F8D6
:101F3400013B00F8013B013AF9D160467047844601
:101F4400002A2DD010F0030F04D000F8011B013A31
:101F540026D0F7E7C9B241EA012141EA0141202A2A
:101F640012D3A2F120022DE9F0030B460C460D46D4
:101F74000E460F4688468946A0E8FA03203AFBD26B
:101F8400BDE8F00320320BD0042A05D340F8041B2B
:101F9400043A05D0042AF9D200F8011B013AFBD116
:041FA40060467047DC
:101FA8001112131449444C4500546D725100546D7C
:101FB8007220537663004C454430004C4544310050
:041FC8000090D003B2
:040000030000037581
:00000001FF
