:1000000000000420750300005D0300005F03000092
:1000100061030000630300006503000000000000AE
:100020000000000000000000000000006703000066
:1000300069030000000000006B0300006D03000076
:10004000BD0C00006F0300006F0300006F03000091
:100050006F0300006F0300006F0300006F030000D8
:100060006F0300006F0300006F0300006F030000C8
:100070006F0300006F0300006F0300006F030000B8
:100080006F030000A10400006F0300006F03000075
:100090003D0500006F0300006F0300006F030000C8
:1000A0006F0300006F0300006F0300006F03000088
:1000B0006F0300006F03000000000000000000005C
:1000C0006F0300006F0300006F0300006F03000068
:1000D0006F0300006F0300006F0300006F03000058
:1000E0006F0300006F0300006F03000000000000BA
:1000F000000000006F030000000000006F0300001C
:1001000000000000000000000000000000000000EF
:1001100000000000000000000000000000000000DF
:1001200000000000000000000000000000000000CF
:1001300000000000000000000000000000000000BF
:1001400000000000000000000000000000000000AF
:10015000000000000000000000000000000000009F
:10016000000000000000000000000000000000008F
:10017000000000000000000000000000000000007F
:10018000000000000000000000000000000000006F
:10019000000000000000000000000000000000005F
:1001A000000000000000000000000000000000004F
:1001B000000000000000000000000000000000003F
:1001C000000000000000000000000000000000002F
:1001D000000000000000000000000000000000001F
:1001E000000000000000000000000000000000000F
:1001F00000000000000000000000000000000000FF
:10020000354936480A1A02D0072291438D463449AF
:1002100034480A1A06D00722914381F30988022242
:1002200082F3148830483149314A00F044F83148AB
:100230003149324A00F03FF831483249324A00F041
:100240003AF832483249334A00F035F832483349F7
:10025000334A00F030F833483349344A00F02BF881
:1002600033483449344A00F026F8344834490022EF
:1002700000F02CF833483449002200F027F83348C6
:100280003349091A082902DB002202604160314A21
:1002900090471F481F49884205D00268043003B4C4
:1002A000904703BCF7E700208646EC46002000217B
:1002B000294A9047FEE7884207D0521A05D00378B2
:1002C00001300B700131013AF9D17047884202D0F8
:1002D00002700130FAE770470000042000E00320BC
:1002E0000000042000000420D00F000000000020C7
:1002F00004000020D4030000D4030000AA0F000073
:10030000D00F00000000002000000020AC0F000013
:10031000AC0F0000AC0F0000AC0F0000AC0F0000F1
:10032000AC0F0000AC0F0000AC0F0000D00F0000BD
:10033000D40F00000400002004000020040000206E
:10034000C0010020C0010020C0010020C001002029
:10035000C02100209D030000210D0000FEE7FEE704
:10036000FEE7FEE7FEE7FEE7FEE7FEE7FEE7FEE765
:10037000704700BF1048804710484FF0070188437E
:1003800085460F4880470F48016841F470010160BD
:10039000BFF34F8FBFF36F8FFFF732BF0A480B4990
:1003A0000B4A884207D0521A05D0037801300B70EF
:1003B0000131013AF9D170477103000000000420B7
:1003C000890D000088ED00E0AC0F00000000002067
:0403D0000000002009
:1003D4001FB50021039001AA44F20100CDE90111E7
:1003E40000F004F805B05DF804FB000072B6094B98
:1003F400D3F8F020D20700D500BEBFF34F8FD968E1
:10040400054A01F4E0610A43DA60BFF34F8F00BF8D
:10041400FDE700BF00ED00E00400FA05094B5A783F
:1004240099780132D2B2914208BF002219789142E0
:100434001FBF02705878182202FB003014BF04302A
:100444000020704704000020024B4FF43C6043F04E
:1004540001031847B00F000038B50C4B0C4C4FF497
:100464000032C3F8802001254FF48033C4F84833A8
:10047400C4F808336560FFF7E7FF064BA560002466
:100484001C60FFF7E1FF044B1C7038BD00E100E085
:10049400001001402001002011010020F8B51F4B7D
:1004A4001F491B680025C1F84051C1F84451C1F8E7
:1004B4004851C1F84C51C1F80051C1F804514BB333
:1004C400D1F8044517490968641A24F07F442F467B
:1004D4001A68A24209D8A41A15441A7CDE691AB112
:1004E400D3E905201F749047AEB90F4A0F4B11781A
:1004F4001B788B4205D10133DBB2022B08BF0023EA
:10050400137012780A4B43F822500A4B4FF48012AE
:10051400C3F80021F8BD3346DAE700BF2401002008
:1005240000100140200100201D0100201C010020BA
:100534001401002000E100E02DE9F04FA14AA24996
:1005440013780978A14D994285B03CD00133DBB2D0
:10055400022B08BF002313709D4912789D4B0F682E
:1005640053F822003B1823F07F4300220B602B68D2
:1005740016461446944613B942B12B6006E0196836
:1005840081420ED902B12B60091A196001272B6828
:10059400DFF848A201934FF00008BEB9DFF844B277
:1005A40060E0401A0C44D968D3F81CE0C3F800C0DA
:1005B40031B13A1922F07F42C3E90121DE611E46BE
:1005C40073460122D7E700263746E0E73446F6694A
:1005D4007F4B60681B68DFF810C2A168C21A22F062
:1005E4007F42624500F2A6800A44226001222274FE
:1005F4002A680023C4E90133E361002A40F0A380A0
:100604002C60CAE79BF802105A1CD2B291428BF8B4
:10061400002004BF00228BF80020182202FB03B341
:100624002A6819799C68022975D003297FD0012989
:1006340018D1207CB0B9D3E90312A2605A69E260F0
:100644009A69654BA2611A78002A18BF0146616055
:10065400BEE78C4200F094808946C9690029F8D12C
:10066400002323749BF800309BF801209A42C9D1DF
:100674002B68B8F1000F04D1019A9A4201D1002FDE
:1006840043D0002B79D0D3F800A0544D504BD5F86B
:1006940004751C68DFF854813E1B98F8003026F07E
:1006A4007F4603369BB94FF48033C5F84433C5F80D
:1006B40004334B4B4FF400324FF00109C3F880214F
:1006C4001A60C5F80090FFF7BFFE88F80090B245A5
:1006D4002CBF5444A41924F07F44C5F84045D5F8F0
:1006E4000435DB1B23F07F43E41B033324F07F44F6
:1006F400A3420AD9D5F80435C5F84035FFF7A4FE5E
:10070400374B4FF40032C3F80021334B00221A70E8
:1007140005B0BDE8F08F114691469FE71174D26988
:100724000123002AFAD1002B9CD02A609AE70023E7
:100734001946F6E71B1A23F07F438B4234BFCB1ACA
:100744000023236052E721681368994213D85B1A87
:100754001360E26154E7091AD8691A4638B10346AE
:1007640018688842F7D3401A186018461346216067
:10077400E061DC6111E71346F2E7FFF76DFEC4E7C1
:100784004C4511D1D3692B6073B9DFF844E00120E3
:10079400CDE90212CAF80800CEF800300E4B1870EA
:1007A400FFF752FEDDE902120B68C969C9F81C1093
:1007B40011B1086803440B602B68934218BF4FF0D3
:1007C40001084DE71C0100201D0100202401002028
:1007D400200100201401002010010020001001401D
:1007E40000E100E004000020FEFF7F001101002072
:1007F40008B5FFF731FE104B00200B2218809A70C9
:100804000E4B18600E4B18700E4B18700E4B4FF4B5
:100814008012C021C3F8802183F814131A6002F1F6
:100824008042A2F56F22C2F8080583F81113074B22
:10083400D2F804251A6008BD040000202401002019
:100844001C0100201D01002000E100E02001002027
:10085400074B9B784BB132B128B10368187C20B99F
:1008640059745A617047072070470820704700BFC9
:10087400040000202DE9F3411C4FBB7804460D46CB
:1008840016468BB380B304292CD9436963B3437CE4
:100894000020012B0CBF88464FF0000800F03EF802
:1008A4000DF10700FFF7BAFDD0B101230370104B1F
:1008B4004460D3F80435C0E90486C0E902359DF8E4
:1008C40007307B700024002000F02AF824B9094B7B
:1008D4004FF48012C3F80021204602B0BDE8F08135
:1008E4000424F0E70724F7E70824F5E704000020D0
:1008F4000010014000E100E072B6024A13680133BF
:100904001360704728010020034A1368013B1360F9
:1009140003B962B6704700BF28010020FFF7ECBF9F
:10092400FFF7F2BF17490A68002A38B5164B25DCD1
:100934005C789A88D87BB4B15C7B251A954207DC35
:1009440000225A705A699C8002B105320A6001E0A3
:1009540002449A8019790D4800F014F980B1BDE879
:100964003840FFF735BD9C7B2518954204DB0122F6
:100974005A709C801A69E7E7121AEAE7FF3AE5E73A
:1009840038BD00BFA00100202C0100205C01002024
:1009940070B543780446002B42D082789A423FD205
:1009A400C378002B3CD0C368002B39D054221D4897
:1009B400002100F0C5FA1C4A234604F11006186809
:1009C4005968154603C50833B3422A46F7D1186857
:1009D4002860E278A378134D1344AB80E368AB60DE
:1009E400AB6223692A7B6B62FF23012685F82020F2
:1009F40085F821300D4A0E4B6E7005F1200105F18A
:100A04003000EB6200F078F858B9AE70A178E37862
:100A1400194405F13000C9B2BDE8704000F0B2B825
:100A2400072070BD2C010020380100202909000096
:100A3400B80F00000146014800F090B85C010020A6
:100A44000178036AC26821B1C3F80C2500234370FE
:100A54007047C3F80825F9E738B5037D0446002B31
:100A64003FD18369DBB9E378A2789A421FD1207819
:100A7400236AE168C0B1C3F8081501230532637025
:100A840022612379022B0ED1E36921691868224679
:100A9400FFF7F0FE38B1BDE83840FFF799BC98473E
:100AA4002379022BDFD038BDC3F80C15E5E733B941
:100AB4002046FFF7C5FFA37805332361E1E72578D6
:100AC400216AE06855B1C1F8080513FB02F31B1253
:100AD40001210533617023612175D2E7C1F80C054A
:100AE400F3E7FFF7ADFF002382780375C378D31AC9
:100AF40053431B12E0E7000070B58D680B78037058
:100B0400C0E902554B68826103624B7883700446E6
:100B1400C868104AE0610021FFF79AFE40B90E4E02
:100B2400032135B92046FFF78BFF012323712846A3
:100B340070BDEB070BD51F288BBF00F01F030346C6
:100B440032464FF0A04203F5E07342F8231001301F
:100B54006D08E6E75D0A000000030050022370B54B
:100B64000371C1600D46FFF76BFF81688669044617
:100B740029430025816005758561FFF76DFFA66136
:100B8400284670BD83788B4226BFC17000200720A1
:100B94007047000038B5074C051E04F1080318BF60
:100BA4001C4623682BB11A6822605B682846984764
:100BB400F7E738BDAC01002020B9054B01225A707B
:100BC400FFF7E8BF012802D1014A9070F8E77047A7
:100BD400A401002038B5094C23786BB90848636038
:100BE400A3602361E36000F037F8054600F040F8A5
:100BF40001232370284638BD8525FBE7A401002086
:100C0400BD0B000038B5134CA378054603F0FF0074
:100C140073B115B16B68012098470020FFF77EFE81
:100C2400E3680133E3600020BDE83840FFF778BE95
:100C3400FFF774FE25B1226913463BB92A6025618A
:100C4400E368002BECD100F025F8E9E79D42F7D0EA
:100C54001B68F2E7A4010020044A137923B9012197
:100C6400106091801846704785207047B8010020B5
:100C7400074B1A68D2075FBFC02283F80023012202
:100C84001A604FF080430122C3F81825704700BF53
:100C940000E100E04FF080430022C3F8042182B059
:100CA400D3F804210192019A0222C3F804230122F9
:100CB4009A6002B0704700004FF0804307B5D3F844
:100CC40000217AB10022C3F80021D3F80021009258
:100CD400009A0122C3F808230F4B587910B95A71AE
:100CE4001B6898474FF08043D3F8042182B1002257
:100CF400C3F80421D3F804210192019A0222C3F813
:100D04000823054B1B68012003B05DF804EB18476A
:100D140003B05DF804FB00BFB801002030B587B014
:100D2400FFF758FF08B1FFF753FB0020FFF76AFFF6
:100D3400FFF75EFD08B1FFF74BFB0A4D0FCD01AC89
:100D44000FC42B68236001A8FFF722FE08B1FFF748
:100D54003FFB4FF4F030FFF76DFE08B1FFF738FBAF
:100D640020BFFDE7BC0F00004FF08053D3F83021C3
:100D7400082A03BFD3F83401B0FA80F040090020F8
:100D84007047000008B54FF080430022C3F80C21DF
:100D9400C3F81021C3F838254FF0805203F54043BF
:100DA400D2F80414C3F82015D2F80814C3F8241593
:100DB400D2F80C14C3F82815D2F81014C3F82C1563
:100DC400D2F81414C3F83015D2F81814C3F8341533
:100DD400D2F81C14C3F84015D2F82014C3F84415F3
:100DE400D2F82414C3F84815D2F82814C3F84C15C3
:100DF400D2F82C14C3F85015D2F83014C3F8541593
:100E0400D2F83414C3F86015D2F83814C3F8641552
:100E1400D2F83C14C3F86815D2F84014C3F86C1522
:100E2400D2F84424C3F87025FFF79EFF18B13B4B5A
:100E34003B4AC3F88C26FFF797FF18B1394BFB22C6
:100E4400C3F81825FFF790FF70B14FF080414FF0C1
:100E54008053D1F8E42ED3F8583222F00F0203F075
:100E64000F031343C1F8E43EFFF77EFF20B12E4B7E
:100E74004FF40072C3F840264FF08043D3F80024A7
:100E8400D20744BF6FF00102C3F80024274AD2F806
:100E9400883043F47003C2F88830BFF34F8FBFF338
:100EA4006F8F4FF01023D3F80022002A03DBD3F80E
:100EB4000432002B2EDA1E4B0122C3F80425D3F88A
:100EC4000024002AFBD04FF010221221C2F8001295
:100ED400D3F80024002AFBD04FF010231222C3F8C9
:100EE4000422134BD3F80024002AFBD00022C3F8B9
:100EF4000425D3F80024002AFBD0BFF34F8F0B49FD
:100F04000C4BCA6802F4E0621343CB60BFF34F8F0B
:100F140000BFFDE7084B094A1A6008BD00500040B5
:100F24004881030000F000400090024000ED00E022
:100F340000E001400400FA05000000200090D00306
:100F44008446002A2DD010F0030F04D000F8011BB2
:100F5400013A26D0F7E7C9B241EA012141EA014149
:100F6400202A12D3A2F120022DE9F0030B460C46ED
:100F74000D460E460F4688468946A0E8FA03203AF5
:100F8400FBD2BDE8F00320320BD0042A05D340F88D
:100F9400041B043A05D0042AF9D200F8011B013AD3
:060FA400FBD1604670471E
:100FAC00000000000338FDD87047000080010020CD
:100FBC0000DC0005008000000000000000E00100E3
:040FCC0000000050D1
:040FD0000090D003BA
:040000030000037581
:00000001FF
