:1000000000000120750300005D0300005F03000095
:1000100061030000630300006503000000000000AE
:100020000000000000000000000000006703000066
:1000300069030000000000006B0300006D03000076
:100040006F0300006F030000310800006F03000021
:100050006F0300006F0300006F0300006F030000D8
:100060006F0300006F0300006F0300006F030000C8
:100070006F0300006F0300006F0300006F030000B8
:100080006F0300006F0300006F0300006F030000A8
:100090006F0300006F0300006F0300006F03000098
:1000A0006F0300006F0300006F0300006F03000088
:1000B0006F0300006F03000000000000000000005C
:1000C0006F0300006F0300006F0300006F03000068
:1000D0006F0300006F0300006F03000000000000CA
:1000E0000000000000000000000000000000000010
:1000F0000000000000000000000000000000000000
:1001000000000000000000000000000000000000EF
:1001100000000000000000000000000000000000DF
:1001200000000000000000000000000000000000CF
:1001300000000000000000000000000000000000BF
:1001400000000000000000000000000000000000AF
:10015000000000000000000000000000000000009F
:10016000000000000000000000000000000000008F
:10017000000000000000000000000000000000007F
:10018000000000000000000000000000000000006F
:10019000000000000000000000000000000000005F
:1001A000000000000000000000000000000000004F
:1001B000000000000000000000000000000000003F
:1001C000000000000000000000000000000000002F
:1001D000000000000000000000000000000000001F
:1001E000000000000000000000000000000000000F
:1001F00000000000000000000000000000000000FF
:10020000354936480A1A02D0072291438D463449AF
:1002100034480A1A06D00722914381F30988022242
:1002200082F3148830483149314A00F044F83148AB
:100230003149324A00F03FF831483249324A00F041
:100240003AF832483249334A00F035F832483349F7
:10025000334A00F030F833483349344A00F02BF881
:1002600033483449344A00F026F8344834490022EF
:1002700000F02CF833483449002200F027F83348C6
:100280003349091A082902DB002202604160314A21
:1002900090471F481F49884205D00268043003B4C4
:1002A000904703BCF7E700208646EC46002000217B
:1002B000294A9047FEE7884207D0521A05D00378B2
:1002C00001300B700131013AF9D17047884202D0F8
:1002D00002700130FAE770470000012000E00020C2
:1002E0000000012000000120741500000000002023
:1002F00018000020D4030000D403000014150000EF
:1003000074150000000000200000002014150000FB
:100310001415000014150000141500001415000039
:1003200014150000141500001415000074150000C9
:100330008C15000018000020180000201800002074
:10034000AC020020AC020020AC020020AC02002075
:10035000AC2200209D03000099110000FEE7FEE79B
:10036000FEE7FEE7FEE7FEE7FEE7FEE7FEE7FEE765
:10037000704700BF1048804710484FF0070188437E
:1003800085460F4880470F48016841F470010160BD
:10039000BFF34F8FBFF36F8FFFF732BF0A480B4990
:1003A0000B4A884207D0521A05D0037801300B70EF
:1003B0000131013AF9D170477103000000000120BA
:1003C0007D12000088ED00E0141500000000002000
:0403D0000000002009
:1003D400044B1A5C012393404FF0A042C2F8083545
:1003E400704700BF1415000008B50020FFF7F0FFA8
:1003F4000120FFF7EDFF0220FFF7EAFFBDE8084008
:100404000320FFF7E5BFC20708B501460CD54FF03E
:10041400A0430322C3F84427C3F84827C3F84C2752
:10042400C3F85027FFF7E0FF8B070AD54FF0A0432E
:100434000C22C3F83427C3F83827C3F83C27C3F881
:10044400402708BD1FB50021039001AA44F2010012
:10045400CDE9011100F004F805B05DF804FB0000DB
:1004640072B6094BD3F8F020D20700D500BEBFF313
:100474004F8FD968054A01F4E0610A43DA60BFF39B
:100484004F8F00BFFDE700BF00ED00E00400FA0558
:1004940049B152B1531E1A4007D182600160838072
:1004A400C260104670470E2070470920704710B58F
:1004B4008468C2688388121B934208D3C2681340BD
:1004C4000268D154C3680133C360002010BD042006
:1004D400FCE78268C3689A420AD082688388134022
:1004E4000268D35C0B70836801338360002070471B
:1004F400052070470648074A03780749D35C012260
:1005040013B1043000F0D0BD0C3000F0B3BB00BF19
:100514000000002050000020400000200648074A48
:1005240003780749D35C012213B1043000F074BD91
:100534000C3000F051BB00BF000000205000002030
:100544004100002037B50578012D0DD0022D2ED0A5
:1005540005BB1E491E48FFF7BCFF002832D103B07B
:10056400BDE83040FFF7DABF43681A4C19782046DB
:10057400FFF79DFF80B18DF800500190164B68463F
:100584001B689847A168E368A2885B1A9A420AD359
:10059400FFF7B0FF03B030BDA268E3689A42F1D020
:1005A4008DF80000EAE70D4B01221A70F2E7C368E8
:1005B4008DF800500193FFF79DFF074B68461B68B9
:1005C4009847E7E703238DF80030F6E74100002061
:1005D400300000201C000020180000202C00002007
:1005E400F0B51F46234B89B004461A600D46002916
:1005F4003DD08A8820480968FFF74AFF002834D193
:10060400AA89A9681D48FFF743FF00282DD11C4E75
:100614000FCE6D460FC596E80F0085E80F0063699D
:100624000693237C174A18488DF81C70003B18BFAA
:1006340001238DF81430637C002B14BF0E23002398
:100644008DF81530E3680293A3680393236801933C
:1006540069466368009300F0ABF830B90B4B18702F
:100664002368013301D0FFF745FF09B0F0BD07202F
:10067400FBE700BF180000201C0000203000002011
:100684001815000049050000000000202C0000207F
:1006940070B5084D014608482E78FFF71AFF044646
:1006A40036B100232B70FFF725FF08B1FFF7CAFE10
:1006B400204670BD2C0000201C00002010B501460F
:1006C4000E48FFF7F4FE0446A8B90D480D4A037816
:1006D400D35C63B1043000F093FC60B90A49074865
:1006E400FFF7F7FE38B9BDE81040FFF717BF0C302D
:1006F40000F066FAF1E7204610BD00BF300000208C
:1007040000000020500000204100002072B6024A80
:10071400136801331360704744000020034A1368D0
:10072400013B136003B962B6704700BF4400002068
:10073400FFF7ECBFFFF7F2BF10B50446C0B2FFF7F6
:10074400BDFF204610BD00001FB503788DF80030B2
:100754004368019383688DF80830C368054A03939E
:10076400054B684653F8213052F82110984705B0DC
:100774005DF804FB480000204C0000201FB50378FE
:100784008DF800304368019383688DF80830C3689E
:10079400054A0393054B684653F8213052F821105B
:1007A400984705B05DF804FB480000204C00002089
:1007B400F0B5194B90F800C091F81DE043F82C20D7
:1007C400164B16460A6943F82C20154B03F80CE027
:1007D4000C4607460FCC89B06D460FC594E80F0050
:1007E40085E80F00CDF810C0BEF1000F09D0002E2F
:1007F4000C4A694608BF3246381D00F03FFB09B079
:10080400F0BD002E084A694608BF324607F10C00C5
:1008140000F01CF9F3E700BF4C0000204800002062
:10082400500000204D07000081070000014B1B68A9
:10083400184700BF5400002038B50B4B98420C46B3
:1008440001D0002038BD0020FFF772FF074B1D794F
:1008540015B901221C601A710020FFF76BFF002DEF
:10086400EFD01120EEE700BF00200040540000202C
:100874000023435082B043580193019B02B0704758
:100884000A4610B54FF48E71FFF7F2FF136A9168B0
:10089400C95C136A01331362C0F81C1510BD02460B
:1008A40008B500684FF49271FFF7E2FF10684FF447
:1008B4008471FFF7DDFF136801221A6008BD8B699C
:1008C4000A4610B54FF4847123B9FFF7D1FFD0F86D
:1008D400183510BDFFF7CCFF536AD168D0F818055E
:1008E400C854536A01335362F3E700001FB5012370
:1008F4008DF80030044BCDE90110D3E900126846AD
:10090400904705B05DF804FB5C00002030B54D4D08
:10091400D5F804339A0585B051D5D5F82431002B88
:100924004DD04FF492712846FFF7A2FF4FF40173A4
:10093400C5F80833444B93F829200AB901226A60A8
:10094400404902228DF80020D1F88024C1F8802487
:1009540003929A690292DA6801920022C3E906229C
:100964006846D3E9001290473648D0F81C315BB191
:10097400354A116A536999424DD292F82830002BB6
:1009840049D11146FFF77CFF2E48D0F84431002BA3
:1009940055D04FF4A271FFF76BFF2B4B93F829202E
:1009A4000AB1012202609A69002A48D0586AD968BB
:1009B40000229A6105B0BDE83040FFF797BFD5F833
:1009C40004335B07D0D5D5F80831002BCCD01E4CAE
:1009D4001C482146FFF773FF636AA2699A42C3D198
:1009E400E369E1684BB1A3612369E3600023606AB2
:1009F400E3616362FFF77AFFB6E794F829300BB935
:100A040001236B600F4B4FF40172C3F808230023DA
:100A1400606AA361EEE74FF48E710A48FFF728FF7E
:100A240051690029B0D00023029191688DF80030FB
:100A3400019153616846D2E900139847A4E705B0D1
:100A440030BD00BF002000405C0000202DE9F843C9
:100A5400564D90F804802C2303FB0853064693F864
:100A64002A300C469146002B40F09B805049006888
:100A7400FFF7E2FE0746002840F0958022683068C0
:100A8400511C0BD04FF0A04101239340C1F808350D
:100A940002F5E0734FF0030C41F823C061684B1C6E
:100AA4001FBF01F5E0734FF0A04C4FF0000E4CF85F
:100AB40023E0A369C0F8243594F814C0637DBCF125
:100AC400010F4CEA0303C0F86C35C0F81415C0F8E4
:100AD4000C251DD1A268531C1FBF02F5E0734FF013
:100AE400A0414FF0000C41F823C0E368591C0BD01F
:100AF4004FF0A04C01219940CCF8081503F5E071A2
:100B04004FF0030E4CF821E0C0F80835C0F810256A
:100B14002C2202FB08F2AB18C3F804902369AB50F3
:100B2400B9F1000F2AD04FF48E71247FFFF7A0FE95
:100B340030684FF4A271FFF79BFE32681D4BC2F878
:100B44000433130B42F30732002AA8BF02F16040BA
:100B54004FEA4411BABF184803F00F0400F561408E
:100B6400C9B2B4BF015580F8001303F01F0301217B
:100B740001FA03F35209114941F82230336804227F
:100B8400C3F800252C2303FB08530022C3E90622E3
:100B940083F829205A61012283F82A203846BDE8C7
:100BA400F8830827FAE71127F8E700BF5C00002064
:100BB400110900008000020014ED00E000E100E0F3
:100BC4000279044B2C2101FB02335869003818BF09
:100BD400012070475C0000202DE9F84F0646894645
:100BE4009246FFF7EDFF044600283DD196F80480B5
:100BF4001F4F2C2508FB057B4FF48E71CBF820008A
:100C0400CBF814A08BF82800CBF808903068FFF7D5
:100C14002FFE3068012383605946FFF731FEDBF86D
:100C240004305D4613BB30682A6A6B699A4211D35B
:100C34003368D3F81C21002AFBD00122DA6000209B
:100C44002C2303FB087700237B61BDE8F88F95F81C
:100C540028303BB9D0F81C31002BF8D05946FFF7A7
:100C64000FFEE1E70F20EBE71120EEE72046ECE76B
:100C74005C0000202DE9F0473A4D07792C2303FB53
:100C8400075306465C6824B103684FF40170C3F847
:100C940008032C2303FB0753986950B1D869002833
:100CA40041D024B133684FF40172C3F804231124F2
:100CB40036E09A61D9605862D8612C2303FB07534C
:100CC40093F829301BB910B93046FFF7E8FD4FF00F
:100CD4002C0808FB075A3068DAF80430002B37D1A7
:100CE4004FF4A271D046FFF7C3FD3068D0F82491C9
:100CF400D0F80831D0F84441CBB914B9B9F1000F98
:100D0400F3D02C2303FB07550023AB61B9F1000F8B
:100D140024D12CBB95F8291033680122B1B11A6093
:100D24002046BDE8F0871961DA610120C5E7B9F111
:100D3400000FE6D1002CE4D14146FFF7C0FDDAF8FC
:100D44002430DAF818209A42CFD8DAE75A60E7E775
:100D54004FF40173C0F804330024E1E70324DFE710
:100D64000F24DDE75C0000200023435082B0435889
:100D74000193019B02B070471FB501238DF8003029
:100D8400044BCDE90110D3E900126846904705B041
:100D94005DF804FB880000207FB5364AD2F8246150
:100DA400002E46D010464FF49271FFF7DDFF022368
:100DB4008DF80030D2F88034C2F880340393D2F82E
:100DC4003C3502932C4BDA6801920022C3E90622D7
:100DD4006846D3E9001290472648D0F8443173B1ED
:100DE4004FF4A271FFF7C0FF234B9A693AB1002276
:100DF400C3E90622D968D0F83C05FFF7BDFF1D48BA
:100E0400D0F820319BB14FF49071FFF7ADFF1A4B2E
:100E14005A6962B1D0F84C150291002299688DF894
:100E2400002001915A616846D3E90012904704B04A
:100E340070BDD2F81031002BCED04FF4887110461B
:100E4400FFF792FF0C4BD2F83C0599698842C3D155
:100E5400DC69D96864B1D2F8005225F02005C2F8E3
:100E640000521A699C61DA60DE61FFF785FFB3E71F
:100E74009C61FAE700200040880000202DE9F84337
:100E84005A4E90F80480242303FB0863054693F824
:100E940020300C469146002B40F0A3805449006852
:100EA400FFF7CAFC0746002840F09D8022682868A6
:100EB400511C0BD04FF0A04101239340C1F80835D9
:100EC40002F5E0734FF0030C41F823C061684B1C3A
:100ED4001FBF01F5E0734FF0A04C4FF0000E4CF82B
:100EE40023E0A369C0F8243594F814C0637DBCF1F1
:100EF400010F4CEA0303C0F86C35C0F80C25C0F8A8
:100F040014151DD1A268531C1FBF02F5E0734FF0E6
:100F1400A0414FF0000C41F823C0E368591C0BD0EA
:100F24004FF0A04C01219940CCF8081503F5E0716D
:100F34004FF0030E4CF821E0C0F80835C0F8102536
:100F4400242202FB08F2B318C3F804902369B350B7
:100F5400B9F1000F34D04FF48871227FFFF704FFFA
:100F640028684FF49071FFF7FFFE28684FF49271E0
:100F7400FFF7FAFE28684FF4A271FFF7F5FE2B681D
:100F84001C49C3F80413190B43F30733002BAEBFFA
:100F940003F1604001F00F0417484FEA4212A8BF62
:100FA40000F56140D2B2B4BF025580F8002301F0CD
:100FB4001F01012202FA01F15B09104A42F82310D1
:100FC4002B680822C3F80025242303FB08660023AA
:100FD400C6E906337361012386F820303846BDE83C
:100FE400F8830827FAE71127F8E700BF88000020F4
:100FF4009D0D00001003020014ED00E000E100E08C
:101004000279044B242101FB02335869003818BFCC
:10101400012070478800002001F06043B3F1005FB5
:101024002DE9F04706468846924635D190F804905B
:10103400FFF7E6FF044688BB1A4F3068242505FBFA
:1010440009754FF49071C5F814A0C5F80880FFF72E
:101054008BFE4FF4AC713068FFF786FE33686A6923
:10106400A968C3F84415C3F8482501229A606A6840
:10107400B2B9D3F82021D3F858014AB90028F8D0DE
:101084000F20242303FB097700237B61BDE8F0874D
:10109400002818BF0F20F4E71020F7E71120F5E728
:1010A4002046F3E788000020F8B501F06043B3F16F
:1010B400005F04460F465ED10379304D242101FBC5
:1010C4000351496821B100684FF40476C0F80863FD
:1010D400242000FB03539E6956B1D869002839D0F7
:1010E40021B123684FF40472C3F80423112030E0C3
:1010F4009A61DF60DE6120684FF48871FFF734FE87
:1011040020684FF4A271FFF72FFE2368C3F83475EB
:10111400C3F8382516BB01221A602479242202FB65
:10112400045252680ABBD3F81011D3F84421D3F8FF
:101134002401114302D10028F5D00A46242303FBDD
:1011440004550023984218BF03209A42AB6118BF8C
:101154000F20F8BD1F61DA610126CCE7D3F8002225
:1011640042F02002C3F80022D7E74FF40472C3F818
:1011740004230020EDE71020EBE700BF88000020E7
:101184000378022B02D14068FFF75CB9012BFAD037
:101194007047000030B51A4D8BB00120FFF733F9CA
:1011A4000FCD04AC0FC495E80300164B164A009308
:1011B4004FF4807384E80300CDE902230193134ABA
:1011C4000723694604A8FFF70BFA08B1FFF73AF9B9
:1011D4000F4800F07FF96846FFF75AFA0028FAD161
:1011E4009DF80000FFF76AFA0028F9D19DF8003055
:1011F40003F0DF03512BEED1064800F06BF9FEE754
:101204005C150000AC000020AC010020851100003A
:1012140038150000511500004FF0704393F8E02F8B
:10122400062A10D1D3F8E42F12070CD1D3F8E80F13
:1012340000F0F003302B08D000F0E000A0F14003F0
:1012440058425841704700207047012070474FF0C2
:10125400704393F8E02F062A0CD1D3F8E42F120739
:1012640008D1D3F8E80F00F0F000A0F130035842A1
:10127400584170470020704708B5FFF7CDFF40B1D3
:101284004FF08053884AD3F82433C3F30423C2F8BD
:101294004035FFF7DCFF10B1844B854A5A67FFF7EE
:1012A400BBFF48B14FF080534FF08042D3F8443233
:1012B400C3F34233C2F83C35FFF7C9FF30B17D4A6E
:1012C400D2F8FC3023F08073C2F8FC30FFF7A4FF9F
:1012D40040B14FF080430022C3F80C21C3F8102121
:1012E400C3F83825FFF7B3FF20B14FF08043032242
:1012F400C3F8A025FFF7ABFF60B16F4B0522C3F81D
:1013040010260122C3F888260022C3F818263F229B
:10131400C3F814264FF0704393F8E02F062A50D1F7
:10132400D3F8E42F11074CD1D3F8E83F03F0F003CE
:10133400502B46D14FF08052604BD2F80414C3F8BE
:101344002015D2F80814C3F82415D2F80C14C3F8E5
:101354002815D2F81014C3F82C15D2F81414C3F8B5
:101364003015D2F81814C3F83415D2F81C14C3F885
:101374004015D2F82014C3F84415D2F82414C3F845
:101384004815D2F82814C3F84C15D2F82C14C3F815
:101394005015D2F83014C3F85415D2F83414C3F8E5
:1013A4006015D2F83814C3F86415D2F83C14C3F8A5
:1013B4006815D2F84014C3F86C15D2F84424C3F865
:1013C4007025FFF729FF48B14FF080534FF080425A
:1013D400D3F8583203F04F03C2F8E43EFFF71CFF82
:1013E40048B14FF08043D3F80024D20744BF6FF0D4
:1013F4000102C3F800244FF08053D3F83021062AA9
:101404000AD1D3F83431062B01BF2D4AD2F83C3728
:1014140043F48063C2F83C37264AD2F8883043F458
:101424007003C2F88830BFF34F8FBFF36F8F4FF054
:101434001023D3F80022002A03DBD3F80432002B54
:101444002EDA204B0122C3F80425D3F80024002A05
:10145400FBD04FF010221521C2F80012D3F800245B
:10146400002AFBD04FF010231522C3F80422154B99
:10147400D3F80024002AFBD00022C3F80425D3F8B3
:101484000024002AFBD0BFF34F8F0A490E4BCA68D1
:1014940002F4E0621343CB60BFF34F8F00BFFDE75C
:1014A4000A4B0B4A1A6008BD0030014000C00740D7
:1014B4000DF0ADBA00ED00E00050004000C0004067
:1014C4000010004000E001400400FA051400002070
:1014D4000090D00370B5054600F018F8013D0026D1
:1014E40015F8010F48B13146FFF726F90446B0F16B
:1014F400FF3FF5D100F00BF806E000210A20FFF7CA
:101504001BF9044600F003F8204670BD704770478D
:1015140011121314FFFFFFFFFFFFFFFFFFFFFFFF89
:10152400FFFFFFFF00000000000000000000D601E4
:10153400060100000D0A55415254206578616D7012
:101544006C6520737461727465642E0D00200D0A3D
:1015540045786974210D00000800000006000000B1
:1015640005000000070000000000000000E0D701B3
:1015740000000000002000400000000000200040A7
:08158400000000000090D003FC
:040000030000037581
:00000001FF
