:1000000000000420750300005D0300005F03000092
:1000100061030000630300006503000000000000AE
:100020000000000000000000000000006703000066
:1000300069030000000000006B0300006D03000076
:100040006F0300003D200000351400006F03000026
:100050006F0300006F0300006F0300006F030000D8
:100060006F0300006F0300006F0300006F030000C8
:100070006F0300006F0300006F0300006F030000B8
:100080006F0300006F0300006F0300006F030000A8
:10009000012300006F0300006F0300006F030000E6
:1000A0006F0300006F0300006F0300006F03000088
:1000B0006F0300006F03000000000000000000005C
:1000C0006F0300006F0300006F0300006F03000068
:1000D0006F0300006F0300006F0300006F03000058
:1000E0006F0300006F0300006F03000000000000BA
:1000F000000000006F030000000000006F0300001C
:1001000000000000000000000000000000000000EF
:1001100000000000000000000000000000000000DF
:1001200000000000000000000000000000000000CF
:1001300000000000000000000000000000000000BF
:1001400000000000000000000000000000000000AF
:10015000000000000000000000000000000000009F
:10016000000000000000000000000000000000008F
:10017000000000000000000000000000000000007F
:10018000000000000000000000000000000000006F
:10019000000000000000000000000000000000005F
:1001A000000000000000000000000000000000004F
:1001B000000000000000000000000000000000003F
:1001C000000000000000000000000000000000002F
:1001D000000000000000000000000000000000001F
:1001E000000000000000000000000000000000000F
:1001F00000000000000000000000000000000000FF
:10020000354936480A1A02D0072291438D463449AF
:1002100034480A1A06D00722914381F30988022242
:1002200082F3148830483149314A00F044F83148AB
:100230003149324A00F03FF831483249324A00F041
:100240003AF832483249334A00F035F832483349F7
:10025000334A00F030F833483349344A00F02BF881
:1002600033483449344A00F026F8344834490022EF
:1002700000F02CF833483449002200F027F83348C6
:100280003349091A082902DB002202604160314A21
:1002900090471F481F49884205D00268043003B4C4
:1002A000904703BCF7E700208646EC46002000217B
:1002B000294A9047FEE7884207D0521A05D00378B2
:1002C00001300B700131013AF9D17047884202D0F8
:1002D00002700130FAE770470000042000E00320BC
:1002E0000000042000000420D02B000000000020AB
:1002F00038000020D4030000D4030000322700009F
:10030000D02B000000000020000000207827000013
:100310007827000078270000782700007827000061
:10032000782700007827000078270000CE2B0000F7
:10033000082C000038000020380000203800002081
:10034000180C0020180C0020180C0020180C00209D
:10035000182C00209D03000029150000FEE7FEE791
:10036000FEE7FEE7FEE7FEE7FEE7FEE7FEE7FEE765
:10037000704700BF1048804710484FF0070188437E
:1003800085460F4880470F48016841F470010160BD
:10039000BFF34F8FBFF36F8FFFF732BF0A480B4990
:1003A0000B4A884207D0521A05D0037801300B70EF
:1003B0000131013AF9D170477103000000000420B7
:1003C000A51A000088ED00E078270000000000205A
:0403D0000000002009
:1003D4007047000007B5044B0093044A402300F023
:1003E40032F803B05DF804FBF50300003900002087
:1003F4002DE9F84388461446B2B10F4B0F4E03253E
:10040400002743F00109224608EB0701002001F010
:100414002BF90744241A48B933782BB14FF47A40A6
:10042400C847013D02D13570BDE8F883012333701C
:10043400002CE8D1F8E700BF802700003800002036
:10044400704701F05BB9F0B595B01D4616460846F5
:100454000C4600F0BDFF1A9B0D93CDE908650025FD
:100464002B46082205A920460A958DF82C500C9598
:1004740000F0CAFF079B0293069B03939DF8143078
:100484008DF8115003F00302012A1DD1BDF8142088
:10049400059DC3F3C203C2F383168DF81030B20076
:1004A40008230EA9204600F0AFFFC5F3952508AB3D
:1004B4000093324602AB0EA9284600F03DFB2046CD
:1004C40000F08AFF15B0F0BD022AF8D1BDF816502D
:1004D400C3F3C203C5F389158DF810300827082D1E
:1004E4002E4628BF08263B4632460EA9204600F079
:1004F4008BFFAD1B08AB02AA31460EA8374400F0AF
:100504007FFB002DEBD1DAE708B5FFF79AFF04482B
:10051400042100F07BFA034B01225A7108BD00BF8D
:100524005427000000000020037813F0040216D0C2
:1005340003F00303012B03D0022B09D001207047E1
:100544000A6800880232C0F3831002440A60F5E7A7
:100554000B684288023303EB92130B60EEE71046FC
:10056400704700002DE9F04FDFF824A10F4685B055
:100574000446861C0020154600F03AFCDAF8001008
:100584003960DAE90132134401335B1A0AF21C4779
:100594000AF583690AF21448B3421BD30020002DE4
:1005A40072D004F00F039B0143F0050363F30F00C3
:1005B400DAF80020DAF808301340033332444AF8FA
:1005C40023000020CAF8002000F014FC012005B02C
:1005D400BDE8F08F0121384600F031FC484600F0B8
:1005E40046FC404600F043FCDAF80400DAF808B0B0
:1005F400009000EA0B0003300AEB80006946FFF725
:1006040093FF009B50BB0BEA03020AEB820203F147
:10061400020CD2680192013303EA0B0B0AEB8B0B39
:1006240002F00302012ADBF80C10CDF800C023D03D
:10063400022A16D08346404600F01CFC10B1009BF1
:10064400CAF804305946384600F0F9FBDAE90123C8
:100654001344DAF8002001339B1A9DE70BEA0300E8
:10066400C9E7BDF80630C3F3891303334FEA114BCE
:100674000CEB93030093DEE7BDF80430C3F383135C
:100684004FEA114B6344F5E7A40544F006008FE7F5
:100694004C0100200B4B0C48FF2210B59A6000223D
:1006A400C3F81824C3E90022C3F8142483F82024CF
:1006B40000F047FE044610B9044800F0AFFE20469F
:1006C40010BD00BF4C01002064270000BC270000BF
:1006D40030B50A4C71B10A4A0A49121BD2080023E8
:1006E4009A4201D1002030BD31F82350854202D016
:1006F4000133F5E7034654F83300F4E734270000E8
:100704005427000000000020094B013903EBC0000E
:10071400032909D8DFE801F00A020406042070471F
:100724000079704740797047002070470220704775
:1007340034270000034BD3E90030C31A5842584110
:10074400704700BF4C0100202DE9F04385B0FFF74E
:10075400F1FF0646002840F0FA807E4CC4F81804E5
:10076400BFF34F8F6368A56800932B40033304EBFA
:1007740083006946FFF7D8FE009B18B1D4F818240B
:10078400002A62D005EA0302991C013304EB8202B9
:100794002B4004EB8303D268DB68029302F003036B
:1007A400022B0192009163D1BDF806306A48C3F36D
:1007B4008917502FB84628BF4FF0500808F1080198
:1007C40068F38F13C1F30901ADF8063000F0D1FDD1
:1007D4000646002800F0A68000F0FAFD0023082257
:1007E40001A9304600F006FE009925EA0102013213
:1007F400B8EB820F4FEA820333D95FFA88F863B308
:100804002940DDB2A8EB050803315FFA88F9A84650
:10081400524D04EB810108234246304600F0EAFDC4
:100824003DB108F10803DBB24A462946304600F0E0
:10083400E1FD009B033703EB97070097D4F81834C6
:10084400002B4BD1D4F810545BE022689A428CD828
:100854006260304605B0BDE8F08340491D469946C4
:10086400D9E7294003310823424604EB8101DDE73F
:10087400012B57D1BDF804303748C3F3831106293F
:1008840028BF062161F38913023101F00F018900A9
:10089400ADF8043000F06DFD0646002842D000F0AB
:1008A40097FD0023082201A9304600F0A3FD00278C
:1008B400BDF80420C2F38312BB00974203F108037E
:1008C400BCD200994A1C29400331009204EB8101F7
:1008D4000422304600F08EFD0137E9E7304600F08F
:1008E4007BFDFFF727FF80F00100C6B2B1E7EB689C
:1008F4005B7923B12B6831461B6828469847EB681F
:100904001D68002DF3D1304600F066FD284600F046
:100914006FFAD4F818340BB9009B6360002000F020
:1009240069FADEE7D4F8104454B90D4B0D480E496A
:10093400C01AC008000440F0020000F063F8D0E7D9
:10094400236820469B689847E3681C68ECE7002608
:100954007FE700BF4C0100206427000058010020FD
:10096400342700004C270000A42700002DE9F74F8E
:10097400224E04460F46924601A901221846D6F893
:1009840008909B46FFF7EEFD20B3019D4FF0000851
:10099400AA1CD84508EB020126D11948002100F011
:1009A4002BFA80F31000000440EA1440E4006B1CAE
:1009B40004F0380403EA090305EA090544F00104D4
:1009C40006EB8303033544EA881444EA8724D86099
:1009D40046F8254096F820341BB1FFF7B5FE0028F1
:1009E400FBD103B0BDE8F08F09EA010106EB8101F8
:1009F4005AF82830CB6008F10108CAE74C010020FE
:100A04006805002000231A46FFF7B0BF30B50F4C2D
:100A1400D4F8102403460020114631B9D96808716E
:100A24004AB9C4F810340A6030BDC9680D798542EA
:100A340006D00968F1E7D26814680C601360F3E724
:100A440001300A28E8D14FF0FF30EDE74C010020D7
:100A540038B5084B0125D3F8104483F8205404B961
:100A640038BDE3685D71236820465B689847E36896
:100A74001C68F4E74C01002030B5C38885B00446F7
:100A84000D4633B1144A00921449154A284600F021
:100A94004BFA217A05291DD0637A4BB1A088FFF760
:100AA40033FE104B104953F82020284600F03CFA3E
:100AB400227A0E4BA08853F8222003920021FFF7DC
:100AC40007FE039A0A490346284605B0BDE83040AC
:100AD40000F02ABA05B030BDE8270000D027000096
:100AE400C827000054280000ED27000078280000E3
:100AF400F027000007B503460846197A052911D0E6
:100B04005B7A2BB1094A0A49019000F00DFA019869
:100B14000849019000F008FA019803B05DF804EB6D
:100B240000F0F7B9002AF8D0F2E700BFE827000088
:100B3400ED270000E52700002DE9F04385B01F46AE
:100B44000C9D002395F80C902B7306460C4690469A
:100B540029463846FFF790FFB8F1060F09D8DFE8B9
:100B640008F00412181F283340003146284600F0CC
:100B7400DBF9002229463846FFF7BCFF85F80C90C4
:100B840005B0BDE8F08322683146284600F0CCF970
:100B9400EFE7D4E900233146284600F0C5F9E8E739
:100BA400A36800933146D4E90023284600F0BCF939
:100BB400DFE7E3680193A36800933146D4E9002397
:100BC400284600F0B1F9D4E723690293E36801935E
:100BD400A36800933146D4E90023284600F0A4F921
:100BE400C7E76369039323690293E3680193A368E6
:100BF40000933146D4E90023284600F095F9B8E77C
:100C040008292DE9F74F80460E4617461C463DD865
:100C140000251B7B2573214610460193FFF72CFF0B
:100C2400DFF88CA0DFF88CB0AE4232D918F805207A
:100C34005946204600F078F90135082DF4D11B49B6
:100C4400DFF874A0DFF874B0204600F06DF94FF0BF
:100C540000094E4524D918F809507E2D1ED828467F
:100C640001F0B2FC002814BF2A462E225946204621
:100C740000F05AF909F10109B9F1080FE9D101228B
:100C840021463846FFF736FF019B237303B0BDE8C6
:100C9400F08F5146204600F047F9CDE72E22E5E7D4
:100CA4005146204600F040F9E4E700BF0428000064
:100CB40000280000FA27000002280000062800008F
:100CC400074B1B5C1F2B86BF064903F01F034FF025
:100CD400A041012202FA03F3C1F80835704700BFAE
:100CE4008C2800000003005008B50020FFF7E8FF3F
:100CF4000120FFF7E5FF0220FFF7E2FFBDE808400F
:100D04000320FFF7DDBFC20710B504460CD54FF032
:100D1400A0430322C3F83427C3F83827C3F83C2779
:100D2400C3F84027FFF7E0FFA3070AD54FF0A0431D
:100D34000C22C3F82C27C3F83027C3F86027C3F864
:100D4400642710BD1FB50021039001AA44F20100DD
:100D5400CDE9011100F004F805B05DF804FB0000D2
:100D640038B572B6FFF774FEFFF7EEFC0028FBD12E
:100D7400104B114C114D1249E41AE408240444F0B8
:100D84000100FFF73FFED5F8F030DB0700D500BEC9
:100D94000C4944F00200FFF735FEBFF34F8FEA68B9
:100DA400094B02F4E0621343EB60BFF34F8F00BFC3
:100DB400FDE700BF342700004C27000000ED00E0F1
:100DC400902800009C2800000400FA0572B6024A2C
:100DD400136801331360704708060020034A136840
:100DE400013B136003B962B6704700BF08060020D8
:100DF400FFF7ECBFFFF7F2BF10B5034653E8000F4F
:100E04000A4643E8002494F0000FF7D110BD10B552
:100E1400034653E8002F42EA010043E8000494F03B
:100E2400000FF6D110BD10B5034653E8000F00EAD9
:100E3400010243E8002494F0000FF6D110BD10B570
:100E4400034653E8002F02EB010043E8000494F04A
:100E5400000FF6D110BD10B5034653E8002FA2EBE6
:100E6400010043E8000494F0000FF6D110BD012105
:100E7400FFF7CDBF0021FFF7D6BF10B590B1D0E981
:100E8400012301689B1ADBB20A60013BDBB2FF2B32
:100E9400026802D10020107110BD11684C1C14604E
:100EA4000B70F2E70E20F7E738B504460020FFF791
:100EB4009FFF226863681168994213D9481E106025
:100EC40011F8013CE568218A01FB0355A3681179F7
:100ED4001B1ADBB2994200D213710020FFF78AFF7C
:100EE400284638BD0025F8E738B5054600200C46ED
:100EF400FFF77EFF2A681368591C1160E968641AB9
:100F0400298AB4FBF1F41C70BDE838400020FFF7D7
:100F140071BF826810B504462AB14369016800694B
:100F240098470023A36010BD0EB403B5039921B103
:100F340004AB01AA019300F077F802B05DF804EB6A
:100F440003B070470A2938B504460D4602D10D2175
:100F5400FFF7F8FFA3682268591CA160D554D4E9AF
:100F640001329A4204D32046BDE83840FFF7D1BF8E
:100F740038BD00002DE9F84F9846DDE90A431546CF
:100F840082460F460A464FF00109AA420FD2C145D4
:100F940038BFC14613F0010B01D16CB900240126FE
:100FA400B8F1010F1BD908F1FF386E43F8E709F1D6
:100FB4000109B2FBF5F2E8E79B070ED5B8F1000F83
:100FC4000CBF30262026A145E9D2013C31465046CB
:100FD400FFF7B8FF002CF6D1E0E72026F3E7B7FBD4
:100FE400F6F39D42E1D9DFF83C80B7FBF6F35046B7
:100FF40018F8031006FB1377FFF7A4FF3346AB4240
:10100400B6FBF5F6F1D2BBF1000F02D00CB1A1454D
:1010140001D3BDE8F88F20215046013CFFF792FF31
:10102400F4E700BFA92800002DE9F74F054617464D
:101034008846002900F03E8118F8011B49B92B7B32
:10104400002B00F03781284603B0BDE8F04FFFF7CE
:1010540060BF252940F0B780002698F800302D2B7A
:10106400424608F1010823D0302B24D02B2B25D065
:1010740000242A2B02F1010123D13B681A1D1B68AD
:101084003A601C440A4613782E2B26D101324FF0C5
:10109400000A104610F8011BA1F1300CBCF1090F35
:1010A4001DD80A2303FB0A13A3F1300A0246F0E712
:1010B40046F00106D1E746F00206CEE746F0040604
:1010C400CBE711F8013CA3F130000928DBD80A2250
:1010D40002FB0434303C0A46CBE74FF0000A12F816
:1010E400011B01F0FB0068289046F8D0782909D844
:1010F4006F290CD8632962D022D8252963D05829B6
:1011040000F0888098F80030002B95D197E770396B
:101114000829F7D801A353F821F000BF9312000067
:101124000911000009110000291200000911000032
:101134000712000009110000091100001912000033
:10114400642901D06929DDD13A68D2F80090111DD3
:1011540089EAE9723960A2EBE9724FF0010B092ABE
:1011640035DCD34538BFD3462CB1B9F1000F01DBD0
:10117400720700D5013CB30702D5BAF1000F03D0C2
:10118400F00701D44CBB0024B9F1000F2DDAC9F1EA
:1011940000092D212846FFF7D5FE06F00302022A96
:1011A40004D1BAF1000F01D11CBB0024CDE90046E3
:1011B40053460A2249462846FFF7DCFEA2E73B686D
:1011C4001A1D19783A602846FFF7BCFE9AE70A23ED
:1011D4000BF1010BB2FBF3F2C1E7A345D4D22021FA
:1011E4002846013CFFF7AEFECCE77107D5D52B218D
:1011F400D0E7A345DAD230212846013CFFF7A2FE0E
:10120400D2E73968CDE900460A1D3A6053460A22FE
:101214000968D0E739680A1D3A60CDE900465346AB
:101224001022F5E73B681A1D3A6016F00106D3F860
:10123400009024D1B9F1000F03D0484601F047FAD9
:101244000646B4421DD809F1FF3919F8011F0029D7
:101254003FF458AF2846FFF775FEF6E728460136F7
:10126400FFF770FE19F806100029F7D1A642BFF463
:1012740049AF20212846013CFFF764FEF6E700262B
:10128400F0E720212846013CFFF75CFED9E73B68E4
:101294001A1D3A60302128461C68FFF753FE782156
:1012A4002846FFF74FFE00220823CDE900322146ED
:1012B400102280E703B0BDE8F08F00BF2DE9F84F9E
:1012C400B0F806A04579D2F800B09DF828900AFB42
:1012D40005F5043D88460BEB0301A94203F1040420
:1012E40088BFA5EB030BB4FBFAF607460AFB1644CA
:1012F400C2F800B04EB9AAEB04055D4528BF5D46AF
:10130400BBF1000F04D1BDE8F88F3F68013EF1E75F
:10131400043408EB06003C442A46B9F1000F0DD012
:101324002146ABEB050B01F054F9DA452E443F6836
:1013340055464FF0000428BF5D46E1E701462046CC
:10134400EFE7FFF79ABDF8B546790146721E0546E8
:10135400002393422D6803D30024A64202D8F8BD8B
:101364000133F6E70F682846FFF7BEFD013439461E
:10137400F3E72DE9F843068ACD1C0746FFF794FDF1
:10138400043E35440446B5FBF6F5F0B14FF48073E2
:10139400EDB28380C680013D076081464FF00008AE
:1013A400A84512D23846FFF77FFD064648B1637957
:1013B4000133637108F10108C9F800000760814630
:1013C400EEE72046FFF7BFFF34462046BDE8F8832A
:1013D40001210430FFF733BD10B501210446043068
:1013E400FFF739FDC0B220B92046BDE81040FFF731
:1013F400AABF10BD1FB503920022009203AAFFF7F3
:101404005DFF05B05DF804FB1FB503920122009255
:1014140003AAFFF753FF05B05DF804FB83680022BD
:101424005A60C3E904229A60DA601A6070470000C7
:10143400014B1B68184700BF0C06002013B5007849
:10144400012808D0022809D0C0B90D4902B0BDE86E
:10145400104000F009BB0B490020F7E70A4C0B4988
:10146400002000F001FB204600F07EFF30B96379D4
:10147400009362782378064900F0F6FA02B010BDB2
:10148400C8280000DA28000014060020EB28000019
:10149400FE2800004FF080430022C3F800210122FF
:1014A4001A60D3F80021002AFBD070470120FFF70F
:1014B4002ABC000030B54FF0E7328BB04FF0C23396
:1014C400CDE90023144A154D1068516802AB03C3DB
:1014D4001C460FCD0FC495E80300322384E80300B3
:1014E4000F4A8DF8233004A801238DF8113005929A
:1014F4008DF8243000F0F8FD60B9684600F0B2FFC2
:1015040040B901A800F0C8FF20B908210DEB010083
:1015140000F0DCFF0BB030BD1B2900005429000093
:101524004114000008B5FFF7C1FF00210846FFF78A
:10153400B1F808B1FFF706FCFEF7E6FFFFF7AAFFD4
:10154400FFF7B8FF08B1FFF7FDFB0749002000F0E3
:101554008BFA00F041FF08B1FFF7F4FBFFF7F4F852
:101564000028FBD120BFF9E7242900000369C268E1
:1015740093429CBF80681B18013B981A70472DE961
:10158400F843D0E902940546A9EB04084068904565
:1015940020440F46144404D901F01BF8EC60BDE864
:1015A400F8834246A4EB090401F013F86868224664
:1015B40007EB0801F0E72DE9F843C56806468946BC
:1015C40017464FF000083469B3687068A54228BF15
:1015D400E418013C621B5C1BBC4228BF3C4694429D
:1015E40028BF144649462844224600F0F2FFB36857
:1015F4002544AB4208BF00253F1BA044A144F5602D
:10160400E1D14046BDE8F88310B5114C114AA261FE
:101614000223C4E90433104BE361A2644FF4007362
:101624000E4A0F492362E26400231022E01DA362E4
:101634006362E362A3656365E365226501F025F8EF
:101644000849204601F021F82023A37110BD00BFF2
:101654003C0600206C290000C4060020B4060020CB
:10166400752900007929000070B5164B182400FB79
:1016740004451D4404FB00331646DC6A012C0ED0DD
:10168400022C18D0E4B92846FFF770FF864204D82C
:1016940032462846FFF773FF3446204670BD28467D
:1016A400FFF764FF8642344628BF04462246284694
:1016B400FFF765FFF1E72846BDE87040FFF77BBF01
:1016C4000024EAE73C06002070B50B4B1B78044667
:1016D4000D4616460BB9FFF797FF0020FFF788FB6E
:1016E400324629462046FFF7BFFF04460020FFF795
:1016F40081FB204670BD00BF3C060020FFF784BF7D
:10170400826810B504464068531C834205D820689B
:101714008154A360E3680133E360D4E901329A425F
:101724000BD121682069FFF7CFFFA368984215BF4A
:101734004FF0FF330023E360A36010BD2DE9F84FA1
:101744009946DDE90A431646054688460A464FF09F
:10175400010AB24212D2CA4538BFCA4613F0010B7D
:1017640001D184B90024EB68002B48DB0127B9F1CF
:10177400010F1FD909F1FF397743F8E70AF1010A8C
:10178400B2FBF6F2E5E79B0712D5B9F1000F0CBFE7
:1017940030272027A245E6D239462846FFF7B0FF76
:1017A400EB68002B04F1FF34DDDB002CF2D1D9E728
:1017B4002027EFE7B8FBF7F39E42DDD9DFF8489026
:1017C400B8FBF7F3284619F8031007FB1388FFF753
:1017D40097FFEB68002B03DBB7FBF6F3B74210D29D
:1017E400BBF1000F0BD054B1A24508D220212846EA
:1017F400FFF786FFEB68002B04F1FF34F3DABDE852
:10180400F88F1F46DCE700BF802900002DE9F04F68
:101814009BB00AAB0E46059340210023CDE9061385
:10182400CDE90830039015464FF00A0A16F8011B5B
:1018340039B9089B002B00F30B8108981BB0BDE855
:10184400F08F252940F0B5804FF0000B07E0302BD6
:101854000FD14BF0020B01E04BF0010B0E46314669
:1018640011F8013B2D2BF7D0F1D8232B11D02B2BC2
:101874000CD00024314611F8013BA3F130000928B3
:101884000AD80AFB0434303C0E46F3E74BF0040B51
:10189400E4E74BF0080BE1E72E2B0FD10E464FF097
:1018A4000009304610F8011BA1F13007092F07D8B1
:1018B4000AFB0913A3F130090646F2E74FF00009C9
:1018C400304610F8011B01F0FB07682F0646F8D0DC
:1018D400782909D86F290BD8632966D020D82529FF
:1018E40067D0582900F09480089B002B9EDAA0E76B
:1018F40070390829F8D801A353F821F0451A0000DB
:10190400ED180000ED180000251A0000ED18000085
:10191400031A0000ED180000ED180000151A00006D
:101924006429E1D129680F68081D87EAE7712860F6
:10193400A1EBE7714FF0010809293EDCC84538BF27
:10194400C8462CB1002F02DB1BF0040F00D0013C71
:101954001BF0020F02D0B9F1000F04D01BF0010FED
:1019640001D17CBB002408990029BDDB002F35DAA6
:101974007F422D2105A8FFF7C3FE08990029B3DB98
:101984000BF00301022904D1B9F1000F01D154BBBA
:10199400002408990029A7DBCDE9004B4B460A2215
:1019A400394605A8FFF7CAFE9EE72B681A1D197869
:1019B4002A6005A8FFF7A4FE96E708F10108B1FB29
:1019C400FAF1B9E7A045CED2202105A8FFF798FE89
:1019D4000899002904F1FF34C3DAC4E71BF0040FAB
:1019E400CBD02B21C6E7A045D3D2302105A8FFF7E1
:1019F40087FE0899002904F1FF34C8DAC9E7296889
:101A0400CDE9004B081D28604B460A220968C8E747
:101A14002968CDE9004B081D28604B461022F5E7E4
:101A24002B681A1D2A601C6814F8011B00293FF456
:101A34005BAF05A8FFF764FE089B002BF4DA53E7BD
:101A440029680B1D2B6000220823CDE90032E5E74D
:101A5400079A1AB103980AA9FFF736FEDDE90723AE
:101A640013440893E9E600BF0EB403B503AB01AA1F
:101A740053F8041B0193FFF7C9FE02B05DF804EBB1
:101A840003B070474FF08053D3F83021082A03BFC6
:101A9400D3F83401B0FA80F0400900207047000008
:101AA40008B54FF080430022C3F80C21C3F810217D
:101AB400C3F838254FF0805203F54043D2F804149C
:101AC400C3F82015D2F80814C3F82415D2F80C145E
:101AD400C3F82815D2F81014C3F82C15D2F814142E
:101AE400C3F83015D2F81814C3F83415D2F81C14FE
:101AF400C3F84015D2F82014C3F84415D2F82414BE
:101B0400C3F84815D2F82814C3F84C15D2F82C148D
:101B1400C3F85015D2F83014C3F85415D2F834145D
:101B2400C3F86015D2F83814C3F86415D2F83C141D
:101B3400C3F86815D2F84014C3F86C15D2F84424DD
:101B4400C3F87025FFF79EFF18B13B4B3B4AC3F81F
:101B54008C26FFF797FF18B1394BFB22C3F81825E1
:101B6400FFF790FF70B14FF080414FF08053D1F8F0
:101B7400E42ED3F8583222F00F0203F00F0313437C
:101B8400C1F8E43EFFF77EFF20B12E4B4FF4007204
:101B9400C3F840264FF08043D3F80024D20744BF53
:101BA4006FF00102C3F80024274AD2F8883043F4C6
:101BB4007003C2F88830BFF34F8FBFF36F8F4FF0BD
:101BC4001023D3F80022002A03DBD3F80432002BBD
:101BD4002EDA1E4B0122C3F80425D3F80024002A70
:101BE400FBD04FF010221221C2F80012D3F80024C7
:101BF400002AFBD04FF010231222C3F80422134B07
:101C0400D3F80024002AFBD00022C3F80425D3F81B
:101C14000024002AFBD0BFF34F8F0B490C4BCA683A
:101C240002F4E0621343CB60BFF34F8F00BFFDE7C4
:101C3400084B094A1A6008BD00500040488103005F
:101C440000F000400090024000ED00E000E00140A0
:101C54000400FA05080000200090D0030649074B51
:101C6400C1F81435064B5B7C5A1E064B43EA02430B
:101C7400C1F81835704700BF00100040060003008B
:101C84000C00002020000001074A084BC2F814355C
:101C9400074B5B7C013B40EA034343EA002040F0EE
:101CA4008070C2F818057047001000400001010060
:101CB4000C0000200A4B0B4A1B7AC2F81035042B87
:101CC4000CD8DFE803F008030B080300064B3022AE
:101CD4001A6001207047044B4922F9E7002070473D
:101CE400C408002000100040080C0020044A00230F
:101CF400C2E908339362034AC2E908339362704726
:101D0400900A0020F808002038B5104D104C2B68BC
:101D1400C4F800320F4A104BD07C1B6898470F4B15
:101D2400C4F804350023C4F8103101232361D4F826
:101D34001031002BFBD00023C4F810312B6843F082
:101D44000403C4F800320123636038BD200000207E
:101D540000100040C4080020140C00204C0A00208D
:101D64000B4B0C4A1B6810B50B4C43F00403C4F82E
:101D740000320A4BD07C1B689847094BC4F80435E1
:101D8400084B094A1A60094B04221A7010BD00BF9F
:101D940020000020C408002000100040140C002083
:101DA4004C0A0020100C0020791E0000EC080020D2
:101DB40007498B6893FAA3F3064A1BBAC2F8243581
:101DC400CB6893FAA3F31BBAC2F82835704700BF57
:101DD4000C000020001000402DE9F843204BDFF8F0
:101DE40090901A78012A80460F4609D199F800305C
:101DF400202B32D81B4A116A52F82120137006E0B6
:101E0400184A116A52F82120597821BB1170154CD7
:101E14001549256A54F825603046013510F8052B1C
:101E240000F0D7FB114B86F80180D3F84835B37026
:101E340099F801303771DB4303F00103072DF37088
:101E440084BF00232362A36A98BF25620133A3627F
:101E54000120BDE8F883DB7CD0E70020F9E700BF70
:101E6400C4080020F80800204E0A0020001000409A
:101E74004C0A0020604AD2F800342DE9F0471BB91F
:101E8400BDE8F047FFF740BFDFF8A481D8F8283059
:101E9400072BF5D8D2F80834584C594FD2F80C0413
:101EA40034F823207E7890424FEA56014FEA8305A6
:101EB40033D1621992788A420BBF4FF000094FF078
:101EC400010901220022601981704B48D0F80C14DA
:101ED40024F823104B490B7D1BB3F30721D4FFF7E0
:101EE40013FFB9F1000F16D0434BD3F80804D8F808
:101EF4002830072B0FD82C44C0B2A178FFF76CFF11
:101F040048B1414A136843F0040313603F4B4FF454
:101F14008012C3F80021BDE8F0874FF001090022C8
:101F2400D1E73B4B3B4E1B6843F00803C0F800323B
:101F340091F800A0BAF1000F55D0BAF1010F38D1D1
:101F4400354BDFF8E8E0D3F828C0BCF1000F3ED0F1
:101F5400596AD0F808A453F821004078504536D186
:101F64006019C07868B162B90131072998BF0A467F
:101F740025495A620CF1FF329A620A6842F0010262
:101F84000A6062190121D1705A6ADFF8A8A053F8D7
:101F94002230DEF800201878CAF800309047DAF8CA
:101FA40000101E4811F8052B327000F012FB7B78EC
:101FB40073701B4B05221A700F4BD3F80824C3F817
:101FC4002C25C3F80465174B174A1A6089E763196F
:101FD4004FF0000A83F803A05046DEF8003098471B
:101FE40086F800A0E3E7114B50461B6898473B78FE
:101FF400337086F801A0DCE7001000406E0A002070
:102004004C0A0020C4080020E408002000E100E09D
:1020140020000020E40B0020900A0020E60B0020A2
:10202400EC080020100C0020651D0000140C00209A
:10203400F80800200C0C0020124BD3F8002132B118
:10204400D3F80423D00744BF0022C3F80021D3F8F7
:102054000C2132B1D3F80423110744BF0022C3F882
:102064000C21084BD3F8102152B1D3F80423D20623
:1020740006D50022C3F81021034B1B6803B118478F
:10208400704700BF00100040100C00200F4B104898
:102094004FF4705210B5C3F808250E4B00241C7081
:1020A4000D4B21461C70FFF721FE202200F0BAFAE6
:1020B4000A4B1C605C600A4B4FF48012C3F880200A
:1020C400084B0322C3F80022204610BD00F0014053
:1020D4006E0A0020EC080020DC080020ED08002037
:1020E40000E100E0001000402DE9F0410446002822
:1020F40000F0D3806B4D2B78002B40F0AC806A4B02
:1021040062681A60694A234604F11807144618687D
:102114005968164603C60833BB423246F7D1002637
:10212400634B64481E602022314600F07BFA624B08
:10213400A27A1E605E60614BC3F80C25FFF7BAFDFE
:1021440021785F4A0746002900F09080012900F0B9
:102154008980637A012B00F09980022B00F088803B
:10216400002B00F08D804FF000081368E07C984746
:10217400A389862B94BF002007F00100064200F0DB
:102184008E80B8F1000F00F08A804C4B4D494FF01F
:10219400E732C3F81C254FF04332C3F820254A4ADE
:1021A400C3F82425494AC3F82825FFF79FFD484A68
:1021B40000230133082B41F8042B02F12502F8D146
:1021C400444A454900230133082B41F8042B02F10A
:1021D4002502F8D1414A42490423C2F810350020AF
:1021E40040F20223C2F80805C2F800323D4BC3F89E
:1021F4006015C3F86425A2F50E42FC3AC3F86825BD
:1022040002F50F420C32C3F86C2502F59872C3F83C
:102214007025A2F51142303AC3F8742502F5114233
:102224003432C3F87825254AC3F87C25637C2E4ACA
:102234005B0103F0600382F80133A37C5B0103F0CC
:10224400600382F814334FF480131360274B187023
:1022540001232B7004E0FFF719FF00283FF44FAF70
:10226400BDE8F081224B1360012672E7214BFAE7A7
:1022740012494FF6FF70C1F83C051F48C1F83805F4
:102284000E494FF00108C1F834356EE70B49FF20C1
:10229400C1F83C0540F20710F0E70E20E0E7072004
:1022A400DEE700BFDC080020E0080020C4080020AE
:1022B400E40800206E0A0020ED0800200010004011
:1022C400140C0020900A0020E743C323A363E31304
:1022D400BC0A002024090020F808002000A00040C7
:1022E4000011004000F0014000E100E0EC08002093
:1022F400611C00008D1C00002110010037B5154B36
:102304001B680193144B1B780BB3144B1448154CE6
:102314000221C3F880100022056802601960236856
:10232400ABB1E90703D58DF8002068469847AA07A2
:1023340005D501238DF800306846236898476B075C
:1023440005D502238DF8003068462368984703B00A
:1023540030BD00BFE8080020DC08002000E100E0F8
:10236400E4080020E008002038B5184B1B7833B38C
:1023740038B3174CA36A33B3164D0223C5F8803023
:10238400636A54F823100A7802704B78437091F909
:10239400023083700B790371CB78C370053105303B
:1023A40000F017F9636A0133072B88BF00236362C7
:1023B400A36A013BA36202232B60002038BD0820DE
:1023C400FCE70E20FAE70520F8E700BFDC08002050
:1023D400F808002000E100E010B51A490B7803F07A
:1023E400FF0063BB184B194C4FF0FF32C3F80823AE
:1023F400174AC3F810011460164A126842F0040226
:10240400C3F800221022C3F8042304220A70124ADB
:10241400917CC3F83015D27CC3F808250F4AC3F861
:1024240004250F4A0221C2F8801111600122C3F869
:102434000401C3F80801C3F810015A6010BD11204B
:10244400FCE700BFEC08002000100040791E0000EB
:10245400100C0020200000200C0000204C0A00205A
:1024640000E100E0094B1A7802F0FF0352B958B1B9
:10247400074902680A6092FAA2F206491846C1F8AE
:102484001C257047112070470E207047EC0800206F
:102494000C00002000100040094B1A7802F0FF03E2
:1024A40052B958B1074902684A6092FAA2F2064941
:1024B4001846C1F820257047112070470E20704738
:1024C400EC0800200C0000200010004070B5104BF8
:1024D4001B780C4603F0FF05A3B9A8B1082915D849
:1024E4000C4E0A46014606F1080000F072F83474F6
:1024F400FF22C4F1080442FA04F4B474FFF758FC50
:10250400284670BD1120FCE70E20FAE70720F8E703
:10251400EC0800200C0000207F2805D8034B185C31
:10252400034B5B5C18407047002070479C290000F7
:102534001C2A0000A0F16103192B98BF20387047B2
:10254400A0F14103192B98BF203070477F2805D88C
:10255400034B185C034B5B5C1840704700207047CA
:102564009C2900001C2A0000A0F16103192B98BFCC
:1025740020387047A0F14103192B98BF20307047D1
:102584007F299ABF017001206FF02E0070475AB165
:102594000A787F2A0AD800B10260002119605960C4
:1025A400501A18BF01207047002070476FF02E00AA
:1025B4007047000008B5034B5B689B681B6898472D
:1025C40008BD00BF2400002008B50921FFF7F2FF71
:1025D40008BD844640EA010313F0030F18D1844672
:1025E400202A0BD32DE9F007B1E8F807A0E8F80793
:1025F400A2F12002202AF7D2BDE8F007042A07D36B
:1026040051F8043B40F8043BA2F10402042AF7D237
:10261400002A05D011F8013B00F8013B013AF9D139
:10262400604670478446002A2DD010F0030F04D072
:1026340000F8011B013A26D0F7E7C9B241EA0121AB
:1026440041EA0141202A12D3A2F120022DE9F0032C
:102654000B460C460D460E460F4688468946A0E8B2
:10266400FA03203AFBD2BDE8F00320320BD0042A4F
:1026740005D340F8041B043A05D0042AF9D200F823
:10268400011B013AFBD160467047024610F0030F6C
:1026940016D111F0030F13D12DE9F0004FF00137DB
:1026A4004FF0803351F8044BA4EB070525EA0405E9
:1026B4001D4002D142F8044BF4E7A1F10401F0BC3F
:1026C40011F8013B02F8013B002BF9D1704700F1EE
:1026D400010110F0030F11D010F8012B002A23D0B0
:1026E40010F0030F0AD010F8012B002A1CD010F0B0
:1026F400030F03D010F8012B002A15D02DE9700028
:102704004FF001324FF0803350F8044BA4EB020534
:1027140025EA04051D4000D1F6E7A0F1040070BCD1
:0E27240010F8012B002AFBD1A0EB010070473A
:10273400B928000000000000BD28000000000000CF
:10274400C228000000000000B527000000000303B9
:1027540088270000000000009427000000000020EB
:102764007C000020440100204C0100208400002053
:042774001800000049
:1027780000000000000000000338FDD8704700008A
:10278800D903000045040000D50300007274745F8B
:102798006C6F675F6261636B656E64004261636B57
:1027A800656E647320666C7573686564006170702B
:1027B80000000000700500207F000000F0050020E8
:1027C8001B5B313B33316D0025734C6F677320649D
:1027D800726F70706564202825642925730D0A00BE
:1027E8001B5B306D002573003C25733E2025733A32
:1027F8002000202530327800202020007C0025632E
:10280800001B5B313B33306D001B5B313B33326D5A
:10281800001B5B313B33336D001B5B313B33346D45
:10282800001B5B313B33356D001B5B313B33366D31
:10283800001B5B313B33376D007761726E696E67E1
:1028480000696E666F00646562756700E8270000BE
:1028580009280000C82700001128000019280000D6
:10286800212800002928000031280000392800000C
:1028780000000000962800004128000049280000B8
:102888004E2800000D0E0F10466174616C206572B1
:10289800726F720053797374656D20726573657415
:1028A80000303132333435363738394142434445C4
:1028B8004650525300554152540055415254450018
:1028C80054582053554343455353204556454E5479
:1028D8000A005458204641494C4544204556454E27
:1028E800540A00525820524543454956454420450C
:1028F80056454E540A00706970653A25642C6C651B
:102908006E6774683A25642C7061636B65743A2548
:10291800640A00E7C2C3C4C5C6C7C800456E68617B
:102928006E6365642053686F636B427572737420BD
:102938005265636569766572204578616D706C656E
:1029480020737461727465642E0A0000010000002F
:102958000000000001020000FA000300000102204C
:10296800000000005465726D696E616C0052545429
:1029780000534547474552003031323334353637F6
:10298800383941424344454643000000504F5349BB
:1029980058000000202020202020202020682828FF
:1029A800282820202020202020202020202020200F
:1029B8002020202048101010101010101010101097
:1029C8001010101084848484848484848484101077
:1029D8001010101010818181818181010101010194
:1029E80001010101010101010101010101010110C0
:1029F8001010101010828282828282020202020269
:102A08000202020202020202020202020202021090
:102A18001010102000070320041702010857104067
:102A28008000000090290000942A0000A82B0000D4
:102A380053756E004D6F6E005475650057656400E0
:102A48005468750046726900536174000000000004
:102A58004A616E00466562004D6172004170720005
:102A68004D6179004A756E004A756C0041756700C2
:102A7800536570004F6374004E6F760044656300C1
:102A880000000000414D00504D000000CC2B00001C
:102A9800C82B0000C82B0000C82B0000C82B000062
:102AA800C82B0000C82B0000C82B0000C82B000052
:102AB800C82B0000FFFFFFFFFFFFFFFFFFFFFFFF27
:102AC800FFFF0000082B0000382A0000442B0000FC
:102AD800582A00008C2A0000EC2A00009C2B0000D9
:102AE800F82A0000256D2F25642F257900000000A5
:102AF80025612025622025652025542025590000C0
:102B080053756E646179004D6F6E64617900547518
:102B18006573646179005765646E657364617900F3
:102B280054687572736461790046726964617900EA
:102B38005361747572646179000000004A616E75B2
:102B4800617279004665627275617279004D6172D1
:102B5800636800417072696C004D6179004A756E56
:102B680065004A756C790041756775737400536523
:102B78007074656D626572004F63746F6265720090
:102B88004E6F76656D62657200446563656D62655A
:102B98007200000025483A254D3A255300000000F0
:102BA8001D2500003925000045250000512500009D
:102BB8006D2500007925000085250000932500007B
:062BC800000000002E00D9
:102BD00000000000FF0000000090D003E7E7E7E7F7
:102BE000C2C2C2C2E7C2C3C4C5C6C7C80805FF0285
:102BF000130100002C2A00002C2A00002C2A0000BF
:082C00002C2A00002C2A000020
:040000030000037581
:00000001FF
