:1000000000000420750300005D0300005F03000092
:1000100061030000630300006503000000000000AE
:100020000000000000000000000000006703000066
:1000300069030000000000006B0300006D03000076
:100040006F0300006F0300008D2200006F030000AB
:100050006F0300006F030000DD2000006F0300004D
:100060006F0300006F0300006F0300006F030000C8
:100070006F0300006F0300006F0300006F030000B8
:100080006F030000591200006F0300006F030000AF
:10009000F51200006F0300006F0300006F03000003
:1000A0006F0300006F0300006F0300006F03000088
:1000B0006F0300006F03000000000000000000005C
:1000C0006F0300006F0300006F0300006F03000068
:1000D0006F0300006F0300006F0300006F03000058
:1000E0006F0300006F0300006F03000000000000BA
:1000F000000000006F030000000000006F0300001C
:1001000000000000000000000000000000000000EF
:1001100000000000000000000000000000000000DF
:1001200000000000000000000000000000000000CF
:1001300000000000000000000000000000000000BF
:1001400000000000000000000000000000000000AF
:10015000000000000000000000000000000000009F
:10016000000000000000000000000000000000008F
:10017000000000000000000000000000000000007F
:10018000000000000000000000000000000000006F
:10019000000000000000000000000000000000005F
:1001A000000000000000000000000000000000004F
:1001B000000000000000000000000000000000003F
:1001C000000000000000000000000000000000002F
:1001D000000000000000000000000000000000001F
:1001E000000000000000000000000000000000000F
:1001F00000000000000000000000000000000000FF
:10020000354936480A1A02D0072291438D463449AF
:1002100034480A1A06D00722914381F30988022242
:1002200082F3148830483149314A00F044F83148AB
:100230003149324A00F03FF831483249324A00F041
:100240003AF832483249334A00F035F832483349F7
:10025000334A00F030F833483349344A00F02BF881
:1002600033483449344A00F026F8344834490022EF
:1002700000F02CF833483449002200F027F83348C6
:100280003349091A082902DB002202604160314A21
:1002900090471F481F49884205D00268043003B4C4
:1002A000904703BCF7E700208646EC46002000217B
:1002B000294A9047FEE7884207D0521A05D00378B2
:1002C00001300B700131013AF9D17047884202D0F8
:1002D00002700130FAE770470000042000E00320BC
:1002E0000000042000000420A43B000000000020C7
:1002F00034000020D4030000D4030000FE360000C8
:10030000A43B000000000020000000204C3700004B
:100310004C3700004C3700004C3700004C370000D1
:100320004C3700004C3700004C370000A23B000067
:10033000D83B0000340000203400002034000020AE
:10034000CC080020CC080020CC080020CC080020DD
:10035000CC2800209D030000D5310000FEE7FEE719
:10036000FEE7FEE7FEE7FEE7FEE7FEE7FEE7FEE765
:10037000704700BF1048804710484FF0070188437E
:1003800085460F4880470F48016841F470010160BD
:10039000BFF34F8FBFF36F8FFFF732BF0A480B4990
:1003A0000B4A884207D0521A05D0037801300B70EF
:1003B0000131013AF9D170477103000000000420B7
:1003C000A132000088ED00E04C3700000000002062
:0403D0000000002009
:1003D400F0B595B01D46164608460C4601F07AFC69
:1003E4001A9B0D93CDE9086500252B46082205A923
:1003F40020460A958DF82C500C9501F087FC079B3C
:100404000293069B03939DF814308DF8115003F06A
:100414000302012A1DD1BDF81420059DC3F3C203B4
:10042400C2F383168DF81030B20008230EA92046BB
:1004340001F06CFCC5F3952508AB0093324602AB82
:100444000EA9284600F0C2FB204601F047FC15B077
:10045400F0BD022AF8D1BDF81650C3F3C203C5F3A8
:1004640089158DF810300827082D2E4628BF082638
:100474003B4632460EA9204601F048FCAD1B08ABB2
:1004840002AA31460EA8374400F004FC002DEBD13B
:10049400DAE70000014B01221A7070477500002052
:1004A4007047000070B50E4D06460FCD88B06C46FF
:1004B4000FC495E80F00002E84E80F00094A0A488B
:1004C4004FF0060308BF00226946009301F066FC62
:1004D40008B100F017FE054B1E7008B070BD00BFD8
:1004E4004C37000099040000000000203400002074
:1004F40007B5044B0093044A4023FFF769FF03B098
:100504005DF804FB110500003500002038B50D48E6
:100514000D4C0E4D002323700378EB5CD2B263B113
:10052400043002F025FB08B100F0ECFD084B1A780A
:1005340012B12378002BFBD038BD0C3002F0F4F854
:10054400F1E700BF00000020750000207C070020B8
:100554003400002008B50848084A0378D35C3BB14E
:10056400043002F0A5FABDE808400020FFF79ABF66
:100574000C3002F079F8F6E7000000207C07002038
:100584000120FFF78FBF000008B5FFF7F9FF04480B
:10059400042100F085FA034B01225A7108BD00BF03
:1005A4002837000014000020037813F0040216D04A
:1005B40003F00303012B03D0022B09D00120704761
:1005C4000A6800880232C0F3831002440A60F5E727
:1005D4000B684288023303EB92130B60EEE710467C
:1005E400704700002DE9F04FDFF824A10F4685B0D5
:1005F4000446861C0020154601F07CF8DAF8001049
:100604003960DAE90132134401335B1A0AF21C47F8
:100614000AF583690AF21448B3421BD30020002D63
:1006240072D004F00F039B0143F0050363F30F0042
:10063400DAF80020DAF808301340033332444AF879
:1006440023000020CAF8002001F056F8012005B06C
:10065400BDE8F08F0121384601F073F8484601F0F7
:1006640088F8404601F085F8DAF80400DAF808B0B2
:10067400009000EA0B0003300AEB80006946FFF7A4
:1006840093FF009B50BB0BEA03020AEB820203F1C7
:10069400020CD2680192013303EA0B0B0AEB8B0BB9
:1006A40002F00302012ADBF80C10CDF800C023D0BD
:1006B400022A16D08346404601F05EF810B1009B32
:1006C400CAF804305946384601F03BF8DAE9012308
:1006D4001344DAF8002001339B1A9DE70BEA030068
:1006E400C9E7BDF80630C3F3891303334FEA114B4E
:1006F4000CEB93030093DEE7BDF80430C3F38313DC
:100704004FEA114B6344F5E7A40544F006008FE774
:10071400480100200B4B0C48FF2210B59A600022C0
:10072400C3F81824C3E90022C3F8142483F820244E
:1007340001F089FA044610B9044801F0F1FA2046A0
:1007440010BD00BF4801002038370000A03700006A
:1007540030B50A4C71B10A4A0A49121BD208002367
:100764009A4201D1002030BD31F82350854202D095
:100774000133F5E7034654F83300F4E7003700008B
:100784002837000000000020094B013903EBC000AA
:10079400032909D8DFE801F00A020406042070479F
:1007A40000797047407970470020704702207047F5
:1007B40000370000034BD3E90030C31A58425841B4
:1007C400704700BF480100202DE9F04385B0FFF7D2
:1007D400F1FF0646002840F0FA807E4CC4F8180465
:1007E400BFF34F8F6368A56800932B40033304EB7A
:1007F40083006946FFF7D8FE009B18B1D4F818248B
:10080400002A62D005EA0302991C013304EB820238
:100814002B4004EB8303D268DB68029302F00303EA
:10082400022B0192009163D1BDF806306A48C3F3EC
:100834008917502FB84628BF4FF0500808F1080117
:1008440068F38F13C1F30901ADF8063001F013FA10
:100854000646002800F0A68001F03CFA0023082296
:1008640001A9304601F048FA009925EA0102013253
:10087400B8EB820F4FEA820333D95FFA88F863B387
:100884002940DDB2A8EB050803315FFA88F9A846D0
:10089400524D04EB810108234246304601F02CFA04
:1008A4003DB108F10803DBB24A462946304601F05F
:1008B40023FA009B033703EB97070097D4F8183407
:1008C400002B4BD1D4F810545BE022689A428CD8A8
:1008D4006260304605B0BDE8F08340491D46994644
:1008E400D9E7294003310823424604EB8101DDE7BF
:1008F400012B57D1BDF804303748C3F383110629BF
:1009040028BF062161F38913023101F00F01890028
:10091400ADF8043001F0AFF90646002842D001F0EA
:10092400D9F90023082201A9304601F0E5F900278E
:10093400BDF80420C2F38312BB00974203F10803FD
:10094400BCD200994A1C29400331009204EB810176
:100954000422304601F0D0F90137E9E7304601F0CE
:10096400BDF9FFF727FF80F00100C6B2B1E7EB68DD
:100974005B7923B12B6831461B6828469847EB689E
:100984001D68002DF3D1304601F0A8F9284600F087
:10099400B1FED4F818340BB9009B6360002000F05A
:1009A400ABFEDEE7D4F8104454B90D4B0D480E49A4
:1009B400C01AC008000440F0020000F063F8D0E759
:1009C400236820469B689847E3681C68ECE7002688
:1009D4007FE700BF480100203837000054010020A1
:1009E4000037000020370000893700002DE9F74F59
:1009F400224E04460F46924601A901221846D6F813
:100A040008909B46FFF7EEFD20B3019D4FF00008D0
:100A1400AA1CD84508EB020126D11948002100F090
:100A24006DFE80F31000000440EA1440E4006B1CE7
:100A340004F0380403EA090305EA090544F0010453
:100A440006EB8303033544EA881444EA8724D86018
:100A540046F8254096F820341BB1FFF7B5FE002870
:100A6400FBD103B0BDE8F08F09EA010106EB810177
:100A74005AF82830CB6008F10108CAE74801002081
:100A84006405002000231A46FFF7B0BF07B5012311
:100A9400019201AAFFF7AAFF03B05DF804FB00006E
:100AA40030B50F4CD4F8102403460020114631B958
:100AB400D96808714AB9C4F810340A6030BDC968ED
:100AC4000D79854206D00968F1E7D26814680C6094
:100AD4001360F3E701300A28E8D14FF0FF30EDE767
:100AE4004801002038B5084B0125D3F8104483F899
:100AF400205404B938BDE3685D71236820465B68FF
:100B04009847E3681C68F4E74801002030B5C388BF
:100B140085B004460D4633B1144A00921449154A6F
:100B2400284600F083FE217A05291DD0637A4BB153
:100B3400A088FFF729FE104B104953F820202846BF
:100B440000F074FE227A0E4BA08853F82220039200
:100B54000021FFF7FDFD039A0A490346284605B024
:100B6400BDE8304000F062BE05B030BDCC370000B7
:100B7400B4370000AC37000038380000D13700002B
:100B84005C380000D437000007B503460846197ADC
:100B9400052911D05B7A2BB1094A0A49019000F06A
:100BA40045FE01980849019000F040FE019803B009
:100BB4005DF804EB00F02FBE002AF8D0F2E700BF86
:100BC400CC370000D1370000C93700002DE9F043CD
:100BD40085B01F460C9D002395F80C902B73064698
:100BE4000C46904629463846FFF790FFB8F1060FA9
:100BF40009D8DFE808F00412181F283340003146F2
:100C0400284600F013FE002229463846FFF7BCFFB1
:100C140085F80C9005B0BDE8F0832268314628467B
:100C240000F004FEEFE7D4E900233146284600F043
:100C3400FDFDE8E7A36800933146D4E90023284684
:100C440000F0F4FDDFE7E3680193A3680093314605
:100C5400D4E90023284600F0E9FDD4E72369029390
:100C6400E3680193A36800933146D4E9002328463E
:100C740000F0DCFDC7E76369039323690293E3682B
:100C84000193A36800933146D4E90023284600F079
:100C9400CDFDB8E708292DE9F74F80460E461746E3
:100CA4001C463DD800251B7B257321461046019325
:100CB400FFF72CFFDFF88CA0DFF88CB0AE4232D9FE
:100CC40018F805205946204600F0B0FD0135082DDE
:100CD400F4D11B49DFF874A0DFF874B0204600F0AB
:100CE400A5FD4FF000094E4524D918F809507E2D72
:100CF4001ED8284602F070FC002814BF2A462E2273
:100D04005946204600F092FD09F10109B9F1080F96
:100D1400E9D1012221463846FFF736FF019B2373B0
:100D240003B0BDE8F08F5146204600F07FFDCDE7CB
:100D34002E22E5E75146204600F078FDE4E700BFA7
:100D4400E8370000E4370000DE370000E637000033
:100D5400EA370000074B1B5C1F2B8ABF064A4FF083
:100D6400A04203F01F03D2F80405D840C04300F0AA
:100D7400010070477438000000030050074B1B5CEF
:100D84001F2B86BF064903F01F034FF0A041012229
:100D940002FA03F3C1F80C35704700BF7438000041
:100DA40000030050074B1B5C1F2B86BF064903F052
:100DB4001F034FF0A041012202FA03F3C1F80835E2
:100DC400704700BF743800000003005008B50020CD
:100DD400FFF7E8FF0120FFF7E5FF0220FFF7E2FF3E
:100DE400BDE808400320FFF7DDBF08B50020FFF78A
:100DF400C5FF0120FFF7C2FF0220FFF7BFFFBDE8D8
:100E040008400320FFF7BABF0A4B185C1F288ABFAB
:100E1400094B4FF0A04300F01F00D3F80425012133
:100E2400814021EA02000A40C3F80805C3F80C25F2
:100E3400704700BF7438000000030050074B1B5C70
:100E44001F2B8ABF064A4FF0A04203F01F03D2F8BB
:100E54001005D840C04300F001007047703800000E
:100E6400000300500B2809D00C2809D0182809D0F9
:100E740019280CBF03204FF0FF3070470020704743
:100E84000120704702207047C20710B504460CD5F4
:100E94004FF0A0430322C3F83427C3F83827C3F81C
:100EA4003C27C3F84027FFF791FFA3070AD54FF06B
:100EB400A0430C22C3F82C27C3F83027C3F86027BB
:100EC400C3F8642710BD00002DE9F84F2F4F304EB2
:100ED4004FF000082F4B1B785FFA88F5AB4201D81E
:100EE400BDE8F88FD7F8009019F835000124A0F177
:100EF4002002C0F1200304FA02F224FA03F313439C
:100F0400D6E9001204FA00FC01EA0C0B02EA030E13
:100F14005BEA0E0E09EBC50A35D021EA0C0122EA80
:100F24000303C6E9001301F0C9F8024619F83500B5
:100F3400194DA0F12003C0F1200124FA01F104FAB3
:100F440003F30B43D5E900C1C0F120050B40A0F128
:100F5400200122FA05F5844002FA01F1294304EA4A
:100F64000C0402FA00F58B4208BFAC420BD1DAF84C
:100F7400043043B19AF801104C1E614261418D1A4C
:100F840069426941984708F10108A3E74006002037
:100F9400380600200406002030060020F8B5074675
:100FA4001E4800F085FBB8BB01251D4EA7F12004A7
:100FB400C7F1200325FA03F305FA04F41C43D6E928
:100FC4000023BD4002EA050003EA040101431DD1E8
:100FD400384601F073F8134BD3E9001288B1294362
:100FE4002243C3E90012D6E900232A432343C6E976
:100FF40000230D4B094819680022BDE8F84000F0B1
:1010040015BB21EA050122EA0402EAE722EA050205
:1010140023EA0403C6E90023F8BD00BF0C06002040
:10102400380600203006002008060020042A2DE996
:10103400F34105460C4616463BD900F067FFE8B17C
:101044001D4B1E491D601E4BDFF888801C701D4B14
:1010540000221E600023C1E900231B49C1E90023CB
:10106400013CE4B200260327FF2C0ED1174A18488E
:10107400002102B0BDE8F04100F0C6BA00F014FF50
:101084000028DDD002B0BDE8F08105EBC40315F8FB
:1010940034009B788DF80660424601A98DF80470EF
:1010A4008DF8053000F03CFF013CE4B20028DBD0B1
:1010B400E8E70720E6E700BF4006002030060020EE
:1010C400040600200806002038060020CD0E00008B
:1010D40078380000A10F000070B5084D084E0024B8
:1010E4002B789C4201D3002070BD3368012113F892
:1010F400340000F095FF0134F2E700BF040600203D
:10110400400600201FB50021039001AA44F201000B
:10111400CDE9011100F004F805B05DF804FB00000E
:1011240038B572B6FFF7DEFCFFF74EFB0028FBD1A3
:10113400104B114C114D1249E41AE408240444F0F4
:101144000100FFF79FFCD5F8F030DB0700D500BEA7
:101154000C4944F00200FFF795FCBFF34F8FEA6897
:10116400094B02F4E0621343EB60BFF34F8F00BFFF
:10117400FDE700BF003700002037000000ED00E06D
:101184007C380000883800000400FA05094B5A78BE
:1011940099780132D2B2914208BF00221978914263
:1011A4001FBF02705878182202FB003014BF0430AD
:1011B400002070474406002037B5044600200D4641
:1011C40000F098FA0DF10700FFF7E0FF90B1057009
:1011D400094B9DF8072044605A700024002000F059
:1011E4008BFA24B9054B4FF48012C3F80021204632
:1011F40003B030BD0424F1E74406002000E100E020
:10120400024B4FF43C6043F001031847A038000040
:1012140038B50C4B0C4C4FF40032C3F88020012538
:101224004FF48033C4F84833C4F808336560FFF7DB
:10123400E7FF064BA56000241C60FFF7E1FF044BA9
:101244001C7038BD00E100E0001001406007002080
:1012540051070020F8B51F4B1F491B680025C1F832
:101264004051C1F84451C1F84851C1F84C51C1F83A
:101274000051C1F804514BB3D1F80445174909682A
:10128400641A24F07F442F461A68A24209D8A41A8B
:1012940015441A7CDE691AB1D3E905201F749047FE
:1012A400AEB90F4A0F4B11781B788B4205D101332D
:1012B400DBB2022B08BF0023137012780A4B43F8E9
:1012C40022500A4B4FF48012C3F80021F8BD334674
:1012D400DAE700BF64070020001001406007002027
:1012E4005D0700205C0700205407002000E100E0B7
:1012F4002DE9F04FA14AA24913780978A14D9942EA
:1013040085B03CD00133DBB2022B08BF002313703D
:101314009D4912789D4B0F6853F822003B1823F027
:101324007F4300220B602B6816461446944613B97B
:1013340042B12B6006E0196881420ED902B12B60DC
:10134400091A196001272B68DFF848A201934FF0AE
:101354000008BEB9DFF844B260E0401A0C44D96812
:10136400D3F81CE0C3F800C031B13A1922F07F422F
:10137400C3E90121DE611E4673460122D7E7002638
:101384003746E0E73446F6697F4B60681B68DFF850
:1013940010C2A168C21A22F07F42624500F2A68000
:1013A4000A442260012222742A680023C4E901331A
:1013B400E361002A40F0A3802C60CAE79BF8021086
:1013C4005A1CD2B291428BF8002004BF00228BF841
:1013D4000020182202FB03B32A6819799C680229A9
:1013E40075D003297FD0012918D1207CB0B9D3E965
:1013F4000312A2605A69E2609A69654BA2611A7885
:10140400002A18BF01466160BEE78C4200F0948058
:101414008946C9690029F8D1002323749BF8003058
:101424009BF801209A42C9D12B68B8F1000F04D16E
:10143400019A9A4201D1002F43D0002B79D0D3F8DE
:1014440000A0544D504BD5F804751C68DFF8548146
:101454003E1B98F8003026F07F4603369BB94FF4C4
:101464008033C5F84433C5F804334B4B4FF4003292
:101474004FF00109C3F880211A60C5F80090FFF706
:10148400BFFE88F80090B2452CBF5444A41924F040
:101494007F44C5F84045D5F80435DB1B23F07F4372
:1014A400E41B033324F07F44A3420AD9D5F804355E
:1014B400C5F84035FFF7A4FE374B4FF40032C3F8AC
:1014C4000021334B00221A7005B0BDE8F08F11469D
:1014D40091469FE71174D2690123002AFAD1002BA7
:1014E4009CD02A609AE700231946F6E71B1A23F0DA
:1014F4007F438B4234BFCB1A0023236052E7216819
:101504001368994213D85B1A1360E26154E7091A0D
:10151400D8691A4638B1034618688842F7D3401A86
:101524001860184613462160E061DC6111E7134638
:10153400F2E7FFF76DFEC4E74C4511D1D3692B6088
:1015440073B9DFF844E00120CDE90212CAF80800BB
:10155400CEF800300E4B1870FFF752FEDDE9021290
:101564000B68C969C9F81C1011B1086803440B6001
:101574002B68934218BF4FF001084DE75C07002029
:101584005D07002064070020600700205407002046
:10159400500700200010014000E100E04406002054
:1015A400FEFF7F005107002008B5FFF731FE104B06
:1015B40000200B2218809A700E4B18600E4B187086
:1015C4000E4B18700E4B4FF48012C021C3F88021CB
:1015D40083F814131A6002F18042A2F56F22C2F854
:1015E400080583F81113074BD2F804251A6008BDC7
:1015F40044060020640700205C0700205D070020EB
:1016040000E100E060070020074B9B784BB132B14A
:1016140028B10368187C20B959745A6170470720AF
:1016240070470820704700BF440600202DE9F341AD
:101634001C4FBB7804460D4616468BB380B3042971
:101644002CD9436963B3437C0020012B0CBF88462B
:101654004FF0000800F04EF80DF10700FFF796FD7B
:10166400D0B101230370104B4460D3F80435C0E9B2
:101674000486C0E902359DF807307B700024002001
:1016840000F03AF824B9094B4FF48012C3F8002152
:10169400204602B0BDE8F0810424F0E70724F7E710
:1016A4000824F5E7440600200010014000E100E0B2
:1016B400064A92783AB130B1426922B100220274EA
:1016C4000221FFF779BD0820704700BF44060020BF
:1016D40072B6024A1368013313607047680700202A
:1016E400034A1368013B136003B962B6704700BF35
:1016F40068070020FFF7ECBFFFF7F2BF10B5034601
:1017040053E8000F0A4643E8002494F0000FF7D191
:1017140010BD10B5034653E8002F42EA010043E828
:10172400000494F0000FF6D110BD10B5034653E841
:10173400000F00EA010243E8002494F0000FF6D100
:1017440010BD10B5034653E8002F02EB010043E837
:10175400000494F0000FF6D110BD10B5034653E811
:10176400002FA2EB010043E8000494F0000FF6D12F
:1017740010BD0121FFF7CDBF0021FFF7D6BF10B583
:1017840090B1D0E9012301689B1ADBB20A60013BE6
:10179400DBB2FF2B026802D10020107110BD11686A
:1017A4004C1C14600B70F2E70E20F7E738B50446C2
:1017B4000020FFF79FFF226863681168994213D9DC
:1017C400481E106011F8013CE568218A01FB0355AD
:1017D400A36811791B1ADBB2994200D2137100205D
:1017E400FFF78AFF284638BD0025F8E738B50546D7
:1017F40000200C46FFF77EFF2A681368591C11600D
:10180400E968641A298AB4FBF1F41C70BDE8384015
:101814000020FFF771BF826810B504462AB14369FE
:101824000168006998470023A36010BD0EB403B596
:10183400039921B104AB01AA019300F077F802B037
:101844005DF804EB03B070470A2938B504460D4629
:1018540002D10D21FFF7F8FFA3682268591CA1608B
:10186400D554D4E901329A4204D32046BDE8384025
:10187400FFF7D1BF38BD00002DE9F84F9846DDE9E8
:101884000A43154682460F460A464FF00109AA420A
:101894000FD2C14538BFC14613F0010B01D16CB959
:1018A40000240126B8F1010F1BD908F1FF386E435B
:1018B400F8E709F10109B2FBF5F2E8E79B070ED559
:1018C400B8F1000F0CBF30262026A145E9D2013C17
:1018D40031465046FFF7B8FF002CF6D1E0E720264A
:1018E400F3E7B7FBF6F39D42E1D9DFF83C80B7FBA1
:1018F400F6F3504618F8031006FB1377FFF7A4FF1E
:101904003346AB42B6FBF5F6F1D2BBF1000F02D081
:101914000CB1A14501D3BDE8F88F20215046013C0C
:10192400FFF792FFF4E700BFA63800002DE9F74F58
:10193400054617468846002900F03E8118F8011B29
:1019440049B92B7B002B00F03781284603B0BDE852
:10195400F04FFFF760BF252940F0B780002698F8C4
:1019640000302D2B424608F1010823D0302B24D01F
:101974002B2B25D000242A2B02F1010123D13B6813
:101984001A1D1B683A601C440A4613782E2B26D174
:1019940001324FF0000A104610F8011BA1F1300C7F
:1019A400BCF1090F1DD80A2303FB0A13A3F1300A63
:1019B4000246F0E746F00106D1E746F00206CEE71C
:1019C40046F00406CBE711F8013CA3F130000928E6
:1019D400DBD80A2202FB0434303C0A46CBE74FF042
:1019E400000A12F8011B01F0FB0068289046F8D0A9
:1019F400782909D86F290CD8632962D022D82529DF
:101A040063D0582900F0888098F80030002B95D1D5
:101A140097E770390829F7D801A353F821F000BFDC
:101A2400971B00000D1A00000D1A00002D1B00006A
:101A34000D1A00000B1B00000D1A00000D1A000007
:101A44001D1B0000642901D06929DDD13A68D2F850
:101A54000090111D89EAE9723960A2EBE9724FF036
:101A6400010B092A35DCD34538BFD3462CB1B9F173
:101A7400000F01DB720700D5013CB30702D5BAF1B0
:101A8400000F03D0F00701D44CBB0024B9F1000FC0
:101A94002DDAC9F100092D212846FFF7D5FE06F0FD
:101AA4000302022A04D1BAF1000F01D11CBB0024A5
:101AB400CDE9004653460A2249462846FFF7DCFE94
:101AC400A2E73B681A1D19783A602846FFF7BCFE66
:101AD4009AE70A230BF1010BB2FBF3F2C1E7A3452A
:101AE400D4D220212846013CFFF7AEFECCE7710793
:101AF400D5D52B21D0E7A345DAD230212846013CA5
:101B0400FFF7A2FED2E73968CDE900460A1D3A6024
:101B140053460A220968D0E739680A1D3A60CDE9BC
:101B2400004653461022F5E73B681A1D3A6016F04A
:101B34000106D3F8009024D1B9F1000F03D0484630
:101B440001F0ABFD0646B4421DD809F1FF3919F87E
:101B5400011F00293FF458AF2846FFF775FEF6E74A
:101B640028460136FFF770FE19F806100029F7D150
:101B7400A642BFF449AF20212846013CFFF764FE8A
:101B8400F6E70026F0E720212846013CFFF75CFE3B
:101B9400D9E73B681A1D3A60302128461C68FFF7D4
:101BA40053FE78212846FFF74FFE00220823CDE993
:101BB40000322146102280E703B0BDE8F08F00BF59
:101BC4002DE9F84FB0F806A04579D2F800B09DF899
:101BD40028900AFB05F5043D88460BEB0301A94256
:101BE40003F1040488BFA5EB030BB4FBFAF6074624
:101BF4000AFB1644C2F800B04EB9AAEB04055D45D1
:101C040028BF5D46BBF1000F04D1BDE8F88F3F68E3
:101C1400013EF1E7043408EB06003C442A46B9F1DE
:101C2400000F0DD02146ABEB050B01F0DAFCDA45D1
:101C34002E443F6855464FF0000428BF5D46E1E757
:101C440001462046EFE7FFF79ABDF8B5467901460D
:101C5400721E0546002393422D6803D30024A64236
:101C640002D8F8BD0133F6E70F682846FFF7BEFD3A
:101C740001343946F3E72DE9F843068ACD1C0746BB
:101C8400FFF794FD043E35440446B5FBF6F5F0B188
:101C94004FF48073EDB28380C680013D07608146B6
:101CA4004FF00008A84512D23846FFF77FFD0646DC
:101CB40048B163790133637108F10108C9F8000080
:101CC40007608146EEE72046FFF7BFFF3446204613
:101CD400BDE8F88301210430FFF733BD10B50121BD
:101CE40004460430FFF739FDC0B220B92046BDE8F0
:101CF4001040FFF7AABF10BD1FB503920022009247
:101D040003AAFFF75DFF05B05DF804FB1FB503925E
:101D14000122009203AAFFF753FF05B05DF804FB0C
:101D2400836800225A60C3E904229A60DA601A6068
:101D3400704700001FB503788DF8003043680193A5
:101D440083688DF80830C368054A0393054B6846D9
:101D540053F8213052F82110984705B05DF804FB80
:101D64006C070020740700201FB503788DF800303D
:101D74004368019383688DF80830C368054A039368
:101D8400054B684653F8213052F82110984705B0A6
:101D94005DF804FB6C07002074070020F0B5194BB4
:101DA40090F800C0DFF86CE043F82C20164B164680
:101DB4000A6943F82C204B7F0EF80C300C4607467A
:101DC4000FCC89B06D460FC594E80F0085E80F006D
:101DD4003B78CDF810C01EF803304BB1002E0B4AEF
:101DE400694608BF3246381D00F086FD09B0F0BDD3
:101DF400002E074A694608BF324607F10C0000F07E
:101E04005FFBF3E7740700206C070020391D000016
:101E14006D1D00007C07002000F1804000F5C040EB
:101E2400002382B0036003680193019B02B07047F2
:101E340003681F2B83BF03F01F03036001484FF0A7
:101E4400A04070470003005007B5019001A8FFF7B8
:101E5400EFFF019B00EB8300D0F8003723F44033FD
:101E6400C0F80037D0F8003743EA0141C0F8001742
:101E740003B05DF804FBC208012300F0070003FA75
:101E840000F08B5C1843885470470000054B4FF0FA
:101E9400FF32072843F8202084BFC01880F8582058
:101EA400704700BF8007002038B5144D95F86A408C
:101EB40014BB3022FF21A81801F0BCFBE0B20134AE
:101EC400FFF7E4FF0C2CF9D10D4B00226A669A80CF
:101ED4000C4BC02183F80613402119604FF4BE70E7
:101EE400FFF79AFF084B4FF00041C3F80413012396
:101EF40085F86A30104638BD0820FCE780070020CA
:101F0400E407002000E100E000600040034B93F888
:101F14006A00003818BF0120704700BF8007002006
:101F24002DE9F341DFF8F48008EB0003054693F94B
:101F34003030002B0F466CDA8B78C3F34003002B50
:101F44000BBF082400240C2108218C4203D1042057
:101F540002B0BDE8F08158F82400013041D108EB0B
:101F6400050166B248F8242081F830601BB908EBFB
:101F7400040383F85850BB785A0712D4D90732D5D2
:101F840001A80195FFF754FF019B00EB8300D0F8F3
:101F9400003723F00203C0F800371F492846FFF733
:101FA4006AFFBB783A7813F0020328D0A40004F146
:101FB400804404F5C0442D02D4F8103523F44F3383
:101FC40023F44073C4F810351204D4F8103505F422
:101FD4007C5502F4403215431D43C4F810550020CB
:101FE400B6E70134B1E701A87A780195FFF720FF3D
:101FF400019B03F5E073920040F82320CDE7083EEF
:1020040048FA86F898F8605045EA821288F8602009
:10201400E5E708209CE700BFE407002080070020D4
:1020240073B5244D2E18044696F93020072A1DDD79
:10203400083A45FA82F595F860309B09032B10D1D4
:10204400019001A8FFF7F4FE019BD0F81015D940C8
:1020540001F001010231204602B0BDE87040FFF7F3
:10206400F3BE012B0CBF02210321F4E7D3B2072BEB
:102074001DD8930003F1804303F5C043D3F8100542
:1020840040F00100C3F8100502F1400040B28000A6
:1020940080B2FFF7C1FE51B196F9303055F82330C4
:1020A4002BB1012303FA02F2034BC3F8042302B059
:1020B40070BD00BF800700200060004007B501909C
:1020C40001A8FFF7B5FE019BD0F81005D84000F039
:1020D400010003B05DF804FB2DE9F04F00248BB040
:1020E400CDE90444644D4FF48072012102F1804330
:1020F40003F5C04390B21B68012B06D1D5F8043315
:102104000B4202D0FFF788FE0C430432B2F5907FF5
:102114004FEA4101EAD1584BD3F87C31012B0ED15F
:102124004FF4BE70FFF778FE4FF0A04344F0004434
:10213400D3F810350493514BD3F810350593E3B21B
:10214400D3B14F4F00250126344210D0AB0003F128
:10215400804303F5C043D3F81005D3F8101557F89E
:10216400253023B1C1F30141C0F30520984701355F
:10217400082D4FEA4606E7D1002C79DA0023CDE991
:1021840006334FF0FF33CDE90833DFF8F4A03D4BBD
:10219400019300263546019B13F9014B0193631CFF
:1021A4004DD0C4F3C2070122E3B204F03F0B04F0A4
:1021B400070402FA04F40AAA174417F8081C214277
:1021C4003DD00AEB0B014FEA931991F930105AF8FC
:1021D4002180B8F1000F07D1B9F1030F2FD106A95F
:1021E4005846FFF748FE02E0B9F1030FF7D003A801
:1021F400CDF80CB0FFF71CFE039901F5E07150F81F
:10220400211017F8180C2042C1F3014106D002290D
:1022140015D1B9F1030F0CD1494605E003290ED1BC
:10222400B9F1030F05D102215846FFF70DFE013520
:10223400EDB2B8F1000F02D049465846C047013606
:10224400042EA8D1A5B14FF0A0430499D3F81025CA
:1022540003F540739142D3F8103502D105999942A0
:1022640006D004920593069A079B089209938EE779
:102274000BB0BDE8F08F00BF0060004000030050C9
:1022840080070020E0070020014B1B68184700BFAF
:10229400EC07002038B50B4B98420C4601D00020C7
:1022A40038BD0020FFF726FA074B1D7915B9012226
:1022B4001C601A710020FFF71FFA002DEFD01120C7
:1022C400EEE700BF00200040EC070020034B9842DB
:1022D40001BF034B00221A601A71704700200040AE
:1022E400EC0700200023435082B043580193019B24
:1022F40002B070470A4610B54FF48E71FFF7F2FF33
:10230400136A9168C95C136A01331362C0F81C151F
:1023140010BD8B690A4610B54FF4847123B9FFF7D9
:10232400E1FFD0F8183510BDFFF7DCFF536AD16820
:10233400D0F81805C854536A01335362F3E7000018
:102344001FB501238DF80030044BCDE90110D3E90A
:1023540000126846904705B05DF804FBF4070020BE
:1023640030B54D4DD5F804339A0585B051D5D5F81F
:102374002431002B4DD04FF492712846FFF7B2FF61
:102384004FF40173C5F80833444B93F829200AB974
:1023940001226A60404902228DF80020D1F880248D
:1023A400C1F8802403929A690292DA6801920022A9
:1023B400C3E906226846D3E9001290473648D0F8AC
:1023C4001C315BB1354A116A536999424DD292F876
:1023D4002830002B49D11146FFF78CFF2E48D0F846
:1023E4004431002B55D04FF4A271FFF77BFF2B4BE8
:1023F40093F829200AB1012202609A69002A48D080
:10240400586AD96800229A6105B0BDE83040FFF7E8
:1024140097BFD5F804335B07D0D5D5F80831002B26
:10242400CCD01E4C1C482146FFF773FF636AA26997
:102434009A42C3D1E369E1684BB1A3612369E360C4
:102444000023606AE3616362FFF77AFFB6E794F8FA
:1024540029300BB901236B600F4B4FF40172C3F8A1
:1024640008230023606AA361EEE74FF48E710A48E3
:10247400FFF738FF51690029B0D000230291916819
:102484008DF80030019153616846D2E900139847F2
:10249400A4E705B030BD00BF00200040F4070020D1
:1024A4001F2886BF00F01F00044B4FF0A04300F527
:1024B400E070022243F82020704700BF0003005060
:1024C4002DE9F843624D90F804802C2303FB085354
:1024D400064693F82A300C469146002B40F0B4800F
:1024E4005C490068FFF7D6FE0746002840F0AE803E
:1024F4002268531C10D01F2A87BF574902F01F03BC
:1025040013464FF0A0410120984003F5E073C1F851
:102514000805032041F823006168481C0DD01F29D9
:102524008BBF01F01F030B464B484FF0A04003F54F
:10253400E0734FF0000C40F823C03068A369C0F882
:10254400243594F814C0637DBCF1010F4CEA0303F5
:10255400C0F86C35C0F81415C0F80C252BD1A3684D
:10256400591C0DD01F2B8BBF03F01F021A463A498A
:102574004FF0A04102F5E0724FF0000C41F822C088
:10258400E1684A1C13D01F2987BF334A01F01F0C8E
:102594008C464FF0A0424FF0010E0EFA0CFE0CF5E3
:1025A400E07CC2F808E54FF0030E42F82CE0C0F8D6
:1025B4000815C0F810352C2202FB08F2AB18C3F83A
:1025C40004902369AB50B9F1000F2AD04FF48E71F7
:1025D400247FFFF787FE30684FF4A271FFF782FE75
:1025E40032681E4BC2F80433130B42F30732002A3D
:1025F400A8BF02F160404FEA4411BABF184803F083
:102604000F0400F56140C9B2B4BF015580F800134E
:1026140003F01F03012101FA03F35209114941F8A0
:10262400223033680422C3F800252C2303FB08530B
:102634000022C3E9062283F829205A61012283F883
:102644002A203846BDE8F8830827FAE71127F8E777
:10265400F4070020652300000003005080000200FE
:1026640014ED00E000E100E02DE9F0410368057994
:10267400244C0022C3F800252C2202FB054201460B
:1026840052686AB1204AC3F8082343F30732C3F3FC
:10269400043652090120B04020321C4E46F8220074
:1026A400D3F80C05D3F81485D3F80865D3F810755E
:1026B4004FF0FF329042C3F81425C3F80C25C3F839
:1026C4000825C3F8102501D0FFF7EAFEB8F1FF3F53
:1026D40002D04046FFF7E4FE7A1C02D03846FFF7EA
:1026E400DFFE731C02D03046FFF7DAFE0868FFF7FE
:1026F400EDFD2C2303FB0544002384F82A3063609A
:10270400BDE8F081F40700208402020000E100E04B
:102714000279044B2C2101FB02335869003818BF9D
:1027240001207047F40700202DE9F84F064689463A
:102734009246FFF7EDFF044600283DD196F8048049
:102744001F4F2C2508FB057B4FF48E71CBF820001E
:10275400CBF814A08BF82800CBF808903068FFF76A
:10276400C1FD3068012383605946FFF7C3FDDBF8E0
:1027740004305D4613BB30682A6A6B699A4211D3F0
:102784003368D3F81C21002AFBD00122DA60002030
:102794002C2303FB087700237B61BDE8F88F95F8B1
:1027A40028303BB9D0F81C31002BF8D05946FFF73C
:1027B400A1FDE1E70F20EBE71120EEE72046ECE76F
:1027C400F40700200023435082B043580193019B37
:1027D40002B070471FB501238DF80030044BCDE9DA
:1027E4000110D3E900126846904705B05DF804FB78
:1027F400200800207FB5364AD2F82461002E46D046
:1028040010464FF49271FFF7DDFF02238DF800307C
:10281400D2F88034C2F880340393D2F83C35029362
:102824002C4BDA6801920022C3E906226846D3E9F8
:10283400001290472648D0F8443173B14FF4A27186
:10284400FFF7C0FF234B9A693AB10022C3E906227D
:10285400D968D0F83C05FFF7BDFF1D48D0F82031FA
:102864009BB14FF49071FFF7ADFF1A4B5A6962B1F7
:10287400D0F84C150291002299688DF8002001913E
:102884005A616846D3E90012904704B070BDD2F88B
:102894001031002BCED04FF488711046FFF792FF11
:1028A4000C4BD2F83C0599698842C3D1DC69D968DC
:1028B40064B1D2F8005225F02005C2F800521A691A
:1028C4009C61DA60DE61FFF785FFB3E79C61FAE79C
:1028D40000200040200800201F2886BF00F01F00B1
:1028E400044B4FF0A04300F5E070022243F820208F
:1028F400704700BF000300502DE9F843664E90F87E
:102904000480242303FB0863054693F820300C4617
:102914009146002B40F0BC8060490068FFF7BAFC88
:102924000746002840F0B68021684B1C10D01F29B0
:1029340087BF5B4A01F01F030B464FF0A042012002
:10294400984003F5E073C2F80805032042F8230019
:102954006268501C0DD01F2A8BBF02F01F03134660
:102964004F484FF0A04003F5E0734FF0000C40F8DF
:1029740023C02868A369C0F8243594F814C0637D83
:10298400BCF1010F4CEA0303C0F86C35C0F80C1518
:10299400C0F814252BD1A368591C0DD01F2B8BBF55
:1029A40003F01F021A463E494FF0A04102F5E072BF
:1029B4004FF0000C41F822C0E1684A1C13D01F29D3
:1029C40087BF374A01F01F0C8C464FF0A0424FF0EE
:1029D400010E0EFA0CFE0CF5E07CC2F808E54FF08F
:1029E400030E42F82CE0C0F80815C0F81035242274
:1029F40002FB08F2B318C3F804902369B350B9F189
:102A0400000F34D04FF48871227FFFF7DBFE286873
:102A14004FF49071FFF7D6FE28684FF49271FFF7D8
:102A2400D1FE28684FF4A271FFF7CCFE2B681D4934
:102A3400C3F80413190B43F30733002BAEBF03F1A0
:102A4400604001F00F0418484FEA4212A8BF00F595
:102A54006140D2B2B4BF025580F8002301F01F01D7
:102A6400012202FA01F15B09104A42F823102B6893
:102A74000822C3F80025242303FB08660023C6E9C3
:102A840006337361012386F820303846BDE8F883A5
:102A94000827FAE71127F8E720080020F9270000A3
:102AA400000300501003020014ED00E000E100E018
:102AB4002DE9F04103680579244C0022C3F8002570
:102AC400242202FB0542014652686AB1204AC3F837
:102AD400082343F30732C3F3043652090120B040FC
:102AE40020321C4E46F82200D3F80C05D3F8148586
:102AF400D3F80865D3F810754FF0FF329042C3F84D
:102B04000C25C3F81425C3F80825C3F8102501D0F3
:102B1400FFF7E2FEB8F1FF3F02D04046FFF7DCFECC
:102B24007A1C02D03846FFF7D7FE731C02D0304619
:102B3400FFF7D2FE0868FFF7C9FB242303FB054413
:102B4400002384F820306360BDE8F0812008002071
:102B54001003020000E100E00279044B242101FB90
:102B640002335869003818BF01207047200800203C
:102B740001F06043B3F1005F2DE9F0470646884653
:102B8400924635D190F80490FFF7E6FF044688BBDF
:102B94001A4F3068242505FB09754FF49071C5F868
:102BA40014A0C5F80880FFF70DFE4FF4AC7130682F
:102BB400FFF708FE33686A69A968C3F84415C3F8C7
:102BC400482501229A606A68B2B9D3F82021D3F863
:102BD40058014AB90028F8D00F20242303FB0977B1
:102BE40000237B61BDE8F087002818BF0F20F4E7BD
:102BF4001020F7E71120F5E72046F3E7200800202E
:102C040010B5C1B20020034621FA03F2C3F1070450
:102C140002F001020133A240082B40EA0200F3D182
:102C240010BD0000F8B5424C00260723C4F80C651B
:102C3400C320C4F80835C4F81065FFF7E1FF054662
:102C4400C220FFF7DDFF0304C12043EA0565FFF757
:102C5400D7FF0746C020FFF7D3FF054345EA072502
:102C6400C4F82455C720FFF7CBFF0546C620FFF75D
:102C7400C7FF0304C42043EA0565FFF7C1FF2843E7
:102C8400C4F828050120FFF7BBFF054640F22310D6
:102C9400FFF7B6FF0304274843EA0565FFF7B0FFD3
:102CA40007462548FFF7ACFF054345EA0725C4F866
:102CB4001C558920FFF7A4FF054648F6AB10FFF723
:102CC4009FFF03041D4843EA0565FFF799FF074684
:102CD4001B48FFF795FF0543012345EA0725C4F880
:102CE4002055C4F82C65C4F83035164BC4F8146567
:102CF400C4F818350223C4F83435D4F8343503F055
:102D04000303022B07D14FF6FF73C4F83C350E4B77
:102D1400C4F83835F8BDD4F8343503F00303012B77
:102D2400F8D1FF23C4F83C3540F20713F0E700BFA5
:102D3400001000404523010067452301CDAB890005
:102D4400EFCDAB8901010401211001000220FEF73F
:102D54005BB800002DE9F04780460D46FEF782F887
:102D64000328044610D8012D10D0022D30D05DB9AF
:102D74001A48FEF79DFC1A4B04EB440213449D7859
:102D8400184B1B5DAB4219D0BDE8F087144E00EB25
:102D94004003F218F55C5378470053B1DFF84C90C8
:102DA4000E484A464FF40041FEF740FC08B989F842
:102DB400008027443E440B4BB2781A55002DE3D0D3
:102DC400094B1B68002BDFD02846BDE8F0471847A5
:102DD40000EB4004024804446578EFE768080020EB
:102DE400A8080020C1080020BC08002044080020D6
:102DF40000780221FFF7AEBF08B5094B1B7853B129
:102E04000020FDF7CFFF0120FDF7CCFFBDE808400F
:102E14000320FDF7C7BFBDE80840FDF7D7BF00BFDB
:102E240045080020F8B57A4C237805461BB10023E9
:102E34002370FFF7E1FF172D00F28780DFE805F02C
:102E44000C1717425364757F878C878C94999999D2
:102E54009999C3C8D0D8E3E3FFF7CEFF6D48FEF7D6
:102E640027FC6D4B002204461A702046F8BD002052
:102E7400FDF770FFF0B10020FDF794FF022D0CBFA9
:102E84004FF4E1644FF47A64634B1D7000254FF4F2
:102E940000464FF4FA7029464FF47A720023E4FB9B
:102EA400060100F0D9FA2A460146BDE8F84059481F
:102EB400FEF7BCBBFDF762FF022D0CBFC8244FF424
:102EC400C874E1E70020FDF745FF40B10020FDF79D
:102ED40069FF4FF44874504B03221A70D6E7FDF78C
:102EE4004DFFC824F7E70020FDF734FF38B1002078
:102EF400FDF758FF4FF47A64474B0422EDE7FDF7E2
:102F04003DFF4FF4C874F7E70020FDF723FF48B1F5
:102F14000020FDF747FF404B05221A7041F69A1135
:102F24000022C2E7FDF72AFFF5E70020FDF76CFF5A
:102F3400394B06221A70002240F6CD41B5E7002035
:102F4400FDF71CFF344B07221A7000248DE7012083
:102F54002070FDF759FFEEE701202070FDF754FFC4
:102F640000224FF48041A0E7FDF73FFF2A4B0C22DB
:102F7400EAE72A482A4EFEF79BFBD5F111050446E1
:102F84001CD0D8B9012D13D0C820454321464FF495
:102F940000474FF4FA704FF47A720023C5FB07011F
:102FA40000F05AFA224601461C48FEF73FFB04464D
:102FB4000220FDF7E3FE0123337056E70220FDF7FC
:102FC400F1FE0023F8E7FFF717FF134B1222BBE7CC
:102FD400FFF712FF0020FDF7D1FE0F4B1322B3E7DA
:102FE400FFF70AFF0120FDF7C9FE0B4B1422ABE7E4
:102FF400FFF702FF0020FDF7C1FE0120FDF7BEFE32
:10300400054B1522A0E7FDF7F0FE034B1D709CE76E
:10301400B808002088080020C008002048080020C4
:1030240045080020044B1B68DB0703D5034B1878C5
:10303400FFF7F8BE704700BFB4080020C0080020A6
:10304400044B1B6813F0010301D0FFF7EBBE1846D5
:10305400704700BFB408002038B51C4B18601C4BE7
:1030640010F00204054619601AD01A4B1A480E22B1
:103074001A700F22DA7010229A7111225A720421E6
:1030840040F26662FDF7D2FF044648B9FEF724F821
:10309400044628B90146114A1148FEF7B5FA044618
:1030A400EB0711D50120FDF7EFFE6CB921460D4A5F
:1030B4000D48FEF7A9FA044630B9BDE838400B4A7A
:1030C4000B480121FEF7A0BA204638BDB408002001
:1030D400BC080020A8080020CC380000F52D000012
:1030E400F038000029300000F4380000512D0000B1
:1030F400EC3800000E38072870B510D80024254697
:1031040001262046FDF79AFE08B106FA04F00134C0
:10311400042C45EA0005F4D1024B1D6070BD002566
:10312400FAE700BFC8080020184B002210B5C3F806
:10313400002101221A60D3F80021002AFBD00022CA
:10314400C3F80C2101229A60104AD2F80C31002BEA
:10315400FBD00820FFF774FF0D4B0E4904460E48C0
:103164001B1ADB081B0443F00300FDF78BFC14B1AE
:103174002046FDF7C7FF054B0022C3F810210122AA
:103184001A61D3F81021002AFBD010BD00100040B2
:1031940020370000F8380000003700004FF080436B
:1031A4000022C3F8002101221A60D3F80021002A6A
:1031B400FBD001220021C3F81825C3F804119A603A
:1031C4004FF08042D2F80431002BFBD0704700004E
:1031D400F8B5FFF7E3FFFEF7E7F908B1FDF792FF53
:1031E4004FF400410020FDF795FA08B1FDF78AFF7E
:1031F400FDF7CAF91A490320FFF72EFF08B1FDF7BE
:1032040081FFFFF70FFD174B174DC3F8045512202C
:10321400FFF716FF154C164B1649E41AE40824046C
:1032240044F0030406462046FDF72CFC12492046D0
:10323400FDF728FC16B13046FDF764FF0F4E00275A
:103244002B683BB1FFF770FF2A6831462046FDF733
:103254001DFC2F60FDF7B8FA0028FBD120BFEFE773
:10326400F930000000100040C8080020203700009A
:10327400003700000C3900002F39000040390000ED
:103284004FF08053D3F83021082A03BFD3F8340118
:10329400B0FA80F0400900207047000008B54FF0F4
:1032A40080430022C3F80C21C3F81021C3F8382549
:1032B4004FF0805203F54043D2F80414C3F82015AC
:1032C400D2F80814C3F82415D2F80C14C3F828153E
:1032D400D2F81014C3F82C15D2F81414C3F830150E
:1032E400D2F81814C3F83415D2F81C14C3F84015D6
:1032F400D2F82014C3F84415D2F82414C3F848159E
:10330400D2F82814C3F84C15D2F82C14C3F850156D
:10331400D2F83014C3F85415D2F83414C3F8601535
:10332400D2F83814C3F86415D2F83C14C3F86815FD
:10333400D2F84014C3F86C15D2F84424C3F87025AD
:10334400FFF79EFF18B13B4B3B4AC3F88C26FFF7AF
:1033540097FF18B1394BFB22C3F81825FFF790FFEC
:1033640070B14FF080414FF08053D1F8E42ED3F880
:10337400583222F00F0203F00F031343C1F8E43E66
:10338400FFF77EFF20B12E4B4FF40072C3F84026A6
:103394004FF08043D3F80024D20744BF6FF00102FA
:1033A400C3F80024274AD2F8883043F47003C2F8E3
:1033B4008830BFF34F8FBFF36F8F4FF01023D3F8D4
:1033C4000022002A03DBD3F80432002B2EDA1E4B32
:1033D4000122C3F80425D3F80024002AFBD04FF0BF
:1033E40010221221C2F80012D3F80024002AFBD0C4
:1033F4004FF010231222C3F80422134BD3F80024F5
:10340400002AFBD00022C3F80425D3F80024002AA4
:10341400FBD0BFF34F8F0B490C4BCA6802F4E06238
:103424001343CB60BFF34F8F00BFFDE7084B094A3E
:103434001A6008BD005000404881030000F00040BD
:103444000090024000ED00E000E001400400FA05B5
:103454001C0000200090D00353EA020C61D02DE937
:10346400F04BB3FA83F51E0007BFB2FA82F502FAF5
:1034740005F403FA05F41646C5F120051EBF22FA29
:1034840005F73C43203556EA044C4FEA144418BF70
:103494000134A3464FF00009C846904271EB030C77
:1034A40039D3094207BFB0FA80F700FA07F6B1FA38
:1034B40081F701FA07F6C7F120071EBF20FA07FCBF
:1034C40046EA0C062037B6FBFBFC7F1B103F07F0D7
:1034D4001F04C4F120060CFA04F42CFA06F644BFC7
:1034E40034460026202FA4BF2646002454EA060CA6
:1034F40008BF012418EB040849EB0609A4FB027C6D
:10350400C01B06FB02CC04FB03CC71EB0C01904204
:1035140071EB030CC5D20B46024649464046BDE852
:10352400F08BB2FBF3F200007F2805D8034B185C44
:10353400034B5B5C184070470020704770390000F3
:10354400F0390000A0F16103192B98BF20387047AF
:10355400A0F14103192B98BF203070477F2805D86C
:10356400034B185C034B5B5C1840704700207047AA
:1035740070390000F0390000A0F16103192B98BFE5
:1035840020387047A0F14103192B98BF20307047B1
:103594007F299ABF017001206FF02E0070475AB145
:1035A4000A787F2A0AD800B10260002119605960A4
:1035B400501A18BF01207047002070476FF02E008A
:1035C4007047000008B5034B5B689B681B6898470D
:1035D40008BD00BF2000002008B50921FFF7F2FF55
:1035E40008BD844640EA010313F0030F18D1844652
:1035F400202A0BD32DE9F007B1E8F807A0E8F80773
:10360400A2F12002202AF7D2BDE8F007042A07D34A
:1036140051F8043B40F8043BA2F10402042AF7D217
:10362400002A05D011F8013B00F8013B013AF9D119
:10363400604670478446002A2DD010F0030F04D052
:1036440000F8011B013A26D0F7E7C9B241EA01218B
:1036540041EA0141202A12D3A2F120022DE9F0030C
:103664000B460C460D460E460F4688468946A0E892
:10367400FA03203AFBD2BDE8F00320320BD0042A2F
:1036840005D340F8041B043A05D0042AF9D200F803
:10369400011B013AFBD16046704700F1010110F0B3
:1036A400030F11D010F8012B002A23D010F0030FC0
:1036B4000AD010F8012B002A1CD010F0030F03D0FD
:1036C40010F8012B002A15D02DE970004FF00132BB
:1036D4004FF0803350F8044BA4EB020525EA0405AF
:1036E4001D4000D1F6E7A0F1040070BC10F8012BD6
:0A36F400002AFBD1A0EB0100704793
:10370000B638000000000000BD38000000000000D6
:10371000C138000000000000C638000000000000B2
:083720009A37000000000303CA
:103728006C3700000000000078370000140000200B
:10373800780000204001002048010020800000207F
:043748001800000065
:10374C00FFFFFFFFFFFFFFFFFFFFFFFFFFFFFFFF7D
:10375C0000000000000000000000D601060100007F
:10376C00F504000059050000A50400007561727491
:10377C005F6C6F675F6261636B656E64004261636F
:10378C006B656E647320666C75736865640061703C
:10379C00700000006C0500207F000000EC0500208C
:1037AC001B5B313B33316D0025734C6F67732064A9
:1037BC00726F70706564202825642925730D0A00CA
:1037CC001B5B306D002573003C25733E2025733A3E
:1037DC002000202530327800202020007C0025633A
:1037EC00001B5B313B33306D001B5B313B33326D67
:1037FC00001B5B313B33336D001B5B313B33346D52
:10380C00001B5B313B33356D001B5B313B33366D3D
:10381C00001B5B313B33376D007761726E696E67ED
:10382C0000696E666F00646562756700CC370000D6
:10383C00ED370000AC370000F5370000FD37000015
:10384C00053800000D380000153800001D38000048
:10385C000000000082380000253800002D380000E0
:10386C00323800000B0C18190D0E0F100C0600202E
:10387C00466174616C206572726F72005379737457
:10388C00656D207265736574000000000000000017
:10389C00000000000338FDD8704730313233343526
:1038AC00363738394142434445464750494F5445D1
:1038BC00005052530055415254005541525445004A
:1038CC000B000300592D00000C000300592D0000C3
:1038DC0018000300592D000019000300592D000099
:1038EC0048080020680800208808002054686520DB
:1038FC007061636B6574207761732073656E7400FF
:10390C00526164696F207472616E736D6974746551
:10391C0072206578616D706C65207374617274656A
:10392C00642E00507265737320416E792042757459
:10393C00746F6E0054686520636F6E74656E74737B
:10394C00206F6620746865207061636B6167652009
:10395C00776173202575000043000000504F5349D8
:10396C00580000002020202020202020206828281B
:10397C00282820202020202020202020202020202B
:10398C0020202020481010101010101010101010B3
:10399C001010101084848484848484848484101093
:1039AC0010101010108181818181810101010101B0
:1039BC0001010101010101010101010101010110DC
:1039CC001010101010828282828282020202020285
:1039DC0002020202020202020202020202020210AD
:1039EC001010102000070320041702010857104084
:1039FC008000000064390000683A00007C3B000045
:103A0C0053756E004D6F6E005475650057656400FC
:103A1C005468750046726900536174000000000020
:103A2C004A616E00466562004D6172004170720021
:103A3C004D6179004A756E004A756C0041756700DE
:103A4C00536570004F6374004E6F760044656300DD
:103A5C0000000000414D00504D000000A03B000054
:103A6C009C3B00009C3B00009C3B00009C3B0000EE
:103A7C009C3B00009C3B00009C3B00009C3B0000DE
:103A8C009C3B0000FFFFFFFFFFFFFFFFFFFFFFFF5F
:103A9C00FFFF0000DC3A00000C3A0000183B00006D
:103AAC002C3A0000603A0000C03A0000703B000065
:103ABC00CC3A0000256D2F25642F257900000000DD
:103ACC0025612025622025652025542025590000DC
:103ADC0053756E646179004D6F6E64617900547535
:103AEC006573646179005765646E65736461790010
:103AFC005468757273646179004672696461790007
:103B0C005361747572646179000000004A616E75CE
:103B1C00617279004665627275617279004D6172ED
:103B2C00636800417072696C004D6179004A756E72
:103B3C0065004A756C79004175677573740053653F
:103B4C007074656D626572004F63746F62657200AC
:103B5C004E6F76656D62657200446563656D626576
:103B6C007200000025483A254D3A2553000000000C
:103B7C002D35000049350000553500006135000039
:103B8C007D3500008935000095350000A335000017
:063B9C00000000002E00F5
:103BA4000000000000200040000000000020004051
:103BB4000000000000000000FF0000000090D0039F
:103BC400003A0000003A0000003A0000003A000009
:043BD400003A0000B3
:040000030000037581
:00000001FF
