:1000000000000120750300005D0300005F03000095
:1000100061030000630300006503000000000000AE
:100020000000000000000000000000006703000066
:1000300069030000000000006B0300006D03000076
:100040006F03000025260000251400006F03000048
:100050006F0300006F0300006F0300006F030000D8
:10006000E5150000F51500006F0300006F030000A8
:100070006F0300006F0300006F0300006F030000B8
:100080006F0300006F0300006F0300006F030000A8
:10009000652900006F0300006F0300006F0300007C
:1000A0006F0300006F030000FD2C00006F030000D1
:1000B0006F0300006F03000000000000000000005C
:1000C0006F0300006F0300006F0300006F03000068
:1000D0006F0300006F0300006F03000000000000CA
:1000E0000000000000000000000000000000000010
:1000F0000000000000000000000000000000000000
:1001000000000000000000000000000000000000EF
:1001100000000000000000000000000000000000DF
:1001200000000000000000000000000000000000CF
:1001300000000000000000000000000000000000BF
:1001400000000000000000000000000000000000AF
:10015000000000000000000000000000000000009F
:10016000000000000000000000000000000000008F
:10017000000000000000000000000000000000007F
:10018000000000000000000000000000000000006F
:10019000000000000000000000000000000000005F
:1001A000000000000000000000000000000000004F
:1001B000000000000000000000000000000000003F
:1001C000000000000000000000000000000000002F
:1001D000000000000000000000000000000000001F
:1001E000000000000000000000000000000000000F
:1001F00000000000000000000000000000000000FF
:10020000354936480A1A02D0072291438D463449AF
:1002100034480A1A06D00722914381F30988022242
:1002200082F3148830483149314A00F044F83148AB
:100230003149324A00F03FF831483249324A00F041
:100240003AF832483249334A00F035F832483349F7
:10025000334A00F030F833483349344A00F02BF881
:1002600033483449344A00F026F8344834490022EF
:1002700000F02CF833483449002200F027F83348C6
:100280003349091A082902DB002202604160314A21
:1002900090471F481F49884205D00268043003B4C4
:1002A000904703BCF7E700208646EC46002000217B
:1002B000294A9047FEE7884207D0521A05D00378B2
:1002C00001300B700131013AF9D17047884202D0F8
:1002D00002700130FAE770470000012000E00020C2
:1002E0000000012000000120143400000000002064
:1002F0003C000020D4030000D4030000922F000033
:10030000143400000000002000000020E02F000056
:10031000E02F0000E02F0000E02F0000E02F0000A1
:10032000E02F0000E02F0000E02F0000123400005A
:10033000503400003C0000203C0000203C00002025
:10034000A41C0020A41C0020A41C0020A41C00202D
:10035000A43C00209D030000AD180000FEE7FEE76E
:10036000FEE7FEE7FEE7FEE7FEE7FEE7FEE7FEE765
:10037000704700BF1048804710484FF0070188437E
:1003800085460F4880470F48016841F470010160BD
:10039000BFF34F8FBFF36F8FFFF732BF0A480B4990
:1003A0000B4A884207D0521A05D0037801300B70EF
:1003B0000131013AF9D170477103000000000120BA
:1003C000091F000088ED00E0E02F00000000002081
:0403D0000000002009
:1003D4007047000007B5044B0093044A402300F023
:1003E40032F803B05DF804FBF50300003D00002083
:1003F4002DE9F84388461446B2B10F4B0F4E03253E
:10040400002743F00109224608EB0701002001F010
:10041400F3FA0744241A48B933782BB14FF47A40DD
:10042400C847013D02D13570BDE8F883012333701C
:10043400002CE8D1F8E700BFE02F00003C000020CA
:10044400704701F023BBF0B595B01D46164608462B
:100454000C4600F0B5FF1A9B0D93CDE90865002505
:100464002B46082205A920460A958DF82C500C9598
:1004740000F0C2FF079B0293069B03939DF8143080
:100484008DF8115003F00302012A1DD1BDF8142088
:10049400059DC3F3C203C2F383168DF81030B20076
:1004A40008230EA9204600F0A7FFC5F3952508AB45
:1004B4000093324602AB0EA9284600F03DFB2046CD
:1004C40000F082FF15B0F0BD022AF8D1BDF8165035
:1004D400C3F3C203C5F389158DF810300827082D1E
:1004E4002E4628BF08263B4632460EA9204600F079
:1004F40083FFAD1B08AB02AA31460EA8374400F0B7
:100504007FFB002DEBD1DAE708B5FFF79AFF04482B
:10051400042100F07BFA034B01225A7108BD00BF8D
:10052400BC2F000000000020037813F0040216D052
:1005340003F00303012B03D0022B09D001207047E1
:100544000A6800880232C0F3831002440A60F5E7A7
:100554000B684288023303EB92130B60EEE71046FC
:10056400704700002DE9F04FDFF824A10F4685B055
:100574000446861C0020154600F032FCDAF8001010
:100584003960DAE90132134401335B1A0AF21C4779
:100594000AF583690AF21448B3421BD30020002DE4
:1005A40072D004F00F039B0143F0050363F30F00C3
:1005B400DAF80020DAF808301340033332444AF8FA
:1005C40023000020CAF8002000F00CFC012005B034
:1005D400BDE8F08F0121384600F029FC484600F0C0
:1005E4003EFC404600F03BFCDAF80400DAF808B0C0
:1005F400009000EA0B0003300AEB80006946FFF725
:1006040093FF009B50BB0BEA03020AEB820203F147
:10061400020CD2680192013303EA0B0B0AEB8B0B39
:1006240002F00302012ADBF80C10CDF800C023D03D
:10063400022A16D08346404600F014FC10B1009BF9
:10064400CAF804305946384600F0F1FBDAE90123D0
:100654001344DAF8002001339B1A9DE70BEA0300E8
:10066400C9E7BDF80630C3F3891303334FEA114BCE
:100674000CEB93030093DEE7BDF80430C3F383135C
:100684004FEA114B6344F5E7A40544F006008FE7F5
:10069400500100200B4B0C48FF2210B59A60002239
:1006A400C3F81824C3E90022C3F8142483F82024CF
:1006B40000F03FFE044610B9044800F0A7FE2046AF
:1006C40010BD00BF50010020CC2F00001C300000E2
:1006D40030B50A4C71B10A4A0A49121BD2080023E8
:1006E4009A4201D1002030BD31F82350854202D016
:1006F4000133F5E7034654F83300F4E7942F000080
:10070400BC2F000000000020094B013903EBC0009E
:10071400032909D8DFE801F00A020406042070471F
:100724000079704740797047002070470220704775
:10073400942F0000034BD3E90030C31A58425841A8
:10074400704700BF500100202DE9F04385B0FFF74A
:10075400F1FF0646002840F0FA807E4CC4F81804E5
:10076400BFF34F8F6368A56800932B40033304EBFA
:1007740083006946FFF7D8FE009B18B1D4F818240B
:10078400002A62D005EA0302991C013304EB8202B9
:100794002B4004EB8303D268DB68029302F003036B
:1007A400022B0192009163D1BDF806306A48C3F36D
:1007B4008917502FB84628BF4FF0500808F1080198
:1007C40068F38F13C1F30901ADF8063000F0C9FDD9
:1007D4000646002800F0A68000F0F2FD002308225F
:1007E40001A9304600F0FEFD009925EA010201321C
:1007F400B8EB820F4FEA820333D95FFA88F863B308
:100804002940DDB2A8EB050803315FFA88F9A84650
:10081400524D04EB810108234246304600F0E2FDCC
:100824003DB108F10803DBB24A462946304600F0E0
:10083400D9FD009B033703EB97070097D4F81834CE
:10084400002B4BD1D4F810545BE022689A428CD828
:100854006260304605B0BDE8F08340491D469946C4
:10086400D9E7294003310823424604EB8101DDE73F
:10087400012B57D1BDF804303748C3F3831106293F
:1008840028BF062161F38913023101F00F018900A9
:10089400ADF8043000F065FD0646002842D000F0B3
:1008A4008FFD0023082201A9304600F09BFD00279C
:1008B400BDF80420C2F38312BB00974203F108037E
:1008C400BCD200994A1C29400331009204EB8101F7
:1008D4000422304600F086FD0137E9E7304600F097
:1008E40073FDFFF727FF80F00100C6B2B1E7EB68A4
:1008F4005B7923B12B6831461B6828469847EB681F
:100904001D68002DF3D1304600F05EFD284600F04E
:1009140067FAD4F818340BB9009B6360002000F028
:1009240061FADEE7D4F8104454B90D4B0D480E4972
:10093400C01AC008000440F0020000F063F8D0E7D9
:10094400236820469B689847E3681C68ECE7002608
:100954007FE700BF50010020CC2F00005C01002085
:10096400942F0000B42F0000043000002DE9F74F4D
:10097400224E04460F46924601A901221846D6F893
:1009840008909B46FFF7EEFD20B3019D4FF0000851
:10099400AA1CD84508EB020126D11948002100F011
:1009A40023FA80F31000000440EA1440E4006B1CB6
:1009B40004F0380403EA090305EA090544F00104D4
:1009C40006EB8303033544EA881444EA8724D86099
:1009D40046F8254096F820341BB1FFF7B5FE0028F1
:1009E400FBD103B0BDE8F08F09EA010106EB8101F8
:1009F4005AF82830CB6008F10108CAE750010020FA
:100A04006C05002000231A46FFF7B0BF30B50F4C29
:100A1400D4F8102403460020114631B9D96808716E
:100A24004AB9C4F810340A6030BDC9680D798542EA
:100A340006D00968F1E7D26814680C601360F3E724
:100A440001300A28E8D14FF0FF30EDE750010020D3
:100A540038B5084B0125D3F8104483F8205404B961
:100A640038BDE3685D71236820465B689847E36896
:100A74001C68F4E75001002030B5C38885B00446F3
:100A84000D4633B1144A00921449154A284600F021
:100A940043FA217A05291DD0637A4BB1A088FFF768
:100AA40033FE104B104953F82020284600F034FA46
:100AB400227A0E4BA08853F8222003920021FFF7DC
:100AC40007FE039A0A490346284605B0BDE83040AC
:100AD40000F022BA05B030BD4830000030300000CC
:100AE40028300000B43000004D300000D830000041
:100AF4005030000007B503460846197A052911D07D
:100B04005B7A2BB1094A0A49019000F005FA019871
:100B14000849019000F000FA019803B05DF804EB75
:100B240000F0EFB9002AF8D0F2E700BF4830000027
:100B34004D300000453000002DE9F04385B01F46DC
:100B44000C9D002395F80C902B7306460C4690469A
:100B540029463846FFF790FFB8F1060F09D8DFE8B9
:100B640008F00412181F283340003146284600F0CC
:100B7400D3F9002229463846FFF7BCFF85F80C90CC
:100B840005B0BDE8F08322683146284600F0C4F978
:100B9400EFE7D4E900233146284600F0BDF9E8E741
:100BA400A36800933146D4E90023284600F0B4F941
:100BB400DFE7E3680193A36800933146D4E9002397
:100BC400284600F0A9F9D4E723690293E368019366
:100BD400A36800933146D4E90023284600F09CF929
:100BE400C7E76369039323690293E3680193A368E6
:100BF40000933146D4E90023284600F08DF9B8E784
:100C040008292DE9F74F80460E4617461C463DD865
:100C140000251B7B2573214610460193FFF72CFF0B
:100C2400DFF88CA0DFF88CB0AE4232D918F805207A
:100C34005946204600F070F90135082DF4D11B49BE
:100C4400DFF874A0DFF874B0204600F065F94FF0C7
:100C540000094E4524D918F809507E2D1ED828467F
:100C640002F0E2F8002814BF2A462E2259462046F4
:100C740000F052F909F10109B9F1080FE9D1012293
:100C840021463846FFF736FF019B237303B0BDE8C6
:100C9400F08F5146204600F03FF9CDE72E22E5E7DC
:100CA4005146204600F038F9E4E700BF6430000004
:100CB400603000005A3000006230000066300000EE
:100CC400044B1A5C012393404FF0A042C2F808354C
:100CD400704700BFEC30000008B50020FFF7F0FFBC
:100CE4000120FFF7EDFF0220FFF7EAFFBDE808400F
:100CF4000320FFF7E5BFC20708B501460CD54FF046
:100D0400A0430322C3F84427C3F84827C3F84C2759
:100D1400C3F85027FFF7E0FF8B070AD54FF0A04335
:100D24000C22C3F83427C3F83827C3F83C27C3F888
:100D3400402708BD1FB50021039001AA44F2010019
:100D4400CDE9011100F004F805B05DF804FB0000E2
:100D540038B572B6FFF77CFEFFF7F6FC0028FBD12E
:100D6400104B114C114D1249E41AE408240444F0C8
:100D74000100FFF747FED5F8F030DB0700D500BED1
:100D84000C4944F00200FFF73DFEBFF34F8FEA68C1
:100D9400094B02F4E0621343EB60BFF34F8F00BFD3
:100DA400FDE700BF942F0000B42F000000ED00E029
:100DB400F0300000FC3000000400FA0572B6024A6C
:100DC40013680133136070470C060020034A13684C
:100DD400013B136003B962B6704700BF0C060020E4
:100DE400FFF7ECBFFFF7F2BF10B5034653E8000F5F
:100DF4000A4643E8002494F0000FF7D110BD10B563
:100E0400034653E8002F42EA010043E8000494F04B
:100E1400000FF6D110BD10B5034653E8000F00EAE9
:100E2400010243E8002494F0000FF6D110BD10B580
:100E3400034653E8002F02EB010043E8000494F05A
:100E4400000FF6D110BD10B5034653E8002FA2EBF6
:100E5400010043E8000494F0000FF6D110BD012115
:100E6400FFF7CDBF0021FFF7D6BF10B590B1D0E991
:100E7400012301689B1ADBB20A60013BDBB2FF2B42
:100E8400026802D10020107110BD11684C1C14605E
:100E94000B70F2E70E20F7E738B504460020FFF7A1
:100EA4009FFF226863681168994213D9481E106035
:100EB40011F8013CE568218A01FB0355A368117907
:100EC4001B1ADBB2994200D213710020FFF78AFF8C
:100ED400284638BD0025F8E738B5054600200C46FD
:100EE400FFF77EFF2A681368591C1160E968641AC9
:100EF400298AB4FBF1F41C70BDE838400020FFF7E8
:100F040071BF826810B504462AB14369016800695B
:100F140098470023A36010BD0EB403B5039921B113
:100F240004AB01AA019300F077F802B05DF804EB7A
:100F340003B070470A2938B504460D4602D10D2185
:100F4400FFF7F8FFA3682268591CA160D554D4E9BF
:100F540001329A4204D32046BDE83840FFF7D1BF9E
:100F640038BD00002DE9F84F9846DDE90A431546DF
:100F740082460F460A464FF00109AA420FD2C145E4
:100F840038BFC14613F0010B01D16CB9002401260E
:100F9400B8F1010F1BD908F1FF386E43F8E709F1E6
:100FA4000109B2FBF5F2E8E79B070ED5B8F1000F93
:100FB4000CBF30262026A145E9D2013C31465046DB
:100FC400FFF7B8FF002CF6D1E0E72026F3E7B7FBE4
:100FD400F6F39D42E1D9DFF83C80B7FBF6F35046C7
:100FE40018F8031006FB1377FFF7A4FF3346AB4250
:100FF400B6FBF5F6F1D2BBF1000F02D00CB1A1455E
:1010040001D3BDE8F88F20215046013CFFF792FF41
:10101400F4E700BF093100002DE9F74F05461746F4
:101024008846002900F03E8118F8011B49B92B7B42
:10103400002B00F03781284603B0BDE8F04FFFF7DE
:1010440060BF252940F0B780002698F800302D2B8A
:10105400424608F1010823D0302B24D02B2B25D075
:1010640000242A2B02F1010123D13B681A1D1B68BD
:101074003A601C440A4613782E2B26D101324FF0D5
:10108400000A104610F8011BA1F1300CBCF1090F45
:101094001DD80A2303FB0A13A3F1300A0246F0E722
:1010A40046F00106D1E746F00206CEE746F0040614
:1010B400CBE711F8013CA3F130000928DBD80A2260
:1010C40002FB0434303C0A46CBE74FF0000A12F826
:1010D400011B01F0FB0068289046F8D0782909D854
:1010E4006F290CD8632962D022D8252963D05829C6
:1010F40000F0888098F80030002B95D197E770397C
:101104000829F7D801A353F821F000BF8312000087
:10111400F9100000F910000019120000F910000085
:10112400F7110000F9100000F91000000912000086
:10113400642901D06929DDD13A68D2F80090111DE3
:1011440089EAE9723960A2EBE9724FF0010B092ACE
:1011540035DCD34538BFD3462CB1B9F1000F01DBE0
:10116400720700D5013CB30702D5BAF1000F03D0D2
:10117400F00701D44CBB0024B9F1000F2DDAC9F1FA
:1011840000092D212846FFF7D5FE06F00302022AA6
:1011940004D1BAF1000F01D11CBB0024CDE90046F3
:1011A40053460A2249462846FFF7DCFEA2E73B687D
:1011B4001A1D19783A602846FFF7BCFE9AE70A23FD
:1011C4000BF1010BB2FBF3F2C1E7A345D4D220210A
:1011D4002846013CFFF7AEFECCE77107D5D52B219D
:1011E400D0E7A345DAD230212846013CFFF7A2FE1E
:1011F400D2E73968CDE900460A1D3A6053460A220F
:101204000968D0E739680A1D3A60CDE900465346BB
:101214001022F5E73B681A1D3A6016F00106D3F870
:10122400009024D1B9F1000F03D0484601F07FFEAD
:101234000646B4421DD809F1FF3919F8011F0029E7
:101244003FF458AF2846FFF775FEF6E72846013607
:10125400FFF770FE19F806100029F7D1A642BFF473
:1012640049AF20212846013CFFF764FEF6E700263B
:10127400F0E720212846013CFFF75CFED9E73B68F4
:101284001A1D3A60302128461C68FFF753FE782166
:101294002846FFF74FFE00220823CDE900322146FD
:1012A400102280E703B0BDE8F08F00BF2DE9F84FAE
:1012B400B0F806A04579D2F800B09DF828900AFB52
:1012C40005F5043D88460BEB0301A94203F1040430
:1012D40088BFA5EB030BB4FBFAF607460AFB1644DA
:1012E400C2F800B04EB9AAEB04055D4528BF5D46BF
:1012F400BBF1000F04D1BDE8F88F3F68013EF1E770
:10130400043408EB06003C442A46B9F1000F0DD022
:101314002146ABEB050B01F08CFDDA452E443F680A
:1013240055464FF0000428BF5D46E1E701462046DC
:10133400EFE7FFF79ABDF8B546790146721E0546F8
:10134400002393422D6803D30024A64202D8F8BD9B
:101354000133F6E70F682846FFF7BEFD013439462E
:10136400F3E72DE9F843068ACD1C0746FFF794FD01
:10137400043E35440446B5FBF6F5F0B14FF48073F2
:10138400EDB28380C680013D076081464FF00008BE
:10139400A84512D23846FFF77FFD064648B1637967
:1013A4000133637108F10108C9F800000760814640
:1013B400EEE72046FFF7BFFF34462046BDE8F8833A
:1013C40001210430FFF733BD10B501210446043078
:1013D400FFF739FDC0B220B92046BDE81040FFF741
:1013E400AABF10BD1FB503920022009203AAFFF703
:1013F4005DFF05B05DF804FB1FB503920122009266
:1014040003AAFFF753FF05B05DF804FB83680022CD
:101414005A60C3E904229A60DA601A6070470000D7
:10142400014B1B68184700BF100600202DE9F74345
:10143400002406460F4600F5A0754FF48038A146F7
:10144400A30003F5A07398B22B686BB1D6F80433EC
:1014540008FA04F21A4207D0C5F800902B680193E9
:10146400019BD7E9003198470134042C05F10405A8
:10147400E6D103B0BDE8F083F7B506792F4D0C2310
:101484007343EF183C7A002C56D1EA504B687B60CA
:10149400477903682246D0B2874244D843F30734DD
:1014A400C878002CA8BF04F16047C3F30732BABF61
:1014B400234F02F00F0C07F561474FEA4010C0B20A
:1014C400B4BF07F80C0087F80003640901201D4F1E
:1014D40002F01F0200FA02F247F82420D3F8044570
:1014E4004A7824F0030402F003022243C3F80425DB
:1014F400D3F808458A7824F0030402F00302224357
:10150400C3F808250A78D3F8104502F00F0224F036
:101514000F010A43C3F810250C2303FB0655287258
:10152400002003B0F0BD900000F5A07001321C5003
:10153400185801900198AEE70820F2E71806002039
:1015440014ED00E000E100E0036801221A60027972
:10155400034B0C2101FB023302221A72704700BFB5
:1015640018060020036801221A610179024B0C203D
:1015740000FB01331A727047180600200368012229
:10158400DA60704737B54FF4803400688C407BB123
:1015940001F150039B000025C550C3580193019BE2
:1015A400C0F8044301F5A87140F8212003B030BD10
:1015B400C0F80843F6E770B4046840F20116D4F8A2
:1015C40000528E4025EA0605C4F80052D4F80052B1
:1015D4002B43C4F800329DF80C3070BCFFF7D2BF27
:1015E40001490248FFF722BF18060020008000408E
:1015F40001490248FFF71ABF24060020009000406A
:10160400B0F5A07F08B514D101F05EFA094B1A7841
:101614000132D2B21A701A78012A84BF00221A70D9
:101624001B78054AD05C01F053FBBDE8084001F08B
:1016340005BA08BD3006002008000020B0F5A07FE0
:1016440038B50AD1054D064C2A680649236800209E
:1016540000F01AFC00232B60236038BD3C060020F8
:10166400340600202E31000013B50378012B15D069
:10167400022B15D083B94FF0A042D2F80435D943D8
:1016840001F0006103F00063C2F80815C2F80C35DC
:10169400254A13680133136002B010BD234AF8E7EA
:1016A4004FF0A0422248D2F80435224CD94301F02D
:1016B400400103F04003C2F80815C2F80C35FFF7E7
:1016C40051FF1B48FFF75AFF01231B4A009312687E
:1016D40017480021FFF76FFF1548FFF735FF204635
:1016E40001F074F90028D7D1144A94F82310136830
:1016F40001331360124B1A788A42124A1FBF1970C1
:10170400114B1070187013780133DBB2012B137076
:10171400C2D90D4A1378002BBED10C490B68013392
:101724000B6001231370B7E7480700204C07002023
:10173400A031000040060020440700203C060020A1
:10174400390600203A06002038060020340600201E
:101754004FF080430022C3F8002101221A60D3F81D
:101764000021002AFBD070470120FFF7C4BA000013
:1017740030B54FF0E7328BB04FF0C233CDE90023E0
:10178400144A154D1068516802AB03C31C460FCDB3
:101794000FC495E80300322384E803000F4A8DF850
:1017A400233004A801238DF8113005928DF82430DC
:1017B40000F0B4FF60B9684601F0ACF940B901A883
:1017C40001F0DEF920B908210DEB010001F02EFA39
:1017D4000BB030BD46310000803100006D160000B2
:1017E4001FB5104A92E8030002AB83E803000E4AD7
:1017F4000E481946FFF740FE08B1FFF79BFA0C4B61
:101804000C49D3F8102509480123D2B221FA02F277
:1018140000930021FFF7CFFE0448FFF795FE05B0C3
:101824005DF804FB9831000041160000A831000067
:10183400008000400024F40007B50E4A92E803003B
:101844006B46042283E803008DF803200A480B4A00
:101854001946FFF711FE08B1FFF76CFA084BD3F8ED
:1018640010254FF4C863D2B2D340064A136003B0C4
:101874005DF804FB98310000A0310000051600005B
:1018840000900040440700204FF0A0430322C3F817
:101894001827C3F86C274022C3F808254FF00062CC
:1018A400C3F808257047000008B5FFF75DFF002165
:1018B4000846FEF7EFFE08B1FFF73CFAFEF724FEF8
:1018C400FFF7E2FFFFF744FFFFF752FF08B1FFF70E
:1018D40031FA0949002000F0D7FAFFF781FFFFF73A
:1018E400ABFF01F0ABF808B1FFF724FAFEF72CFFC9
:1018F4000028FBD120BFF9E74F3100000369C2681B
:1019040093429CBF80681B18013B981A70472DE9CD
:10191400F843D0E902940546A9EB040840689045D1
:1019240020440F46144404D901F083FAEC60BDE866
:10193400F8834246A4EB090401F07BFA6868224666
:1019440007EB0801F0E72DE9F843C5680646894628
:1019540017464FF000083469B3687068A54228BF81
:10196400E418013C621B5C1BBC4228BF3C46944209
:1019740028BF144649462844224601F05AFAB3685F
:101984002544AB4208BF00253F1BA044A144F56099
:10199400E1D14046BDE8F88310B5114C114AA2616B
:1019A4000223C4E90433104BE361A2644FF40073CF
:1019B4000E4A0F492362E26400231022E01DA36251
:1019C4006362E362A3656365E365226501F08DFAF2
:1019D4000849204601F089FA2023A37110BD00BFF5
:1019E40050070020B0310000D8070020C8070020AD
:1019F400B9310000BD31000070B5164B182400FB4E
:101A040004451D4404FB00331646DC6A012C0ED049
:101A1400022C18D0E4B92846FFF770FF864204D898
:101A240032462846FFF773FF3446204670BD2846E9
:101A3400FFF764FF8642344628BF04462246284600
:101A4400FFF765FFF1E72846BDE87040FFF77BBF6D
:101A54000024EAE75007002070B50B4B1B780446BE
:101A64000D4616460BB9FFF797FF0020FFF7B8F9AC
:101A7400324629462046FFF7BFFF04460020FFF701
:101A8400B1F9204670BD00BF50070020FFF784BFA6
:101A9400826810B504464068531C834205D8206808
:101AA4008154A360E3680133E360D4E901329A42CC
:101AB4000BD121682069FFF7CFFFA368984215BFB7
:101AC4004FF0FF330023E360A36010BD2DE9F84F0E
:101AD4009946DDE90A431646054688460A464FF00C
:101AE400010AB24212D2CA4538BFCA4613F0010BEA
:101AF40001D184B90024EB68002B48DB0127B9F13C
:101B0400010F1FD909F1FF397743F8E70AF1010AF8
:101B1400B2FBF6F2E5E79B0712D5B9F1000F0CBF53
:101B240030272027A245E6D239462846FFF7B0FFE2
:101B3400EB68002B04F1FF34DDDB002CF2D1D9E794
:101B44002027EFE7B8FBF7F39E42DDD9DFF8489092
:101B5400B8FBF7F3284619F8031007FB1388FFF7BF
:101B640097FFEB68002B03DBB7FBF6F3B74210D209
:101B7400BBF1000F0BD054B1A24508D22021284656
:101B8400FFF786FFEB68002B04F1FF34F3DABDE8BE
:101B9400F88F1F46DCE700BFC43100002DE9F7438E
:101BA400DDF82880174681EAE1720E461C46A2EB56
:101BB400E172054601230A21092A35DCBB4238BFFC
:101BC4003B4699462CB1002E02DB18F0040F00D0DE
:101BD400013C18F0020F00D027B118F0010F01D119
:101BE40034BB0024EB68002B1BDB002E2CDA76427E
:101BF4002D212846FFF74CFFEB68002B11DB08F082
:101C04000303022B02D10FB91CBB0024EB68002B89
:101C140007DBCDE900483B460A2231462846FFF758
:101C240055FF03B0BDE8F0830133B2FBF1F2C3E723
:101C3400A145D7D220212846FFF72AFFEB68002BC5
:101C440004F1FF34CCDACDE718F0040FD4D02B2103
:101C5400CFE7A145DAD230212846FFF719FFEB6818
:101C6400002B04F1FF34CFDAD0E700002DE9F04770
:101C74002DED028B00239AB00D464021CDE90613C9
:101C8400CDE908300DF12809DFED7E8ACDF81490F6
:101C9400804614464FF00A0A15F8011B49B9089BFF
:101CA400002B00F3E38008981AB0BDEC028BBDE86A
:101CB400F087252940F0AA80002607E0302B0FD1B9
:101CC40046F0020601E046F0010615462A4612F8DF
:101CD400013B2D2BF7D0F1D8232B11D02B2B0CD07B
:101CE40000272A4612F8013BA3F1300109290AD83A
:101CF4000AFB0737303F1546F3E746F00406E4E7EE
:101D040046F00806E1E72E2B0DD1154600222946A0
:101D140011F8013BA3F13000092805D80AFB02326F
:101D2400303A0D46F3E700222B4613F8011B01F06D
:101D3400FB0068281D46F8D0662931D015D85829EB
:101D440074D007D8252961D0462929D0089B002BB7
:101D5400A2DAA4E7632955D06429F7D12168009653
:101D64000B1D236009683B4648E07039CBB2082B51
:101D7400ECD80829EAD801A353F821F0611E000029
:101D8400511D0000511D0000411E0000511D0000A6
:101D9400191E0000511D0000511D0000311E0000DD
:101DA40023680392073323F0070303F1080121603A
:101DB400D3E9000100F0B6FF08EE100AFDEEC87A80
:101DC400039A009617EE901A3B4605A8FFF7E6FE25
:101DD4002E2105A8FFF75CFE28EE288A42F2107136
:101DE400BDEEC88A009618EE100A0028B8BF40421B
:101DF4003B46B0FBF1FC042201FB1C0105A8FFF7E4
:101E0400CDFEA3E723681A1D1978226005A8FFF701
:101E14003FFE9BE72168CDE900760B1D2360134646
:101E24000A22096805A8FFF751FE8FE72168CDE96A
:101E340000760B1D236013461022F2E723681A1D57
:101E440022601E6816F8011B00293FF47FAF05A825
:101E5400FFF71EFE089B002BF4DA77E721680B1DC1
:101E6400236000220823CDE90032E5E7079A1AB17E
:101E740049464046FFF7F0FDDDE907231344089384
:101E840011E700BF00401C460EB403B503AB01AA22
:101E940053F8041B0193FFF7E9FE02B05DF804EB6D
:101EA40003B070474FF0704393F8E02F062A10D127
:101EB400D3F8E42F12070CD1D3F8E80F00F0F003A5
:101EC400302B08D000F0E000A0F140035842584104
:101ED400704700207047012070474FF0704393F81B
:101EE400E02F062A0CD1D3F8E42F120708D1D3F837
:101EF400E80F00F0F000A0F1300358425841704759
:101F04000020704708B5FFF7CDFF40B14FF0805374
:101F1400884AD3F82433C3F30423C2F84035FFF7C7
:101F2400DCFF10B1844B854A5A67FFF7BBFF48B109
:101F34004FF080534FF08042D3F84432C3F342331E
:101F4400C2F83C35FFF7C9FF30B17D4AD2F8FC3006
:101F540023F08073C2F8FC30FFF7A4FF40B14FF0C8
:101F640080430022C3F80C21C3F81021C3F838259C
:101F7400FFF7B3FF20B14FF080430322C3F8A0253D
:101F8400FFF7ABFF60B16F4B0522C3F810260122A7
:101F9400C3F888260022C3F818263F22C3F8142663
:101FA4004FF0704393F8E02F062A50D1D3F8E42F72
:101FB40011074CD1D3F8E83F03F0F003502B46D17E
:101FC4004FF08052604BD2F80414C3F82015D2F8B5
:101FD4000814C3F82415D2F80C14C3F82815D2F841
:101FE4001014C3F82C15D2F81414C3F83015D2F811
:101FF4001814C3F83415D2F81C14C3F84015D2F8D9
:102004002014C3F84415D2F82414C3F84815D2F8A0
:102014002814C3F84C15D2F82C14C3F85015D2F870
:102024003014C3F85415D2F83414C3F86015D2F838
:102034003814C3F86415D2F83C14C3F86815D2F800
:102044004014C3F86C15D2F84424C3F87025FFF784
:1020540029FF48B14FF080534FF08042D3F85832F3
:1020640003F04F03C2F8E43EFFF71CFF48B14FF002
:102074008043D3F80024D20744BF6FF00102C3F8B1
:1020840000244FF08053D3F83021062A0AD1D3F824
:102094003431062B01BF2D4AD2F83C3743F4806318
:1020A400C2F83C37264AD2F8883043F47003C2F8A9
:1020B4008830BFF34F8FBFF36F8F4FF01023D3F8E7
:1020C4000022002A03DBD3F80432002B2EDA204B43
:1020D4000122C3F80425D3F80024002AFBD04FF0D2
:1020E40010221521C2F80012D3F80024002AFBD0D4
:1020F4004FF010231522C3F80422154BD3F8002403
:10210400002AFBD00022C3F80425D3F80024002AB7
:10211400FBD0BFF34F8F0A490E4BCA6802F4E0624A
:102124001343CB60BFF34F8F00BFFDE70A4B0B4A4D
:102134001A6008BD0030014000C007400DF0ADBA80
:1021440000ED00E00050004000C0004000100040DE
:1021540000E001400400FA050C0000200090D003C8
:102164000649074BC1F81435064B5B7C5A1E064BD7
:1021740043EA0243C1F81835704700BF001000401D
:102184000800030010000020FC000001074A084B6F
:10219400C2F81435074B5B7C013B40EA034343EA36
:1021A400002040F08070C2F818057047001000400D
:1021B40000010100100000200A4B0B4A1B7AC2F8F0
:1021C4001035042B0CD8DFE803F008030B080300D8
:1021D400064B30221A6001207047044B4922F9E76C
:1021E40000207047D809002000100040941C0020F3
:1021F400044A0023C2E908339362034AC2E908335C
:1022040093627047601300200C0A002038B5104D0B
:10221400104C2B68C4F800320F4A104BD07C1B685A
:1022240098470F4BC4F804350023C4F81031012338
:102234002361D4F81031002BFBD00023C4F81031F3
:102244002B6843F00403C4F800320123636038BDF3
:102254002400002000100040D8090020A01C002009
:10226400401200200B4B0C4A1B6810B50B4C43F07A
:102274000403C4F800320A4BD07C1B689847094B0E
:10228400C4F80435084B094A1A60094B04221A7031
:1022940010BD00BF24000020D80900200010004019
:1022A400A01C0020401200209C1C0020612400007F
:1022B400000A00204FF08053F0B5D3F8043103F442
:1022C4007F43B3F5844F10D1304AD2F8503623F00F
:1022D4000103C2F85036D2F8743723F0807323F028
:1022E400010343F08073C2F874374FF08053D3F87E
:1022F400043103F47F43B3F58A4F44D1244B254A78
:102304005B7C052B214BD3F81C15D3F8200518BF93
:102314004FF07F4211400240914234D1D3F824253A
:10232400D3F82465D3F82455D3F824C5D3F8284525
:10233400D3F82805D3F82815D3F82875D2B2C6F3F4
:1023440007239A4214D0C5F307439A4210D0B2EB44
:102354001C6F0DD0E3B29A420AD0C0F307239A420D
:1023640006D0C1F307439A4202D0B2EB176F0AD1E9
:10237400064AD2F8743723F0807323F0010343F044
:102384008073C2F874370020F0BD00BF0010004015
:10239400100000200000FFFF07498B6893FAA3F3A5
:1023A400064A1BBAC2F82435CB6893FAA3F31BBAC6
:1023B400C2F82835704700BF10000020001000400C
:1023C4002DE9F843204BDFF890901A78012A8046D3
:1023D4000F4609D199F80030FC2B32D81B4A116AF8
:1023E40052F82120137006E0184A116A52F821208D
:1023F400597821BB1170154C1549256A54F825608C
:102404003046013510F8052B00F013FD114B86F80A
:102414000180D3F84835B37099F801303771DB4344
:1024240003F00103072DF37084BF00232362A36A22
:1024340098BF25620133A3620120BDE8F883DB7CE9
:10244400D0E70020F9E700BFD80900200C0A0020DB
:10245400421200200010004040120020604AD2F8CE
:1024640000342DE9F0471BB9BDE8F047FFF7CEBEB5
:10247400DFF8A481D8F82830072BF5D8D2F808342F
:10248400584C594FD2F80C0434F823207E789042EB
:102494004FEA56014FEA830533D1621992788A4292
:1024A4000BBF4FF000094FF001090122002260190F
:1024B40081704B48D0F80C1424F823104B490B7D41
:1024C4001BB3F30721D4FFF7A1FEB9F1000F16D017
:1024D400434BD3F80804D8F82830072B0FD82C44E2
:1024E400C0B2A178FFF76CFF48B1414A136843F0CA
:1024F400040313603F4B4FF48012C3F80021BDE87E
:10250400F0874FF001090022D1E73B4B3B4E1B689B
:1025140043F00803C0F8003291F800A0BAF1000FAC
:1025240055D0BAF1010F38D1354BDFF8E8E0D3F8D4
:1025340028C0BCF1000F3ED0596AD0F808A453F863
:1025440021004078504536D16019C07868B162B92D
:102554000131072998BF0A4625495A620CF1FF3216
:102564009A620A6842F001020A6062190121D1707C
:102574005A6ADFF8A8A053F82230DEF80020187851
:10258400CAF800309047DAF800101E4811F8052BFD
:10259400327000F04EFC7B7873701B4B05221A706E
:1025A4000F4BD3F80824C3F82C25C3F80465174B44
:1025B400174A1A6089E763194FF0000A83F803A0E9
:1025C4005046DEF80030984786F800A0E3E7114B48
:1025D40050461B6898473B78337086F801A0DCE7C7
:1025E400001000403E13002040120020D8090020B3
:1025F400F809002000E100E024000020941B0020E2
:1026040060130020961B0020000A00209C1C002060
:1026140069220000A01C00200C0A0020981C002045
:1026240008B5254BD3F8002162B1D3F80423D007B1
:1026340008D50022C3F800214FF0A0434FF4805284
:10264400C3F808251C4BD3F80C2162B1D3F804233A
:10265400110708D50022C3F80C214FF0A0434FF412
:102664000052C3F80825144BD3F8102182B1D3F8D3
:102674000423D2060CD50022C3F810214FF0A04346
:102684004FF48042C3F808250C4B1B6803B19847EC
:102694004FF0A0434FF48052C3F80C254FF400527E
:1026A400C3F80C254FF48042C3F80C254FF40042C4
:1026B400C3F80C2508BD00BF001000409C1C00207E
:1026C4000F4B10484FF4705210B5C3F808250E4B49
:1026D40000241C700D4B21461C70FFF789FD20223D
:1026E40000F0D0FB0A4B1C605C600A4B4FF4801274
:1026F400C3F88020084B0322C3F80022204610BDF3
:1027040000F001403E130020000A0020F0090020E0
:10271400010A002000E100E0001000402DE9F04132
:102724000446002800F0EB80774D2B78002B40F016
:10273400C4804FF0A0430322C3F83027C3F83427E2
:10274400C3F83827C3F83C27704B62681A60704A94
:10275400234604F11807144618685968164603C638
:102764000833BB423246F7D100266A4B6A481E60E2
:102774002022314600F086FB684BA27A1E605E6020
:10278400674BC3F80C25FFF717FD2178654A074608
:10279400002900F09D80012900F09680637A012BC6
:1027A40000F0A680022B00F09580002B00F09A80A8
:1027B4004FF000081368E07C9847A389862B94BFE8
:1027C400002007F00100064200F09B80B8F1000FE2
:1027D40000F09780524B54494FF0E732C3F81C2560
:1027E4004FF04332C3F82025504AC3F82425504AF9
:1027F400C3F82825FFF7FCFC4E4A00230133082BBD
:1028040041F8042B02F20112F8D14B4A4B49002340
:102814000133082B41F8042B02F20112F8D1484A83
:1028240048490423C2F81035002040F20223C2F8BC
:102834000805C2F80032444BC3F86015C3F8642598
:10284400A2F50E42FC3AC3F8682502F50F420C3299
:10285400C3F86C2502F59872C3F87025A2F51142ED
:10286400303AC3F8742502F511423432C3F878259E
:102874002B4AC3F87C25637C34495B01DBB281F8C5
:102884000133A37C5B01DBB281F814334FF4801372
:102894000B602F4B187001232B704FF08053D3F82B
:1028A400043103F47F43B3F58A4F0BD1D2F83C379C
:1028B40043F48063C2F83C3704E0FFF701FF0028CB
:1028C4003FF437AFBDE8F081224B1360012665E782
:1028D400214BFAE712494FF6FF70C1F83C051F4837
:1028E400C1F838050E494FF00108C1F8343561E7E5
:1028F4000B49FF20C1F83C0540F20710F0E70E2019
:10290400E0E70720DEE700BFF0090020F40900201B
:10291400D8090020F80900203E130020010A0020F5
:1029240000100040A01C002060130020E743C323D4
:10293400A363E3138C130020380A00200C0A002040
:1029440000A000400011004000F0014000E100E060
:10295400000A0020652100009121000021100100DF
:1029640037B5154B1B680193144B1B780BB3144BF1
:102974001448154C0221C3F8801000220568026037
:1029840019602368ABB1E90703D58DF800206846C8
:102994009847AA0705D501238DF8003068462368B7
:1029A40098476B0705D502238DF8003068462368E5
:1029B400984703B030BD00BFFC090020F009002097
:1029C40000E100E0F8090020F409002038B5184BB4
:1029D4001B7833B338B3174CA36A33B3164D0223B1
:1029E400C5F88030636A54F823100A7802704B7873
:1029F400437091F9023083700B790371CB78C37003
:102A04000531053000F015FA636A0133072B88BFDE
:102A140000236362A36A013BA36202232B600020AC
:102A240038BD0820FCE70E20FAE70520F8E700BFD0
:102A3400F00900200C0A002000E100E010B51A495A
:102A44000B7803F0FF0063BB184B194C4FF0FF32B7
:102A5400C3F80823174AC3F810011460164A126811
:102A640042F00402C3F800221022C3F80423042213
:102A74000A70124A917CC3F83015D27CC3F8082539
:102A84000F4AC3F804250F4A0221C2F880111160CD
:102A94000122C3F80401C3F80801C3F810015A6005
:102AA40010BD1120FCE700BF000A00200010004008
:102AB400612400009C1C0020240000201000002041
:102AC4004012002000E100E00F4A1378042B02D0EA
:102AD4001378052B14D10D4B00214FF0FF30C3F8B0
:102AE4000012C3F808030A480160C3F81011012159
:102AF4001961D3F810110029FBD000201070704721
:102B040040F20110704700BF000A0020001000408E
:102B14009C1C0020164B1B781BBB20B34FF080532A
:102B24001449D3F8043103F47F43B3F5844F0FD130
:102B34004B7C114A052B18BF4FF07F42036893FA70
:102B4400A3F31A4204D10D4BD3F82435DBB263B19D
:102B540003680B6093FAA3F3084AC2F81C35FFF725
:102B6400A9BB112070470E2070470720704700BF93
:102B7400000A0020100000200000FFFF00100040A9
:102B8400264B1B78002B42D1002842D04FF08053B3
:102B94002349D3F8043103F47F43B3F5844F2DD193
:102BA4004B7C204A052B18BF4FF07F42036893FAF1
:102BB400A3F31A4222D11C4BD3F8242512F47F4FDD
:102BC40029D0D3F8242512F47F0F24D0D3F8242558
:102BD40012F07F4F1FD0D3F8282512F07F4F1AD060
:102BE400D3F8282512F47F0F15D0D3F8282512F432
:102BF4007F4F10D0D3F82835DBB263B103684B6044
:102C040093FAA3F3084AC2F82035FFF753BB112007
:102C140070470E2070470720704700BF000A00204D
:102C2400100000200000FFFF0010004038B5234BC7
:102C34001B780C46002B3CD100283CD0082936D800
:102C44004FF080531E4DD3F8043103F47F43B3F5A2
:102C5400844F11D16B7C1B4A052B1B4B18BF4FF0C3
:102C64007F4329B1D2F81C15194201D10178F1B181
:102C7400D2F820251A4211D022460146134800F00A
:102C8400D8F82C74FF22C4F1080442FA04F4AC749A
:102C9400FFF782FBBDE83840FFF70CBB0123411E60
:102CA400DAB29442E8D90133CA5C002AF8D1072089
:102CB40000E0112038BD0E20FCE700BF000A002010
:102CC40010000020001000400000FFFF180000204A
:102CD400074B1A7802F0FF032AB9642805D8054A7D
:102CE400D07418467047112070470720704700BF02
:102CF400000A002010000020074BD3F840214AB1FD
:102D04000022C3F84021054B1B78032B02BF044B60
:102D140001221A61704700BF00A00140000A002090
:102D24000010004001F000428B1AA3F16051B1F58C
:102D3400801F0ADBB1F17F6F09D242EAC102C100F0
:102D440071F1004142EB5070704710467047012802
:102D54005B4113F5001F04D842F0FE4040F400002C
:102D64007047C90041EA507040EA020040F4800014
:102D740040F08040704700BF7F2805D8034B185CA3
:102D8400034B5B5C1840704700207047E031000043
:102D940060320000A0F16103192B98BF20387047FE
:102DA400A0F14103192B98BF203070477F2805D824
:102DB400034B185C034B5B5C184070470020704762
:102DC400E031000060320000A0F16103192B98BFCC
:102DD40020387047A0F14103192B98BF2030704769
:102DE4007F299ABF017001206FF02E0070475AB1FD
:102DF4000A787F2A0AD800B102600021196059605C
:102E0400501A18BF01207047002070476FF02E0041
:102E14007047000008B5034B5B689B681B689847C4
:102E240008BD00BF2800002008B50921FFF7F2FF04
:102E340008BD844640EA010313F0030F18D1844609
:102E4400202A0BD32DE9F007B1E8F807A0E8F8072A
:102E5400A2F12002202AF7D2BDE8F007042A07D302
:102E640051F8043B40F8043BA2F10402042AF7D2CF
:102E7400002A05D011F8013B00F8013B013AF9D1D1
:102E8400604670478446002A2DD010F0030F04D00A
:102E940000F8011B013A26D0F7E7C9B241EA012143
:102EA40041EA0141202A12D3A2F120022DE9F003C4
:102EB4000B460C460D460E460F4688468946A0E84A
:102EC400FA03203AFBD2BDE8F00320320BD0042AE7
:102ED40005D340F8041B043A05D0042AF9D200F8BB
:102EE400011B013AFBD160467047024610F0030F04
:102EF40016D111F0030F13D12DE9F0004FF0013773
:102F04004FF0803351F8044BA4EB070525EA040580
:102F14001D4002D142F8044BF4E7A1F10401F0BCD6
:102F240011F8013B02F8013B002BF9D1704700F185
:102F3400010110F0030F11D010F8012B002A23D047
:102F440010F0030F0AD010F8012B002A1CD010F047
:102F5400030F03D010F8012B002A15D02DE97000BF
:102F64004FF001324FF0803350F8044BA4EB0205CC
:102F740025EA04051D4000D1F6E7A0F1040070BC69
:0E2F840010F8012B002AFBD1A0EB01007047D2
:102F9400193100000000000028310000000000008A
:102FA4001D3100000000000022310000000000007C
:082FB4001530000000000303CA
:102FBC00E82F000000000000F42F000000000020AB
:102FCC0080000020480100205001002088000020D3
:042FDC0018000000D9
:102FE0000338FDD870470000D903000045040000F5
:102FF000D50300007274745F6C6F675F6261636B0E
:10300000656E64004261636B656E647320666C7507
:103010007368656400617070000000007405002032
:103020007F000000F40500201B5B313B33316D0055
:1030300025734C6F67732064726F7070656420280D
:1030400025642925730D0A001B5B306D0025730074
:103050003C25733E2025733A20002025303278002D
:10306000202020007C002563001B5B313B33306D4A
:10307000001B5B313B33326D001B5B313B33336DE7
:10308000001B5B313B33346D001B5B313B33356DD3
:10309000001B5B313B33366D001B5B313B33376DBF
:1030A000007761726E696E6700696E666F006465B5
:1030B0006275670048300000693000002830000069
:1030C000713000007930000081300000893000004C
:1030D000913000009930000000000000F630000040
:1030E000A1300000A9300000AE300000111213140E
:1030F000466174616C206572726F720053797374EB
:10310000656D207265736574003031323334353645
:103110003738394142434445465052530055415295
:10312000540055415254450054494D455200726572
:1031300063436F756E743A25642C6672616D652009
:103140003D2025640A00E7C2C3C4C5C6C7C8004500
:103150006E68616E6365642053686F636B4275725D
:103160007374205265636569766572204578616D78
:10317000706C6520737461727465642E0A000000BF
:10318000010000000000000001020000FA00000041
:103190000001022000000000000003060000000003
:1031A0000090004001040000008000400004000086
:1031B0005465726D696E616C0052545400534547FA
:1031C0004745520030313233343536373839414291
:1031D0004344454643000000504F53495800000007
:1031E0002020202020202020206828282828202077
:1031F00020202020202020202020202020202020CF
:103200004810101010101010101010101010101086
:103210008484848484848484848410101010101026
:10322000108181818181810101010101010101017F
:103230000101010101010101010101101010101033
:103240001082828282828202020202020202020250
:1032500002020202020202020202021010101020F8
:1032600000070320041702010857104080000000E7
:10327000D4310000D8320000EC33000053756E00EA
:103280004D6F6E0054756500576564005468750095
:103290004672690053617400000000004A616E00CC
:1032A000466562004D617200417072004D617900A7
:1032B0004A756E004A756C00417567005365700071
:1032C0004F6374004E6F7600446563000000000099
:1032D000414D00504D000000103400000C3400003F
:1032E0000C3400000C3400000C3400000C340000DE
:1032F0000C3400000C3400000C3400000C340000CE
:10330000FFFFFFFFFFFFFFFFFFFFFFFFFFFF0000CB
:103310004C3300007C320000883300009C320000F7
:10332000D032000030330000E03300003C330000B6
:10333000256D2F25642F25790000000025612025AB
:1033400062202565202554202559000053756E64A0
:103350006179004D6F6E64617900547565736461C5
:1033600079005765646E657364617900546875729D
:1033700073646179004672696461790053617475A0
:1033800072646179000000004A616E7561727900B3
:103390004665627275617279004D617263680041C1
:1033A0007072696C004D6179004A756E65004A75EE
:1033B0006C79004175677573740053657074656D41
:1033C000626572004F63746F626572004E6F76655E
:1033D0006D62657200446563656D62657200000030
:1033E00025483A254D3A2553000000007D2D000068
:1033F000992D0000A52D0000B12D0000CD2D00005D
:10340000D92D0000E52D0000F32D00000000000084
:023410002E008C
:1034140000000000FF000000044D00000090D003F5
:10342400E7E7E7E7C2C2C2C2E7C2C3C4C5C6C7C8AA
:103434000805FF0413010000703200007032000020
:0C34440070320000703200007032000096
:040000030000037581
:00000001FF
