:040FF80000400600AF
:040FFC0000E007000A
:0200000260009C
:10400000000001205D4306004543060047430600CB
:10401000494306004B4306004D43060000000000E4
:104020000000000000000000000000004F430600F8
:1040300051430600000000005343060055430600AC
:104040005743060057430600816A0600574306009F
:1040500057430600574306005743060057430600E0
:1040600057430600574306005743060057430600D0
:1040700057430600574306005743060057430600C0
:104080005591060057430600574306005743060064
:1040900057430600574306005743060057430600A0
:1040A0005743060057430600574306005743060090
:1040B00057430600574306000000000000000000C0
:1040C0005743060057430600574306005743060070
:1040D000ED8A060057430600574306000000000023
:1040E00000000000000000000000000000000000D0
:1040F00000000000000000000000000000000000C0
:1041000000000000000000000000000000000000AF
:10411000000000000000000000000000000000009F
:10412000000000000000000000000000000000008F
:10413000000000000000000000000000000000007F
:10414000000000000000000000000000000000006F
:10415000000000000000000000000000000000005F
:10416000000000000000000000000000000000004F
:10417000000000000000000000000000000000003F
:10418000000000000000000000000000000000002F
:10419000000000000000000000000000000000001F
:1041A000000000000000000000000000000000000F
:1041B00000000000000000000000000000000000FF
:1041C00000000000000000000000000000000000EF
:1041D00000000000000000000000000000000000DF
:1041E00000000000000000000000000000000000CF
:1041F00000000000000000000000000000000000BF
:10420000314932480A1A02D0072291438D4630497B
:1042100030480A1A06D00722914381F30988022206
:1042200082F314882C482D492D4A00F03CF82D4883
:104230002D492E4A00F037F82D482E492E4A00F01D
:1042400032F82E482E492F4A00F02DF82E482F49DB
:104250002F4A00F028F82F482F49304A00F023F861
:104260002F483049304A00F01EF8304830490022CB
:1042700000F024F82F483049002200F01FF82F4AA0
:1042800090471F481F49884205D00268043003B494
:10429000904703BCF7E700208646EC46002000214B
:1042A000274A9047FEE7884207D0521A05D0037884
:1042B00001300B700131013AF9D17047884202D0C8
:1042C00002700130FAE770470000012000F800207A
:1042D00000000120000001201CEC06001C00002052
:1042E00078000020BC430600BC430600F0BB06007B
:1042F0001CEC06001C0000201C000020ACBC0600CA
:10430000ACBC0600ACBC0600ACBC0600ACBC0600F5
:10431000ACBC0600ACBC0600ACBC06001AEC060047
:1043200078EC06007800002078000020780000205B
:10433000F4370020F4370020F437002085430600CE
:104340004D740600FEE7FEE7FEE7FEE7FEE7FEE748
:10435000FEE7FEE7FEE7FEE7704700BF1048804734
:1043600010484FF00701884385460F4880470F48A3
:10437000016841F470010160BFF34F8FBFF36F8F8D
:10438000FFF73EBF0A480B490B4A884207D0521A32
:1043900005D0037801300B700131013AF9D1704733
:1043A00059430600000001207D92060088ED00E0E0
:0C43B00098BC0600080000201C00002043
:1043BC007047000007B5044B0093044A402300F0FB
:1043CC0032F803B05DF804FBDD43060079000020F1
:1043DC002DE9F84388461446B2B10F4B0F4E032516
:1043EC00002743F00109224608EB0701002007F0E3
:1043FC0085FA0744241A48B933782BB14FF47A4024
:10440C00C847013D02D13570BDE8F88301233370F4
:10441C00002CE8D1F8E700BFB0BC06007800002003
:10442C00704707F09BBAF0B595B01D461646084686
:10443C000C4602F052F81A9B0D93CDE90865002545
:10444C002B46082205A920460A958DF82C500C9570
:10445C0002F06AF8079B0293069B03939DF81430B5
:10446C008DF8115003F00302012A1DD1BDF8142060
:10447C00059DC3F3C203C2F383168DF81030B2004E
:10448C0008230EA9204602F04FF8C5F3952508AB7A
:10449C000093324602AB0EA9284600F001FC2046E0
:1044AC0002F01FF815B0F0BD022AF8D1BDF8165075
:1044BC00C3F3C203C5F389158DF810300827082DF6
:1044CC002E4628BF08263B4632460EA9204602F04F
:1044DC002BF8AD1B08AB02AA31460EA8374400F0EE
:1044EC0043FC002DEBD1DAE708B5FFF79AFF07483C
:1044FC00042100F041FB002803DA0549412001F0BA
:10450C0001FB044B01225A7108BD00BF88BC060098
:10451C00C4BC06001C000020037813F0040216D063
:10452C0003F00303012B03D0022B09D001207047A9
:10453C000A6800880232C0F3831002440A60F5E76F
:10454C000B684288023303EB92130B60EEE71046C4
:10455C00704700002DE9F04FDFF83CA10F4687B003
:10456C000446861C0020154601F090FADAF800107B
:10457C003960DAE90132464F134401335B1AA7F173
:10458C000409A7F10808B3421BD30020002D7AD0F0
:10459C0004F00F039B0143F0050363F30F00DAF8FB
:1045AC000020DAF808301340033332444AF8230071
:1045BC000020CAF8002001F079FA012007B0BDE80C
:1045CC00F08F0121384601F0E5FA484601F0FDFA7A
:1045DC00404601F0FAFADAF80400DAF808B0029072
:1045EC0000EA0B0003300AEB800002A9FFF794FFEE
:1045FC00029B0246F8B90BEA03010AEB810103F1B5
:10460C00020CC8680390013303EA0B0B0AEB8B0B0B
:10461C0000F003000128DBF80C10CDF808C02AD0FC
:10462C0002280BD01B4901924FF4BF7001F06AFABB
:10463C00019A93460CE00BEA0300D3E7BDF80E3069
:10464C00C3F3891303334FEA114B0CEB930302931F
:10465C00404601F0BDFA10B1029BCAF8043059462D
:10466C00384601F097FADAE901231344DAF800200E
:10467C0001339B1A87E7BDF80C30C3F383134FEA61
:10468C00114B6344E3E7A40544F0060087E700BF41
:10469C00A811002030BD06008C0100200B4B0C48EB
:1046AC0040F2FF3210B59A600022C3E9002203F5F4
:1046BC0080539A6183F820205A6101F0C7FE0446AA
:1046CC0010B9044801F044FF204610BD8C010020B5
:1046DC0060BC06009CBD060030B50A4C71B10A4A9C
:1046EC000A49121BD20800239A4201D1002030BD86
:1046FC0031F82350854202D00133F5E7034654F8D4
:10470C003300F4E7F8BB060060BC06001C00002078
:10471C00094B013903EBC000032909D8DFE801F08C
:10472C000A020406042070470079704740797047EC
:10473C000020704702207047F8BB0600034BD3E9FA
:10474C000030C31A58425841704700BF8C010020FA
:10475C002DE9FF47FFF7F2FF0746002840F0FB80EA
:10476C007E4C04F58056B061BFF34F8F6368A5682B
:10477C0000932B40033304EB83006946FFF7CCFE18
:10478C00009B10B1B269002A62D005EA0302991CA1
:10479C00013304EB82022B4004EB8303D268DB6809
:1047AC00029302F00303022B0192009163D1BDF836
:1047BC0006306B48C3F38918B8F1500FC14628BFB7
:1047CC004FF0500909F1080169F38F13C1F3090186
:1047DC00ADF8063001F052FE0746002800F0A78025
:1047EC0001F07BFE0023082201A9384601F088FE67
:1047FC00009925EA01020132B9EB820F4FEA8203DC
:10480C0032D95FFA89F95BB32940DDB2A9EB05090E
:10481C0003315FFA89FAA946524D04EB8101082352
:10482C004A46384601F06CFE3DB109F10803DBB293
:10483C0052462946384601F063FE009B08F10308F6
:10484C0003EB98030093B369002B4DD135695EE0FF
:10485C0022689A428DD86260384604B0BDE8F08771
:10486C0040491D469A46DAE72940033108234A4657
:10487C0004EB8101DEE7012B59D1BDF80430384837
:10488C00C3F38311062928BF062161F38913023172
:10489C0001F00F018900ADF8043001F0EFFD07467F
:1048AC00002844D001F019FE0023082201A9384643
:1048BC0001F026FE4FF00008BDF80420C2F383126D
:1048CC004FEA8803904503F10803BCD200994A1CB7
:1048DC0029400331009204EB81010422384601F097
:1048EC000FFE08F10108E7E7384601F0FAFDFFF783
:1048FC0025FF80F00100C7B2AEE7EB685B7923B10E
:10490C002B6839461B6828469847EB681D68002DB4
:10491C00F3D1384601F0E5FD284601F0B7F8B3694C
:10492C000BB9009B6360002001F0C0F8DFE734692D
:10493C0054B90D4B0D480E49C01AC008000440F084
:10494C00020000F077F8D2E7236820469B6898476E
:10495C00E3681C68ECE700277EE700BF8C010020B1
:10496C0060BC060098010020F8BB060008BC0600DD
:10497C0084BD06002DE9F74F284E04460F4691469C
:10498C0001A901221846D6F808A09846FFF7E2FDC7
:10499C0078B3019D0023A81C434503EB000233D1DF
:1049AC001F48002101F0BBF880F3100B1D4B1E4A71
:1049BC004FEA14499B1AB9EBD30F04D31B4940F2AD
:1049CC00A31001F09FF86B1C03EA0A03E40006EB4A
:1049DC00830304F0380449EA0B4005EA0A0544F065
:1049EC000104D860033544EA881343EA872346F868
:1049FC0025300F4B93F820301BB1FFF7A9FE002890
:104A0C00FBD103B0BDE8F08F0AEA020206EB82028A
:104A1C0059F82310D1600133BEE700BF8C01002090
:104A2C00A811002060BC0600F8BB060030BD0600D3
:104A3C008C11002000231A46FFF79CBF07B50123F9
:104A4C00019201AAFFF796FF03B05DF804FB07B5CE
:104A5C00CDE9002302236A46FFF78CFF03B05DF813
:104A6C0004FB1FB5CDE90123069B039301AA032385
:104A7C00FFF780FF05B05DF804FB1FB5CDE90023FF
:104A8C00069B0293079B03936A460423FFF772FF6E
:104A9C0005B05DF804FB7FB5CDE90123089B0393BA
:104AAC00099B04930A9B059301AA0523FFF762FF58
:104ABC0007B05DF804FB00002DE9F3472B4D0446CD
:104ACC00D01C8946164601A900228008AF68FFF762
:104ADC0041FDA8B3DDF80480AB6808F10200019039
:104AEC00013338401B1AB6EB830F00F103004FEA79
:104AFC00830A05EB80002ED83246494606F0C4FFE7
:104B0C001B48002101F00BF880F3100008F10103A1
:104B1C003B4007EA0807220C05EB8303033742EA04
:104B2C000040E400D86004F0380455F8273044F015
:104B3C00020444EA865203F47C131A4345F82720F6
:104B4C000C4B93F820301BB1FFF702FE0028FBD171
:104B5C0002B0BDE8F0875246494606F095FFA6EB39
:104B6C000A0209EB0A0105F10C00C7E78C010020D1
:104B7C00A81100208C11002030B50E4C2269034680
:104B8C000020114629B9D968087142B923610A601D
:104B9C0030BDC9680D79854206D00968F2E7D26844
:104BAC0014680C601360F3E701300A28E9D14FF068
:104BBC00FF30EDE78C11002038B5084B01251C693E
:104BCC0083F8205004B938BDE3685D712368204632
:104BDC005B689847E3681C68F4E700BF8C11002001
:104BEC0030B5C38885B004460D4633B1144A0092E3
:104BFC001449154A284601F08DF8217A05291DD053
:104C0C00637A4BB1A088FFF783FD104B104953F822
:104C1C002020284601F07EF8227A0E4BA08853F80B
:104C2C00222003920021FFF757FD039A0A490346FD
:104C3C00284605B0BDE8304001F06CB805B030BD79
:104C4C00C8BD0600B0BD0600A8BD060038BE0600F3
:104C5C00E4E506005CBE0600CDBD060007B50346C4
:104C6C000846197A052911D05B7A2BB1094A0A49F1
:104C7C00019001F04FF801980849019001F04AF8B1
:104C8C00019803B05DF804EB01F032B8002AF8D0BB
:104C9C00F2E700BFC8BD0600E4E50600C5BD06008E
:104CAC002DE9F04385B01F460C9D002395F80C9020
:104CBC002B7306460C46904629463846FFF790FF64
:104CCC00B8F1060F09D8DFE808F00412181F2833D2
:104CDC0040003146284601F01DF80022294638468E
:104CEC00FFF7BCFF85F80C9005B0BDE8F083226897
:104CFC003146284601F00EF8EFE7D4E9002331469F
:104D0C00284601F007F8E8E7A36800933146D4E998
:104D1C000023284600F0FEFFDFE7E3680193A36859
:104D2C0000933146D4E90023284600F0F3FFD4E782
:104D3C0023690293E3680193A36800933146D4E995
:104D4C000023284600F0E6FFC7E763690393236955
:104D5C000293E3680193A36800933146D4E90023DE
:104D6C00284600F0D7FFB8E708292DE9F74F804611
:104D7C000E4617461C463DD800251B7B2573214645
:104D8C0010460193FFF72CFFDFF88CA0DFF88CB0F6
:104D9C00AE4232D918F805205946204600F0BAFF29
:104DAC000135082DF4D11B49DFF874A0DFF874B07D
:104DBC00204600F0AFFF4FF000094E4524D918F8FB
:104DCC0009507E2D1ED8284606F022FE002814BF5E
:104DDC002A462E225946204600F09CFF09F1010973
:104DEC00B9F1080FE9D1012221463846FFF736FF09
:104DFC00019B237303B0BDE8F08F5146204600F0B1
:104E0C0089FFCDE72E22E5E75146204600F082FFD0
:104E1C00E4E700BFE1BD0600DDBD0600D7BD06001E
:104E2C00DFBD0600E3BD06001F2808B504D9044900
:104E3C004FF4F37000F066FE4FF0A04008BD00BFC9
:104E4C0070BE0600032810B5044603D9064941205C
:104E5C0000F058FE054B1C5D2046FFF7E5FF0123D3
:104E6C00A340C0F80C3510BD9BBE0600DABE060090
:104E7C00032810B5044603D90649472000F042FE2A
:104E8C00054B1C5D2046FFF7CFFF0123A340C0F864
:104E9C00083510BD9BBE0600DABE060008B5002022
:104EAC00FFF7E6FF0120FFF7E3FF0220FFF7E0FF2B
:104EBC00BDE808400320FFF7DBBFC20738B5044646
:104ECC0016D51120FFF7B0FF0325C0F84457122068
:104EDC00FFF7AAFFC0F848571320FFF7A5FFC0F84B
:104EEC004C571420FFF7A0FFC0F85057FFF7D6FF20
:104EFC00A30714D50D20FFF797FF0C24C0F83447F7
:104F0C000E20FFF791FFC0F838470F20FFF78CFFFA
:104F1C00C0F83C471020FFF787FFC0F8404738BD6A
:104F2C0043689B68184708B5436808305A7902F003
:104F3C00FDF9002008BD2DE9F0410C469CB0084657
:104F4C001F460392FFF7ECFFD4F80480039998F8FE
:104F5C000550BD4228BF3D4606462A4604A802F02D
:104F6C00C9F998F8052022990CA802F0DFF90096EF
:104F7C000CAB2A4604A904F1080003F009F9002837
:104F8C0048F2425018BF00201CB0BDE8F08100234D
:104F9C00C0E902328B881A44B1F9063002611A4416
:104FAC00C0E9001142610888003818BF0120704721
:104FBC004268118838B50346002937D0148A02F1AB
:104FCC00100141602CB9C2680168FFF7E0FF204670
:104FDC0038BD9078118900F03005302D14D1947CB7
:104FEC0004F03004302C1BD190881969091A19610E
:104FFC000021908AB2F916200844196901441961FC
:10500C00114459610120E3E700F0F004202C07D192
:10501C0050894143002DECD1986801309860E8E745
:10502C0000F0C000802808BF0421F3E70846CFE752
:10503C0070B5466804460D4663681A88AA4204D1C6
:10504C009B7803F00F03082B07D12046FFF7B0FF26
:10505C006368B342F0D1002070BD0120FCE74368C7
:10506C001A44426011B101399A4201D101207047B2
:10507C0013F8010B01F8010FF6E770B54568AA7833
:10508C0002F00F06082E86B003461FD103691C6878
:10509C0000260CB906B070BD236862689D68267343
:1050AC0029466846FFF773FF6368049304F10C0309
:1050BC000593AB7803F0C003802B08BF231D684613
:1050CC0008BF0493FFF7D9FFA468E2E712F0C00110
:1050DC0022D102F0300010280CD15A691170072E21
:1050EC00EC6818690BD10146204606B0BDE870404B
:1050FC0000F01AB89006F2D55B691980CAE72A89C4
:10510C00214624B106B0BDE8704006F0BDBC06B027
:10511C00BDE8704006F0E1BC8029BBD100690021DC
:10512C0092060160B6D5E7E77FB50A4601466846A8
:10513C00FFF72DFF30B16846FFF79FFF6846FFF77A
:10514C0037FFF7E707B05DF804FB836810B504463A
:10515C000BB9002010BD0368012298470028F8D035
:10516C00A368013BA360F5E72DE9F3410F460DF170
:10517C0007018046FFF7E9FF054620B900252846C0
:10518C0002B0BDE8F0819DF907309DF80740002B77
:10519C0013DA04F07F0407260DF107014046FFF7F0
:1051AC00D4FF0028EAD09DF8072002F07F03B3401B
:1051BC001C43130606F1070601D43C60DFE7232EDF
:1051CC00EAD1DBE730B5044685B01546A9B90268CB
:1051DC00114B9A4211D0102D06D82A46694620460A
:1051EC00FFF7F0FF05B030BD102269462046FFF7EF
:1051FC00E9FF0028F6D0103DEDE7A368AB4201D2E1
:10520C000020EFE723682A46204698470028F7D06D
:10521C00A268521BA260E5E76B500600F7B50E467C
:10522C0001A907461546FFF79FFFA0B1019A511C33
:10523C004FF0000404D2B37803F0C003802B01D1EB
:10524C00204608E033898B42FAD329463846FFF7CB
:10525C00B9FF019BEC5403B0F0BD73B50D4601A929
:10526C0006461446FFF780FF98B1019AB2F5803FCD
:10527C0011D2AB7803F0C003802B02F102010AD0EB
:10528C002B898B4207D32146304621F8022BFFF79E
:10529C0099FF02B070BD0020FBE7000010B5034C75
:1052AC0082600022C0E90041C26010BD6B50060054
:1052BC002DE9F341002580460E462F462C460DF174
:1052CC0007014046FFF741FFC0B19DF807C0A4F1AC
:1052DC0020030CF07F02C4F1200102FA03F322FA3E
:1052EC0001F10B43A2401CF0800F45EA020547EA8E
:1052FC00030704F1070404D1C6E9005702B0BDE866
:10530C00F081462CDBD10020F8E737B50D46694615
:10531C001446FFF7CDFF70B12B89082B0DD1DDE9B9
:10532C000032C4E90032DDE90001914208BF984225
:10533C000CBF0120002003B030BD042B03D1009B17
:10534C0023600022EFE7022B03D1009B23809BB24A
:10535C00F7E7012B04D1009B237003F0FF03F0E768
:10536C000020E8E737B50D4669461446FFF7A0FF65
:10537C0030B12B89082BDDE9001203D1C4E90012EE
:10538C0003B030BD042B4FEAE17009D121600B460C
:10539C000246824208BF8B420CBF01200020EFE77F
:1053AC00022B03D10BB22380DA17F2E7012B02D1C7
:1053BC004BB22370F8E70020E2E7F7B51F46002355
:1053CC003B700D460B70136001A904461646FFF79F
:1053DC00CBFE30B9A36813B901233B70002003B096
:1053EC00F0BD019C002CF7D0E30804F007043360F7
:1053FC002C70F4E713B50446052925D8DFE801F035
:10540C00030F17242422012201A92046FFF7DAFEFC
:10541C0018B19DF90430002BF5DB02B010BD082249
:10542C000021204602B0BDE81040FFF7CBBE01A919
:10543C00FFF79AFE0028F0D0019A00212046FFF7D2
:10544C00C1FEEAE70422EBE70020E6E773B50D4660
:10545C0001A90446FFF788FE064618B90026304617
:10546C0002B070BD94E80F0085E80F0001998A42E4
:10547C00F4D3A960A3685B1AA360F0E72DE9F043AD
:10548C005668B37813F0C00489B007468C461546AD
:10549C0003D0402C69D000240CE003F00F026049CB
:1054AC0003F03003202B51F8228025D006D8E3B12D
:1054BC00102B17D0204609B0BDE8F083302BF9D162
:1054CC006B6931881980072A09D1214632892869EC
:1054DC0006F003FB6B682969D868FFF725FE2A697B
:1054EC00696840E06B6901221A702A6931464346AB
:1054FC0009B0BDE8F0431847BCF1020FD5F8149081
:10550C0024D1042A22D804A9FFF7A0FF04460028BE
:10551C00C1D0069B2BB16968B9F800304A899A4210
:10552C0005D8059B7B60069B002BC3D0B3E708898D
:10553C002A6903FB002204A8C04728B1B9F800303F
:10554C000133A9F80030E4E70446EAE7B9F8003083
:10555C0072899A429FD931892A69581C03FB01220E
:10556C00A9F8000031463846C1E7D2F8108046460B
:10557C0056F8043B23B909B0BDE8F043FFF73ABF36
:10558C00022914D104A9FFF761FF002883D0D8F8B1
:10559C0000306968324604A89847044600283FF456
:1055AC007AAF069B002BF2D1059B7B6082E7012929
:1055BC0026D005292CD000297FF46DAF0C460DF1B7
:1055CC00040901340B2C3FF466AF012249463846DE
:1055DC00FFF7F8FD00283FF45EAF19F9013B002BF3
:1055EC00EFDB104B049301ABCDE90534002307939B
:1055FC006968D8F80030324604A89847044659E741
:10560C00082201A9FFF7DEFD08240028E9D142E7B2
:10561C0004220DEB0201FFF7D5FD0424F5E700BFD2
:10562C00ECBE06006B5006002DE9F04F91B004461D
:10563C00002604A8CDE90266FFF7A9FCA3683BBBD2
:10564C00DDE9053404A89D78FFF7B2FC0028F7D1FA
:10565C0015F0300F03D1059B1B8803B10134002CCE
:10566C0000F0A980630902A90022934240F09C80BB
:10567C0010AA02EB830304F01F0453F8383CC4F166
:10568C0020044FF0FF30E040C31A584258410DE05F
:10569C000DF1030301AA0DF102012046FFF78DFE67
:1056AC0038B99DF80330002BCAD1002011B0BDE8E9
:1056BC00F08F019904A8FFF7BBFC002850D1019B87
:1056CC00B3427DD3059D059A937803F00F03082B05
:1056DC007FD004A8FFF76CFC059B9D42F3D14FF0E3
:1056EC00FF36019FB7426BD3089B9DF802A0D4F8FC
:1056FC0008801D684FF00109A368002D5DD0984506
:10570C009CD12B68D3F800B0BBF1000F08D05346E6
:10571C003A4629462046D8470028C6D0AD68EBE764
:10572C00D3F808B0BBF800309F42F7D16A685946ED
:10573C000AA8FFF72CFC6B680E9305F10C030F9372
:10574C009BF8023003F0C003802B04BF2B1D0E937B
:10575C000AAA85F80C9051462046FFF78FFEDBE72E
:10576C00059B9B7813F0300F0FD1069A3F2A0CD86B
:10577C00510910AB03EB810102F01F02012393408E
:10578C0051F8382C134341F8383CE5682DB19DF89D
:10579C000220019904AB2046A8479DF8021004AAE8
:1057AC002046FFF76BFE10E051F8045B01357FF4E7
:1057BC007DAF013259E7012078E798457FF43EAF81
:1057CC009DF802102046FFF715FE00287FF436AF37
:1057DC006BE7168885E737B50C460546114620461B
:1057EC000192FFF7A1FC019A2146284603B0BDE8BF
:1057FC003040FFF719BF70B586B0CE6801920C46E9
:10580C0002A90546FFF722FE68B1E06858B1A378FB
:10581C00019A03F03003202B314602A805D1FFF783
:10582C00DAFF039B6B6006B070BDFFF7FDFEF8E777
:10583C0013B50C466946FFF73BFD60B1DDE900137B
:10584C004A0842EAC372C9074FEA530344BFD24322
:10585C00DB43C4E9002302B010BD37B50D466946E1
:10586C001446FFF7E5FF70B12B89082B0DD1DDE94C
:10587C000032C4E90032DDE90001914208BF9842D0
:10588C000CBF0120002003B030BD042B03D1009BC2
:10589C002360DA17EFE7022B03D1BDF90030238028
:1058AC00F7E7012B03D19DF900302370F1E70020BD
:1058BC00E9E713B504220C460DEB0201FFF782FC5D
:1058CC0008B1019B236002B010BD1146FFF7F1BF78
:1058DC0013B508220C466946FFF774FC18B1DDE9D4
:1058EC000023C4E9002302B010BD1146FFF7F0BF3E
:1058FC004B1C30B5DB00044612F003009BB20DD1FB
:10590C00074D2A601A44074B1A60074B1870074B57
:10591C001870074B1C80074B198030BD0720FCE723
:10592C00501200204C120020481200205812002067
:10593C0054120020561200202DE9F843DFF8AC80F9
:10594C00B8F800308B4206460D46174640D300206F
:10595C0000F09CF8204B214A2148197800881478D3
:10596C00E3B2844238BF0133C9B234BFDBB2002387
:10597C00994226D014781178CBB2884286BF013375
:10598C00DBB200231370002000F090F84FF6FF7389
:10599C009C421FD0134B1B6843F8347003EBC409B3
:1059AC0096B18DB1104BB8F800001B682A463146F1
:1059BC0004FB003006F068F8A9F804500020BDE89C
:1059CC00F8834FF6FF74DEE70020A9F80400F6E731
:1059DC000920F4E70420F2E75812002048120020B6
:1059EC0056120020501200204C120020541200209D
:1059FC0070B5104C104D22782B789A4200D170BDA6
:105A0C000E480F4A2378126806880E4802EBC30131
:105A1C00006852F83320898803FB060090470A4936
:105A2C0022780988D3B2914286BF0133DBB20023BE
:105A3C002370E0E758120020481200205412002076
:105A4C00501200204C1200205612002072B6024A4E
:105A5C0013680133136070475C120020034A13680B
:105A6C00013B136003B962B6704700BF5C120020A3
:105A7C00EFF30583C3F308032BB9EFF31480C04392
:105A8C0000F00100704701207047000008B5FFF7D7
:105A9C00EFFF012803D00449432000F033F8BDE8A0
:105AAC000840FFF7D3BF00BF10BF060008B5FFF7D3
:105ABC00DFFF012803D00449512000F023F8BDE892
:105ACC000840FFF7CBBF00BF10BF060030B53AB19E
:105ADC001368DB430A4D0144814204D1D84330BDE5
:105AEC004FF0FF33F6E710F8012B5340082213F068
:105AFC00010418BF2C46013A84EA5303F7D1EBE7B3
:105B0C002083B8ED07B5ADF8000001916A4600217D
:105B1C0044F2020001F06AFC03B05DF804FB10B51E
:105B2C00034653E8000F0A4643E8002494F0000FA4
:105B3C00F7D110BD10B5034653E8000F40EA01023F
:105B4C0043E8002494F0000FF6D110BD10B50346C5
:105B5C0053E8002F42EA010043E8000494F0000FE0
:105B6C00F6D110BD10B5034653E8000F00EA010250
:105B7C0043E8002494F0000FF6D110BD10B5034695
:105B8C0053E8002F02EA010043E8000494F0000FF0
:105B9C00F6D110BD10B5034653E8002F02EB0100FF
:105BAC0043E8000494F0000FF6D110BD10B5034685
:105BBC0053E8002FA2EB010043E8000494F0000F1F
:105BCC00F6D110BD0121FFF7B5BF0121FFF7BEBF14
:105BDC000021FFF7C7BF0021FFF7D0BF10B5044667
:105BEC00002834D003681BB91A49FF20FFF78AFF3D
:105BFC00636823B917494FF48070FFF783FFA368DC
:105C0C0023B9144940F20110FFF77CFFE36823B974
:105C1C0010494FF48170FFF775FF238A23B90D49A2
:105C2C0040F20310FFF76EFFD4E9012321689B1AA1
:105C3C00DBB20A60013BDBB2FF2B226802D10020F1
:105C4C00107110BD1168481C10600B70F2E70E202B
:105C5C00F7E700BF6BBF060038B5044620B9114901
:105C6C004FF49270FFF74EFF0020FFF70FFF2268F2
:105C7C0063681168994213D9481E106011F8013CF1
:105C8C00E568218A01FB0355A36811791B1ADBB265
:105C9C00994200D213710020FFF708FF284638BD47
:105CAC000025F8E76BBF060038B50C46054620B951
:105CBC000E4940F24710FFF725FF24B90B494FF46A
:105CCC00A470FFF71FFF0020FFF7E0FE2A6813689F
:105CDC00591C1160E968641A298AB4FBF1F41C7030
:105CEC00BDE838400020FFF7E1BE00BF6BBF0600E7
:105CFC0010B5044618B906493120FFF703FFA26816
:105D0C002AB163692168206998470023A36010BDFC
:105D1C00B8BF06000EB433B5059D044618B9114939
:105D2C004220FFF7EFFE63691BB90E494320FFF7D2
:105D3C00E9FE23681BB90B494420FFF7E3FE6368B7
:105D4C001BB908494520FFF7DDFE35B106AB01AAAA
:105D5C0029462046019300F079F802B0BDE83040A6
:105D6C0003B07047B8BF06000A2938B504460D4683
:105D7C0002D10D21FFF7F8FFA3682268591CA1601E
:105D8C00D554D4E901329A4204D32046BDE83840B8
:105D9C00FFF7AEBF38BD00002DE9F84F9846DDE99E
:105DAC000A43154682460F460A464FF00109AA429D
:105DBC000FD2C14538BFC14613F0010B01D16CB9EC
:105DCC0000240126B8F1010F1BD908F1FF386E43EE
:105DDC00F8E709F10109B2FBF5F2E8E79B070ED5EC
:105DEC00B8F1000F0CBF30262026A145E9D2013CAA
:105DFC0031465046FFF7B8FF002CF6D1E0E72026DD
:105E0C00F3E7B7FBF6F39D42E1D9DFF83C80B7FB33
:105E1C00F6F3504618F8031006FB1377FFF7A4FFB0
:105E2C003346AB42B6FBF5F6F1D2BBF1000F02D014
:105E3C000CB1A14501D3BDE8F88F20215046013C9F
:105E4C00FFF792FFF4E700BF45C006002DE9F74FBE
:105E5C0088461746054620B9AF494FF4A270FFF7A4
:105E6C0051FE6B6923B9AC494FF4A370FFF74AFE9E
:105E7C002B6823B9A84940F24710FFF743FE6B6823
:105E8C0023B9A5494FF4A470FFF73CFEB8F1000FFD
:105E9C0000F03E8118F8011B49B92B7B002B00F058
:105EAC003781284603B0BDE8F04FFFF721BF252905
:105EBC0040F0B780002698F800302D2B424608F1B0
:105ECC00010823D0302B24D02B2B25D000242A2BB7
:105EDC0002F1010123D13B681A1D1B683A601C4476
:105EEC000A4613782E2B26D101324FF0000A1046A9
:105EFC0010F8011BA1F1300CBCF1090F1DD80A23BD
:105F0C0003FB0A13A3F1300A0246F0E746F0010640
:105F1C00D1E746F00206CEE746F00406CBE711F8CF
:105F2C00013CA3F130000928DBD80A2202FB04341F
:105F3C00303C0A46CBE74FF0000A12F8011B01F087
:105F4C00FB0068289046F8D0782909D86F290CD81E
:105F5C00632962D022D8252963D0582900F0888083
:105F6C0098F80030002B95D197E770390829F7D8AD
:105F7C0001A353F821F000BFF76006006D5F060027
:105F8C006D5F06008D6006006D5F06006B6006009D
:105F9C006D5F06006D5F06007D600600642901D010
:105FAC006929DDD13A68D2F80090111D89EAE972AD
:105FBC003960A2EBE9724FF0010B092A35DCD345AD
:105FCC0038BFD3462CB1B9F1000F01DB720700D5F5
:105FDC00013CB30702D5BAF1000F03D0F00701D48E
:105FEC004CBB0024B9F1000F2DDAC9F100092D21A9
:105FFC002846FFF7B9FE06F00302022A04D1BAF1D3
:10600C00000F01D11CBB0024CDE9004653460A22E7
:10601C0049462846FFF7C0FEA2E73B681A1D1978CF
:10602C003A602846FFF7A0FE9AE70A230BF1010B12
:10603C00B2FBF3F2C1E7A345D4D220212846013CA0
:10604C00FFF792FECCE77107D5D52B21D0E7A345FE
:10605C00DAD230212846013CFFF786FED2E73968B8
:10606C00CDE900460A1D3A6053460A220968D0E77A
:10607C0039680A1D3A60CDE9004653461022F5E70F
:10608C003B681A1D3A6016F00106D3F8009024D133
:10609C00B9F1000F03D0484605F074FD0646B44232
:1060AC001DD809F1FF3919F8011F00293FF458AF29
:1060BC002846FFF759FEF6E728460136FFF754FE4F
:1060CC0019F806100029F7D1A642BFF449AF2021D8
:1060DC002846013CFFF748FEF6E70026F0E72021B2
:1060EC002846013CFFF740FED9E73B681A1D3A6091
:1060FC00302128461C68FFF737FE78212846FFF729
:10610C0033FE00220823CDE900322146102280E71D
:10611C0003B0BDE8F08F00BFFBBF060070B50D46A5
:10612C001646044618B908495520FFF7EBFC1DB973
:10613C0005495620FFF7E6FC2B68256031462046C2
:10614C00BDE87040184700BF55C006002DE9F0416E
:10615C00DDF818800E4617461D46044618B922492C
:10616C008820FFF7CFFC1FB91F498920FFF7CAFC15
:10617C0023681BB91C498A20FFF7C4FC45BB1A498C
:10618C008B20FFF7BFFCB20703D017499120FFF714
:10619C00B9FCBB0703D014499220FFF7B3FCE368AA
:1061AC009E4204D322696B1E3344934203D90E4999
:1061BC009320FFF7A7FC2368CDF81880D3F80CE0E8
:1061CC003A462B4631462046F446BDE8F04160473E
:1061DC0063685A68B5FBF2F302FB1353002BD2D061
:1061EC0001498E20CDE700BF55C006002DE9F041D6
:1061FC000D4616461F46044618B919499E20FFF74E
:10620C0081FC23681BB916499F20FFF77BFC1EB944
:10621C001349A020FFF776FC63681B68013B2B42F7
:10622C0003D00F49A320FFF76DFCE3689D4207D311
:10623C0063681A686B1E02FB06332269934203D90A
:10624C000749A520FFF75EFC2368D3F810E032461F
:10625C003B4629462046F446BDE8F041604700BF66
:10626C0055C0060070B550B90E4D0F4C0026641B7E
:10627C001423B4FBF3F4B44208D1002010E00368FB
:10628C00002BF1D0BDE87040DB6918472B6813B9BF
:10629C0001361435EFE7DB69284698470028F7D01C
:1062AC0070BD00BF080000201C000020014B4360A3
:1062BC0000207047B4C006000846704700207047A5
:1062CC00024B1868003818BF01207047601200207C
:1062DC0008B50248FFF77FFC002008BD60120020C3
:1062EC0008B510461A4605F0CFFB002008BD00008B
:1062FC002DE9F041804686B011480F4616461D46E2
:10630C00FFF760FC0446C8B9AA083146384600F0CD
:10631C0091FB0B48FFF75FFCD8F8083053B1012212
:10632C008DF800200C9A0592CDE90147CDE9036563
:10633C0068469847204606B0BDE8F0811124F9E77D
:10634C00601200202DE9F043814687B014480E46B8
:10635C0015469846FFF736FC0446F0B90746BD4291
:10636C0015D10F48FFF737FCD9F808305BB1022282
:10637C008DF800200022CDE90126CDE90325CDF8CA
:10638C00148068469847204607B0BDE8F08306EBBA
:10639C00073000F037FB0137E1E71124F3E700BFCA
:1063AC00601200202DE9F74F99469DF8303000938C
:1063BC0088469346064618B92349B620FFF7A2FB38
:1063CC00F28871794A43043A4A4505D81E4901922C
:1063DC00C420FFF797FB019ADBF80070B6F806A013
:1063EC0007EB0901914209F1040488BFA2EB0907EC
:1063FC00B4FBFAF5CBF800700AFB154445B9AAEBCF
:10640C00040BBB4528BFBB462FB903B0BDE8F08FCA
:10641C003668013DF2E7009B043408EB0500344478
:10642C005A466BB12146A7EB0B0705F02DFBBA457D
:10643C005D443668D3464FF0000428BFBB46E3E703
:10644C0001462046EFE700BFE0C00600FFF7C6BBE1
:10645C00F8B546790146721E0546002393422D6815
:10646C0003D30024A64202D8F8BD0133F6E70F6827
:10647C002846FFF719FC01343946F3E72DE9F843B8
:10648C00068ACD1C0746FFF7E7FB043E354404465D
:10649C00B5FBF6F5F0B14FF48073EDB28380C68096
:1064AC00013D076081464FF00008A84512D23846DE
:1064BC00FFF7D2FB064648B163790133637108F1EB
:1064CC000108C9F8000007608146EEE72046FFF797
:1064DC00BFFF34462046BDE8F88301210430FFF7A6
:1064EC0059BB10B5012104460430FFF75FFBC0B265
:1064FC0020B92046BDE81040FFF7AABF10BD000030
:10650C001FB5144603920022009203AAFFF74AFF1C
:10651C00039BA34203D00349F620FFF7F3FA04B020
:10652C0010BD00BFE0C006001FB514460392012247
:10653C00009203AAFFF736FF039BA34204D0034942
:10654C004FF48070FFF7DEFA04B010BDE0C0060017
:10655C00836800225A60C3E904229A60DA601A60E8
:10656C007047000010B50D49A1F58C72914201D80D
:10657C0000200FE08C1AE30F03EBE4035B1002EB3B
:10658C00C30452F83330834205D802D204F1080216
:10659C00ECE7606810BD2146E8E700BFECC50600DB
:1065AC0008B5FFF7DFFF024B002808BF184608BDEF
:1065BC00BEC406002DE9F04FC9B008AA01F1400590
:1065CC0014464B780E781B0443EA0663CE783343AB
:1065DC008E78043143EA06238D4244F8043BF0D113
:1065EC001024916B16464FEAF14383EA714383EA18
:1065FC009123716A366852F8045F31440B444FEAB8
:10660C00B54181EAF51181EAD50101340B44402CE6
:10661C00D363E6D1D0E914E30093836D0193C36D8A
:10662C000293036E0393436E0493836E0593C36EC0
:10663C000693DDE9057BDDE9031CDDE901592B4BF4
:10664C00009E079374464FF00008079B53F8042BE9
:10665C0007934FEAF12383EAB11383EA716A08AB1B
:10666C0053F828301A440AEB020327EA010A01EA1C
:10667C000C028AEA02021A444FEA743A86EA0503CB
:10668C005A4423408AEAB40A06EA050B83EA0B0B48
:10669C008AEAB45A08F10108DA44B8F1400F02EB67
:1066AC000903BB465244A94619D172440265009AAB
:1066BC0022444265019A32448265029A2A44C26598
:1066CC00039A1A44049B02660B444366059B63447D
:1066DC008366069B3B44C36649B0BDE8F08F6746B2
:1066EC0035468C46264619461446AEE7ECC50600E0
:1066FC0030B5E0B10F4A104900240025C0E912451D
:10670C00C0E914120D4C0E4A0E4DC0E916420E4A49
:10671C00C0E918520D4A826602F17452A2F52302A6
:10672C000023A2F692420364C266184630BD0E20C6
:10673C00FCE700BF85AE67BB67E6096A72F36E3C87
:10674C003AF54FA57F520E518C68059BABD9831F30
:10675C0070B5F0B1DAB900201CE00C468D1800269B
:10676C00AC42F8D0036C14F8012BC2540133402B0B
:10677C000364F5D10146FFF71DFFD0E9123213F582
:10678C00007342F10002C0E912320664E8E7002906
:10679C00E3D10E2070BD70B50D4616460446002898
:1067AC0076D0002974D0036C8022591C372BE2540C
:1067BC0008443FD8C3F13702002105F08EF9D4E923
:1067CC001223216C0820E1FB0023C4E9122312BA26
:1067DC00E26323FA00F284F83B3084F83A201A0C76
:1067EC001B0E214684F8392084F838302046FFF7F8
:1067FC00E1FE691E6EB30023E26EDA4001F8012F50
:10680C00A26EDA400A71626EDA400A72226EDA40C7
:10681C000A73E26DDA400A74A26DDA400A75626D91
:10682C00DA400A76226DDA400833202B0A77E3D15E
:10683C00002070BD4029C3F13F024FF0000188BF1A
:10684C00002205F04AF921462046FFF7B3FE382214
:10685C00B2E71823226DDA4001F8012F626DDA409D
:10686C000A71A26DDA400A72E26DDA400A73226E86
:10687C00DA400A74626EDA400A75A26EDA400A7661
:10688C00E26EDA40083B13F1080F0A77E2D1CFE74A
:10689C000E20CEE7F0B578B371B36BB300241C6057
:1068AC008E18DB274FF0DC0C4FF0DD0E1A688E4291
:1068BC0002F1010400EB020504D11C60C0232B7013
:1068CC000020F0BD0D78C02D05D0DB2D0CD01C6048
:1068DC000C78845406E01C6087541A68541C1C60A5
:1068EC0000F802C00131E1E71C6085541A68541CA1
:1068FC001C6000F802E0F5E70E20E2E710B580B36B
:10690C00D0E902239A422ED00378012B0FD0022B10
:10691C0021D053B9C02928D0DB2902D1012303701F
:10692C0003E04368541C84609954112006E0DC2970
:10693C0005D0DD290AD0022303700B2010BD511C99
:10694C0043688160C02199540023E8E7511C8160A1
:10695C004368DB21F7E7C029E7D10023037083608C
:10696C00E3E70E20EAE70420E8E71846E6E7000034
:10697C001FB503788DF800304368019383688DF858
:10698C000830C368054A0393054B684653F8213019
:10699C0052F82110984705B05DF804FB64120020F2
:1069AC0068120020F0B506460F4B16F804CB43F8DE
:1069BC002C200E4B17460C460A6943F82C200FCCA2
:1069CC0089B06D460FC594E80F00002F85E80F00C5
:1069DC00074ACDF810C008BF3A466946304600F069
:1069EC0031F909B0F0BD00BF68120020641200201C
:1069FC007D690600024AD2F80034002BFBD07047A8
:106A0C0000E001400A4908B50223C1F80435BFF380
:106A1C006F8FBFF34F8FC1F80805FFF7EBFF002313
:106A2C00C1F80435BFF36F8FBFF34F8F08BD00BFA4
:106A3C0000E0014070B50E4E01231546C6F8043532
:106A4C00BFF36F8FBFF34F8F0024AC4207D10023ED
:106A5C00C6F80435BFF36F8FBFF34F8F70BD51F87D
:106A6C00243040F82430FFF7C5FF0134EDE700BFB8
:106A7C0000E0014010B5054C23681BB904495120B6
:106A8C00FFF740F82368BDE8104018476C1200204F
:106A9C00ECC6060038B50D4628B90C497720FFF72F
:106AAC0031F8002038BD0A4B9842FAD10020FEF78D
:106ABC00EDFF084B1C7914B901221D601A710020DE
:106ACC00FEF7F4FF002CECD01120EBE7ECC606002F
:106ADC00002000406C12002018B906499B20FFF7DB
:106AEC0011B8054B984201BF044B00221A601A7171
:106AFC00704700BFECC60600002000406C1200205E
:106B0C000023435082B043580193019B02B070475D
:106B1C001FB501238DF80030044BCDE90110D3E9EA
:106B2C0000126846904705B05DF804FB7412002013
:106B3C007FB5364AD2F82461002E46D010464FF469
:106B4C009271FFF7DDFF02238DF80030D2F880340C
:106B5C00C2F880340393D2F83C3502932C4BDA689C
:106B6C0001920022C3E906226846D3E9001290473D
:106B7C002648D0F8443173B14FF4A271FFF7C0FF2F
:106B8C00234B9A693AB10022C3E90622D968D0F89E
:106B9C003C05FFF7BDFF1D48D0F820319BB14FF4E9
:106BAC009071FFF7ADFF1A4B5A6962B1D0F84C15D2
:106BBC000291002299688DF8002001915A61684673
:106BCC00D3E90012904704B070BDD2F81031002BFD
:106BDC00CED04FF488711046FFF792FF0C4BD2F8D1
:106BEC003C0599698842C3D1DC69D96864B1D2F893
:106BFC00005225F02005C2F800521A699C61DA6037
:106C0C00DE61FFF785FFB3E79C61FAE700200040E7
:106C1C00741200201F2808B504D904494FF4F370EE
:106C2C00FEF770FF4FF0A04008BD00BF70BE06001D
:106C3C0010B50446FFF7EEFF04F5E074022340F8AC
:106C4C00243010BD2DE9F047054692460C4619B983
:106C5C006D49CD20FEF756FF95F804806B4E24232A
:106C6C0003FB086393F82030002B40F0C880684980
:106C7C002868FFF70FFF0746002840F0C280D4F8C1
:106C8C000090B9F1FF3F11D04846FFF7C3FF012335
:106C9C0003FA09F3D4F80090C0F808354846FFF71A
:106CAC00B9FF09F5E079032340F82930D4F80490B2
:106CBC00B9F1FF3F07D04846FFF7ACFF09F5E07983
:106CCC00002340F829302B68A269C3F82425217DC4
:106CDC00627D0A43C3F86C25D4E900200129C3F86E
:106CEC000C25C3F814052AD1D4F80890B9F1FF3F4C
:106CFC0007D04846FFF78EFF09F5E079002340F8EE
:106D0C002930D4F80C90B9F1FF3F11D04846FFF769
:106D1C0081FF012303FA09F3D4F80C90C0F808356D
:106D2C004846FFF777FF09F5E079032340F829304F
:106D3C00D4E902212B68C3F80815C3F810252423C5
:106D4C0003FB08F3F218C2F804A02269F250BAF15E
:106D5C00000F43D0286894F81C902E4A4FF4887189
:106D6C00FFF7CEFE28684FF49071FFF7C9FE286834
:106D7C004FF49271FFF7C4FE28684FF4A271FFF72D
:106D8C00BFFE2C68B9F1070FC4F804234FEA143A7C
:106D9C0044F3073403D920496B20FEF7B3FE002CD3
:106DAC00ACBF04F160431D4B4FEA4919B8BF0AF060
:106DBC000F0A5FFA89F9AABF03F5614303F80A9039
:106DCC0083F800932B68012143F30732C3F3043398
:106DDC0001FA03F35209124941F822302B680822B8
:106DEC00C3F80025242303FB08660023C6E90633F9
:106DFC007361012386F820303846BDE8F0870827F8
:106E0C00FAE71127F8E700BF3CC706007412002010
:106E1C003D6B06001003020086C7060014ED00E06F
:106E2C0000E100E02DE9F84303680679254C0022C7
:106E3C00C3F80025242202FB0642054652686AB1BB
:106E4C00214AC3F8082343F30732C3F30430520931
:106E5C000121814020321D4840F82210D3F80C0546
:106E6C00D3F81495D3F80875D3F810854FF0FF328A
:106E7C009042C3F80C25C3F81425C3F80825C3F8B1
:106E8C00102501D0FFF7D4FEB9F1FF3F02D04846E0
:106E9C00FFF7CEFEB8F1FF3F02D04046FFF7C8FE29
:106EAC007B1C02D03846FFF7C3FE2868FFF714FEA0
:106EBC00242303FB0644002384F820306360BDE8E0
:106ECC00F88300BF741200201003020000E100E000
:106EDC000279044B242101FB02335869003818BF96
:106EEC0001207047741200202DE9F047354F90F8BF
:106EFC000490242303FB0973054693F82030012BDF
:106F0C008846924604D030494FF49270FEF7FAFD51
:106F1C00B8F1000F04D12C4940F22510FEF7F2FD18
:106F2C00BAF1000F04D128494FF49370FEF7EAFD33
:106F3C002B7913B9BAF1FF0F04D9234940F227106A
:106F4C00FEF7E0FD08F06043B3F1005F33D1284653
:106F5C00FFF7BEFF044680BB242606FB0976286893
:106F6C00C6F814A04FF49071C6F80880FFF7C8FD5E
:106F7C004FF4AC712868FFF7C3FD2B687269B168D8
:106F8C00C3F84415C3F8482501229A607268B2B957
:106F9C00D3F82021D3F858014AB90028F8D00F2093
:106FAC00242303FB097700237B61BDE8F0870028CD
:106FBC0018BF0F20F4E71020F7E71120F5E7204663
:106FCC00F3E700BF741200203CC706002DE9F04126
:106FDC00474E0479242303FB0463054693F82030C1
:106FEC00012B8846174604D042494FF4B770FEF780
:106FFC0089FDB8F1000F04D13E4940F26F10FEF745
:10700C0081FD27B93B494FF4B870FEF77BFD2B7916
:10701C000BB9FF2F04D9374940F27110FEF772FDFE
:10702C0008F06043B3F1005F5FD1242303FB0463DA
:10703C00596821B12B684FF40472C3F80823242338
:10704C0003FB04639A6952B1DA69002A3BD021B17F
:10705C002B684FF40472C3F80423112031E09F61B4
:10706C00C3F80C80DA6128684FF48871FFF748FD8B
:10707C0028684FF4A271FFF743FD2B68C3F83485E1
:10708C00C3F8387522BB01221A602C79242202FB2A
:10709C00046252681ABBD3F81011D3F84421D3F808
:1070AC002401114302D10028F5D00A46242303FB06
:1070BC0004660023984218BF03209A42B36118BF9C
:1070CC000F20BDE8F081C3F81080DF610122CAE710
:1070DC00D3F8002242F02002C3F80022D5E74FF487
:1070EC000472C3F804230020EBE71020E9E700BF8B
:1070FC00741200203CC7060028B139B10023C1E945
:10710C0000301846704748F21050704748F2135040
:10711C00704730B1036848F240508B4208BF0020E2
:10712C00704748F21050704728B148F21150914204
:10713C0008BF0020704748F21050704770B50646E3
:10714C000C461D46FFF7D8FF50B9B3794AB1AB4294
:10715C000AD111462046FDF7E6FE08B9044B236020
:10716C0070BD48F21050FBE748F21150F8E700BF31
:10717C007052464D2DE9F0470C4606460F49204605
:10718C00DDE9088915461F46FFF7C3FFA0B9636800
:10719C005A79494652004046FFF7C6FF60B94DB1D7
:1071AC00CDF820803B462A4621463046BDE8F047C4
:1071BC00FDF7C1BE48F21050BDE8F0877052464D45
:1071CC0010B5044638B149B10B684160984708B90D
:1071DC00044B236010BD48F20150FBE748F21050FD
:1071EC00F8E700BF6E524648F0B4134648B1076842
:1071FC00094EB7420AD161B12AB14368F0BC5B6851
:10720C00184748F201531846F0BC704748F2025335
:10721C00F9E748F21053F6E76E524648F0B460B105
:10722C0007680C4EB7420CD171B143681568DC6825
:10723C00A5420CD3F0BC9B68184748F20150F0BC37
:10724C00704748F20250FAE748F21350F7E748F259
:10725C001450F4E76E524648F7B50446DDE908676A
:10726C0015460193FFF7ACFF68B9019A29462046F1
:10727C00FFF7BAFF38B93A463146204603B0BDE8AD
:10728C00F040FFF7CBBF03B0F0BD0000F8B50A4FDC
:10729C000A4C0B4EE41B0123E40833700025A54275
:1072AC0003D1022333700020F8BD57F835309847CE
:1072BC000028F9D10135F2E7F0BB0600F0BB06005F
:1072CC009812002038B50D46044618B908493320E9
:1072DC00FEF718FC691E21442046814200D238BDBD
:1072EC0003780A7800F8012B01F80139F5E700BFA3
:1072FC00B8C7060070B50D461446064618B90A49BB
:10730C004520FEF7FFFB1DB907494620FEF7FAFBA7
:10731C00621E3244013DB24200D270BD15F8013FED
:10732C0002F80139F7E700BFB8C7060070B516467A
:10733C0004460D46FFF7DEFF3246A919A019BDE839
:10734C007040FFF7D7BF38B50D460446FFF7BAFFBC
:10735C0029466019BDE83840FFF7B4BF08B50728C7
:10736C001BD8DFE800F004121A1A1A041A040120C0
:10737C00FDF7A3FD0020FDF765FD0120FDF762FD83
:10738C00BDE808400220FDF773BD0120FDF770FD3C
:10739C00BDE808400220FDF755BD08BD08B5FDF756
:1073AC000BFCFDF7D5F90028FBD10D4D642445F0FD
:1073BC0001054FF47A40A847013CFAD1094BD3F8A8
:1073CC00F020D20700D500BEBFF34F8FD968064A14
:1073DC0001F4E0610A43DA60BFF34F8F00BFFDE7B1
:1073EC00C0C8060000ED00E00400FA0507B50B4626
:1073FC00064C07490092641AE40824040246054925
:10740C0044F00100FDF72DFBFFF7C8FF08BC060098
:10741C00F8BB06004CC8060008B50246054B0648EA
:10742C0006491B1ADB081B0443F00100FDF706FBA1
:10743C00FFF7B4FF08BC0600F8BB060083C80600C3
:10744C000022104638B54FF4805101F013FA024671
:10745C0008B1FFF7E1FF1348C0F5FC2101F00AFA6F
:10746C0001460028F5D11048104CFDF717F9FDF72F
:10747C003BF80F4B0F49E41AE408240444F00304CE
:10748C002046FDF7D7FA0C4801F0A6F8054600286F
:10749C00DFD101F0B5F920460849FDF7CBFA2846B3
:1074AC0038BD00BF004006002D8C060008BC06004D
:1074BC00F8BB06009EC8060069730600AAC8060041
:1074CC008B1802448B4200D1704713F8010D02F85F
:1074DC00010DF7E7C3F10803DB0070B50133044677
:1074EC00002003A55B1920C940CAAD1920C4184758
:1074FC0020C940CA754120C420C940CA754120C466
:10750C0020C940CA754120C420C940CA754120C455
:10751C0020C940CA754120C420C940CA754120C445
:10752C0020C940CA754120C4404170BD0000000014
:10753C0000000000C3F10803DB0070B50133002428
:10754C0003A500BF5B1920C940CAAD1B20C018475A
:10755C0020C940CAB54120C020C940CAB54120C08D
:10756C0020C940CAB54120C020C940CAB54120C07D
:10757C0020C940CAB54120C020C940CAB54120C06D
:10758C0020C940CAB54120C06441B4FA84F0400916
:10759C0070BD00BF2DE9F04F08B4F8CA04B451F81F
:1075AC00042BA3FB028940F8048B4FF0000AE4FB88
:1075BC00629A4FF0000BE5FB62AB4FF0000CE6FB60
:1075CC0062BC4FF0000EE7FB62CE51F8042B4FF07B
:1075DC000008E3FB628940F8048BE4FB629AE5FB4C
:1075EC0062ABE6FB62BCE7FB62CE51F8042B4FF0BA
:1075FC000008E3FB628940F8048BE4FB629AE5FB2C
:10760C0062ABE6FB62BCE7FB62CE51F8042B4FF099
:10761C000008E3FB628940F8048BE4FB629AE5FB0B
:10762C0062ABE6FB62BCE7FB62CE51F8042B4FF079
:10763C000008E3FB628940F8048BE4FB629AE5FBEB
:10764C0062ABE6FB62BCE7FB62CE40F8049B40F801
:10765C0004AB40F804BB40F804CB40F804EB0CBC82
:10766C00052B00F01E810C68A0F11400A1F114018F
:10767C00A2F1140252F804EB4FF0000550F8046B21
:10768C00E4FB6E5652F804EB50F8047BE4FB6E6797
:10769C0052F804EB50F8048BE4FB6E7852F804EBD0
:1076AC0050F8049BE4FB6E8952F804EB50F804ABE1
:1076BC00E4FB6E9AA0F1140052F8044B51F804EB61
:1076CC004FF0000CE4FB6EC540F804CB51F804EB12
:1076DC00E4FB6E5640F8045B51F804EBE4FB6E6778
:1076EC0040F8046B51F804EBE4FB6E7840F8047B33
:1076FC0051F804EBE4FB6E8940F8048B51F804EB71
:10770C00E4FB6E9AA0E80006062B00F0CA800C6819
:10771C00A0F11800A1F11801A2F1180252F804EB23
:10772C004FF0000550F8046BE4FB6E5652F804EB76
:10773C0050F8047BE4FB6E6752F804EB50F8048BB2
:10774C00E4FB6E7852F804EB50F8049BE4FB6E8972
:10775C0052F804EB50F804ABE4FB6E9A52F804EBCD
:10776C0050F804BBE4FB6EABA0F1180052F8044BCC
:10777C0051F804EB4FF0000CE4FB6EC540F804CB61
:10778C0051F804EBE4FB6E5640F8045B51F804EB43
:10779C00E4FB6E6740F8046B51F804EBE4FB6E7885
:1077AC0040F8047B51F804EBE4FB6E8940F8048B41
:1077BC0051F804EBE4FB6E9A40F8049B51F804EB8F
:1077CC00E4FB6EABA0E8000C072B6AD008B40C6885
:1077DC00A0F11C00A1F11C01A2F11C0252F804EB57
:1077EC004FF0000550F8046BE4FB6E5652F804EBB6
:1077FC0050F8047BE4FB6E6752F804EB50F8048BF2
:10780C00E4FB6E7852F804EB50F8049BE4FB6E89B1
:10781C0052F804EB50F804ABE4FB6E9A52F804EB0C
:10782C0050F804BBE4FB6EAB52F804EB50F804CBFD
:10783C00E4FB6EBCA0F11C0052F8044B51F804EBB5
:10784C004FF00003E4FB6E3540F8043B51F804EBB9
:10785C00E4FB6E5640F8045B51F804EBE4FB6E67F6
:10786C0040F8046B51F804EBE4FB6E7840F8047BB1
:10787C0051F804EBE4FB6E8940F8048B51F804EBEF
:10788C00E4FB6E9A40F8049B51F804EBE4FB6EABFE
:10789C0040F804AB51F804EBE4FB6EBCA0E8001814
:1078AC0008BCBDE8F08F002310B51C465AB29142BB
:1078BC0000DC10BD40F823400133F7E710B500237E
:1078CC001A465CB2A14203DCB2FA82F0400910BD48
:1078DC0050F8234001332243F3E74A11012350F8B7
:1078EC00220001F01F0103FA01F108407047013931
:1078FC0010B549B2041D0A06CBB204D4013954F8B0
:10790C002120002AF7D001335BB273B103F180421E
:10791C00013A50F82220002022B9013B00EB43131E
:10792C0018B210BD52080130F6E71846F9E710B549
:10793C0000235CB2A24200DC10BD51F8234040F899
:10794C0023400133F5E710B5013A52B2130601D5C5
:10795C00002010BD50F8224051F822309C4205D82E
:10796C0002F1FF32F2D24FF0FF30F2E70120F0E7E4
:10797C0000EB81010023884200D3704751F8042D9D
:10798C0043EA52030B60D307F5E737B51D469DF963
:10799C00183001930446FFF79DFD019B38B91A4638
:1079AC0021462846FFF7CFFF0128019B07D02A4626
:1079BC002146204603B0BDE83040FFF7BBBD03B005
:1079CC0030BD37B51D469DF9183001930446FFF7BD
:1079DC00B1FD019B38B12A462146204603B0BDE8D3
:1079EC003040FFF777BD03B030BD2DE9F04FB5B097
:1079FC0004AC9DF9F8501E4680462B462046FFF7F6
:107A0C00C9FD24AB29463046CDE90234FFF76FFFA0
:107A1C00C0EB851004B2002C2146B8BF04F11F0145
:107A2C00634241F3471103F01F0314A804F01F072E
:107A3C0058BF5F42FFF737FF002F08B22BDD14ABA6
:107A4C00002203EB8001C7F1200E1346AB4217D383
:107A5C006B00019314AB03EB85096F1E34AB01264D
:107A6C0003EB8707002C54DA34AB03EB86062A466B
:107A7C0056F8C81C4046FFF75AFF35B0BDE8F08FEA
:107A8C0056F823C00CFA07F0024341F8042B0133DB
:107A9C002CFA0EF2DAE714AB2A46314603EB8000DF
:107AAC00FFF745FFD4E70FFA82FE5AF8C83C53F8AB
:107ABC002EB034AB03EB8202013052F8803C0B4405
:107ACC00BBEB030334BF012200229B4518BF1146B8
:107ADC005CF8C82C42F82E30019B42B29A42E2DB91
:107AEC00731A5E42294614A85E41FFF741FF34AB7E
:107AFC0003EB8503294653F8802C57F8803C484605
:107B0C0043EAC273013C47F8803C24B2FFF730FFD4
:107B1C00A8E734AB0020C6F1010C014603EB860A42
:107B2C0003EB8C0CD8E730B51C4691B0054693F9A5
:107B3C0000306846FFF72EFDD4F8AC306946284675
:107B4C00984711B030BD13460A46FFF7ECBF2DE93C
:107B5C00F04793F9006092B00446894610463146CE
:107B6C0015461F46FFF7AAFE002840F091803A46C2
:107B7C00494602A8FFF7E7FF3B4602AA21460AA89E
:107B8C00FFF7D1FF02A908463A46FFF7DCFF3B4658
:107B9C002A4649464846FFF7C6FF07F104083A460D
:107BAC0029462846FFF7CFFF43462A462146204662
:107BBC000096FFF7EAFE43462A46294628460096D9
:107BCC00FFF7E3FE43462A46214628460096FFF778
:107BDC00F8FE3B462A4621462046FFF7A4FF4346C3
:107BEC002246214628460096FFF7CFFE43460096D4
:107BFC002A4621462046FFF7C8FE2368DB074AD5F4
:107C0C003346424621462046FFF764FC3146824605
:107C1C002046FFF7ADFE06F18043013B54F82320CC
:107C2C0042EACA7244F823203A4621462846FFF716
:107C3C008AFF43460AAA294628460096FFF7C1FE4A
:107C4C0043460AAA294628460096FFF7BAFE0AA917
:107C5C00084643462A460096FFF7B3FE3B460AAA5F
:107C6C0021462046FFF75FFF02AA434610462146F5
:107C7C000096FFF7A6FE324629462046FFF757FE30
:107C8C0049462846FFF753FE02A94846FFF74FFE28
:107C9C0012B0BDE8F08731462046FFF769FEC3E716
:107CAC002DE9F04115468AB004460E461C220021EF
:107CBC0003A803F012FF2F1D95F9008003232A4619
:107CCC00314620460293FFF73EFF3B4602AA21466F
:107CDC002046CDF80080FFF774FE2B463246214635
:107CEC002046FFF720FFCDF800803B4605F18402CB
:107CFC0021462046FFF749FE0AB0BDE8F08100009E
:107D0C002DE9F042082288B00C468146FFF70FFEA1
:107D1C00CB6A03930B6B04934B6B05938B6B0693A2
:107D2C00CB6B0793002708236A4669466846CDE962
:107D3C0001770097FFF7CEFB082305466A464946B4
:107D4C004846FFF7C7FB236B0393636B0493A36B4A
:107D5C000593E36B0544CDE906376A46082369466B
:107D6C006846FFF7B7FB082305446A464946484670
:107D7C00FFF7B0FB236A0093636A0193A36A029333
:107D8C00A36B0693E36B0793054408236A464946A5
:107D9C004846CDE904770397FFF79CFB636A009391
:107DAC00A36AA26B0193E36A02930492636BE26B86
:107DBC000393CDE90523236A07932E1808236A46FB
:107DCC0049464846FFF786FBE36A0093236B019311
:107DDC00636B0293236A0693A36A079335180823EF
:107DEC006A4649464846CDE904770397FFF7A2FB5C
:107DFC00236B0093636B0193A36B0293E36B03936D
:107E0C00636A0693E36A07932E1A08236A46494667
:107E1C004846CDE90477FFF78DFB636B0093A36BAA
:107E2C000193E36B0293236A0393636A0493A36A3B
:107E3C00CDE90537236B0793361A08236A46494662
:107E4C004846FFF777FBA36B0093E36BCDE9013753
:107E5C00636A0393A36A0493E36ACDE90537636B02
:107E6C000793361A08236A4649464846FFF762FBD1
:107E7C00361A0E4C0FD436B9082249462046FFF765
:107E8C0062FD01280FD00823224649464846FFF7D9
:107E9C0051FB361AEFE70823224649464846FFF7BE
:107EAC0019FB3618F7D408B0BDE8F082CCC8060030
:107EBC0070B514468AB006460D461A46214602A8ED
:107ECC000193FFF740FE019B02AA31463046FFF7B3
:107EDC002AFE02A9019B22460846FFF724FE019BBD
:107EEC0002AA29462846FFF71EFE0AB070BD2DE9EE
:107EFC00F0478AB01446DDF848A055461F4615F9E0
:107F0C00046B0096804689462B460246214602A801
:107F1C00FFF757FD02A952460846FFF714FE5346D9
:107F2C0002AA41464046FFF7FEFD534602AA2146EF
:107F3C002046FFF7F8FD2B464A4639463846009650
:107F4C00FFF73FFD5246394602A8FFF7FCFD02A998
:107F5C002B46424608460096FFF733FD02A92B46F6
:107F6C00224608460096FFF72CFD2B46424621463A
:107F7C0020460096FFF725FD5346224649464846C3
:107F8C00FFF7D1FD2B4602AA414620460096FFF78B
:107F9C0018FD5346224639463846FFF7C4FD2B469A
:107FAC004A46394638460096FFF70BFD324602A981
:107FBC002046FFF7BCFC0AB0BDE8F0872DE9F0477E
:107FCC009846B3F90230894613F11F0148BF03F1FB
:107FDC003E01DD1D48BF03F10E05EC104E1194421D
:107FEC0075B228BF144629460746FFF75CFC2246AB
:107FFC004946FFF765FAB8F90230B3EBC40F4FEA04
:10800C00C40220D2D21A07EB86010020C2F120064E
:10801C008F420FD308F124082A4639464046FFF711
:10802C0092FC01280FD02B4642463846BDE8F0475B
:10803C00FFF780BA51F8044D24FA02F303430B60A6
:10804C0004FA06F0E4E7BDE8F08770B5036813F0B6
:10805C0001060546144605D013460A460146FFF7AD
:10806C0039FA064621462846FFF782FC46B104F150
:10807C008042013A55F8223043F0004345F8223053
:10808C0070BDF0B50F46A1B00646194638461546E8
:10809C001C46FFF713FC20B13046FFF704FC21B05F
:1080AC00F0BD224639466846FFF741FC294608A830
:1080BC00FFF73DFC10A82146FFF7F5FB012318A89C
:1080CC001093FFF7F0FB224608A96846FFF73BFC2C
:1080DC0028B9224610A93046FFF729FCDFE7009BA0
:1080EC00DA0709D421466846FFF742FC22462946A6
:1080FC0010A8FFF7AAFFE6E7089BDB0707D4214689
:10810C0008A8FFF735FC2246294618A8F1E70028F5
:10811C0023461CDD08AA69466846FFF70BFA214680
:10812C006846FFF725FC224618A910A8FFF70BFCA0
:10813C00002805DA10A923462A460846FFF7CAF993
:10814C0010A9234618AA0846FFF7F4F9CEE708A9A8
:10815C006A460846FFF7EEF9214608A8FFF708FC27
:10816C00224610A918A8FFF7EEFB002805DA18A97B
:10817C0023462A460846FFF7ADF918A9234610AA4C
:10818C000846FFF7D7F9BEE700487047C8C8060095
:10819C002DE9F04F2DED028BEDB08946789E0590C0
:1081AC001946B6F9023096F9004013F11F0748BF83
:1081BC0003F13E0747F3471707F1FF3B24AB0025BC
:1081CC0043F82B506CAB03EB8B0307EE902A4CA8B7
:1081DC0096F9012043F8805C43F8605CFFF770F976
:1081EC0096F9012054A81144FFF76AF921464CA8CE
:1081FC00FFF764FB8046002840F0428154A8FFF74B
:10820C005DFB0390002840F03D8106F1240A3A46BC
:10821C004CA95046FFF797FB012840F035813A46B0
:10822C0054A95046FFF78FFB0128069040F02C8193
:10823C001CAD3B46524654A92846FFF722FF0DF1D0
:10824C003008039B48F82B3017EE902A49464046DD
:10825C003346FFF7B3FE4146404653462A46009745
:10826C00FFF7C3FB0DF5B87B53462A464CA914A85F
:10827C000097FFF7BAFB224658460599FFF757FBC4
:10828C00A3000793059B0BEB840903EB8401484681
:10829C00FFF74DFB06F14403194634A80493FFF78E
:1082AC0046FB049BA10059183CA8FFF740FB331D6B
:1082BC0008EE903A594634AA28460094FFF781FB01
:1082CC004B465A463CA934A80096FFF710FE18EE10
:1082DC00902A234629462846FFF7D3FE2A464946CC
:1082EC0058463346FFF7E4FD039B0893049B099320
:1082FC00059B39464046CDE90A3BFFF7F8FA39466B
:10830C00834614A8FFF7F3FA5845B8BF58461FFA2E
:10831C0080FB0BF1FF3109B240460491FFF7DDFA07
:10832C000499B0F1000814A818BF4FF00108FFF72A
:10833C00D4FA002814BF0220002048EA00080DF1EE
:10834C002009224659F8281024A8FFF7F0FA0DF15D
:10835C00B009A30019444846FFF7E9FA214628461C
:10836C00FFF7A1FA069B2B60ABF1020824AB08EED9
:10837C00105A0FFA88F80493B8F1000F2ADA18EEA5
:10838C00902A18EE101A18EE100A2346FFF779FE01
:10839C0018EE102A049833464946FFF789FD0499D4
:1083AC003A465046FFF7CFFA012805D004993B46D0
:1083BC0052460846FFF7BEF8013C64B24CAA2306AD
:1083CC0053D5039BB3FA83F040096DB0BDEC028B1F
:1083DC00BDE8F08F334618EE102A0498D6F8A45056
:1083EC004946A84741460CA8FFF777FA4146B0F139
:1083FC00000B14A818BF4FF0010BFFF76EFA002802
:10840C0014BF022000204BEA000B08AB53F82B10D2
:10841C0031B3224634A8FFF78AFA079B3CA81944CB
:10842C00FFF785FA18EE102A33463CA934A8FFF75B
:10843C003FFD18EE903A0499009434AA44A8FFF733
:10844C00C0FA049A00964B463CA934A8FFF74FFD9E
:10845C0018EE101A18EE100A334644AAFFF763FB05
:10846C0008F1FF380FFA88F886E7049B52F82410BD
:10847C0053F824304B40039919430391013C9EE778
:10848C002846A2E74046A0E703989EE713681F2BF7
:10849C0010B5144607D900220830FEF77CF908B94C
:1084AC002023236010BD48F21450FBE70830FEF780
:1084BC004FB90830FEF71CB9014B01221A707047F6
:1084CC00BC16002008B50948094B0A49C01AC00857
:1084DC00000440F00400FCF7ADFA074B07480022FB
:1084EC001A70BDE8084001F07DBE00BF08BC060054
:1084FC00F8BB060090C90600BC1600207585060066
:10850C0008B50748074B0849C01AC008000440F0DA
:10851C000300FCF78FFABDE80840FFF7D3BF00BF9C
:10852C0008BC0600F8BB0600A6C90600042810B556
:10853C00044607D8022808D909494FF4701000F0F6
:10854C002FFB02E0831F012B06D9064B1B6833B1AE
:10855C002046BDE810401847FFF7B4FFF5E710BD03
:10856C000D850600C016002008B5FCF725FBFCF7AE
:10857C00EFF80028FBD10B4D642445F001054FF4B6
:10858C007A40A847013CFAD1BFF34F8F0649074BFD
:10859C00CA6802F4E0621343CB60BFF34F8F00BF95
:1085AC00FDE700BF60CB060000ED00E00400FA051B
:1085BC0008B50648064B0749C01AC008000440F02D
:1085CC000400FCF737FA002008BD00BF08BC060009
:1085DC00F8BB0600BAC90600F8B5714B714C72496C
:1085EC00E41AE408240444F0040605463046FCF77B
:1085FC0021FA6E4B6E4A1D604FF0A0430020C3F869
:10860C00402701F005FE002840F0C58000F076FC04
:10861C00012800F0B980022800F0BF80002840F04B
:10862C00BA804FF08043D3F8005415F480354CD009
:10863C004FF48032C3F8002405465E4F3B6A012B91
:10864C0056D05D4944F00300FCF7F4F95B49304621
:10865C00FCF7F0F94FF4701400F08AFD584A202111
:10866C001820FDF745F908B1FEF7D6FE4FF0804310
:10867C00D3F81C2502F0F802B02A09D1D3F81C2536
:10868C00D20742BFD3F81C2502F04E02C3F81C25BA
:10869C00FFF78EFF00287ED120464A4900F080FA71
:1086AC00494800F025FF002875D148493046FCF7B1
:1086BC00C1F900F0A3FDFDF79BF9FCF749F8002880
:1086CC00F7D120BF40BF20BFF3E7D3F8202502F03D
:1086DC00F802A82A0AD1D3F82025D00706D5D3F85A
:1086EC00202502F05602C3F82025A6E70125A4E7B1
:1086FC004FF440535A68364B9A420FD17A6B1DB9DE
:10870C0097F86032012B09D032484FF4805102F0B7
:10871C007DFC18B9304944F0020095E701F016FFD2
:10872C00BA6901461DB997F8A132012B05D02B4827
:10873C0002F06CFC08B92A49EDE72A493046FCF7EF
:10874C0079F94FF0A043D3F81035D90301D4264959
:10875C007DE74FF08043D3F81C3513F0B10F01D0F7
:10876C00224974E701F02AFEA8B9214D287021484E
:10877C0001F038FD2B7823B91F494FF4FE70FDF73B
:10878C00C1F900F03DF801E0FFF79CFE1B4944F0F5
:10879C000100FCF74FF90320F8BD4FF4A0245BE770
:1087AC00F8BB060008BC0600D4C90600C0160020A1
:1087BC000C000300E01F0020EBC9060089CA06006C
:1087CC009C1200200D85060039850600F8CA0600AB
:1087DC00DBE5B1514022002019CA0600812200209D
:1087EC0054CA06007CCA0600ACCA0600CBCA0600F6
:1087FC00BC160020C584060008CB0600ECCA060097
:10880C0037B5164B164C174D1749E41AE4082404D7
:10881C0044F004004FF480520190FCF70FF9D5F8A6
:10882C00802012490198FCF709F94FF0FF33C5F885
:10883C008030C5F8803100F07EFF20B10C4944F047
:10884C000100FCF7F7F8FBF783FF0028FBD14FF48E
:10885C00805003B0BDE8304000F03AB8F8BB0600D9
:10886C0008BC060000E100E066CB06009CCB0600CD
:10887C00C6CB060070B5C1F30B0434BBB0F5FE2FAC
:10888C0023D84B1E1B0B020B03EB103101264FF0B0
:10889C008040914201D2204670BD02F01F03550961
:1088AC0006FA03F3032D05D8DFE805F00206090CE0
:1088BC00C0F800360132ECE7C0F80436FAE7C0F82D
:1088CC001036F7E7C0F81436F4E70724E3E70000A6
:1088DC0070B50446314888B00022C0F5FE21FFF780
:1088EC00C9FF50B12E4A2F4B2F499B1ADB081B0492
:1088FC00024643F00100FCF7A1F801F027FE2B4BD8
:10890C009969002201441046FFF7B4FF50B1244A84
:10891C00244B27499B1ADB081B04024643F0010039
:10892C00FCF78CF8EFF305810023D4E9002083F3E6
:10893C00148883F3108883F3118883F31388C1F3AD
:10894C00080139B982F308884FF0FF339E4600477F
:10895C0008B070BDCDE90033CDE9023304934FF07C
:10896C00FF33CDE905304FF080730793A2F120035C
:10897C006D461C4608AE2A4603CAB24220606160AE
:10898C00154604F10804F6D183F308884FF0FF3341
:10899C009E466FF006031847DAE700BF004006005A
:1089AC00F8BB060008BC0600FBCB0600E01F00204D
:1089BC0032CC060073B5274B064627481B1ADB083A
:1089CC001B040C463246254943F00400FCF736F8EC
:1089DC00B4F1807F39D322498F20FDF793F86FF0E3
:1089EC007F41A14228BF21461E4B641AD3F804557F
:1089FC00631E942B96BF9634746074600D44347B64
:108A0C0025F07F4598BF963D032C03D91449772058
:108A1C00FDF778F8134E04F5A8734FF4F86046F898
:108A2C002350114B43F001039847104BA200134401
:108A3C0000221A601B680193019B4FF4803303FAE8
:108A4C0004F4C6F8044302B070BD952CC7D8044991
:108A5C009020C2E708BC0600F8BB060066CC0600F6
:108A6C007CCC06000040024000CD06004041024094
:108A7C001FB518490B7853BB4FF08043A024D3F893
:108A8C001824D2035CBF01229A60134B0022C3F856
:108A9C000021D3F8000103900398C3F84021D3F8C8
:108AAC00400102900298C3F84421D3F8440101908C
:108ABC0001980A4880F8244310244460C3F8082520
:108ACC00022001229A601A60C3F804030A7004B0F1
:108ADC0010BD00BFC81600200040024000E100E0BD
:108AEC00264B2DE9F743D3F8042152B124490A68E7
:108AFC0001320A600022C3F80421D3F80431009338
:108B0C00009B204D204B214C214EDFF89080DFF84C
:108B1C006C90204FED1AED082D0445F004053368D8
:108B2C00CBB100233360336801932246414628467B
:108B3C00019BFBF783FF227B17494FF48033934053
:108B4C00C9F8083322462846FBF778FF616851B113
:108B5C002046FFF72FFF0436BE4204F11004DED18D
:108B6C0003B0BDE8F083A16811B12046FFF722FFE6
:108B7C002368002BEFD09847EDE700BF0040024080
:108B8C00C416002008BC0600F8BB06002400002018
:108B9C004041024048410240EECC0600DCCC0600CD
:108BAC00F8B5114B114E0446114837681B1ADB08F7
:108BBC001B043A4643F004000D460E49FBF73EFFFA
:108BCC003A7B4FF4803393400B4AC2F808334CB1D4
:108BDC003668FFF74DFF356021463046BDE8F8405A
:108BEC00FFF7E8BEF8BD00BF08BC0600440000203B
:108BFC00F8BB0600DCCC06000040024070B5074B09
:108C0C001D6804460E46A860FFF732FF2E60214611
:108C1C002846BDE87040FFF7CDBE00BF48000020DD
:108C2C00034A044B1068D3F8043503EB006070471B
:108C3C00C416002000400240014B01221A707047FC
:108C4C00C9160020224BDA6AAC2A2DE9F3415F6A7F
:108C5C009D6C1FD15B6B1D44FF1A1E4B1E4E1F4A91
:108C6C001F490097F61AF608360446F004082B46FE
:108C7C004046FBF7F6FE19483A46294602F0CDFE6F
:108C8C00044668B917494046FBF7D4FE204602B0AB
:108C9C00BDE8F081002DE0D101F06CFC0546DCE76D
:108CAC0011493B462A464046FBF7D1FEFBF750FDE7
:108CBC000028FBD100F0A2FA3946284600F02AFD24
:108CCC0004460028E2D0094946F00100DCE700BF69
:108CDC00E01F0020F8BB060008BC060000400600A0
:108CEC0006CD06003BCD060072CD06009FCD0600DA
:108CFC002DE9F04F3C4B16463C4A9B1A87B0DB08DB
:108D0C001B04814205460F46049343F0040B08D123
:108D1C0037495846FBF78EFE0024204607B0BDE8C5
:108D2C00F08F03D233494F20FCF7ECFEC5F30B0355
:108D3C001BB130495120FCF7E5FE7B1BB3F5805F7E
:108D4C004FEA133403D22B495420FCF7DBFE00F01E
:108D5C000FFA082C28BF082406F6FF7923034FEAE4
:108D6C001939039405930EB93446D6E7039B4B454A
:108D7C003ABFDDF80CA0DDF81480CA464FF00002B3
:108D8C005146284628BFB04600F07EFC0446002819
:108D9C00C3D11949CDF800802B463A465846FBF70B
:108DAC0060FE08F10302234622F0030239462846EE
:108DBC0000F02CFC04460028AFD1104A136B43443E
:108DCC00136301F015FAA9EB0A09A6EB0806454452
:108DDC00474404460028C6D0049B094943F00100CF
:108DEC00FBF728FE99E700BF08BC0600F8BB06009D
:108DFC00B9CD0600C8CD06002BCE0600E01F002022
:108E0C004CCE06002DE9F74301F0C6FB314C324B3A
:108E1C00DFF8E4903149D9F84860D9F83080D9F8B6
:108E2C003450E41AE4082404074644F0040001908A
:108E3C00FBF700FE06F5005301985A68284B9A423E
:108E4C0009D0284944F00100FBF7F4FD032528461E
:108E5C0003B0BDE8F083D9F83030AB421E4404D1E6
:108E6C002149FBF7E7FD0025F1E7C3B94FF4405268
:108E7C001178142982BF1D495269B2FBF1F206F533
:108E8C00005198BF1A4691F800C0BCF1140F82BF74
:108E9C004969164BB1FBF3F31549FBF7D8FDA5EB6C
:108EAC00080202F6FF7222F47F6222F00F023146B2
:108EBC0007EB0800FFF71CFF054628B10D4944F0ED
:108ECC000100FBF7B7FDC2E703B0BDE8F04301F0CA
:108EDC008FB900BF08BC0600F8BB060085CE0600A3
:108EEC00DBE5B151AACE0600DECE060040420F00F3
:108EFC00F0CE060019CF0600E01F00202DE9F04748
:108F0C00624B634D634E6449ED1AED082D0445F038
:108F1C0004073846FBF78EFDF36AAA2B00F09A8003
:108F2C000CD8012B22D0A52B00F0888045F0030033
:108F3C005A49FBF77FFD0020BDE8F087AC2BF5D13B
:108F4C0057493846FBF776FD56493846FBF772FD14
:108F5C00FFF758FF0446002800F08680524945F080
:108F6C000100FBF767FD4FF0010823E04F4938463D
:108F7C00FBF760FDD6F82490D6F848A001F0E6FA8D
:108F8C00346B4B4900EB04083846FBF753FD316B4F
:108F9C005144884514BFA9EB040200224046FFF758
:108FAC00A7FE044670B1434945F00100FBF742FDB2
:108FBC004FF00008F36A4049224645F00100FBF7E8
:108FCC0046FD13E001F0C2FA22464946FCF77EFD4D
:108FDC00B26A904280462AD138493846FBF72AFDBE
:108FEC000123C6E90783C6F81890A0463448DFF879
:108FFC00F49001F06BFA0023324889F8003001F04C
:10900C00F7F899F80030044623B92F494FF4D17082
:10901C00FCF778FD8CBBB8F1000F35D0336A012B0F
:10902C0032D138462949FBF705FD022084E7034677
:10903C00274945F00100FBF70AFDD6E725493846DC
:10904C00FBF7F8FCFFF7DEFE4FF001080446002C9E
:10905C00CCD0AFE720493846FBF7ECFCFFF7F2FD2C
:10906C004FF000080446F2E7FFF7ECFD044608B1A8
:10907C001A4974E74FF00108B8E745F001001849A8
:10908C00FBF7D8FC032057E7012055E7F8BB060097
:10909C0008BC0600E01F002032CF06003ED00600C0
:1090AC00E7CF0600F5CF060012D0060053CF06001E
:1090BC005DCF060019CF060057D0060078CF06000A
:1090CC0004200020458C0600C8CD060089D006007F
:1090DC008DCF0600D5CF0600DECF060028D00600C7
:1090EC00E5D00600C91600200A4AD2F800347BB13C
:1090FC0009480023D2F80815D940C90748BF03F521
:10910C00C07103F1010348BF42F82100072BF1D1D4
:10911C00704700BF000001403546526E08B5074845
:10912C00074B0849C01AC008000440F00300FBF7C5
:10913C0081FCBDE80840FFF7D7BF00BF18BC060094
:10914C00F8BB0600FFD0060007B5084B0022C3F899
:10915C000021D3F800310193019BFBF72DFDFBF7A8
:10916C00F7FA0028FBD103B05DF804FB00000140C6
:10917C0037B5194D2B784BBB18481949194B401A68
:10918C00C008D3F80024000440F0030002B3D3F865
:10919C000445154901902246FBF750FC40F6165247
:1091AC009442B8BF1446A4F54864FFF79DFF2246CD
:1091BC000E490198FBF742FC0D492046FFF71EFDB6
:1091CC000C4B4FF480321A6001232B7003B030BD6E
:1091DC000949FBF72FFCF7E7CA16002018BC06005C
:1091EC00F8BB0600000001400DD1060026D1060098
:1091FC002991060000E100E058D10600034BD3F89A
:10920C0000340BB1FFF770BF704700BF0000014086
:10921C004FF0704393F8E02F062A10D1D3F8E42FC7
:10922C0012070CD1D3F8E80F00F0F003302B08D064
:10923C0000F0E000A0F14003584258417047002074
:10924C007047012070474FF0704393F8E02F062AC7
:10925C000CD1D3F8E42F120708D1D3F8E80F00F0A3
:10926C00F000A0F13003584258417047002070477D
:10927C0008B5FFF7CDFF40B14FF08053884AD3F8C3
:10928C002433C3F30423C2F84035FFF7DCFF10B1DD
:10929C00844B854A5A67FFF7BBFF48B14FF08053A8
:1092AC004FF08042D3F84432C3F34233C2F83C351A
:1092BC00FFF7C9FF30B17D4AD2F8FC3023F0807340
:1092CC00C2F8FC30FFF7A4FF40B14FF080430022FE
:1092DC00C3F80C21C3F81021C3F83825FFF7B3FFEE
:1092EC0020B14FF080430322C3F8A025FFF7ABFF5A
:1092FC0060B16F4B0522C3F810260122C3F88826F3
:10930C000022C3F818263F22C3F814264FF07043EE
:10931C0093F8E02F062A50D1D3F8E42F11074CD143
:10932C00D3F8E83F03F0F003502B46D14FF08052B6
:10933C00604BD2F80414C3F82015D2F80814C3F803
:10934C002415D2F80C14C3F82815D2F81014C3F84D
:10935C002C15D2F81414C3F83015D2F81814C3F81D
:10936C003415D2F81C14C3F84015D2F82014C3F8E5
:10937C004415D2F82414C3F84815D2F82814C3F8AD
:10938C004C15D2F82C14C3F85015D2F83014C3F87D
:10939C005415D2F83414C3F86015D2F83814C3F845
:1093AC006415D2F83C14C3F86815D2F84014C3F80D
:1093BC006C15D2F84424C3F87025FFF729FF48B187
:1093CC004FF080534FF08042D3F8583203F04F03E4
:1093DC00C2F8E43EFFF71CFF48B14FF08043D3F8CE
:1093EC000024D20744BF6FF00102C3F800244FF0F1
:1093FC008053D3F83021062A0AD1D3F83431062B06
:10940C0001BF2D4AD2F83C3743F48063C2F83C3795
:10941C00264AD2F8883043F47003C2F88830BFF380
:10942C004F8FBFF36F8F4FF01023D3F80022002A19
:10943C0003DBD3F80432002B2EDA204B0122C3F8C5
:10944C000425D3F80024002AFBD04FF0102215215C
:10945C00C2F80012D3F80024002AFBD04FF01023DE
:10946C001522C3F80422154BD3F80024002AFBD094
:10947C000022C3F80425D3F80024002AFBD0BFF344
:10948C004F8F0A490E4BCA6802F4E0621343CB605B
:10949C00BFF34F8F00BFFDE70A4B0B4A1A6008BDA4
:1094AC000030014000C007400DF0ADBA00ED00E007
:1094BC000050004000C000400010004000E001409F
:1094CC000400FA054C0000200090D003062810B5CB
:1094DC00044602D1002000F0BFFF044B1B681BB1F7
:1094EC002046BDE81040184710BD00BFCC16002028
:1094FC0038B5104B104C1860104B1149E41AE408A5
:10950C00240444F00300FBF795FA0020FFF7DEFF7C
:10951C000C4800F067FF054620B9BDE83840094803
:10952C0000F06CBC0246084944F00100FBF786FAD7
:10953C00284638BDCC16002008BC0600F8BB060037
:10954C0034D30600D994060047D3060030B51A4927
:10955C000B6885B004460BB1013B0B601748184AE9
:10956C0063682578121AD208120442F004008BB9F1
:10957C000B68144A14490093012D08BF0A46A368CE
:10958C001249FBF76EFA63699BB1E06805B0BDE860
:10959C00304018470A68029222690192A2680A496F
:1095AC000092084A012D08BF0A460949FBF773FAD5
:1095BC00E9E705B030BD00BFD0160020F8BB0600AF
:1095CC0020BC060077D3060071D306007DD30600BD
:1095DC00A3D3060008B50848084B0949C01AC008AF
:1095EC00000440F00400FBF725FABDE808400549EB
:1095FC0005480022FCF792BD20BC0600F8BB060013
:10960C00DFD30600C0C00600080000202DE9F74398
:10961C009846174C174BDFF86C90E41AE408D9F80D
:10962C0000302404CDE9002305460B460E461746B0
:10963C001149024644F00400FBF71FFA29460F4873
:10964C00CDF800803B463246FCF780FD054640B91C
:10965C00D9F800300133C9F80030284603B0BDE812
:10966C00F0830246064944F00200FBF7E7F9F4E701
:10967C0020BC0600F8BB060007D40600080000203A
:10968C004AD40600D01600202DE9F341134B144C9C
:10969C00144FE41AE4083B680093240405460B4677
:1096AC000E4690461049024644F00400FBF7D9F9E7
:1096BC0029460E4843463246FCF798FD054630B91C
:1096CC003B6801333B60284602B0BDE8F08102469E
:1096DC00074944F00200FBF7B1F9F4E7F8BB0600C8
:1096EC0020BC0600D016002077D40600080000200D
:1096FC00B4D40600014B18700B207047D416002010
:10970C00024B002218781A70704700BFD416002044
:10971C0018DF704730B585B0054610220C466846F8
:10972C00002102F0DAF9A408684601950294FFF7CB
:10973C00EFFF05B030BD30B585B0062300244FF4E3
:10974C0080556846CDE90035CDE90244FFF7E0FFCE
:10975C00072802BF4FF0005320461D6005B030BDF6
:10976C00084B09480949C01A10B5C008000440F05C
:10977C000400FBF75FF9064BBDE810401B680620A0
:10978C00184700BFF8BB060028BC0600EFD4060043
:10979C00E01600200A2803D90B38C0B2FFF7AABF85
:1097AC007047000070B5054686B00020FCF75AFDE6
:1097BC000146A0B1274A18212846FCF7BDF800281D
:1097CC003DD0254A254B26499B1ADB081B04024633
:1097DC0043F0010006B0BDE87040FBF72FB918222A
:1097EC00684602F07AF904231C4C8DF800301A4BB1
:1097FC001C4EE41A1C4B1A6D3368E40824049A427C
:10980C0044F004041DD119492046FBF713F9184BF9
:10981C003168186801F0E4FD8DF80100FFF7BAFF1C
:10982C00D5E901138DF8010068469847114800F0FE
:10983C00DFFC9DF8012010492046FBF7FFF806B02D
:10984C0070BD01238DF801306846D5E901139847A6
:10985C00EFE700BFB1970600F8BB060028BC060076
:10986C0023D50600D8160020E01F00204CD506009A
:10987C00DC1600206D9706007BD506002DE9F04123
:10988C00836888B0044623B9A74940F2CF20FCF77F
:10989C0039F91822002102A802F01FF9A34EA44B9B
:1098AC0022788DF80820F61AF608012736048DF870
:1098BC00097046F004050C2A00F24D82DFE812F024
:1098CC000D00AE00A000AE00AE004B02AE00980042
:1098DC00AE00900026003D00A50096492846FBF7F7
:1098EC00A9F88DF80C709DF8092093492846FBF7D0
:1098FC00A5F8D4E9011302A898479DF80930012B6B
:10990C0000F013828D4B05201B680DE28C49284614
:10991C00FBF790F84FF08053D3F800210392D3F863
:10992C0004210492D3F80C2192020692D3F8102150
:10993C00920205921B690793D5E78249824E28460D
:10994C00FBF778F8227C81492846FBF777F84FF42F
:10995C004053326A58687E49884214BF012302235F
:10996C00012A4FF001028DF80920227C08BF013337
:10997C0052B902238DF80C30F3680493754B0593A0
:10998C00C3F5FC230693AEE7012A12D1884210D10D
:10999C0000234FF440528DF80C301178142988BFF5
:1099AC00536904934FF4805305934FF440539B68D1
:1099BC00E8E79A4209D201238DF80C30B36804937E
:1099CC0000F0E8FDB3690590DCE763492846FBF736
:1099DC0031F8FF238DF80C300023CDE90433D1E7A7
:1099EC005E492846FBF726F8237C8DF80C307AE785
:1099FC005B492846FBF71EF8238AADF80C3072E75A
:109A0C0058492846FBF716F86DE728465649FBF7E8
:109A1C0011F84A4B07201B68984764E7062A534FF6
:109A2C0001D0012A01D123693B703B78012B0AD06C
:109A3C00022B00F0AF804E4946F00100FAF7FAFF16
:109A4C0000233B7001E1013A072A66D8DFE802F0F7
:109A5C0004651444655D651E46492846FAF7EAFF1D
:109A6C00364B03201B689847606901F09FF9FFF79C
:109A7C0091FE8DF8090036E73F492846FAF7DAFFE0
:109A8C00314BDA6B1B6C039204932CE7236923B9DB
:109A9C00254940F21310FCF735F8A38A23B9224963
:109AAC004FF48A70FCF72EF834492846FAF7C2FFB7
:109ABC00A18A206901F092F9FFF76CFE224B8DF818
