:1000000000000420750300005D0300005F03000092
:1000100061030000630300006503000000000000AE
:100020000000000000000000000000006703000066
:1000300069030000000000006B0300006D03000076
:100040006F0300006F030000D91B00006F03000066
:10005000751C00006F030000291A00006F030000E8
:100060006F0300006F0300006F0300006F030000C8
:100070006F0300006F0300006F0300006F030000B8
:100080006F030000ED0E00006F0300006F0300001F
:10009000890F00006F0300006F0300006F03000072
:1000A0006F0300006F0300006F0300006F03000088
:1000B0006F0300006F03000000000000000000005C
:1000C0006F0300006F0300006F0300006F03000068
:1000D0006F0300006F0300006F0300006F03000058
:1000E0006F0300006F0300006F03000000000000BA
:1000F000000000006F030000000000006F0300001C
:1001000000000000000000000000000000000000EF
:1001100000000000000000000000000000000000DF
:1001200000000000000000000000000000000000CF
:1001300000000000000000000000000000000000BF
:1001400000000000000000000000000000000000AF
:10015000000000000000000000000000000000009F
:10016000000000000000000000000000000000008F
:10017000000000000000000000000000000000007F
:10018000000000000000000000000000000000006F
:10019000000000000000000000000000000000005F
:1001A000000000000000000000000000000000004F
:1001B000000000000000000000000000000000003F
:1001C000000000000000000000000000000000002F
:1001D000000000000000000000000000000000001F
:1001E000000000000000000000000000000000000F
:1001F00000000000000000000000000000000000FF
:10020000354936480A1A02D0072291438D463449AF
:1002100034480A1A06D00722914381F30988022242
:1002200082F3148830483149314A00F044F83148AB
:100230003149324A00F03FF831483249324A00F041
:100240003AF832483249334A00F035F832483349F7
:10025000334A00F030F833483349344A00F02BF881
:1002600033483449344A00F026F8344834490022EF
:1002700000F02CF833483449002200F027F83348C6
:100280003349091A082902DB002202604160314A21
:1002900090471F481F49884205D00268043003B4C4
:1002A000904703BCF7E700208646EC46002000217B
:1002B000294A9047FEE7884207D0521A05D00378B2
:1002C00001300B700131013AF9D17047884202D0F8
:1002D00002700130FAE770470000042000E00320BC
:1002E0000000042000000420103100000000002065
:1002F0003C000020D4030000D4030000B02C000018
:10030000103100000000002000000020042D00003B
:10031000042D0000042D0000042D0000042D000019
:10032000042D0000042D0000042D00000E310000FB
:100330004C3100003C0000203C0000203C0000202C
:100340003D08002040080020400800204008002010
:10035000402800209D030000A9280000FEE7FEE7DA
:10036000FEE7FEE7FEE7FEE7FEE7FEE7FEE7FEE765
:10037000704700BF1048804710484FF0070188437E
:1003800085460F4880470F48016841F470010160BD
:10039000BFF34F8FBFF36F8FFFF732BF0A480B4990
:1003A0000B4A884207D0521A05D0037801300B70EF
:1003B0000131013AF9D170477103000000000420B7
:1003C0008929000088ED00E0042D000000000020D5
:0403D0000000002009
:1003D400F0B595B01D46164608460C4601F030FAB5
:1003E4001A9B0D93CDE9086500252B46082205A923
:1003F40020460A958DF82C500C9501F03DFA079B88
:100404000293069B03939DF814308DF8115003F06A
:100414000302012A1DD1BDF81420059DC3F3C203B4
:10042400C2F383168DF81030B20008230EA92046BB
:1004340001F022FAC5F3952508AB0093324602ABCE
:100444000EA9284600F0C2FB204601F0FDF915B0C4
:10045400F0BD022AF8D1BDF81650C3F3C203C5F3A8
:1004640089158DF810300827082D2E4628BF082638
:100474003B4632460EA9204601F0FEF9AD1B08ABFF
:1004840002AA31460EA8374400F004FC002DEBD13B
:10049400DAE70000014B01221A7070477D0000204A
:1004A4007047000070B50E4D06460FCD88B06C46FF
:1004B4000FC495E80F00002E84E80F00094A0A488B
:1004C4004FF0060308BF00226946009301F032FA98
:1004D40008B100F09CFC054B1E7008B070BD00BF55
:1004E400042D000099040000000000203C000020BE
:1004F40007B5044B0093044A4023FFF769FF03B098
:100504005DF804FB110500003D00002038B50D48DE
:100514000D4C0E4D002323700378EB5CD2B263B113
:10052400043002F055F908B100F071FC084B1A7858
:1005340012B12378002BFBD038BD0C3001F024FF1E
:10054400F1E700BF000000207D00002050070020DC
:100554003C00002008B50848084A0378D35C3BB146
:10056400043002F0D5F8BDE808400020FFF79ABF38
:100574000C3001F0A9FEF6E700000020500700202F
:100584000120FFF78FBF000008B5FFF7F9FF04480B
:10059400042100F085FA034B01225A7108BD00BF03
:1005A400E02C000014000020037813F0040216D09D
:1005B40003F00303012B03D0022B09D00120704761
:1005C4000A6800880232C0F3831002440A60F5E727
:1005D4000B684288023303EB92130B60EEE710467C
:1005E400704700002DE9F04FDFF824A10F4685B0D5
:1005F4000446861C0020154600F032FEDAF800108E
:100604003960DAE90132134401335B1A0AF21C47F8
:100614000AF583690AF21448B3421BD30020002D63
:1006240072D004F00F039B0143F0050363F30F0042
:10063400DAF80020DAF808301340033332444AF879
:1006440023000020CAF8002000F00CFE012005B0B1
:10065400BDE8F08F0121384600F029FE484600F03D
:100664003EFE404600F03BFEDAF80400DAF808B03B
:10067400009000EA0B0003300AEB80006946FFF7A4
:1006840093FF009B50BB0BEA03020AEB820203F1C7
:10069400020CD2680192013303EA0B0B0AEB8B0BB9
:1006A40002F00302012ADBF80C10CDF800C023D0BD
:1006B400022A16D08346404600F014FE10B1009B77
:1006C400CAF804305946384600F0F1FDDAE901234E
:1006D4001344DAF8002001339B1A9DE70BEA030068
:1006E400C9E7BDF80630C3F3891303334FEA114B4E
:1006F4000CEB93030093DEE7BDF80430C3F38313DC
:100704004FEA114B6344F5E7A40544F006008FE774
:10071400500100200B4B0C48FF2210B59A600022B8
:10072400C3F81824C3E90022C3F8142483F820244E
:1007340001F03FF8044610B9044801F0A7F8204638
:1007440010BD00BF50010020F02C0000582D000007
:1007540030B50A4C71B10A4A0A49121BD208002367
:100764009A4201D1002030BD31F82350854202D095
:100774000133F5E7034654F83300F4E7B02C0000E6
:10078400E02C000000000020094B013903EBC000FD
:10079400032909D8DFE801F00A020406042070479F
:1007A40000797047407970470020704702207047F5
:1007B400B02C0000034BD3E90030C31A584258410F
:1007C400704700BF500100202DE9F04385B0FFF7CA
:1007D400F1FF0646002840F0FA807E4CC4F8180465
:1007E400BFF34F8F6368A56800932B40033304EB7A
:1007F40083006946FFF7D8FE009B18B1D4F818248B
:10080400002A62D005EA0302991C013304EB820238
:100814002B4004EB8303D268DB68029302F00303EA
:10082400022B0192009163D1BDF806306A48C3F3EC
:100834008917502FB84628BF4FF0500808F1080117
:1008440068F38F13C1F30901ADF8063000F0C9FF56
:100854000646002800F0A68000F0F2FF00230822DC
:1008640001A9304600F0FEFF009925EA0102013299
:10087400B8EB820F4FEA820333D95FFA88F863B387
:100884002940DDB2A8EB050803315FFA88F9A846D0
:10089400524D04EB810108234246304600F0E2FF4A
:1008A4003DB108F10803DBB24A462946304600F060
:1008B400D9FF009B033703EB97070097D4F818344C
:1008C400002B4BD1D4F810545BE022689A428CD8A8
:1008D4006260304605B0BDE8F08340491D46994644
:1008E400D9E7294003310823424604EB8101DDE7BF
:1008F400012B57D1BDF804303748C3F383110629BF
:1009040028BF062161F38913023101F00F01890028
:10091400ADF8043000F065FF0646002842D000F030
:100924008FFF0023082201A9304600F09BFF002717
:10093400BDF80420C2F38312BB00974203F10803FD
:10094400BCD200994A1C29400331009204EB810176
:100954000422304600F086FF0137E9E7304600F014
:1009640073FFFFF727FF80F00100C6B2B1E7EB6821
:100974005B7923B12B6831461B6828469847EB689E
:100984001D68002DF3D1304600F05EFF284600F0CC
:1009940067FCD4F818340BB9009B6360002000F0A6
:1009A40061FCDEE7D4F8104454B90D4B0D480E49F0
:1009B400C01AC008000440F0020000F063F8D0E759
:1009C400236820469B689847E3681C68ECE7002688
:1009D4007FE700BF50010020F02C00005C010020E4
:1009E400B02C0000D82C0000412D00002DE9F74F59
:1009F400224E04460F46924601A901221846D6F813
:100A040008909B46FFF7EEFD20B3019D4FF00008D0
:100A1400AA1CD84508EB020126D11948002100F090
:100A240023FC80F31000000440EA1440E4006B1C33
:100A340004F0380403EA090305EA090544F0010453
:100A440006EB8303033544EA881444EA8724D86018
:100A540046F8254096F820341BB1FFF7B5FE002870
:100A6400FBD103B0BDE8F08F09EA010106EB810177
:100A74005AF82830CB6008F10108CAE75001002079
:100A84006C05002000231A46FFF7B0BF07B5012309
:100A9400019201AAFFF7AAFF03B05DF804FB00006E
:100AA40030B50F4CD4F8102403460020114631B958
:100AB400D96808714AB9C4F810340A6030BDC968ED
:100AC4000D79854206D00968F1E7D26814680C6094
:100AD4001360F3E701300A28E8D14FF0FF30EDE767
:100AE4005001002038B5084B0125D3F8104483F891
:100AF400205404B938BDE3685D71236820465B68FF
:100B04009847E3681C68F4E75001002030B5C388B7
:100B140085B004460D4633B1144A00921449154A6F
:100B2400284600F039FC217A05291DD0637A4BB19F
:100B3400A088FFF729FE104B104953F820202846BF
:100B440000F02AFC227A0E4BA08853F8222003924C
:100B54000021FFF7FDFD039A0A490346284605B024
:100B6400BDE8304000F018BC05B030BD842D000055
:100B74006C2D0000642D0000F02D0000A02E00005C
:100B8400142E0000892D000007B503460846197A83
:100B9400052911D05B7A2BB1094A0A49019000F06A
:100BA400FBFB01980849019000F0F6FB019803B0A3
:100BB4005DF804EB00F0E5BB002AF8D0F2E700BFD3
:100BC400842D0000A02E0000812D00002DE9F043AB
:100BD40085B01F460C9D002395F80C902B73064698
:100BE4000C46904629463846FFF790FFB8F1060FA9
:100BF40009D8DFE808F00412181F283340003146F2
:100C0400284600F0C9FB002229463846FFF7BCFFFE
:100C140085F80C9005B0BDE8F0832268314628467B
:100C240000F0BAFBEFE7D4E900233146284600F090
:100C3400B3FBE8E7A36800933146D4E900232846D0
:100C440000F0AAFBDFE7E3680193A3680093314651
:100C5400D4E90023284600F09FFBD4E723690293DC
:100C6400E3680193A36800933146D4E9002328463E
:100C740000F092FBC7E76369039323690293E36877
:100C84000193A36800933146D4E90023284600F079
:100C940083FBB8E708292DE9F74F80460E4617462F
:100CA4001C463DD800251B7B257321461046019325
:100CB400FFF72CFFDFF88CA0DFF88CB0AE4232D9FE
:100CC40018F805205946204600F066FB0135082D2A
:100CD400F4D11B49DFF874A0DFF874B0204600F0AB
:100CE4005BFB4FF000094E4524D918F809507E2DBE
:100CF4001ED8284601F07CFF002814BF2A462E2265
:100D04005946204600F048FB09F10109B9F1080FE2
:100D1400E9D1012221463846FFF736FF019B2373B0
:100D240003B0BDE8F08F5146204600F035FBCDE717
:100D34002E22E5E75146204600F02EFBE4E700BFF3
:100D44009D2D0000992D0000932D00009B2D000087
:100D54009F2D0000074B1B5C1F2B86BF064903F029
:100D64001F034FF0A041012202FA03F3C1F8083532
:100D7400704700BF282E00000003005008B5002073
:100D8400FFF7E8FF0120FFF7E5FF0220FFF7E2FF8E
:100D9400BDE808400320FFF7DDBF00000A4B185CE4
:100DA4001F288ABF094B4FF0A04300F01F00D3F85F
:100DB40004250121814021EA02000A40C3F8080504
:100DC400C3F80C25704700BF282E00000003005014
:100DD400C20710B504460CD54FF0A0430322C3F854
:100DE4003427C3F83827C3F83C27C3F84027FFF754
:100DF400C5FFA3070AD54FF0A0430C22C3F82C2744
:100E0400C3F83027C3F86027C3F8642710BD1FB5A3
:100E14000021039001AA44F20100CDE9011100F080
:100E240003F805B05DF804FB38B572B6FFF75AFE57
:100E3400FFF7CAFC0028FBD1104B114C114D12498D
:100E4400E41AE408240444F00100FFF71BFED5F87B
:100E5400F030DB0700D500BE0C4944F00200FFF778
:100E640011FEBFF34F8FEA68094B02F4E0621343AB
:100E7400EB60BFF34F8F00BFFDE700BFB02C000055
:100E8400D82C000000ED00E02C2E0000382E0000CD
:100E94000400FA05024B4FF43C6043F00103184789
:100EA400502E000038B50C4B0C4C4FF40032C3F8F4
:100EB400802001254FF48033C4F84833C4F8083344
:100EC4006560FFF7E7FF064BA56000241C60FFF791
:100ED400E1FF044B1C7038BD00E100E0001001404C
:100EE4002807002019070020F8B51F4B1F491B686D
:100EF4000025C1F84051C1F84451C1F84851C1F826
:100F04004C51C1F80051C1F804514BB3D1F8044518
:100F140017490968641A24F07F442F461A68A242CC
:100F240009D8A41A15441A7CDE691AB1D3E905203C
:100F34001F749047AEB90F4A0F4B11781B788B4240
:100F440005D10133DBB2022B08BF002313701278E2
:100F54000A4B43F822500A4B4FF48012C3F8002185
:100F6400F8BD3346DAE700BF2C070020001001402B
:100F74002807002025070020240700201C07002044
:100F840000E100E02DE9F04FA14AA2491378097865
:100F9400A14D994285B03CD00133DBB2022B08BF8E
:100FA400002313709D4912789D4B0F6853F822005B
:100FB4003B1823F07F4300220B602B68164614462F
:100FC400944613B942B12B6006E0196881420ED9E8
:100FD40002B12B60091A196001272B68DFF848A2B7
:100FE40001934FF00008BEB9DFF844B260E0401A44
:100FF4000C44D968D3F81CE0C3F800C031B13A19E5
:1010040022F07F42C3E90121DE611E4673460122BC
:10101400D7E700263746E0E73446F6697F4B606839
:101024001B68DFF810C2A168C21A22F07F42624531
:1010340000F2A6800A442260012222742A68002356
:10104400C4E90133E361002A40F0A3802C60CAE7BD
:101054009BF802105A1CD2B291428BF8002004BFB4
:1010640000228BF80020182202FB03B32A681979A6
:101074009C68022975D003297FD0012918D1207CCE
:10108400B0B9D3E90312A2605A69E2609A69654B68
:10109400A2611A78002A18BF01466160BEE78C423B
:1010A40000F094808946C9690029F8D1002323748B
:1010B4009BF800309BF801209A42C9D12B68B8F103
:1010C400000F04D1019A9A4201D1002F43D0002B82
:1010D40079D0D3F800A0544D504BD5F804751C6852
:1010E400DFF854813E1B98F8003026F07F46033623
:1010F4009BB94FF48033C5F84433C5F804334B4BE4
:101104004FF400324FF00109C3F880211A60C5F88A
:101114000090FFF7BFFE88F80090B2452CBF5444FE
:10112400A41924F07F44C5F84045D5F80435DB1BE9
:1011340023F07F43E41B033324F07F44A3420AD902
:10114400D5F80435C5F84035FFF7A4FE374B4FF406
:101154000032C3F80021334B00221A7005B0BDE8F9
:10116400F08F114691469FE71174D2690123002A3A
:10117400FAD1002B9CD02A609AE700231946F6E79F
:101184001B1A23F07F438B4234BFCB1A0023236006
:1011940052E721681368994213D85B1A1360E2611D
:1011A40054E7091AD8691A4638B1034618688842C0
:1011B400F7D3401A1860184613462160E061DC61D9
:1011C40011E71346F2E7FFF76DFEC4E74C4511D172
:1011D400D3692B6073B9DFF844E00120CDE9021232
:1011E400CAF80800CEF800300E4B1870FFF752FE14
:1011F400DDE902120B68C969C9F81C1011B108684D
:1012040003440B602B68934218BF4FF001084DE76D
:1012140024070020250700202C0700202807002091
:101224001C070020180700200010014000E100E026
:101234000C060020FEFF7F001907002072B6024A48
:10124400136801331360704730070020034A1368A2
:10125400013B136003B962B6704700BF300700203A
:10126400FFF7ECBFFFF7F2BF10B5034653E8000FDA
:101274000A4643E8002494F0000FF7D110BD10B5DE
:10128400034653E8002F42EA010043E8000494F0C7
:10129400000FF6D110BD10B5034653E8000F00EA65
:1012A400010243E8002494F0000FF6D110BD10B5FC
:1012B400034653E8002F02EB010043E8000494F0D6
:1012C400000FF6D110BD10B5034653E8002FA2EB72
:1012D400010043E8000494F0000FF6D110BD012191
:1012E400FFF7CDBF0021FFF7D6BF10B590B1D0E90D
:1012F400012301689B1ADBB20A60013BDBB2FF2BBE
:10130400026802D10020107110BD11684C1C1460D9
:101314000B70F2E70E20F7E738B504460020FFF71C
:101324009FFF226863681168994213D9481E1060B0
:1013340011F8013CE568218A01FB0355A368117982
:101344001B1ADBB2994200D213710020FFF78AFF07
:10135400284638BD0025F8E738B5054600200C4678
:10136400FFF77EFF2A681368591C1160E968641A44
:10137400298AB4FBF1F41C70BDE838400020FFF763
:1013840071BF826810B504462AB1436901680069D7
:1013940098470023A36010BD0EB403B5039921B18F
:1013A40004AB01AA019300F077F802B05DF804EBF6
:1013B40003B070470A2938B504460D4602D10D2101
:1013C400FFF7F8FFA3682268591CA160D554D4E93B
:1013D40001329A4204D32046BDE83840FFF7D1BF1A
:1013E40038BD00002DE9F84F9846DDE90A4315465B
:1013F40082460F460A464FF00109AA420FD2C14560
:1014040038BFC14613F0010B01D16CB90024012689
:10141400B8F1010F1BD908F1FF386E43F8E709F161
:101424000109B2FBF5F2E8E79B070ED5B8F1000F0E
:101434000CBF30262026A145E9D2013C3146504656
:10144400FFF7B8FF002CF6D1E0E72026F3E7B7FB5F
:10145400F6F39D42E1D9DFF83C80B7FBF6F3504642
:1014640018F8031006FB1377FFF7A4FF3346AB42CB
:10147400B6FBF5F6F1D2BBF1000F02D00CB1A145D9
:1014840001D3BDE8F88F20215046013CFFF792FFBD
:10149400F4E700BF562E00002DE9F74F0546174626
:1014A4008846002900F03E8118F8011B49B92B7BBE
:1014B400002B00F03781284603B0BDE8F04FFFF75A
:1014C40060BF252940F0B780002698F800302D2B06
:1014D400424608F1010823D0302B24D02B2B25D0F1
:1014E40000242A2B02F1010123D13B681A1D1B6839
:1014F4003A601C440A4613782E2B26D101324FF051
:10150400000A104610F8011BA1F1300CBCF1090FC0
:101514001DD80A2303FB0A13A3F1300A0246F0E79D
:1015240046F00106D1E746F00206CEE746F004068F
:10153400CBE711F8013CA3F130000928DBD80A22DB
:1015440002FB0434303C0A46CBE74FF0000A12F8A1
:10155400011B01F0FB0068289046F8D0782909D8CF
:101564006F290CD8632962D022D8252963D0582941
:1015740000F0888098F80030002B95D197E77039F7
:101584000829F7D801A353F821F000BF031700007E
:1015940079150000791500009916000079150000EE
:1015A40077160000791500007915000089160000EF
:1015B400642901D06929DDD13A68D2F80090111D5F
:1015C40089EAE9723960A2EBE9724FF0010B092A4A
:1015D40035DCD34538BFD3462CB1B9F1000F01DB5C
:1015E400720700D5013CB30702D5BAF1000F03D04E
:1015F400F00701D44CBB0024B9F1000F2DDAC9F176
:1016040000092D212846FFF7D5FE06F00302022A21
:1016140004D1BAF1000F01D11CBB0024CDE900466E
:1016240053460A2249462846FFF7DCFEA2E73B68F8
:101634001A1D19783A602846FFF7BCFE9AE70A2378
:101644000BF1010BB2FBF3F2C1E7A345D4D2202185
:101654002846013CFFF7AEFECCE77107D5D52B2118
:10166400D0E7A345DAD230212846013CFFF7A2FE99
:10167400D2E73968CDE900460A1D3A6053460A228A
:101684000968D0E739680A1D3A60CDE90046534637
:101694001022F5E73B681A1D3A6016F00106D3F8EC
:1016A400009024D1B9F1000F03D0484601F0CEFADE
:1016B4000646B4421DD809F1FF3919F8011F002963
:1016C4003FF458AF2846FFF775FEF6E72846013683
:1016D400FFF770FE19F806100029F7D1A642BFF4EF
:1016E40049AF20212846013CFFF764FEF6E70026B7
:1016F400F0E720212846013CFFF75CFED9E73B6870
:101704001A1D3A60302128461C68FFF753FE7821E1
:101714002846FFF74FFE00220823CDE90032214678
:10172400102280E703B0BDE8F08F00BF2DE9F84F29
:10173400B0F806A04579D2F800B09DF828900AFBCD
:1017440005F5043D88460BEB0301A94203F10404AB
:1017540088BFA5EB030BB4FBFAF607460AFB164455
:10176400C2F800B04EB9AAEB04055D4528BF5D463A
:10177400BBF1000F04D1BDE8F88F3F68013EF1E7EB
:10178400043408EB06003C442A46B9F1000F0DD09E
:101794002146ABEB050B01F030FADA452E443F68E5
:1017A40055464FF0000428BF5D46E1E70146204658
:1017B400EFE7FFF79ABDF8B546790146721E054674
:1017C400002393422D6803D30024A64202D8F8BD17
:1017D4000133F6E70F682846FFF7BEFD01343946AA
:1017E400F3E72DE9F843068ACD1C0746FFF794FD7D
:1017F400043E35440446B5FBF6F5F0B14FF480736E
:10180400EDB28380C680013D076081464FF0000839
:10181400A84512D23846FFF77FFD064648B16379E2
:101824000133637108F10108C9F8000007608146BB
:10183400EEE72046FFF7BFFF34462046BDE8F883B5
:1018440001210430FFF733BD10B5012104460430F3
:10185400FFF739FDC0B220B92046BDE81040FFF7BC
:10186400AABF10BD1FB503920022009203AAFFF77E
:101874005DFF05B05DF804FB1FB5039201220092E1
:1018840003AAFFF753FF05B05DF804FB8368002249
:101894005A60C3E904229A60DA601A607047000053
:1018A400024B53F8213007C8184700BF3407002003
:1018B40010B4044C037944F82320034A5DF8044B24
:1018C40000F014BA34070020A51800001FB50378EF
:1018D4008DF800304368019383688DF80830C3683D
:1018E400054A0393054B684653F8213052F82110FA
:1018F400984705B05DF804FB400700204807002026
:101904001FB503788DF800304368019383688DF820
:101914000830C368054A0393054B684653F82130E1
:1019240052F82110984705B05DF804FB40070020E9
:1019340048070020F0B5194B90F800C0DFF86CE0C0
:1019440043F82C20164B16460A6943F82C204B7F8B
:101954000EF80C300C4607460FCC89B06D460FC507
:1019640094E80F0085E80F003B78CDF810C01EF80E
:1019740003304BB1002E0B4A694608BF3246381D6E
:1019840000F0EAFD09B0F0BD002E074A694608BF21
:10199400324607F10C0000F0C3FBF3E748070020D0
:1019A40040070020D118000005190000500700204E
:1019B40000F1804000F5C040002382B0036003685A
:1019C4000193019B02B0704703681F2B83BF03F090
:1019D4001F03036001484FF0A0407047000300500C
:1019E40007B5019001A8FFF7EFFF019B00EB83000F
:1019F400D0F8003723F44033C0F80037D0F800376C
:101A040043EA0141C0F8001703B05DF804FBC208C3
:101A1400012300F0070003FA00F08B5C184388549C
:101A2400704700002DE9F04F00248BB0CDE9044449
:101A3400644D4FF48072012102F1804303F5C043E9
:101A440090B21B68012B06D1D5F804330B4202D0A7
:101A5400FFF7AEFF0C430432B2F5907F4FEA410129
:101A6400EAD1584BD3F87C31012B0ED14FF4BE7020
:101A7400FFF79EFF4FF0A04344F00044D3F8103525
:101A84000493514BD3F810350593E3B2D3B14F4FC0
:101A940000250126344210D0AB0003F1804303F546
:101AA400C043D3F81005D3F8101557F8253023B1E7
:101AB400C1F30141C0F3052098470135082D4FEAD1
:101AC4004606E7D1002C79DA0023CDE906334FF03E
:101AD400FF33CDE90833DFF8F4A03D4B0193002632
:101AE4003546019B13F9014B0193631C4DD0C4F39C
:101AF400C2070122E3B204F03F0B04F0070402FA28
:101B040004F40AAA174417F8081C21423DD00AEB32
:101B14000B014FEA931991F930105AF82180B8F16A
:101B2400000F07D1B9F1030F2FD106A95846FFF7CB
:101B34006EFF02E0B9F1030FF7D003A8CDF80CB0A3
:101B4400FFF742FF039901F5E07150F8211017F8EF
:101B5400180C2042C1F3014106D0022915D1B9F174
:101B6400030F0CD1494605E003290ED1B9F1030F47
:101B740005D102215846FFF733FF0135EDB2B8F124
:101B8400000F02D049465846C0470136042EA8D15A
:101B9400A5B14FF0A0430499D3F8102503F5407381
:101BA4009142D3F8103502D10599994206D0049296
:101BB4000593069A079B089209938EE70BB0BDE83C
:101BC400F08F00BF00600040000300505407002065
:101BD400B4070020014B1B68184700BFC007002052
:101BE40038B50B4B98420C4601D0002038BD00207C
:101BF400FFF736FB074B1D7915B901221C601A71DA
:101C04000020FFF72FFB002DEFD01120EEE700BFDF
:101C140000200040C0070020034B984201BF034B43
:101C240000221A601A71704700200040C00700208B
:101C34001FB54A7D022AD3B207D0032B0FD0012B44
:101C440000D1436205B05DF804FB00238DF8043035
:101C54000293039301A88B6889699847F2E70123EB
:101C64008DF80430D0F83C350293D0F84C35F0E7C9
:101C740013B54FF04020D0F82831E3B10023C0F869
:101C84002831D0F8283118490093009B4B7D012B53
:101C9400DAB210D10B68CC68C0F84445C0F84835B6
:101CA4004B680C69C0F83445C0F8383502238262A9
:101CB4004B75FFF7BDFF4FF04020D0F804318BB1D6
:101CC4000023C0F80431D0F8043107490193019B83
:101CD4004B7D022B06D103234B7502B0BDE81040A7
:101CE400FFF7A6BF02B010BDC80700202DE9F04FD2
:101CF40085B090F80490734E01931C2303FB096391
:101D040007461B7D0D469046002B40F0D4800B7C8B
:101D1400032B00F2D28004686B492046FFF760FF72
:101D2400002840F0CC802B68FF2B00F0B8801F2BDC
:101D3400E97C87BFDFF89CC103F01F021A464FF00D
:101D4400A04C02F5E07209024CF822106968FF29E0
:101D540000F0A8801F298BBF01F01F020A46DFF89C
:101D640074C14FF0A04C02F5E0724FF0000E4CF835
:101D740022E0D5F80CC095F812E0BCF11F0F8BBF20
:101D84000CF01F026246DFF84CA14FF0A04A02F5A6
:101D9400E0724FEA8E0E4AF822E0D5F808E0BEF170
:101DA4001F0F8BBF0EF01F0AF246DFF828B14FF069
:101DB400A04B0AF5E07A00224BF82A20C4F808E583
:101DC400C4F81015C4F80C35C4F814C5C4F8342587
:101DD400C4F83825C4F84425C4F848256B7C2A7C0B
:101DE400003B18BF0123022A5FD0032A60D0012AD6
:101DF40001D143F00203C4F854352B7DC4F85C359B
:101E04006B7DC4F8C0350023C4F80431D4F8042130
:101E14000392039AC4F82831D4F828210292029A32
:101E2400D4F8002242F00402C4F800221C2202FB6F
:101E340009667375019BB36140F20243C4F804332D
:101E44003B68C6F8088043F30731AA7D0029A8BF80
:101E540001F16045C3F307334FEA4212BBBF1B4D88
:101E640003F00F0605F56145D2B2AABFD2B2AA5556
:101E740085F8002349090122154D03F01F0302FAD6
:101E840003F345F821300F4B1C2101FB09390223D0
:101E940089F81420C4F8003505B0BDE8F08F4FF080
:101EA400FF3353E74FF0FF3163E743F00403A2E746
:101EB40043F006039FE70820EEE70720ECE7112034
:101EC400EAE700BFC8070020751C000014ED00E01D
:101ED40000E100E000030050F8B50479069E34BB2D
:101EE400B6F5803F23D2B2F5803F20D221B101F074
:101EF4006044B4F1005F1CD123B103F06044B4F139
:101F0400005F16D10E4C677D012FFDB213D002D9AC
:101F1400023D012D11D8C4E9031301230068226096
:101F2400074966606375FFF783FE0020F8BD09204A
:101F3400FCE71020FAE70820F8E70320F6E700BFE3
:101F4400C80700200023435082B043580193019BEB
:101F540002B070470A4610B54FF48E71FFF7F2FFD6
:101F6400136A9168C95C136A01331362C0F81C15C3
:101F740010BD8B690A4610B54FF4847123B9FFF77D
:101F8400E1FFD0F8183510BDFFF7DCFF536AD168C4
:101F9400D0F81805C854536A01335362F3E70000BC
:101FA4001FB501238DF80030044BCDE90110D3E9AE
:101FB40000126846904705B05DF804FBE407002072
:101FC40030B54D4DD5F804339A0585B051D5D5F8C3
:101FD4002431002B4DD04FF492712846FFF7B2FF05
:101FE4004FF40173C5F80833444B93F829200AB918
:101FF40001226A60404902228DF80020D1F8802431
:10200400C1F8802403929A690292DA68019200224C
:10201400C3E906226846D3E9001290473648D0F84F
:102024001C315BB1354A116A536999424DD292F819
:102034002830002B49D11146FFF78CFF2E48D0F8E9
:102044004431002B55D04FF4A271FFF77BFF2B4B8B
:1020540093F829200AB1012202609A69002A48D023
:10206400586AD96800229A6105B0BDE83040FFF78C
:1020740097BFD5F804335B07D0D5D5F80831002BCA
:10208400CCD01E4C1C482146FFF773FF636AA2693B
:102094009A42C3D1E369E1684BB1A3612369E36068
:1020A4000023606AE3616362FFF77AFFB6E794F89E
:1020B40029300BB901236B600F4B4FF40172C3F845
:1020C40008230023606AA361EEE74FF48E710A4887
:1020D400FFF738FF51690029B0D0002302919168BD
:1020E4008DF80030019153616846D2E90013984796
:1020F400A4E705B030BD00BF00200040E407002085
:102104001F2886BF00F01F00044B4FF0A04300F5CA
:10211400E070022243F82020704700BF0003005003
:102124002DE9F843624D90F804802C2303FB0853F7
:10213400064693F82A300C469146002B40F0B480B2
:102144005C490068FFF74CFD0746002840F0AE806C
:102154002268531C10D01F2A87BF574902F01F035F
:1021640013464FF0A0410120984003F5E073C1F8F5
:102174000805032041F823006168481C0DD01F297D
:102184008BBF01F01F030B464B484FF0A04003F5F3
:10219400E0734FF0000C40F823C03068A369C0F826
:1021A400243594F814C0637DBCF1010F4CEA030399
:1021B400C0F86C35C0F81415C0F80C252BD1A368F1
:1021C400591C0DD01F2B8BBF03F01F021A463A492E
:1021D4004FF0A04102F5E0724FF0000C41F822C02C
:1021E400E1684A1C13D01F2987BF334A01F01F0C32
:1021F4008C464FF0A0424FF0010E0EFA0CFE0CF587
:10220400E07CC2F808E54FF0030E42F82CE0C0F879
:102214000815C0F810352C2202FB08F2AB18C3F8DD
:1022240004902369AB50B9F1000F2AD04FF48E719A
:10223400247FFFF787FE30684FF4A271FFF782FE18
:1022440032681E4BC2F80433130B42F30732002AE0
:10225400A8BF02F160404FEA4411BABF184803F026
:102264000F0400F56140C9B2B4BF015580F80013F2
:1022740003F01F03012101FA03F35209114941F844
:10228400223033680422C3F800252C2303FB0853AF
:102294000022C3E9062283F829205A61012283F827
:1022A4002A203846BDE8F8830827FAE71127F8E71B
:1022B400E4070020C51F0000000300508000020056
:1022C40014ED00E000E100E02DE9F0410368057938
:1022D400244C0022C3F800252C2202FB05420146AF
:1022E40052686AB1204AC3F8082343F30732C3F3A0
:1022F400043652090120B04020321C4E46F8220018
:10230400D3F80C05D3F81485D3F80865D3F8107501
:102314004FF0FF329042C3F81425C3F80C25C3F8DC
:102324000825C3F8102501D0FFF7EAFEB8F1FF3FF6
:1023340002D04046FFF7E4FE7A1C02D03846FFF78D
:10234400DFFE731C02D03046FFF7DAFE0868FFF7A1
:1023540063FC2C2303FB0544002384F82A306360C8
:10236400BDE8F081E40700208402020000E100E0FF
:102374000279044B2C2101FB02335869003818BF41
:1023840001207047E40700202DE9F84F06468946EE
:102394009246FFF7EDFF044600283DD196F80480ED
:1023A4001F4F2C2508FB057B4FF48E71CBF82000C2
:1023B400CBF814A08BF82800CBF808903068FFF70E
:1023C400C1FD3068012383605946FFF7C3FDDBF884
:1023D40004305D4613BB30682A6A6B699A4211D394
:1023E4003368D3F81C21002AFBD00122DA600020D4
:1023F4002C2303FB087700237B61BDE8F88F95F855
:1024040028303BB9D0F81C31002BF8D05946FFF7DF
:10241400A1FDE1E70F20EBE71120EEE72046ECE712
:10242400E40700200023435082B043580193019BEA
:1024340002B070471FB501238DF80030044BCDE97D
:102444000110D3E900126846904705B05DF804FB1B
:10245400100800207FB5364AD2F82461002E46D0F9
:1024640010464FF49271FFF7DDFF02238DF8003020
:10247400D2F88034C2F880340393D2F83C35029306
:102484002C4BDA6801920022C3E906226846D3E99C
:10249400001290472648D0F8443173B14FF4A2712A
:1024A400FFF7C0FF234B9A693AB10022C3E9062221
:1024B400D968D0F83C05FFF7BDFF1D48D0F820319E
:1024C4009BB14FF49071FFF7ADFF1A4B5A6962B19B
:1024D400D0F84C150291002299688DF800200191E2
:1024E4005A616846D3E90012904704B070BDD2F82F
:1024F4001031002BCED04FF488711046FFF792FFB5
:102504000C4BD2F83C0599698842C3D1DC69D9687F
:1025140064B1D2F8005225F02005C2F800521A69BD
:102524009C61DA60DE61FFF785FFB3E79C61FAE73F
:1025340000200040100800201F2886BF00F01F0064
:10254400044B4FF0A04300F5E070022243F8202032
:10255400704700BF000300502DE9F843664E90F821
:102564000480242303FB0863054693F820300C46BB
:102574009146002B40F0BC8060490068FFF730FBB7
:102584000746002840F0B68021684B1C10D01F2954
:1025940087BF5B4A01F01F030B464FF0A0420120A6
:1025A400984003F5E073C2F80805032042F82300BD
:1025B4006268501C0DD01F2A8BBF02F01F03134604
:1025C4004F484FF0A04003F5E0734FF0000C40F883
:1025D40023C02868A369C0F8243594F814C0637D27
:1025E400BCF1010F4CEA0303C0F86C35C0F80C15BC
:1025F400C0F814252BD1A368591C0DD01F2B8BBFF9
:1026040003F01F021A463E494FF0A04102F5E07262
:102614004FF0000C41F822C0E1684A1C13D01F2976
:1026240087BF374A01F01F0C8C464FF0A0424FF091
:10263400010E0EFA0CFE0CF5E07CC2F808E54FF032
:10264400030E42F82CE0C0F80815C0F81035242217
:1026540002FB08F2B318C3F804902369B350B9F12C
:10266400000F34D04FF48871227FFFF7DBFE286817
:102674004FF49071FFF7D6FE28684FF49271FFF77C
:10268400D1FE28684FF4A271FFF7CCFE2B681D49D8
:10269400C3F80413190B43F30733002BAEBF03F144
:1026A400604001F00F0418484FEA4212A8BF00F539
:1026B4006140D2B2B4BF025580F8002301F01F017B
:1026C400012202FA01F15B09104A42F823102B6837
:1026D4000822C3F80025242303FB08660023C6E967
:1026E40006337361012386F820303846BDE8F88349
:1026F4000827FAE71127F8E71008002059240000FA
:10270400000300501003020014ED00E000E100E0BB
:102714002DE9F04103680579244C0022C3F8002513
:10272400242202FB0542014652686AB1204AC3F8DA
:10273400082343F30732C3F3043652090120B0409F
:1027440020321C4E46F82200D3F80C05D3F8148529
:10275400D3F80865D3F810754FF0FF329042C3F8F0
:102764000C25C3F81425C3F80825C3F8102501D097
:10277400FFF7E2FEB8F1FF3F02D04046FFF7DCFE70
:102784007A1C02D03846FFF7D7FE731C02D03046BD
:10279400FFF7D2FE0868FFF73FFA242303FB054442
:1027A400002384F820306360BDE8F0811008002025
:1027B4001003020000E100E00279044B242101FB34
:1027C40002335869003818BF0120704710080020F0
:1027D40001F06043B3F1005F2DE9F04706468846F7
:1027E400924635D190F80490FFF7E6FF044688BB83
:1027F4001A4F3068242505FB09754FF49071C5F80C
:1028040014A0C5F80880FFF70DFE4FF4AC713068D2
:10281400FFF708FE33686A69A968C3F84415C3F86A
:10282400482501229A606A68B2B9D3F82021D3F806
:1028340058014AB90028F8D00F20242303FB097754
:1028440000237B61BDE8F087002818BF0F20F4E760
:102854001020F7E71120F5E72046F3E710080020E1
:1028640084B004AB03E907009DF80430012B0DD1BB
:10287400074A08481370084B084A0949C01AC00897
:10288400000440F0030004B0FEF700B904B0704740
:102894003C080020D82C0000B02C00003408002094
:1028A400812E000070B54FF08043012088B09867F6
:1028B400FEF78EFA4FF400410020FDF72BFF08B11C
:1028C400FEF7A5FAFDF760FE1E4B1F481F4D204979
:1028D400C01AC008000440F00300FEF7D3F80FCD7F
:1028E40002AC0FC495E803001F2384E8030005939A
:1028F4001E211D23CDE90213164A17481A2302A9E3
:102904000493FEF7D5FF08B1FEF781FA134D0024B6
:10291400134E2C600722C5F80340104B11490E4892
:1029240000923470FFF7D8FA08B1FEF770FA3378E2
:1029340033B1FDF749FF0028FBD1FEF72FFAE7E793
:1029440020BFF4E7B02C0000D82C0000B02E00000B
:10295400A32E000065280000C82E000034080020C3
:102964003C0800201C0000204FF08053D3F8302195
:10297400082A03BFD3F83401B0FA80F040090020DC
:102984007047000008B54FF080430022C3F80C21C3
:10299400C3F81021C3F838254FF0805203F54043A3
:1029A400D2F80414C3F82015D2F80814C3F8241577
:1029B400D2F80C14C3F82815D2F81014C3F82C1547
:1029C400D2F81414C3F83015D2F81814C3F8341517
:1029D400D2F81C14C3F84015D2F82014C3F84415D7
:1029E400D2F82414C3F84815D2F82814C3F84C15A7
:1029F400D2F82C14C3F85015D2F83014C3F8541577
:102A0400D2F83414C3F86015D2F83814C3F8641536
:102A1400D2F83C14C3F86815D2F84014C3F86C1506
:102A2400D2F84424C3F87025FFF79EFF18B13B4B3E
:102A34003B4AC3F88C26FFF797FF18B1394BFB22AA
:102A4400C3F81825FFF790FF70B14FF080414FF0A5
:102A54008053D1F8E42ED3F8583222F00F0203F059
:102A64000F031343C1F8E43EFFF77EFF20B12E4B62
:102A74004FF40072C3F840264FF08043D3F800248B
:102A8400D20744BF6FF00102C3F80024274AD2F8EA
:102A9400883043F47003C2F88830BFF34F8FBFF31C
:102AA4006F8F4FF01023D3F80022002A03DBD3F8F2
:102AB4000432002B2EDA1E4B0122C3F80425D3F86E
:102AC4000024002AFBD04FF010221221C2F8001279
:102AD400D3F80024002AFBD04FF010231222C3F8AD
:102AE4000422134BD3F80024002AFBD00022C3F89D
:102AF4000425D3F80024002AFBD0BFF34F8F0B49E1
:102B04000C4BCA6802F4E0621343CB60BFF34F8FEF
:102B140000BFFDE7084B094A1A6008BD0050004099
:102B24004881030000F000400090024000ED00E006
:102B340000E001400400FA05240000200090D003C6
:102B44007F2805D8034B185C034B5B5C1840704727
:102B540000207047DC2E00005C2F0000A0F1610310
:102B6400192B98BF20387047A0F14103192B98BF47
:102B7400203070477F2805D8034B185C034B5B5CFF
:102B84001840704700207047DC2E00005C2F0000C6
:102B9400A0F16103192B98BF20387047A0F14103BD
:102BA400192B98BF203070477F299ABF01700120EC
:102BB4006FF02E0070475AB10A787F2A0AD800B104
:102BC4000260002119605960501A18BF0120704733
:102BD400002070476FF02E007047000008B5034BCB
:102BE4005B689B681B68984708BD00BF28000020ED
:102BF40008B50921FFF7F2FF08BD844640EA010346
:102C040013F0030F18D18446202A0BD32DE9F007C3
:102C1400B1E8F807A0E8F807A2F12002202AF7D2C9
:102C2400BDE8F007042A07D351F8043B40F8043BFD
:102C3400A2F10402042AF7D2002A05D011F8013BBC
:102C440000F8013B013AF9D16046704700F10101F7
:102C540010F0030F11D010F8012B002A23D010F02C
:102C6400030F0AD010F8012B002A1CD010F0030F18
:102C740003D010F8012B002A15D02DE970004FF075
:102C840001324FF0803350F8044BA4EB020525EADF
:102C940004051D4000D1F6E7A0F1040070BC10F853
:0C2CA400012B002AFBD1A0EB01007047BF
:102CB000662E0000000000006D2E000000000000E5
:102CC000712E000000000000762E000000000000C1
:102CD0007B2E000000000000522D000000000303C6
:102CE000242D000000000000302D00001400002002
:102CF00080000020480100205001002088000020B2
:042D000018000000B7
:102D0400FFFFFFFFFFFFFFFFFFFFFFFFFFFFFFFFCF
:102D140000000000000000000000D60106010000D1
:102D2400F504000059050000A504000075617274E3
:102D34005F6C6F675F6261636B656E6400426163C1
:102D44006B656E647320666C75736865640061708E
:102D540070000000740500207F000000F4050020CE
:102D64001B5B313B33316D0025734C6F67732064FB
:102D7400726F70706564202825642925730D0A001C
:102D84001B5B306D003C25733E2025733A200020E8
:102D94002530327800202020007C002563001B5B56
:102DA400313B33306D001B5B313B33326D001B5BB9
:102DB400313B33336D001B5B313B33346D001B5BA4
:102DC400313B33356D001B5B313B33366D001B5B90
:102DD400313B33376D007761726E696E6700696EDF
:102DE400666F00646562756700000000842D000052
:102DF400A22D0000642D0000AA2D0000B22D0000B9
:102E0400BA2D0000C22D0000CA2D0000D22D0000F2
:102E140000000000322E0000DA2D0000E22D000038
:102E2400E72D00000D0E0F10466174616C20657271
:102E3400726F720053797374656D20726573657473
:102E44000000000000000000000000000338FDD86E
:102E540070473031323334353637383941424344A0
:102E640045464750494F544500505253005350492A
:102E74005300554152540055415254450020547258
:102E8400616E7366657220636F6D706C65746564E2
:102E94002E2052656365697665643A202573005374
:102EA400504953206578616D706C6500FF00000027
:102EB400FF000000FF000000FF0000000000000011
:102EC400FFFF060000400040000000004300000037
:102ED400504F53495800000020202020202020205B
:102EE4002068282828282020202020202020202076
:102EF4002020202020202020481010101010101016
:102F0400101010101010101084848484848484841D
:102F1400848410101010101010818181818181012E
:102F2400010101010101010101010101010101018D
:102F3400010101101010101010828282828282021C
:102F4400020202020202020202020202020202025D
:102F540002020210101010200007032004170201BF
:102F64000857104080000000D02E0000D42F00002D
:102F7400E830000053756E004D6F6E0054756500A7
:102F840057656400546875004672690053617400A3
:102F9400000000004A616E00466562004D617200E7
:102FA400417072004D6179004A756E004A756C007B
:102FB40041756700536570004F6374004E6F76006F
:102FC4004465630000000000414D00504D000000C6
:102FD4000C31000008310000083100000831000005
:102FE40008310000083100000831000008310000F9
:102FF4000831000008310000FFFFFFFFFFFFFFFF63
:10300400FFFFFFFFFFFF000048300000782F0000A3
:1030140084300000982F0000CC2F00002C300000DA
:10302400DC30000038300000256D2F25642F257911
:1030340000000000256120256220256520255420FC
:103044002559000053756E646179004D6F6E64619B
:10305400790054756573646179005765646E6573AE
:1030640064617900546875727364617900467269A9
:1030740064617900536174757264617900000000C1
:103084004A616E7561727900466562727561727922
:10309400004D6172636800417072696C004D617922
:1030A400004A756E65004A756C79004175677573E1
:1030B400740053657074656D626572004F63746F5C
:1030C400626572004E6F76656D6265720044656379
:1030D400656D62657200000025483A254D3A255316
:1030E40000000000452B0000612B00006D2B000048
:1030F400792B0000952B0000A12B0000AD2B0000C4
:0A310400BB2B0000000000002E00AD
:1031100000000000002000400000000000200040EF
:103120000000000000000000FF0000004E6F72640D
:10313000696300000090D0036C2F00006C2F00002A
:0C3140006C2F00006C2F00006C2F0000B2
:040000030000037581
:00000001FF
