:1000000000000120BD020000E5020000E702000040
:10001000E9020000EB020000ED0200000000000019
:10002000000000000000000000000000EF020000DF
:10003000F102000000000000F3020000F5020000E1
:10004000F7020000F70200003D080000F702000080
:10005000F7020000F7020000F7020000F7020000BC
:10006000F7020000F7020000F7020000F7020000AC
:10007000F7020000F7020000F7020000F70200009C
:10008000F7020000F7020000F7020000F70200008C
:10009000F7020000F7020000F7020000F70200007C
:1000A000F7020000F7020000F7020000F70200006C
:1000B000F7020000F702000000000000000000004E
:1000C000F7020000F7020000F7020000F70200004C
:1000D000F7020000F7020000F70200000000000035
:1000E0000000000000000000000000000000000010
:1000F0000000000000000000000000000000000000
:1001000000000000000000000000000000000000EF
:1001100000000000000000000000000000000000DF
:1001200000000000000000000000000000000000CF
:1001300000000000000000000000000000000000BF
:1001400000000000000000000000000000000000AF
:10015000000000000000000000000000000000009F
:10016000000000000000000000000000000000008F
:10017000000000000000000000000000000000007F
:10018000000000000000000000000000000000006F
:10019000000000000000000000000000000000005F
:1001A000000000000000000000000000000000004F
:1001B000000000000000000000000000000000003F
:1001C000000000000000000000000000000000002F
:1001D000000000000000000000000000000000001F
:1001E000000000000000000000000000000000000F
:1001F00000000000000000000000000000000000FF
:1002000010B5054C237833B9044B13B10448AFF350
:1002100000800123237010BD880000200000000032
:100220008028000008B5034B1BB103490348AFF316
:10023000008008BD000000008C0000208028000025
:10024000A3F5803A704700BF174B002B08BF134B34
:100250009D46FFF7F5FF00218B460F461348144AD1
:10026000121A01F0A7FA0E4B002B00D098470D4B45
:10027000002B00D098470020002104000D000D48FD
:10028000002802D00C48AFF3008001F06FFA200084
:10029000290001F039F801F055FA00BF000008000C
:1002A0000000000000000000000001208800002085
:1002B0005803002000000000000000000649074A23
:1002C000074B9B1A03DD043BC858D050FBDC01F000
:1002D0005FF8FFF7B9FF00008C2800000000002045
:1002E00088000020FEE7FEE7FEE7FEE7FEE7FEE708
:1002F000FEE7FEE7FEE7FEE7C20730B41AD54FF08F
:10030000A0430322C3F844274FF40035C3F848271D
:100310004FF48024C3F84C274FF40021C3F8502732
:100320004FF48012C3F80855C3F80845C3F8081500
:10033000C3F8082583070AD54FF0A0430C22C3F861
:100340003427C3F83827C3F83C27C3F8402730BC0C
:10035000704700BF00B585B00346002101AA44F2F2
:100360000100CDE90111039300F004F805B05DF838
:1003700004FB00BF72B6094B1B68DB0700D500BE4B
:10038000BFF34F8F0649074BCA6802F4E06213437C
:10039000CB60BFF34F8F00BFFDE700BFF0ED00E083
:1003A00000ED00E00400FA0559B142B1531E1A40B5
:1003B00005D1826001608380C260104670470920C9
:1003C00070470E20704700BF10B48468C2680346AF
:1003D0008088121B904203D204205DF8044B7047C2
:1003E000DA681C6802400020A154DA680132DA6041
:1003F0005DF8044B704700BF03468068DA6890429E
:100400000DD010B498689A881C6802400020A25C45
:100410000A709A6801329A605DF8044B70470520B3
:10042000704700BF30B50478012C83B004D0022C93
:100430002DD0F4B103B030BD4368374D197828464C
:10044000FFF7C2FF002837D1AA68EB689A4205D0AF
:10045000324B8DF800001B6868469847A968EB6826
:10046000AA885B1A9A4240D22D4B01221A7003B01F
:1004700030BD2C492C48FFF7BFFF58B3274B032250
:100480001B688DF800206846984703B030BD274BA5
:10049000274D1A78C168AA5C01918DF800409AB97D
:1004A000244903F10C00012200F00EFC1B4B6846AE
:1004B0001B68984703B030BD184B01901B688DF83E
:1004C000004068469847C9E71A49181D012200F004
:1004D00079FEEBE71548164A0378D35CB3B11149AE
:1004E0000122043000F00CFEA4E71048104A037803
:1004F000D35C2BB10F490122043000F063FE99E771
:100500000C4901220C3000F0DFFB93E70549012282
:100510000C3000F065FB8DE7A8000020A40000204F
:10052000B8000020D0000020BC0000200000002007
:1005300048030020CC0000202DE9F041334D8AB063
:100540002A60002956D08A8880460D4630480968BE
:100550001C46FFF729FF10B10AB0BDE8F081AA8957
:10056000A9682C48FFF720FF0028F5D12A4E98F8FB
:1005700010C02A4F0FCE02AD0FC596E80F0098F8B5
:100580001160BCF1000C85E80F0018BF4FF0010CA2
:10059000D8F804300193002ED8F81430D8F8085059
:1005A0008DF8244014BF0E220022D8F80C40D8F851
:1005B00000608DF81D200893194A019B8DF81CC01E
:1005C00002A93846CDE904450396029300F0F6F8F7
:1005D0000028C1D1D8F80030124A01331070BBD0C6
:1005E000114A3B78D35C4BB11049381D012200F011
:1005F000E9FDB1E707200AB0BDE8F0810B4907F13A
:100600000C00012200F060FBA6E700BFA400002060
:10061000A8000020BC000020882700000000002067
:1006200025040000B800002048030020CC00002072
:1006300070B5114D014611482E78FFF7DDFE0446D6
:100640000EB9204670BD0E480E4A0378D35C0022D6
:100650002A7053B10C490430012200F0B3FD002888
:10066000EFD0FFF777FE204670BD074901220C301E
:1006700000F02AFBF3E700BFB8000020A80000202C
:100680000000002048030020CC00002070B5014687
:100690001548FFF799FE044608B1204670BD134D7A
:1006A000134E2B78F35CA3B1281D00F07DFD0028CC
:1006B000F3D110490C48FFF79FFE0028EDD12B78AD
:1006C0000C49F35C01224BB1BDE870400A4800F0D0
:1006D00017BD05F10C0000F0EBFAE8E7BDE870404B
:1006E000064800F07DBA00BFBC00002000000020DA
:1006F00048030020D0000020040000200C0000204F
:1007000072B6024A1368013313607047D4000020A8
:10071000034A1368013B136003B962B6704700BF18
:10072000D400002070B5161E07DD0C468D1914F894
:10073000010BFFF7ABFFA542F9D1304670BD00BFFA
:1007400010B50C462046FFF773FF0528FAD00120AC
:1007500010BD00BF30B585B0047845688DF8004005
:10076000D0E90240064A074B039053F82130019527
:1007700052F821108DF808406846984705B030BD02
:10078000D8000020DC00002030B585B00478456832
:100790008DF80040D0E90240064A074B039053F819
:1007A0002130019552F821108DF80840684698478D
:1007B00005B030BDD8000020DC000020F0B51A4B99
:1007C00090F800C0194C1A4D91F81DE044F82C2007
:1007D0000746086945F82C0003F80CE00C4616465D
:1007E0000FCC89B06D460FC594E80F0085E80F0067
:1007F000CDF810C0BEF1000F0AD0002E0D4A694698
:1008000007F1040008BF324600F098FB09B0F0BDC4
:10081000002E094A694607F10C0008BF324600F075
:1008200011F909B0F0BD00BF48030020DC00002032
:10083000D80000205507000089070000014B1B6805
:10084000184700BFE000002038B50C4B984213D188
:1008500000200D46FFF754FF094B1C7924B10020FE
:10086000FFF756FF112038BD012220461D601A7186
:10087000FFF74EFF204638BD002038BD0020004065
:10088000E000002030B56D4AD2F8043399058BB0F2
:1008900068D5D2F82431002B64D00023C2F824316B
:1008A000D2F8243103934FF40171654B0398C2F8D9
:1008B000081393F8291009B9012151605F490222F8
:1008C0008DF81820D1F88024C1F880249869D9685F
:1008D000099200240025CDE90710C3E90645D3E9B4
:1008E000001206A89047554AD2F81C31C3B1544BA8
:1008F000186A596988426AD293F8280000F0FF0408
:10090000002864D1C2F81C41D2F81C11029102994E
:100910009C68186A196A205C01311962C2F81C05CA
:10092000464AD2F84431DBB10021454BC2F84411AC
:10093000D2F8440193F829100090009809B10121E0
:1009400011609A6962B1586AD96800229A610122DD
:10095000CDE907108DF8182006A8D3E900129047BA
:100960000BB030BD354AD2F804335B07BBD5D2F8A3
:100970000831002BB7D0324B996900293CD00021B7
:10098000C2F80811D2F8081104910499D868596A7C
:10099000D2F8182542545A6A996901325A625A6A41
:1009A0008A42A0D1DA69002A2FD0DD685C6A186912
:1009B0009A6101210022D860DA615A628DF818101C
:1009C000CDE90754D3E9001206A890478BE71B4AEC
:1009D0000020C2F81C01D2F81C210192019A0029C2
:1009E0009ED09A688DF8180008915861079206A861
:1009F000D3E90012904793E7C2F80811D2F8080132
:100A000005900598D2F81825C9E793F8292012B95E
:100A10000A4A01215160094A4FF40171C2F80813D2
:100A2000596ADA6808910024012007928DF81800AD
:100A3000D3E900129C6106A8904754E700200040CB
:100A4000E80000202DE9F041604F06792C2303FBDC
:100A5000067382B093F82A30002B40F08980054657
:100A60000C4600685A499046FFF7EEFE00287BD1FD
:100A70002368591C0CD001224FF0A04102FA03F365
:100A8000C1F80835236803F5E073032241F82320F9
:100A900063685A1C06D003F5E0734FF0A0420021B2
:100AA00042F823102B68A269C3F82425217D637DB9
:100AB0002A680B43C2F86C35D4E900122B68C3F8DE
:100AC0001425C3F80C15237D012B5DD02C2303FBCB
:100AD00006F3FA18C2F804802269FA50B8F1000F40
:100AE0002FD02A68237F3B4C0021C2F81C11D2F87A
:100AF0001C2100922A68DDF800C0C2F84411D2F827
:100B000044112A6801910199C2F804432A6842F30A
:100B1000073100294FEA12322EDB01F1604101F565
:100B200061415B01DBB281F800332B682A4C43F34F
:100B300007325209C3F30433012101FA03F344F8E5
:100B400022302C23296803FB06760424002301228B
:100B5000C6E90633C1F8004586F82A2086F8293010
:100B6000736102B0BDE8F081112002B0BDE8F081F0
:100B7000082002B0BDE8F081184902F00F025B01C5
:100B80001144DBB20B76D0E7A368591C06D003F5FD
:100B9000E0734FF0A042002142F82310E3685A1C92
:100BA0000DD001224FF0A04102FA03F3C1F808353D
:100BB000E36803F5E073032241F82320E3682A6821
:100BC000A168C2F80835C2F810157FE7E8000020D8
:100BD000850800008000020000E100E0FCEC00E07D
:100BE0002DE9F041314E05792C2303FB05630446C2
:100BF000586984B000284CD11862996083F82800A5
:100C00005A612268C2F81C01D2F81C1122680291B4
:100C10000121029F91602268D3F808C0C2F81C012C
:100C2000D2F81C11019101991F6A196A1CF807700A
:100C300001311962C2F81C755A6812B104B0BDE8DE
:100C4000F0811A6A5F692168BA421BD2864602E0C7
:100C500093F828200ABBD1F81C21002AF8D0C1F84B
:100C60001CE1D1F81C210392039AD3F820801A6A60
:100C70001CF8088001321A62C1F81C851A6ABA424F
:100C8000E9D32168D1F81C31002BFBD00123CB60C4
:100C900004E0112004B0BDE8F0810F202C2303FBF9
:100CA000056500236B6104B0BDE8F081E800002019
:100CB0000379044A2C2101FB03235869003818BF2B
:100CC00001207047E8000020F0B4504F06792C2333
:100CD00003FB067386B05D68044625B103684FF4D4
:100CE0000170C3F808032C2303FB0673986990B1C5
:100CF000D86900287CD11961DA612C2303FB0673C3
:100D00005A683AB323684FF40172C3F804230020F1
:100D100006B0F0BC704793F829509A61D9605862C8
:100D2000D861002DE9D12368C3F82451D3F82421D8
:100D300023680192019AC3F80851D3F80821236867
:100D40000292012202991A602C2303FB06735A684F
:100D5000002AD7D12168C1F84421D1F84421039257
:100D6000039A2268D2F82411D2F80851D2F844012B
:100D700055B9002833D10029F4D02C2303FB067683
:100D80000023B3610320C3E70029F6D148BB99696A
:100D9000C2F8080181B1D2F8081104910499DD6804
:100DA000596AD2F818256A545A6A996901325A6206
:100DB0005A6A9142D5D806E0D2F8081105910599F2
:100DC000D2F818255B6A2C2303FB0676002296F8DE
:100DD0002930B261A3B1236801221A6098E7002983
:100DE000CBD12C2303FB06760023B3610F208FE7C2
:100DF00055B123684FF40172C3F80423112087E72B
:100E0000236801225A6083E7112081E7E80000206F
:100E100030B5484BD3F8242189B0002A57D000229E
:100E2000C3F82421D3F82421029202228DF8102045
:100E3000029AD3F88014404AC3F880140791D3F87B
:100E40003C15D3680691002400250593C2E90645A8
:100E50001168536804A89847364BD3F844214AB127
:100E60000021354AC3F84411D3F844019169019037
:100E70000198D9B92F4BD3F82021AAB10021C3F88A
:100E80002011D3F820012C4A00900098506958B1E5
:100E9000D3F84C05936806908DF8101051610593B6
:100EA00004A8D2E90013984709B030BDD3F83C3507
:100EB000D168069300240025012305918DF8103098
:100EC000C2E90645D2E9001304A89847D2E7D3F84F
:100ED00010110029C0D0C3F81021D3F81011164802
:100EE000039103998469D3F83C15A142B4D1C46934
:100EF000A4B1D3F80052846125F02005C3F8005254
:100F0000D0E90343C26101220691C36001684368CE
:100F100005948DF8102004A898479DE7C268846165
:100F20000123CDE905218DF81030D0E9001304A884
:100F3000984791E700200040180100202DE9F04378
:100F400007796A4E07EBC70306EB830385B093F876
:100F50002030002B40F09B8004460D460068644919
:100F60009146FFF771FC002840F08D802B68591CDA
:100F70004FEAC7080CD001224FF0A04102FA03F358
:100F8000C1F808352B6803F5E073032241F82320EC
:100F90006B685A1C06D003F5E0734FF0A0420021A5
:100FA00042F823102368A969C3F82415297D6A7DB6
:100FB00023680A43C3F86C25D5E900312268C2F8DA
:100FC0000C35C2F814152B7D012B6CD008EB0702F1
:100FD00006EB8203C3F804902B6946F82230B9F17E
:100FE000000F3FD021682B7F424D0022C1F8102115
:100FF000D1F8101100912168DDF800C0C1F820215E
:10100000D1F8201101912168DDF804C0C1F8242134
:10101000D1F8241102912168DDF808C0C1F84421FB
:10102000D1F84411226803910399C2F8045322684D
:1010300042F3073100294FEA12322CDB01F1604103
:1010400001F561415B01DBB281F8003323682A4D71
:1010500043F307325209C3F30433012101FA03F3C6
:1010600045F822304744226806EB87060023012416
:101070000821C2F80015C6E9063386F820407361DE
:1010800005B0BDE8F083112005B0BDE8F08308206D
:1010900005B0BDE8F083194902F00F025B0111446D
:1010A000DBB20B76D2E7AB68591C06D003F5E073D0
:1010B0004FF0A042002142F82310EB685A1C0DD0DB
:1010C00001224FF0A04102FA03F3C1F80835EB68A2
:1010D00003F5E073032241F82320EB682268A96836
:1010E000C2F80835C2F8101570E700BF18010020DB
:1010F000110E00001003020000E100E0FCEC00E033
:10110000F0B401F06044B4F1005F82B02CD10579F5
:10111000244E05EBC50406EB840403466069EF002A
:10112000002839D16261A1601A68C2F82001D2F8A2
:1011300020C11A68CDF804C0DDF804C0C2F8580117
:10114000D2F8582100921A68DDF800C0D4F814C013
:10115000C2F84415C2F848C51A6801219160626856
:1011600032B102B0F0BC7047102002B0F0BC704742
:101170001B6800E0A0B9D3F82021D3F85801002A59
:10118000F8D0002818BF0F207B1906EB830300223C
:101190005A6102B0F0BC7047112002B0F0BC704739
:1011A0000F20F1E7180100200379054A03EBC30380
:1011B00002EB83035869003818BF0120704700BF55
:1011C0001801002001F06043B3F1005F5ED1F0B47C
:1011D0000479474D04EBC40605EB860682B07668B9
:1011E000E30026B107684FF4047CC7F808C3234422
:1011F00005EB83039C694CBB9A61DC61D960036891
:10120000C3F81041D3F8106103680196019EC3F83A
:101210004441D3F8444103680094009CC3F834155A
:10122000C3F83825036801221A60047904EBC4036B
:1012300005EB8303E6005B6853B303684FF4047265
:10124000C3F80423002002B0F0BC7047DC69002C16
:1012500037D11961DA610368C3F81041D3F810611E
:1012600003680196019EC3F84441D3F844410368E2
:101270000094009CC3F83415C3F838250268D2F8EE
:10128000003243F02003C2F80032CEE7102070474E
:10129000036801E0E9B910BBD3F81021D3F8441179
:1012A000D3F82401002AF5D0344400284FF000037D
:1012B00005EB840518BF0320994218BF0F20AB61CE
:1012C000C1E796B103684FF40472C3F804231120F8
:1012D000B9E7344405EB84050F20AA61B3E7344431
:1012E00005EB84050320A961ADE71120ABE700BF42
:1012F000180100200378022B02D0012B00D0704788
:101300004068FFF727B800BF30B501208BB01A4DF9
:10131000FEF7F2FF194B00930FCD04AC0FC495E814
:101320000300174D174A84E8030007234FF4807425
:10133000694604A8CDE902540194FFF7FDF8B8B955
:10134000114800F03FFA6846FFF772F90028FAD119
:101350009DF80000FFF79AF90028F9D19DF80030B8
:1013600003F0DF03512BEED1084800F02BFAFEE723
:10137000FEF7F0FFE4E700BFD02700003C010020AB
:101380003C020020F5120000A8270000C42700003E
:1013900030B4B84B1B78062B20D0B74B1B68062BFC
:1013A00000F08180B54AD2F8883043F47003C2F867
:1013B0008830BFF34F8FBFF36F8F4FF01023D3F8F8
:1013C0000022002AC0F28681D3F80432002BC0F23A
:1013D0008181AB4BAB4A1A6030BC7047AA4B1B688B
:1013E0001D07DAD1A94B1B6803F0F002302A00F088
:1013F0009B8003F0E003402B00F09680A34B1B681A
:1014000003F0F003302B00F0A080A04B1B6803F02A
:10141000F002302A77D003F0E003402B73D09B4BCF
:101420001B6803F0F003302B00F01481974B1B680E
:1014300003F0F002302A52D003F0E003402B4ED0EC
:10144000924B1B6803F0F003302B00F0F5808F4BBC
:101450001B6803F0F003302B00F0D7808B4B1B6828
:1014600003F0F003502B7ED0884B1B6803F0F00292
:10147000302A23D003F0E003402B1FD0834B1B689E
:1014800003F0F002302A03D003F0E003402B84D1B4
:101490004FF08043D3F80024D20744BF6FF001021D
:1014A000C3F8002479E77A4B1B68062B7FF47AAFE8
:1014B000784A136843F48063136073E7764B6D4A90
:1014C0001B681278754903F04F03062A0B607FF4FE
:1014D00064AF6D4B1B6819077FF45FAFCEE7654AB9
:1014E00011784FF0804300220629C3F80C21C3F87D
:1014F0001021C3F838257FF450AF634B1B681B07DE
:101500007FF44BAF9CE7664B5A4A1B6812786549DB
:10151000C3F34233062A0B607FF43FAF5A4B1B687C
:1015200019077FF43AAF7AE75F4B524A1B6812788B
:101530005E49C3F30423062A0B607FF42EAF524B9F
:101540001B681C077FF429AF58E74A4B584A1B78A1
:1015500058491160062B7FF420AF4B4B1B681807CE
:101560007FF41BAF51E74FF08052534BD2F8041475
:10157000C3F82015D2F80814C3F82415D2F80C14B7
:10158000C3F82815D2F81014C3F82C15D2F8141487
:10159000C3F83015D2F81814C3F83415D2F81C1457
:1015A000C3F84015D2F82014C3F84415D2F8241417
:1015B000C3F84815D2F82814C3F84C15D2F82C14E7
:1015C000C3F85015D2F83014C3F85415D2F83414B7
:1015D000C3F86015D2F83814C3F86415D2F83C1477
:1015E000C3F86815D2F840142248C3F86C15D2F835
:1015F00044140278C3F87015062A7FF4CEAE224B4D
:101600001B6818077FF4C9AE2EE71A4B2B4C1B78CA
:101610002B492C482C4A0525256001250D60002406
:101620003F21062B046011607FF4B7AE164B1B6898
:101630001C077FF4B2AE11E70E4B244A1B7803213E
:10164000062B11607FF4A9AE0F4B1B681D077FF4BA
:10165000A4AEFCE61E4A0749D368097823F08073DC
:101660000629D3607FF499AE074B1B681A077FF4F5
:1016700094AEDBE6E00F00F03001001000ED00E07A
:10168000140000200090D003E40F00F0E80F00F0F9
:10169000340100103C17004058020010E40E0040D6
:1016A000440200103C050040240300104035014076
:1016B00074C007400DF0ADBA00C0004010560040A5
:1016C000885600401856004014560040A0050040BF
:1016D000F0ED00E0184A0123C2F80435D2F80034D6
:1016E000002BFBD04FF010231521134AC3F8001232
:1016F000D2F80034002BFBD04FF0102315210E4AF6
:10170000C3F80412D2F80034002BFBD000230A499E
:10171000C2F80435D1F80034002BFBD0BFF34F8F53
:101720000649074BCA6802F4E0621343CB60BFF37B
:101730004F8F00BFFDE700BF00E0014000ED00E07B
:101740000400FA0508B5074B044613B10021AFF3B6
:101750000080054B1868836A03B19847204601F062
:1017600005F800BF00000000E827000070B50D4D2F
:101770000D4C641BA4100026A64209D10B4D0C4C45
:1017800000F0F6FF641BA4100026A64205D170BD30
:1017900055F8043B98470136EEE755F8043B984767
:1017A0000136F2E77C0000207C0000207C00002055
:1017B0008000002002440346934200D1704703F8A2
:1017C000011BF9E70FB40A4B13B51C6824B1A369D8
:1017D00013B9204600F066F805AB049AA16801939E
:1017E000204600F083F902B0BDE8104004B0704715
:1017F00018000020002310B50446C0E90033C0E9FA
:101800000433836081814366C28183611946082263
:101810005C30FFF7CFFF054B6362054BA362054BBE
:10182000E362054B2462236310BD00BF95200000D6
:10183000B7200000EF20000013210000014900F054
:10184000AFB800BFED23000070B54A1E68255543B0
:101850000E4605F1740100F0C5F8044640B10021C0
:10186000C0E900160C30A06005F16802FFF7A2FF86
:10187000204670BD014800F0B3B800BF51030020FE
:10188000014800F0AEB800BF51030020014800F04D
:10189000A7B800BF4C030020014800F0A2B800BF69
:1018A0004C03002010B50446FFF7F0FFA3691BB1FD
:1018B000BDE81040FFF7F0BFC4E912332365134BB6
:1018C000134A1B68A262A34204BF0123A3612046FE
:1018D00000F020F86060204600F01CF8A060204670
:1018E00000F018F80022E06004216068FFF782FF32
:1018F000A06801220921FFF77DFFE0680222122182
:10190000FFF778FF0123A361D2E700BFE8270000BB
:101910003D180000F8B50746FFF7ACFF1E4B1E68E8
:10192000B36913B93046FFF7BDFF4836D6E9013435
:10193000013B03D533680BB33668F7E7B4F90C50B5
:10194000D5B9164BE36004F15800656600F047F81E
:10195000FFF796FFC4E90155C4E904552560A56168
:101960000822294604F15C00FFF724FFC4E90D5565
:10197000C4E912552046F8BD6834D9E70421384639
:10198000FFF762FF044630600028D5D1FFF778FFEB
:101990000C233B60EEE700BFE82700000100FFFFDB
:1019A0002DE9F8430646884600F148040027D4E9AB
:1019B0000195B9F1010905D52468002CF7D1384605
:1019C000BDE8F883AB89012B07D9B5F90E30013397
:1019D00003D029463046C04707436835E9E77047DA
:1019E00070477047F8B5CD1C25F0030508350C2D60
:1019F00038BF0C25002D064601DBA94203D90C2374
:101A000033600020F8BD00F0F3FD21490A68144658
:101A10009CB9204F3B6823B92146304600F02AFB91
:101A200038602946304600F025FB431C23D10C23A7
:101A30003360304600F0E2FDE3E723685B1B17D418
:101A40000B2B03D923601C44256004E06368A24289
:101A50000CBF0B605360304600F0D0FD04F10B006A
:101A6000231D20F00700C21ACCD01B1AA350C9E7CF
:101A700022466468CCE7C41C24F00304A042E3D0EF
:101A8000211A304600F0F6FA0130DDD1CFE700BF71
:101A90003C030020400300209368013B002B10B45E
:101AA000936008DA9469A34201DB0A2903D15DF847
:101AB000044B00F033BB1368581C106019700846C3
:101AC0005DF8044B7047F8B506460F461446D51826
:101AD000AC4201D1002007E014F8011B3A46304621
:101AE000FFF7DAFF431CF3D1F8BD00002DE9F04FFA
:101AF0000D469DB014469846064618B183690BB949
:101B0000FFF7D0FE894B9D421BD175686B6ED907DC
:101B100005D4AB899A0502D4A86DFFF761FFAB89A4
:101B20001B0701D52B69EBB92946304600F05AFB5B
:101B3000C0B16B6EDC070ED54FF0FF301DB0BDE8B5
:101B4000F08F7B4B9D4201D1B568DFE7794B9D4219
:101B500008BFF568DAE7AB899805EDD4A86DFFF703
:101B600040FFE9E70023099320238DF82930CDF8C1
:101B70000C803023DFF8C0818DF82A304FF0010946
:101B800023469A4613F8012B0AB1252AF9D1BAEB5C
:101B9000040B0BD05B46224629463046FFF793FFE5
:101BA000013000F0AA80099A5A4409929AF800304C
:101BB000002B00F0A28000234FF0FF32CDE9052377
:101BC0000AF1010A049307938DF853301A9354468F
:101BD000052214F8011B584800F0BAFC049AD8B941
:101BE000D10644BF20238DF85330130744BF2B2365
:101BF0008DF853309AF800302A2B15D0079A5446A6
:101C000000204FF00A0C214611F8013B303B092B14
:101C10004ED9B0B1079214E0A0EB080309FA03F320
:101C200013430493A246D2E7039B191D1B6803913B
:101C3000002BBBBF5B4242F0020207930793B8BF81
:101C4000049223782E2B0CD163782A2B35D1039B59
:101C50001A1D1B680392002BB8BF4FF0FF330234EC
:101C60000593DFF8E4A021780322504600F070FCD1
:101C700040B14023A0EB0A0003FA00F0049B0343A9
:101C80000134049314F8011B2C488DF82810062207
:101C900000F05EFC00283FD0294B1BBB039B0733A1
:101CA00023F0070308330393099B3B44099367E739
:101CB0000CFB02320C460120A5E7002301340593FA
:101CC00019464FF00A0C204610F8012B303A092A29
:101CD00003D9002BC5D00591C3E70CFB01210446B5
:101CE0000123F0E703AB00932A46164B04A93046C4
:101CF000AFF300800746781CD6D16B6ED90705D4A8
:101D0000AB899A0502D4A86DFFF76BFEAB895B0621
:101D10003FF512AF099811E703AB00932A46094B30
:101D200004A9304600F080F8E4E700BF0C2800006A
:101D30002C280000EC2700004C280000562800004A
:101D400000000000C71A0000522800002DE9F047EB
:101D5000164699468A680B69DDF820809342B8BF21
:101D60001346336091F8432007460C460AB101330D
:101D700033602368990642BF3368023333602568B5
:101D800015F0060506D104F1190AE36832689B1ABA
:101D9000AB4226DC94F84320131E226818BF0123AF
:101DA00092062BD404F1430249463846C04701301D
:101DB0001ED02368E568326803F00603042B08BFD1
:101DC000AD1AA36822690CBF25EAE5750025934288
:101DD000C4BF9B1AED1800261A34B5421AD1002050
:101DE00008E00123524649463846C047013003D136
:101DF0004FF0FF30BDE8F0870135C6E7E1185A1C07
:101E0000302081F84300224494F8451082F84310B2
:101E10000233C7E70123224649463846C04701300E
:101E2000E6D00136D9E700002DE9FF470C46914680
:101E3000277E0C99782F80469A4604F1430207D8F2
:101E4000622F0AD8002F00F0D880582F00F0A3800E
:101E500004F1420684F842703AE0A7F16303152BBF
:101E6000F6D801A050F823F0C11E0000D51E0000D6
:101E7000511E0000511E0000511E0000511E0000A6
:101E8000D51E0000511E0000511E0000511E000012
:101E9000511E0000E11F0000051F0000C31F0000CD
:101EA000511E0000511E000003200000511E0000C2
:101EB000051F0000511E0000511E0000CB1F000036
:101EC0000B681A1D1B680A6004F1420684F8423050
:101ED0000123A3E0256808682E0600F104030AD553
:101EE00005680B60002D03DA2D236D4284F8433022
:101EF0005E480A2319E015F0400F05680B6018BF13
:101F00002DB2EFE70B682568181D0860280601D57B
:101F10001D6802E06906FBD51D8854486F2F0CBF71
:101F200008230A23002184F843106668A660002E67
:101F3000A2BF216821F0040121600DB9002E4DD00F
:101F40001646B5FBF3F103FB1157C75D06F8017D9B
:101F50002F46BB420D46F4D9082B0BD12368DF076F
:101F600008D5236961689942DEBF302306F8013C39
:101F700006F1FF36921B2261CDF800A04B4603AA62
:101F800021464046FFF7E2FE01304CD14FF0FF30D2
:101F900004B0BDE8F087354884F8457023680E68C2
:101FA0001F0656F8045B0E6014D5D90744BF43F0F2
:101FB000200323601DB9236823F02003236010232E
:101FC000B0E7236843F0200323607823284884F88F
:101FD0004530E3E75E0648BFADB2E6E71646BBE72D
:101FE0000B68266860691D1D0D6035061B6801D5EC
:101FF000186002E07106FBD51880002323611646A5
:10200000BAE70B681A1D0A601E6862680021304634
:1020100000F09EFA08B1801B6060636823610023B2
:1020200084F84330A8E72369324649464046D04702
:102030000130ABD023689B0713D4E068039B984220
:10204000B8BF1846A4E70123324649464046D04768
:1020500001309BD00135E36803995B1AAB42F2DC97
:10206000EBE7002504F11906F5E700BF5D28000045
:102070006E28000038B5064D0023044608462B6044
:1020800000F066FB431C02D12B6803B1236038BD0E
:102090005403002010B50C46B1F90E1000F004FBFB
:1020A0000028ABBF636DA3891B1823F48053ACBF1A
:1020B0006365A38110BD2DE9F0411F468B89DB05C7
:1020C00005460C46164605D5B1F90E10022300222E
:1020D00000F0C8F9A389B4F90E1023F48053A3814A
:1020E00032463B462846BDE8F04100F069B810B5DD
:1020F0000C46B1F90E1000F0B5F9431CA38915BFC9
:10210000606523F4805343F48053A38118BFA381F7
:1021100010BDB1F90E1000F0D3B80000F8B50E46AE
:102120001446054618B183690BB9FFF7BBFB214B79
:102130009C422BD16C68A369A360A3891A072FD591
:1021400023696BB323692068C01A6369F6B28342BE
:10215000374604DC2146284600F048F930BBA36826
:10216000013BA36023685A1C22601E706369013022
:10217000834204D0A389DB0706D50A2E04D1214669
:10218000284600F033F988B93846F8BD0A4B9C421E
:1021900001D1AC68CFE7094B9C4208BFEC68CAE7A5
:1021A0002146284600F01EF80028CBD04FF0FF371C
:1021B000EAE700BF0C2800002C280000EC270000F4
:1021C00038B5074D04460846114600222A601A46D3
:1021D000FEF7A8FA431C02D12B6803B1236038BD77
:1021E00054030020324B70B51D6806460C4625B1DD
:1021F000AB6913B92846FFF755FB2E4B9C420FD114
:102200006C68A389B4F90C2019072CD4DD0611D40D
:102210000923336042F04003A3814FF0FF303EE0DA
:10222000254B9C4201D1AC68EBE7244B9C4208BF94
:10223000EC68E6E7580712D5616B41B104F144033D
:10224000994202D0304600F0DFF900236363A3898E
:1022500023F02403A3810023636023692360A389FF
:1022600043F00803A38123694BB9A38903F42073C6
:10227000B3F5007F03D02146304600F029F9A0894C
:10228000B4F90C2010F001030AD00023A3606369A5
:102290005B42A361236943B910F08000BAD170BDDD
:1022A000810758BF6369A360F4E70020F7E700BF28
:1022B000180000200C2800002C280000EC2700004B
:1022C00038B5064D0023044608462B6000F020FA7E
:1022D000431C02D12B6803B1236038BD5403002096
:1022E0008A892DE9F041054610070C4658D44B6801
:1022F000002B05DC0B6C002B02DC0020BDE8F0811C
:10230000E66A002EF9D0002312F480522F682B6069
:1023100032D0606DA3895A0705D56368C01A636B14
:102320000BB1236CC01A00230246E66A216A2846D4
:10233000B047431CA38906D129681D292CD82A4AF5
:10234000CA40D60728D500226260D90422692260DB
:1023500004D5421C01D12B6803B96065616B2F6005
:102360000029CAD004F14403994202D0284600F063
:102370004BF900206063C1E7216A01232846B0477A
:10238000411CC7D12B68002BC4D01D2B01D0162BAC
:1023900001D12F60B1E7A38943F04003A381ADE7EA
:1023A0000F69002FA9D093070E6808BF4B690F6013
:1023B00018BF0023A6EB07088B60B8F1000F9CDD67
:1023C000216AA66A43463A462846B047002806DCFA
:1023D000A38943F04003A3814FF0FF308EE7074409
:1023E000A8EB0008E9E700BF0100402038B50B6901
:1023F00005460C4613B90025284638BD18B1836937
:102400000BB9FFF74FFA144B9C421BD16C68B4F91F
:102410000C30002BEFD0626ED00704D4990502D4A3
:10242000A06DFFF7DDFA28462146FFF759FF636EDE
:10243000DA070546E0D4A3899B05DDD4A06DFFF73C
:10244000D0FAD9E7054B9C4201D1AC68DFE7044BD9
:102450009C4208BFEC68DAE70C2800002C2800003A
:10246000EC27000038B5074D044608461146002207
:102470002A601A4600F064F9431C02D12B6803B1AC
:10248000236038BD5403002070B50E46B1F90E101C
:10249000002996B014461D4607DA00232B60B38945
:1024A0001A0610D44FF480630EE06A4600F00EF96D
:1024B0000028F2DB019A02F47042A2F500535A425E
:1024C0005A412A60EEE740230020236016B070BD19
:1024D0008B8973B59D0706460C4607D504F1470363
:1024E000236023610123636102B070BD01AB6A46C2
:1024F000FFF7CAFF009905463046FFF773FA48B95F
:10250000B4F90C309A05EFD423F0030343F002032F
:10251000A381E3E70D4BB362A389206043F08003FE
:10252000A381009B6361019B20615BB1B4F90E1034
:10253000304600F0DDF828B1A38923F0030343F00F
:102540000103A381A0890543A581CDE73D180000C3
:1025500001F0FF01102A2BDB10F0070F08D010F854
:10256000013B013A8B422DD010F0070F42B3F6D158
:10257000F0B441EA012141EA014122F007047FF071
:1025800000070023F0E80256083C85EA010586EAC8
:10259000010685FA47F5A3FA87F586FA47F6A5FA04
:1025A00087F68EB9EED1F0BC01F0FF0102F0070210
:1025B00032B110F8013B013A83EA010313B1F8D1BB
:1025C0000020704701387047002D06BF354603389C
:1025D000073815F0010F07D1013015F4807F02BFD5
:1025E000013015F4C03F0130F0BC0138704700BF26
:1025F0000148FFF7F5B900BF4D0300200148FFF780
:10260000F0B900BF4D03002037B5002948D051F87C
:10261000043C0190002BA1F10404B8BFE418FFF7BB
:10262000E7FF204A01981368154633B963601460C8
:1026300003B0BDE83040FFF7E1BFA3420BD92168EA
:102640006218934204BF1A685B68636004BF521843
:1026500022602C60ECE71A465B680BB1A342FAD902
:1026600011685518A5420BD1246821445418A3427F
:102670001160DDD11C685B68536021441160D7E7AD
:1026800002D90C230360D3E7256861198B4204BF8C
:1026900019685B68636004BF491921605460C7E72B
:1026A00003B030BD3C03002038B5074D0446084652
:1026B000114600222A601A46FEF742F8431C02D156
:1026C0002B6803B1236038BD5403002038B5074D93
:1026D00000230446084611462B6000F021F8431CF5
:1026E00002D12B6803B1236038BD00BF5403002022
:1026F00038B5064D0023044608462B6000F018F854
:10270000431C02D12B6803B1236038BD5403002061
:10271000024B58221A604FF0FF30704754030020DC
:10272000024B58221A604FF0FF30704754030020CC
:10273000024B58221A600020704700BF540300204B
:10274000024B58221A604FF0FF30704754030020AC
:10275000044A05491368002B08BF0B461844106053
:10276000184670474403002058030020FEE700BFCE
:10277000F8B500BFF8BC08BC9E467047F8B500BF6E
:10278000F8BC08BC9E467047FFFFFFFFFFFFFFFF3E
:10279000FFFFFFFFFFFFFFFF000000000000000041
:1027A0000000D601060100000D0A55415254206573
:1027B00078616D706C6520737461727465642E0D40
:1027C0000A000000200D0A45786974210D0A0000F6
:1027D00008000000060000000500000007000000DF
:1027E0000000000000E0D7011C00002000000000F5
:1027F00000000000000000000000000000000000D9
:1028000000000000000000000000000000000000C8
:1028100000000000000000000000000000000000B8
:1028200000000000000000000000000000000000A8
:102830000000000000000000000000000000000098
:10284000000000000000000000000000232D302BDD
:102850002000686C4C0065666745464700303132A1
:1028600033343536373839414243444546003031F8
:102870003233343536373839616263646566000057
:042880000000000054
:08288400BCD9FF7F0100000038
:10288C00000000000020004000000000002000407C
:10289C00000000000090D0031C000020000000008D
:1028AC000C2800002C280000EC2700000000000081
:1028BC00000000000000000000000000000000000C
:1028CC0000000000000000000000000000000000FC
:1028DC0000000000000000000000000000000000EC
:1028EC0000000000000000000000000000000000DC
:1028FC0000000000000000000000000025020000A5
:04290C0001020000C4
:04000003000002BD3A
:00000001FF
